:1000000087C20000A4C20000FEC70000A0C200001A
:100010000C94AF179CC200009AC2000098C2000066
:1000200096C2000094C2000092C2000090C200007C
:100030008EC200008CC200000C94EC0C88C2000040
:1000400086C2000084C2000082C2000080C200009C
:10005000C3C500007CC200007AC2000078C2000064
:1000600076C2000074C2000072C2000070C20000BC
:100070006EC200006CC200006AC2000068C20000CC
:1000800066C2000064C2000062C2000060C20000DC
:100090005EC200005CC200005AC2000058C20000EC
:1000A00056C2000054C2000052C2000050C20000FC
:1000B0004EC200004CC200004AC200000C94EE1474
:1000C00046C2000044C2000042C2000040C200001C
:1000D0003EC200000C94700A3AC2000038C2000010
:1000E00036C2000034C2000032C2000030C200003C
:1000F0002EC200002CC200002AC2000028C200004C
:100100000C94F11724C2000022C2000020C200009B
:100110001EC200001CC200001AC2000018C200006B
:1001200016C2000014C2000012C2000010C200007B
:100130000EC2000031C600000AC2000008C2000062
:1001400006C2000004C2000002C2000000C200009B
:10015000FEC10000FCC10000FAC10000F8C10000AF
:100160000C94870AF4C10000F2C10000F0C1000045
:10017000EEC10000ECC10000EAC10000E8C10000CF
:10018000E6C10000E4C10000E2C10000E0C10000DF
:10019000DEC10000DCC10000DAC10000D8C10000EF
:1001A000D6C10000D4C10000D2C10000D0C10000FF
:1001B000CEC10000CCC10000CAC10000C8C100000F
:1001C000C6C10000C4C10000C2C10000C0C100001F
:1001D000BEC10000BCC10000BAC10000B8C100002F
:1001E000B6C10000B4C10000B2C10000B0C100003F
:1001F000AEC10000ACC10000AAC1000059037703E2
:1002000081038B0395039F03A90363036D039C077D
:100210002C072C07900790071F072607ED08EF080B
:10022000F108F308F508F708F908FB08570D900DD9
:10023000AB0DCC0DED0D0E0E2F0E500E710E0E0FE0
:10024000920EB30ED80EF30E2F0F500F710F920FA8
:10025000B30FD40FF50F16103710581079109A10ED
:10026000DC10BB10FD1034111F120B127C12CF11C9
:10027000E311F7117C127C127C127C127C127C122E
:100280007C127C127C127C127C127C127C127C12FE
:100290007C127C127C127C127C127C127C127C12EE
:1002A0007C127C127C127C127C127C127C127C12DE
:1002B0007C127C127C127C127C127C127C127C12CE
:1002C0007C127C127C127C127C127C127C127C12BE
:1002D0007C127C127C127C127C127C127C127C12AE
:1002E0007C127C127C127C127C127C127C127C129E
:1002F0007C127C127C127C127C126B117F11931188
:10030000A711BB117C127C127C127C127C127C1215
:100310007C127C127C127C127C127C127C127C126D
:100320007C127C127C127C127C127C127C127C125D
:100330007C127C127C127C127C127C127C127C124D
:100340007C127C127C127C127C127C127C127C123D
:100350007C127C127C127C127C127C127C127C122D
:100360007C127C127C127C127C127C127C127C121D
:100370007C127C127C127C127C127C127C127C120D
:100380007C127C127C127C127C127C127C127C12FD
:100390007C127C127C127C127C127C127C127C12ED
:1003A0007C127C127C127C127C127C127C127C12DD
:1003B0007C127C127C127C127C127C127C12331216
:1003C0003312331233123312331233123312331205
:1003D00033123312331233123312331233123312F5
:1003E0003312331233127C127C127C127C127C1278
:1003F0007C127C127C127C127C127C127C127C128D
:100400007C127C127C127C127C127C127C127C127C
:100410007C127C127C127C127C127C127C127C126C
:100420007C127C127C127C127C127C127C127C125C
:100430007C127C127C127C127C127C127C127C124C
:100440007C127C127C127C127C127C127C127C123C
:100450007C127C127C127C127C127C127C127C122C
:100460007C127C127C127C127C127C127C127C121C
:100470007C127C127C127C127C127C127C127C120C
:100480007C127C127C1258125812581258125812B0
:10049000581258125812581258125812581258120C
:1004A000581258125812581258125812581234151D
:1004B000741585159E15B715D015E9150216321657
:1004C0001B161C172C173C174A165B166C167D164C
:1004D0008E169F16B016C216D416E616F8160A1710
:1004E0005D1544156B2A772A832A8F2A9B2AA72A0F
:1004F000B32AC12ACF2ADD2AEB2AF92A072B152B8A
:10050000252B352B452B552B652B752B852B952BAB
:1005100011241FBECFEFCDBFDFE2DEBF1CE2A0E0A3
:10052000B0E2E6EDFFE300E00BBF02C007900D92E2
:10053000AA36B107D9F72FE2AAE6BCE201C01D92A4
:10054000A035B207E1F70E946F0B0C94E91F58CD5C
:100550002F923F924F925F926F927F928F929F92D3
:10056000AF92BF92CF92DF92EF92FF920F931F93C1
:10057000CF93DF93CDB7DEB7AF97CDBFDEBF7B01A3
:10058000292F30E08091EE2E813061F028F082300A
:1005900079F0833099F018C0F901E353F94D608088
:1005A000712C14C0F901E353FA4D6080712C0EC018
:1005B000F901E353FB4D6080712C08C0F901E3534E
:1005C000FC4D6080712C02C0612C712C8091EF2E4B
:1005D000863031F0853031F466246A94712C02C083
:1005E000612C712C23E0E216F104F9F04CF461E087
:1005F000E616F10471F072E0E716F10471F045C0FF
:1006000084E0E816F104E9F095E0E916F10449F117
:100610003CC08091B62390E03AC02091B6238091EF
:10062000B52390E0820F911D32C02091B6238091B6
:10063000B52390E0820F911D2091B423820F911D6C
:1006400026C02091B6238091B52390E0820F911DA2
:100650002091B423820F911D2091B323820F911D0D
:1006600016C02091B6238091B52390E0820F911D92
:100670002091B423820F911D2091B323820F911DED
:100680002091B223820F911D02C080E090E08C0186
:10069000000F111F080F191FE091C5238E2F90E046
:1006A0008930910508F05FC0FC01E250FF4F0C94C7
:1006B000411CC0905F22D0906022A0916122AF8B3C
:1006C0002BE432E256C0C0903122D0903222B09159
:1006D0003322BF8B23EC31E24CC0C0904822D09033
:1006E0004922E0914A22EF8B24E332E242C0C090DB
:1006F000D022D090D122F091D222FF8B22E632E29A
:1007000038C0C090DE20D090DF202091E0202F8BD9
:1007100028E930E22EC0C090C021D090C121409184
:10072000C2214F8B22E531E224C0C0904F21D090EE
:100730005021609151216F8B21EE30E21AC0C090A0
:100740009520D0909620709197207F8B2FE430E2F7
:1007500010C0C0904C20D0904D2080914E208F8BA7
:1007600026E030E206C020E030E01F8ACC24C394AB
:10077000D12C80E091E0B6010E941A1C5B01C301FC
:100780000E941A1CFB01982F80E0B5010E941A1CE0
:100790002B01AF01440F551FCF01880F991F880F00
:1007A000991F880F991F840F951FCE16DF0629F019
:1007B0003C01AAE06A0E711C01C03C0119821A8238
:1007C0004091C32350E04B835C834091C02350E0B1
:1007D0004D835E831F8218864091C22350E0498773
:1007E0005A874091BF2350E04B875C871D861E8649
:1007F0004091C12350E04F87588B4091BE2350E079
:10080000498B5A8B4091B623E42FF0E0E88FF98FA3
:100810004091B523642F70E06A8F7B8F4091B423A1
:10082000A42FB0E0AC8FBD8F4091B323E42FF0E054
:10083000EE8FFF8F4091B223642F70E068A379A3FD
:100840004091B123A42FB0E0AAA3BBA3A090BD23E5
:10085000B12C0958134DC12CD12CBAA1BCA3EBA1CA
:10086000EDA3F8A1FEA349A14FA36E8D68A77F8DCC
:1008700079A7AA8DAAA7BB8DBBA7E88DECA7F98D98
:10088000FDA74C8D4EA76D8D6FA7620E731E49019B
:10089000880E991E80E091E01C0124183508FCC0E8
:1008A000B6010D2C000C880B990B0E94D81A6B8B8B
:1008B0007C8B8D8B9E8B72E0E716F104C9F044F4BB
:1008C000E114F10479F091E0E916F104E9F40DC0C6
:1008D000A4E0EA16F10491F074F0E5E0EE16F104FC
:1008E00099F40FC06CA57DA511C06AA57BA50EC0AB
:1008F0006EA57FA50BC068A579A508C06EA17FA1D4
:1009000005C06CA17DA102C060E070E0072E000C64
:10091000880B990B0E94D81A9B01AC0160E070E033
:1009200080E191E40E943D1A2B893C894D895E89C2
:100930000E94B71B0E94131B0E94A51AF301E60F29
:10094000F71FA0810A2E000CBB0BFF89F13009F0C4
:100950006FC0F401E60FF71F8081AA0FBB1F61E093
:1009600070E06C0F7D1F6A0F7B1FDB012D913C91A6
:10097000429EF001439EF00D529EF00D11242F2F48
:100980003327A82FAA0FBB0BE1E0F0E0EC0FFD1F0F
:10099000EA0FFB1FEB8BFC8B40815181249EC00131
:1009A000259E900D349E900D1124E92FFF27E20F14
:1009B000F31FDB0116968D919C911797489E90012D
:1009C000499E300D589E300D1124432F5527AB8979
:1009D000BC8916962D913C911797229EC001239EAB
:1009E000900D329E900D1124292F3327240F351F8F
:1009F000DB011C968D919C911D97489EA001499EFC
:100A0000500D589E500D1124452F5527AB89BC8998
:100A10001C966D917C911D97269EC001279E900D7E
:100A2000369E900D1124892F9927480F591F13C006
:100A3000AA0FBB1FE1E0F0E0EC0FFD1FAE0FBF1FE0
:100A4000ED91FC91119716962D913C9117971C965C
:100A50004D915C911D97EA9DC001EB9D900DFA9D13
:100A6000900D1124D8019C932A9DC0012B9D900DBF
:100A70003A9D900D112411969C9311974A9DC001A7
:100A80004B9D900D5A9D900D112412969C93BFEF93
:100A9000CB1ADB0A0D5F1F4FE2E0EE16F10401F105
:100AA00044F4E114F10479F021E0E216F10489F054
:100AB00031C044E0E416F10409F1CCF075E0E7162A
:100AC000F10411F127C0888D998DC816D906F4F16B
:100AD0006DC0AA8DBB8DCA16DB060CF443C066C080
:100AE000EC8DFD8DCE16DF060CF448C05FC06E8D18
:100AF0007F8DC616D7060CF44DC058C088A199A1A9
:100B0000C816D9065CF052C0AAA1BBA1CA16DB0662
:100B10008CF04CC0DD200CF4C3CE48C0B6010D2CC7
:100B2000000C880B990B0E94D81A6B8B7C8B8D8BD9
:100B30009E8BE4CEB6010D2C000C880B990B0E9405
:100B4000D81A6B8B7C8B8D8B9E8BDBCEB6010D2CDC
:100B5000000C880B990B0E94D81A6B8B7C8B8D8BA9
:100B60009E8BC0CEB6010D2C000C880B990B0E94F9
:100B7000D81A6B8B7C8B8D8B9E8BB7CEB6010D2CD0
:100B8000000C880B990B0E94D81A6B8B7C8B8D8B79
:100B90009E8BAECEB6010D2C000C880B990B0E94DB
:100BA000D81A6B8B7C8B8D8B9E8BA5CEAF96CDBFD1
:100BB000DEBFDF91CF911F910F91FF90EF90DF90FB
:100BC000CF90BF90AF909F908F907F906F905F90ED
:100BD0004F903F902F9008951F920F920FB60F9253
:100BE00011240BB60F92AF92BF92CF92EF92FF9269
:100BF0001F932F933F934F935F936F937F938F93A5
:100C00009F93AF93BF93CF93DF93EF93FF93A12C69
:100C1000B12CEE24E394F12C1A2DC12CE7010A2CFF
:100C200002C0CC0FDD1F0A94E2F7DD2754C02091EB
:100C3000B62330E03AC08091B6232091B52330E04E
:100C4000280F311D32C08091B6232091B52330E0AA
:100C5000280F311D8091B423280F311D26C08091AB
:100C6000B6232091B52330E0280F311D8091B423A5
:100C7000280F311D8091B323280F311D16C080919C
:100C8000B6232091B52330E0280F311D8091B42385
:100C9000280F311D8091B323280F311D8091B2237D
:100CA000280F311D02C020E030E0F901EE0FFF1FD8
:100CB0002E0F3F1FCA01880F991F840F951FF9013E
:100CC000E80FF91FE958F34D9E014281618180814F
:100CD0000E946519C3944C2D50E01230D9F028F4CD
:100CE000112349F0113071F034C0143019F1D0F0F3
:100CF000153041F12EC08091B62390E04817590776
:100D000094F227C08091B52390E0481759070CF45E
:100D10008ECF1FC08091B42390E0481759070CF480
:100D20008ACF17C08091B32390E0481759070CF47D
:100D30008ACF0FC08091B22390E0481759070CF476
:100D40008ECF07C08091B12390E0481759070CF46B
:100D500096CF8FEFA81AB80A86E0A816B10409F05A
:100D60005BCFFF91EF91DF91CF91BF91AF919F91B9
:100D70008F917F916F915F914F913F912F911F9133
:100D8000FF90EF90CF90BF90AF900F900BBE0F9061
:100D90000FBE0F901F9018951F920F920FB60F92D3
:100DA00011240BB60F922F923F924F925F926F9247
:100DB0007F928F929F92AF92BF92CF92DF92EF92EB
:100DC000FF920F931F932F933F934F935F936F93D4
:100DD0007F938F939F93AF93BF93CF93DF93EF93C3
:100DE000FF938091F12E8111E9C00FE91EE20F2ED1
:100DF000F6EDEF2EFEE2FF2EF02D0F2EFBE6CF2EAE
:100E0000FCE2DF2EF02DC0E0D0E00F2EF5E66F2ED5
:100E1000712CF02D44244394512C88248A94982CCE
:100E2000A12CB12CE091EF2E8E2F90E08730910510
:100E300008F0B1C0FC01E95FFE4F0C94411CD701E2
:100E40008D929D92AD92BC921397A5C0F70110822E
:100E50001182128213829FC0D6018D919C91892BA1
:100E600081F58091C423A301481B510920910420DE
:100E700030910520429FC001439F900D529F900DDD
:100E80001124092E000CAA0BBB0BF80140815181E3
:100E900062817381840F951FA61FB71F8083918382
:100EA000A283B3838F3F9F4FA105B1050CF473C09C
:100EB000D6014D925C92F80180829182A282B38227
:100EC0006AC08091C4239301281B310980910420BA
:100ED00090910520289FA001299F500D389F500D0B
:100EE0001124052E000C660B770BF801808191818F
:100EF000A281B381841B950BA60BB70B80839183D2
:100F0000A283B383181619061A061B060CF443C0F5
:100F1000D6011D921C9210821182128213823BC054
:100F20000E94911C092E000CAA0BBB0BF8018083B8
:100F30009183A283B3832FC0F80120813181D7012F
:100F40008D919C9111978217930730F01D921D92FD
:100F50001D921C92139719C08091C423A301481BB2
:100F60005109CA010024969587950794969587950F
:100F70000794982F802D8217930728F4D901A81B76
:100F8000B90BCD0102C080E090E0A0E0B0E080832A
:100F90009183A283B383F80181919191A191B19141
:100FA0008F01BE01D5DA2196F4E0EF0EF11C22E0AC
:100FB000C20ED11CC630D10509F034CFFF91EF919C
:100FC000DF91CF91BF91AF919F918F917F916F9161
:100FD0005F914F913F912F911F910F91FF90EF9053
:100FE000DF90CF90BF90AF909F908F907F906F9049
:100FF0005F904F903F902F900F900BBE0F900FBEC1
:101000000F901F9018951F920F920FB60F921124F8
:101010000BB60F922F923F924F925F926F927F92F8
:101020008F929F92AF92BF92CF92DF92EF92FF92F8
:101030000F931F932F933F934F935F936F937F93E0
:101040008F939F93AF93BF93CF93DF93EF93FF93D0
:10105000E0E4F6E0008580916A2C08278085809383
:101060006A2C66ED7EE240E050E010E0A0E4B2E0E1
:10107000CC24C394D12C0F2EF0EAEF2EF6E0FF2EF5
:10108000F02DC0E4D6E0212C312CC801042E02C082
:10109000959587950A94E2F780FFCCC0942F990F1D
:1010A000990F990F2CE231E0412C512C320191968D
:1010B0009C93919792961C92929790968C91909770
:1010C000806890968C93909793968C9193978823B1
:1010D000D9F393968C91939793968C939397949638
:1010E0008D909C909597A12CB12C481459046A04BA
:1010F0007B0414F42401350121503109C1F69B0110
:10110000FB0180809180A280B38084149504A604A2
:10111000B7040CF04CC08091EF2E811148C04230D2
:101120005105C1F03CF44115510561F041305105C4
:1011300069F020C044305105A9F084F045305105D4
:10114000A9F018C08091BC2390E016C08091BB2309
:1011500090E012C08091BA2390E00EC08091B92334
:1011600090E00AC08091B82390E006C08091B72338
:1011700090E002C080E090E0480E591E611C711C96
:10118000762C652C542C442441145104F1E06F0654
:10119000710430F044244A9455245A94622C732CE0
:1011A00066247724F901408251826282738256015B
:1011B000042E02C0AA0CBB1C0A94E2F780916A2C90
:1011C0009A2D9095892380936A2C48305105A8F474
:1011D000FA01E25FFE4F0C94411C20E20FC020E1B7
:1011E0000DC028E00BC024E009C022E007C021E0C8
:1011F00005C020E403C020E801C020E0F70185819C
:10120000822B8583888590E0042E02C09595879572
:101210000A94E2F780FF0AC0F3E0FA95F1F70000C4
:10122000888590E08A219B21892BB1F7F70186817F
:10123000282B26834F5F5F4F6C5F7F4F48305105EF
:1012400009F023CFFF91EF91DF91CF91BF91AF9143
:101250009F918F917F916F915F914F913F912F91CE
:101260001F910F91FF90EF90DF90CF90BF90AF90C4
:101270009F908F907F906F905F904F903F902F90B6
:101280000F900BBE0F900FBE0F901F901895FC0192
:101290006583138288E0818381E084830895FC0163
:1012A000848183708130C9F4660F642B668380E487
:1012B00090E002C0880F991F4A95E2F7248130E040
:1012C00028233923232BD1F39481892F807194FF14
:1012D00005C083E0838382E0089581E0089523E0E0
:1012E000FC01238321E024830895FC01678394811A
:1012F00096FFFDCF9481892F807194FF03C083E016
:10130000838382E0089540E067E280EA94E0C7DFEB
:101310006091B82E80EA94E0E8DF80EA94E0DFCFC5
:1013200008959091B82E9F7080FD03C09093B82EC1
:1013300003C090619093B82E81FF05C09091B82EA4
:1013400090629093B82E82FF05C09091B82E906461
:101350009093B82E83FF05C08091B82E806880934B
:10136000B82E0895CF93C82F8091B82E84608093B3
:10137000B82E8C2F8595859585958595D2DFC3DF11
:101380008091B82E8B7F8093B82EBDDF8091B82ED0
:1013900084608093B82E8C2FC4DFB5DF8091B82E87
:1013A0008B7F8093B82EAFDF83EF91E00197F1F749
:1013B00000C00000CF9108959091B82E9C7F90932B
:1013C000B82ED0CF08951092B72E81E0F5CF0895B2
:1013D000662311F090E401C090E0699F800D112414
:1013E0008068EACF08959091B82E91609093B82EBE
:1013F0008A3031F08C3091F4E6DF1092B72E0895E8
:101400008091B72E8F5F8093B72E823011F41092A7
:10141000B72E6091B72E80E0DBCF0895A3CF08955B
:10142000CF93DF93EC018881882329F02196DBDFBD
:1014300089918111FCCFDF91CF9108958091B82ED1
:1014400088608093B82E5FCF08958091B82E877FF3
:101450008093B82E58CF0895CF9385EA9EE00197E8
:10146000F1F700C00000C3E083E05BDF8091B82E9D
:1014700084608093B82E47DF8091B82E8B7F809355
:10148000B82E41DF87EE93E00197F1F700C000002E
:10149000C15051F782E045DF8091B82E846080937F
:1014A000B82E31DF8091B82E8B7F8093B82E2BDF42
:1014B00089EF90E00197F1F700C000008CE27CDF3B
:1014C00088E07ADF81E078DF83EF91E00197F1F740
:1014D00000C0000086E070DF8CE06EDFCF910895E1
:1014E0001F920F920FB60F9211248F939F938091AA
:1014F000FE2E9091FF2E01968093FE2E9093FF2E4C
:101500009F918F910F900FBE0F901F9018951F9273
:101510000F920FB60F9211240BB60F922F933F9399
:101520004F935F936F937F938F939F93AF93BF93EB
:10153000EF93FF93E0EAF9E02181822F90E080931E
:10154000BB2E9093BC2E808190E08093BF2E909311
:10155000C02E8091F02E813009F0AEC024FF0EC065
:101560008091B92E9091BA2E01968093B92E9093C6
:10157000BA2E1092BD2E1092BE2E0DC01092B92E12
:101580001092BA2E8091BD2E9091BE2E019680931E
:10159000BD2E9093BE2E2091C62330E0E091BD2E4B
:1015A000F091BE2EC90101968E179F0721F48091FC
:1015B000BF2E8093C323C9010296E817F90721F4CF
:1015C0008091BF2E8093C223C9010396E817F907C3
:1015D00021F48091BF2E8093C123C9010496E8179E
:1015E000F90721F48091BF2E8093C023C90105968D
:1015F000E817F90721F48091BF2E8093BF23C9011A
:101600000696E817F90721F48091BF2E8093BE2338
:10161000C9010796E817F90781F44091BF2E509150
:10162000C02E64E6649FC001659F900D11246FEF8A
:1016300070E00E942E1C6093C423C9010896E8172D
:10164000F90781F48091BF2E9091C02E880F991FC9
:10165000880F991F880F991F6FEF70E00E942E1C52
:101660006093C523C9010996E817F90789F48091A9
:10167000BF2E9091C02EAC01440F551F840F951FB3
:10168000880F991F6FEF70E00E942E1C6093EF2E61
:10169000265F3F4FE217F30779F48091BF2E9091B8
:1016A000C02E9C01220F331F820F931F6FEF70E03B
:1016B0000E942E1C6093EE2EFF91EF91BF91AF918F
:1016C0009F918F917F916F915F914F913F912F915A
:1016D0000F900BBE0F900FBE0F901F90189588EDC6
:1016E00084BF82E080935000E0E5F0E0818181FFDB
:1016F000FDCF88ED84BF11E0109340002FEF33EC55
:1017000089E0215030408040E1F700C000008CE1CA
:1017100092E0E7E7FCE2DF019C011D92215030409E
:10172000E1F786E0E6EDFEE2DF01282F1D922A9523
:10173000E9F7EFE9FEE2DF01282F1D922A95E9F78C
:10174000E3E9FEE2DF011D928A95E9F700E2E0E0BD
:10175000FFE2DF01202F1D922A95E9F7E0E4FFE286
:10176000DF01202F1D922A95E9F7C0E6D6E0898196
:101770008066898380E48D830F2EF0E8CF2EF6E01B
:10178000DF2EF02D0F2EF3E0AF2EF02DD6011196A7
:10179000AC926BE980EA94E07ADD5EDE4FDE60E0D9
:1017A00080E016DE10DE60E080E012DE8DEC97E275
:1017B00037DEBFEFE3EDF0E3B150E040F040E1F79A
:1017C00000C0000080E68D830F2EF0EAEF2EF12C92
:1017D000F02D0F2EF7E0BF2EF02DD7011296BC9200
:1017E00034D7E0E4FAE010822CE0218780ED93E02A
:1017F00086A397A362E06683B08284858160848734
:1018000040E256E03FEFFA013283E0E4F6E0328353
:1018100080EA96E0DC0111963C93119716963C9372
:1018200080E1DA0150968C93509751968C935197A2
:1018300052968C93529753968C93539754968C93BD
:10184000549755968C93559756968C9356975796D2
:101850008C9391E1908B918B928B938B948B958B46
:10186000968B978B3287A186E4B57FB7F89440ECCE
:1018700051E0DA011A966C931A97F0E0E4911A9607
:101880001C927FBFA0E4B2E01C96EC931C9795B429
:101890007FB7F894FA016287E92DF0E09490FA019D
:1018A00012867FBF1D969C921D971C9344E2119651
:1018B0004C93119711964C9111974F7E11964C9322
:1018C000119745E014964C93149712968C931297A7
:1018D00013961C92139792961C92929790964C9303
:1018E0009097EFE7FCE03197F1F700C00000F601B8
:1018F00052815C6052835A8150615A83A28AA38AC2
:101900006C8B5A8550615A871987E0EEF7E0528157
:1019100053605283908B918B92859360928711874D
:10192000E0E8F1E09FE4908792E79083E0E0FAE05E
:1019300098E6938362E070E066A377A3108310A219
:1019400011A21683E0E0F8E01082218762E47FE0D4
:1019500066A377A31683B0829485916094873093B1
:101960000106E0E4F8E01082218768E873E166A3ED
:1019700077A316834083948591609487E0E0F9E033
:10198000108221872BE531E026A337A31683B0828E
:1019900094859160948799819A6099839A819460E3
:1019A0009A839E8192609E839A8194609A83F701C4
:1019B000928192609283E0EAF9E003839BE0958351
:1019C00016830783848378941C9389818066898336
:1019D0008D8180668D83FFCF1F920F920FB60F927D
:1019E00011240BB60F922F933F934F935F936F93F6
:1019F0007F938F939F93AF93BF93EF93FF93CF9377
:101A0000DF93CDB7DEB76097CDBFDEBF8091F12EFB
:101A100081110CC08091B023813021F480E6809345
:101A200065067FC580E6809366067BC58091FA2EA9
:101A30009091FB2E2091CB233091CC23281739078E
:101A400009F085C50EC08C31910509F47BC58D3137
:101A5000910509F08AC571C5B6DC8091F12E882305
:101A6000C9F08091C52E8F5F8093C52E843019F404
:101A70001092C52E02C0811106C0E0E6F6E0878113
:101A80008064878307C0823029F4E0E6F6E087812E
:101A900080628783E091FA2EF091FB2EE13481E0A1
:101AA000F80708F029C5EA5EFE4F0C94411CA0918E
:101AB000C923B091CA2381E1EBEDF7E201900D92C9
:101AC0008A95E1F780E1FE013196DF01982F1D92A2
:101AD0009A95E9F79091C6231F929F932CEE37E2D7
:101AE0003F932F931F928F93FF93EF930E94AF1C0E
:101AF000E091F02ECDBFDEBFE13041F0F0E0EE0F1F
:101B0000FF1FEC51FB4F6591749103C0BE016F5FE5
:101B10007F4F8091C7239091C8230E94A81CECC4DA
:101B2000A091C923B091CA238DE0E9EFF7E20190BB
:101B30000D928A95E1F7E091F02EF0E0EE0FFF1F95
:101B4000EC51FB4F659174918091C7239091C8230C
:101B50000E94A81CD1C4A091C923B091CA238DE0D2
:101B6000E6E0F8E201900D928A95E1F78091C623B4
:101B70001F928F938AE799E29F938F931F9280E140
:101B80008F938091C8238F938091C7238F930E9456
:101B9000AF1CCDBFDEBFB0C4A091C923B091CA2392
:101BA0008DE0E3E1F8E201900D928A95E1F78091F2
:101BB000C3231F928F938AE799E29F938F931F927B
:101BC00080E18F938091C8238F938091C7238F9357
:101BD0000E94AF1CCDBFDEBF8FC4A091C923B091BE
:101BE000CA238DE0E0E2F8E201900D928A95E1F7D8
:101BF0008091C2231F928F938AE799E29F938F93DC
:101C00001F9280E18F938091C8238F938091C72387
:101C10008F930E94AF1CCDBFDEBF6EC4A091C923BD
:101C2000B091CA238DE0EDE2F8E201900D928A9521
:101C3000E1F78091C1231F928F938AE799E29F93E6
:101C40008F931F9280E18F938091C8238F9380910F
:101C5000C7238F930E94AF1CCDBFDEBF4DC4A091A0
:101C6000C923B091CA238DE0EAE3F8E201900D9216
:101C70008A95E1F78091C0231F928F938AE799E2BA
:101C80009F938F931F9280E18F938091C8238F93AE
:101C90008091C7238F930E94AF1CCDBFDEBF2CC4A1
:101CA000A091C923B091CA238DE0E7E4F8E2019046
:101CB0000D928A95E1F78091BF231F928F938AE757
:101CC00099E29F938F931F9280E18F938091C82315
:101CD0008F938091C7238F930E94AF1CCDBFDEBF2F
:101CE0000BC4A091C923B091CA238DE0E4E5F8E2CA
:101CF00001900D928A95E1F78091BE231F928F93F8
:101D00008AE799E29F938F931F9280E18F9380914E
:101D1000C8238F938091C7238F930E94AF1CCDBFA0
:101D2000DEBFEAC3A091C923B091CA238DE0E1E6EA
:101D3000F8E201900D928A95E1F78091C4231F92F9
:101D40008F938AE799E29F938F931F9280E18F93FD
:101D50008091C8238F938091C7238F930E94AF1CDB
:101D6000CDBFDEBFC9C38091C52390E08930910506
:101D700014F088E090E08093C523A091C923B0912E
:101D8000CA238DE0EEE6F8E201900D928A95E1F724
:101D9000E091C523F0E0EE0FFF1FE250FB4F65918D
:101DA00074918091C7239091C8230E94A81CA4C35A
:101DB000A091C923B091CA238DE0EBE7F8E201902E
:101DC0000D928A95E1F7E091EF2EF0E0EE0FFF1F04
:101DD000E051FB4F659174918091C7239091C82386
:101DE0000E94A81C89C3A091C923B091CA238DE089
:101DF000E8E8F8E201900D928A95E1F7E091EE2E85
:101E0000F0E0EE0FFF1FE851FB4F65917491809158
:101E1000C7239091C8230E94A81C6EC3A091C92318
:101E2000B091CA238DE0E5E9F8E201900D928A9520
:101E3000E1F78091BD231F928F938AE799E29F93E8
:101E40008F931F9280E18F938091C8238F9380910D
:101E5000C7238F930E94AF1CCDBFDEBF4DC3A0919F
:101E6000C923B091CA238DE0E2EAF8E201900D9215
:101E70008A95E1F78091BC231F928F938AE799E2BC
:101E80009F938F931F9280E18F938091C8238F93AC
:101E90008091C7238F930E94AF1CCDBFDEBF2CC3A0
:101EA000A091C923B091CA238DE0EFEAF8E2019036
:101EB0000D928A95E1F78091BB231F928F938AE759
:101EC00099E29F938F931F9280E18F938091C82313
:101ED0008F938091C7238F930E94AF1CCDBFDEBF2D
:101EE0000BC3A091C923B091CA238DE0ECEBF8E2BB
:101EF00001900D928A95E1F78091BA231F928F93FA
:101F00008AE799E29F938F931F9280E18F9380914C
:101F1000C8238F938091C7238F930E94AF1CCDBF9E
:101F2000DEBFEAC2A091C923B091CA238DE0E9ECDB
:101F3000F8E201900D928A95E1F78091B9231F9202
:101F40008F938AE799E29F938F931F9280E18F93FB
:101F50008091C8238F938091C7238F930E94AF1CD9
:101F6000CDBFDEBFC9C2A091C923B091CA238DE005
:101F7000E6EDF8E201900D928A95E1F78091B823A1
:101F80001F928F938AE799E29F938F931F9280E12C
:101F90008F938091C8238F938091C7238F930E9442
:101FA000AF1CCDBFDEBFA8C2A091C923B091CA2388
:101FB0008DE0E3EEF8E201900D928A95E1F78091D1
:101FC000B7231F928F938AE799E29F938F931F9273
:101FD00080E18F938091C8238F938091C7238F9343
:101FE0000E94AF1CCDBFDEBF87C2A091C923B091B4
:101FF000CA238DE0E0EFF8E201900D928A95E1F7B7
:102000008091B6231F928F938AE799E29F938F93D3
:102010001F9280E18F938091C8238F938091C72373
:102020008F930E94AF1CCDBFDEBF66C2A091C923B3
:10203000B091CA238DE0EDEFF8E201900D928A9500
:10204000E1F78091B5231F928F938AE799E29F93DE
:102050008F931F9280E18F938091C8238F938091FB
:10206000C7238F930E94AF1CCDBFDEBF45C2A09196
:10207000C923B091CA238DE0EAE0F9E201900D9204
:102080008A95E1F78091B4231F928F938AE799E2B2
:102090009F938F931F9280E18F938091C8238F939A
:1020A0008091C7238F930E94AF1CCDBFDEBF24C297
:1020B000A091C923B091CA238DE0E7E1F9E2019034
:1020C0000D928A95E1F78091B3231F928F938AE74F
:1020D00099E29F938F931F9280E18F938091C82301
:1020E0008F938091C7238F930E94AF1CCDBFDEBF1B
:1020F00003C2A091C923B091CA238DE0E4E2F9E2C2
:1021000001900D928A95E1F78091B2231F928F93EF
:102110008AE799E29F938F931F9280E18F9380913A
:10212000C8238F938091C7238F930E94AF1CCDBF8C
:10213000DEBFE2C1A091C923B091CA238DE0E1E3E3
:10214000F9E201900D928A95E1F78091B1231F92F7
:102150008F938AE799E29F938F931F9280E18F93E9
:102160008091C8238F938091C7238F930E94AF1CC7
:10217000CDBFDEBFC1C1A091C923B091CA238DE0FC
:10218000EEE3F9E201900D928A95E1F78091B02398
:102190001F928F938BE499E29F938F931F9280E11C
:1021A0008F938091C8238F938091C7238F930E9430
:1021B000AF1CCDBFDEBFA0C1A091C923B091CA237F
:1021C0008DE0E0E5F9E201900D928A95E1F78091CA
:1021D000AF231F928F938BE499E29F938F931F926B
:1021E00080E18F938091C8238F938091C7238F9331
:1021F0000E94AF1CCDBFDEBF7FC1A091C923B091AB
:10220000CA2381E1EDE5F9E201900D928A95E1F7AB
:10221000E6EDFEE283858F9382858F9381858F9390
:1022200080858F9387818F9386818F9385818F930C
:1022300084818F9383818F9382818F9381818F9308
:1022400080818F938EE699E29F938F931F9280E116
:102250008F938091C8238F938091C7238F930E947F
:10226000AF1CCDBFDEBF48C1A091C923B091CA2326
:1022700081E1EFE7F9E201900D928A95E1F7E6ED51
:10228000FEE287898F9386898F9385898F938489CE
:102290008F9383898F9382898F9381898F9380898C
:1022A0008F9387858F9386858F9385858F9384857C
:1022B0008F938EE699E29F938F931F9280E18F9385
:1022C0008091C8238F938091C7238F930E94AF1C66
:1022D000CDBFDEBF11C1A091C923B091CA2381E156
:1022E000E0E9F9E201900D928A95E1F766EC7EE271
:1022F0008091C7239091C8230E94A81CFDC0A09183
:10230000C923B091CA2381E1E1EAF9E201900D927B
:102310008A95E1F766EC7EE28091C7239091C8230D
:102320000E94A81CE9C0A091C923B091CA2381E1F1
:10233000E2EBF9E201900D928A95E1F766EC7EE21C
:102340008091C7239091C8230E94A81CD5C0A0915A
:10235000C923B091CA2381E1E3ECF9E201900D9227
:102360008A95E1F766EC7EE28091C7239091C823BD
:102370000E94A81CC1C0A091C923B091CA2381E1C9
:10238000E4EDF9E201900D928A95E1F766EC7EE2C8
:102390008091C7239091C8230E94A81CADC0A09132
:1023A000C923B091CA238CE0E5EEF9E201900D92C9
:1023B0008A95E1F766EC7EE28091C7239091C8236D
:1023C0000E94A81C99C0A091C923B091CA2381E1A1
:1023D000E4EDF9E201900D928A95E1F766EC7EE278
:1023E0008091C7239091C8230E94A81C85C0A0910A
:1023F000C923B091CA2381E1E3ECF9E201900D9287
:102400008A95E1F766EC7EE28091C7239091C8231C
:102410000E94A81C71C0A091C923B091CA2380E179
:10242000E1EFF9E201900D928A95E1F766EC7EE228
:102430008091C7239091C8230E94A81C5DC0A091E1
:10244000C923B091CA2380E1E1E0FAE201900D9244
:102450008A95E1F766EC7EE28091C7239091C823CC
:102460000E94A81C49C0A091C923B091CA2381E150
:10247000E1E1FAE201900D928A95E1F78091FA2E5E
:102480009091FB2E885C91099F938F9382E29AE250
:102490009F938F931F9280E18F938091C8238F9396
:1024A0008091C7238F930E94AF1CCDBFDEBF24C095
:1024B000A091C923B091CA2381E1EFE2FAE2019031
:1024C0000D928A95E1F78091FA2E9091FB2E8C5215
:1024D00091409F938F9382E29AE29F938F931F92F2
:1024E00080E18F938091C8238F938091C7238F932E
:1024F0000E94AF1CCDBFDEBF60E080E00E94E80913
:102500008091C9239091CA230E94100A61E080E063
:102510000E94E8098091C7239091C8230E94100A65
:1025200024C08091FA2E9091FB2E2091CB233091E4
:10253000CC232817390781F486CA8093CB23909344
:10254000CC238BCA8093CB239093CC2386CA8093D1
:10255000CB239093CC2385CA8093CB239093CC2319
:102560004C97029708F078CA95CA6096CDBFDEBF37
:10257000DF91CF91FF91EF91BF91AF919F918F919B
:102580007F916F915F914F913F912F910F900BBE73
:102590000F900FBE0F901F901895E0E2FFE2809120
:1025A000F02E81838091C62382838091C32383830D
:1025B0008091C22384838091C12385838091C0232D
:1025C00086838091BF2387838091BE2380878091FB
:1025D000C42382878091EE2E85878091BD238187D9
:1025E0008091BC2386878091BB2387878091BA2303
:1025F000808B8091B923818B8091B823828B8091CD
:10260000B723838B8091B623848B8091B523858BF0
:102610008091B423868B8091B323878B8091B223E2
:10262000808F8091B123818F8091AF23828F8091A1
:10263000B023838F8091C52383878091EF2E848779
:10264000CF01E2D680E0F6C6089540E250E060E0B7
:102650007FE280E090E0AED68091012F8F3F11F0B5
:102660008093F02E8091022F8F3F11F08093C6232C
:102670008091032F8F3F11F08093C3238091042F0B
:102680008F3F11F08093C2238091052F8F3F11F06F
:102690008093C1238091062F8F3F11F08093C02338
:1026A0008091072F8F3F11F08093BF238091082FD7
:1026B0008F3F11F08093BE2380910A2F8F3F11F03E
:1026C0008093C42380910C2F8F3F11F08093EF2EC5
:1026D00080910B2F8F3F11F08093C52380910D2F98
:1026E0008F3F11F08093EE2E8091092F8F3F11F0D4
:1026F0008093BD2380910E2F8F3F11F08093BC23D8
:1027000090910F2F9F3F11F09093BB239091102F2A
:102710009F3F11F09093BA239091112F9F3F11F09A
:102720009093B9239091122F9F3F11F09093B8236B
:102730008F3F21F08091132F8093B7238091142F26
:102740008F3F11F08093B6238091152F8F3F11F0AA
:102750008093B5238091162F8F3F11F08093B4237F
:102760008091172F8F3F11F08093B3238091182F02
:102770008F3F11F08093B2238091192F8F3F11F07A
:102780008093B12380911A2F8F3F11F08093AF2354
:1027900080911B2F8F3F11F08093B0238091AF2346
:1027A000813019F40E941E0A02C00E94250A8091FD
:1027B000B023813021F480E280936506089580E2A1
:1027C000809366060895BC019091F12E911105C188
:1027D0004091FC2E5091FD2EFA01EE0FFF1FEE509E
:1027E000F14D20813181CB01820F931F8083918332
:1027F0004130510501F14230510509F4B2C0452B79
:1028000009F0EBC08830910514F087E090E099233F
:1028100014F480E090E08093F22E9093F32E880FD2
:10282000991FFC01E75AF34D808191818093FA2E24
:102830009093FB2E08952091F22E3091F32E2530A7
:10284000310509F443C03CF42330310569F02430EC
:10285000310519F108952630310509F450C02730AB
:10286000310509F465C008958830910514F087E0BA
:1028700090E0992314F480E090E08093F42E9093FC
:10288000F52E880F991FFC01E75BF34D8081918144
:102890008093FA2E9093FB2E08958530910514F0C5
:1028A00084E090E0992314F480E090E08093F42E8B
:1028B0009093F52E880F991FFC01E15CF34D808108
:1028C00091818093FA2E9093FB2E08958F3091057D
:1028D00014F08EE090E0992314F480E090E080936F
:1028E000F42E9093F52E880F991FFC01EF5DF34DA8
:1028F000808191818093FA2E9093FB2E08958531EB
:10290000910514F084E190E0992314F480E090E0C4
:102910008093F42E9093F52E880F991FFC01E950B7
:10292000F44D808191818093FA2E9093FB2E08952F
:102930008330910514F082E090E0992314F480E054
:1029400090E08093F42E9093F52E880F991FFC0150
:10295000EF50F44D808191818093FA2E9093FB2E5D
:1029600008952091F42E3091F52E2115310521F096
:1029700021303105D1F008958531910514F084E1BD
:1029800090E0992314F480E090E08093F62E9093E9
:10299000F72E880F991FFC01E953F44D8081918136
:1029A0008093FA2E9093FB2E08958531910514F0B3
:1029B00084E190E0992314F480E090E08093F62E77
:1029C0009093F72E880F991FFC01E953F44D8081F5
:1029D00091818093FA2E9093FB2E08951F920F926F
:1029E0000FB60F9211240BB60F922F933F934F9374
:1029F0005F936F937F938F939F93AF93BF93CF9387
:102A0000DF93EF93FF938091200A9091210A029720
:102A100018F4C1E0D0E002C0CFEFDFEF8091FE2ECE
:102A20009091FF2E2091C32E3091C42EAC01421BF9
:102A3000530B423051050CF42EC28093C32E909359
:102A4000C42ECE01C0DE8091F12E882309F423C26A
:102A5000E091FA2EF091FB2E3197EB31F10508F061
:102A60001AC2E95AFD4F0DC78091F02EC80FD11D33
:102A70001C161D0614F4C1E0D0E0DD2314F4C0E000
:102A8000D0E0C093F02E07C28091B023C80FD11DB3
:102A90001C161D0614F4C1E0D0E0DD2314F4C0E0E0
:102AA000D0E0C093B023C13021F480E2809365066A
:102AB000F2C180E280936606EEC18091AF23C80F19
:102AC000D11D1C161D0614F4C1E0D0E0DD2314F462
:102AD000C0E0D0E0C093AF23C13019F40E941E0AB9
:102AE000DAC10E94250AD7C18091C623C80FD11D23
:102AF000CF3FD10519F014F0CFEFD0E0DD2314F46F
:102B0000C0E0D0E0C093C623C6C18091C323CC0FE0
:102B1000DD1FC295D295D07FDC27C07FDC27C80F90
:102B2000D11DCF3FD10519F014F0CFEFD0E0DD2358
:102B300014F4C0E0D0E0C093C323ADC18091C223A0
:102B4000CC0FDD1FC295D295D07FDC27C07FDC275C
:102B5000C80FD11DCF3FD10519F014F0CFEFD0E051
:102B6000DD2314F4C0E0D0E0C093C22394C180916F
:102B7000C123CC0FDD1FC295D295D07FDC27C07F4B
:102B8000DC27C80FD11DCF3FD10519F014F0CFEFCE
:102B9000D0E0DD2314F4C0E0D0E0C093C1237BC1BA
:102BA0008091C023CC0FDD1FC295D295D07FDC274A
:102BB000C07FDC27C80FD11DCF3FD10519F014F01D
:102BC000CFEFD0E0DD2314F4C0E0D0E0C093C02309
:102BD00062C18091BF23CC0FDD1FC295D295D07FFB
:102BE000DC27C07FDC27C80FD11DCF3FD10519F0EE
:102BF00014F0CFEFD0E0DD2314F4C0E0D0E0C093B8
:102C0000BF2349C18091BE23CC0FDD1FC295D29551
:102C1000D07FDC27C07FDC27C80FD11DCF3FD10577
:102C200019F014F0CFEFD0E0DD2314F4C0E0D0E0D1
:102C3000C093BE2330C12091C423CE01880F991FB9
:102C4000880F991FC80FD91FC20FD11DC536D105D6
:102C500014F0C4E6D0E0DD2314F4C0E0D0E0C0936B
:102C6000C42319C12091BD23CE01880F991F880F5D
:102C7000991FC80FD91FC20FD11DCF3FD10519F021
:102C800014F0CFEFD0E0DD2314F4C0E0D0E0C09327
:102C9000BD2301C18091BC23C80FD11DCF3FD105F9
:102CA00019F014F0CFEFD0E0DD2314F4C0E0D0E051
:102CB000C093BC23F0C08091BB23C80FD11DCF3F70
:102CC000D10519F014F0CFEFD0E0DD2314F4C0E00B
:102CD000D0E0C093BB23DFC08091BA23C80FD11DC1
:102CE000CF3FD10519F014F0CFEFD0E0DD2314F47D
:102CF000C0E0D0E0C093BA23CEC08091B923C80F02
:102D0000D11DCF3FD10519F014F0CFEFD0E0DD2376
:102D100014F4C0E0D0E0C093B923BDC08091B823C3
:102D2000C80FD11DCF3FD10519F014F0CFEFD0E07F
:102D3000DD2314F4C0E0D0E0C093B823ACC0809190
:102D4000B723C80FD11DCF3FD10519F014F0CFEF35
:102D5000D0E0DD2314F4C0E0D0E0C093B7239BC0E3
:102D60008091B623C80FD11DCA30D10534F0CF31C0
:102D7000D1052CF0CEE1D0E002C0CAE0D0E0C09393
:102D8000B62389C08091B523C80FD11DCA30D105A3
:102D900034F0CF31D1052CF0CEE1D0E002C0CAE052
:102DA000D0E0C093B52377C08091B423C80FD11D64
:102DB000CA30D10534F0CF31D1052CF0CEE1D0E0CE
:102DC00002C0CAE0D0E0C093B42365C08091B323B1
:102DD000C80FD11DCA30D10534F0CF31D1052CF048
:102DE000CEE1D0E002C0CAE0D0E0C093B32353C02C
:102DF0008091B223C80FD11DCA30D10534F0CF3134
:102E0000D1052CF0CEE1D0E002C0CAE0D0E0C09302
:102E1000B22341C08091B123C80FD11DCA30D10562
:102E200034F0CF31D1052CF0CEE1D0E002C0CAE0C1
:102E3000D0E0C093B1232FC08091C523C80FD11D0E
:102E4000C930D10514F0C8E0D0E0DD2314F4C0E0AF
:102E5000D0E0C093C5231FC08091EF2EC80FD11DB5
:102E6000C730D10514F0C6E0D0E0DD2314F4C0E093
:102E7000D0E0C093EF2E0FC08091EE2EC80FD11D71
:102E8000C430D10514F0C3E0D0E0DD2314F4C0E079
:102E9000D0E0C093EE2EFF91EF91DF91CF91BF91E3
:102EA000AF919F918F917F916F915F914F913F91E2
:102EB0002F910F900BBE0F900FBE0F901F90189583
:102EC000EF92FF920F931F93CF93DF93CDB7DEB7AF
:102ED0002B97CDBFDEBF2093C3233093C2234093F3
:102EE000C1235093C0236093BF237093BE230093EC
:102EF000C423F092EF2EE092C52311501093EE2ED2
:102F00008093BD2361E080E00E94E80980E49AE2BA
:102F10000E94100A42DB2B96CDBFDEBFDF91CF911E
:102F20001F910F91FF90EF900895F894E0E6F6E07E
:102F300086818066868383E294EF0197F1F700C073
:102F4000000085818066858383E294EF0197F1F725
:102F500000C00000868180668683789408951F9261
:102F60000F920FB60F9211240BB60F922F933F932F
:102F70004F935F936F937F938F939F93AF93BF9381
:102F8000EF93FF938091F12E81110FC08091FC2E61
:102F90009091FD2E009791F001978093FC2E9093D5
:102FA000FD2E80E090E00FDC09C0813039F4F5DAC5
:102FB0009091F12E81E089278093F12EFF91EF917E
:102FC000BF91AF919F918F917F916F915F914F9141
:102FD0003F912F910F900BBE0F900FBE0F901F903F
:102FE00018951F920F920FB60F9211240BB60F92E5
:102FF000EF92FF920F931F932F933F934F935F9303
:103000006F937F938F939F93AF93BF93CF93DF93F0
:10301000EF93FF938091FE2E9091FF2E2091C12E71
:103020003091C22EAC01421B530B4A3051050CF4B7
:1030300033C18093C12E9093C22EC091FA2ED091AD
:10304000FB2EC132D10569F48091FC2E9091FD2EAA
:1030500001978093FC2E9093FD2E80E090E0B3DBEF
:103060001BC1CE01875691098530910540F08B5BDD
:103070009F4F8230910518F004960297A0F480913A
:10308000FC2E9091FD2E01968093FC2E9093FD2EA8
:10309000880F991FFC01EE50F14D1082118280E0E3
:1030A00090E091DBF9C0E091FC2EF091FD2EEE0F47
:1030B000FF1FE051F14D80819181009709F074C0AC
:1030C000CD3251E0D5070CF4C6C0CE018B529140F1
:1030D00040E250E060E47FE2880F991F829592956C
:1030E000907F9827807F982765D190914D2F9F3FA3
:1030F00049F461E080E00E94E8098FE49AE20E94CE
:10310000100A50C08FEF8093C3238093C223809313
:10311000C1238093C0238093BF238093BE238091DB
:10312000432F8F3F11F08093C3238091442F8F3F13
:1031300011F08093C2238091452F8F3F11F080932F
:10314000C1238091462F8F3F11F08093C02380913F
:10315000472F8F3F11F08093BF238091482F8F3FDF
:1031600011F08093BE2380914A2F8F3F11F08093FE
:10317000C42380914C2F8F3F11F08093EF2E8091CC
:103180004B2F8F3F09F480C08093C5237DC080936F
:10319000BD2361E080E00E94E80980E49AE20E9499
:1031A000100AFBD9C2DE78C081309105B9F5CD3265
:1031B00081E0D8070CF44FC0E0E4FFE28091C32324
:1031C00083838091C22384838091C12385838091EE
:1031D000C02386838091BF2387838091BE2380870D
:1031E0008091C42382878091EE2E85878091BD23B4
:1031F00081878091C52383878091EF2E8487CF01BB
:1032000003D18C2F8B5216D161E080E00E94E80937
:103210008DE59AE20E94100A88DE3EC00697D9F436
:10322000C93CD105C4F0C95CD1098BE08C9FF00189
:103230008D9FF00D1124ED52FD4DE080F180028153
:10324000138124813581468157816085718582850E
:1032500037DE6BDE21C06C97F9F08091F12E813062
:1032600009F49BD99091F12E81E089278093F12E6A
:103270008091B023813021F480E2809365060CC0F8
:1032800080E28093660608C09093EE2E8091492FCD
:103290008F3F09F07CCF7DCFFF91EF91DF91CF91F0
:1032A000BF91AF919F918F917F916F915F914F915E
:1032B0003F912F911F910F91FF90EF900F900BBEB8
:1032C0000F900FBE0F901F901895F89498E0E0E0D3
:1032D000F6E0522F5095662374F43481322B3483F8
:1032E00035E03A95F1F734813523348332E03A956D
:1032F000F1F700C00EC03481322B348332E03A95AE
:10330000F1F7000034813523348335E03A95F1F745
:103310000000660F9150F9F698E0E0E0F6E0522FD9
:103320005095882374F43481322B348335E03A95F8
:10333000F1F734813523348332E03A95F1F700C058
:103340000EC03481322B348332E03A95F1F700001D
:1033500034813523348335E03A95F1F70000880F46
:103360009150F9F688E0E0E0F6E0322F3095442302
:1033700074F49481922B948395E09A95F1F794815B
:103380009323948392E09A95F1F700C00EC0948144
:10339000922B948392E09A95F1F700009481932305
:1033A000948395E09A95F1F70000440F8150F9F667
:1033B00078940895CF93DF939C01DB01E0ECF1E07A
:1033C00097859923ECF3CCECD1E0988198609883B1
:1033D000B901705FCD01B3D28881877F8883DF9187
:1033E000CF910895E0ECF1E097859923ECF3ACECF4
:1033F000B1E09C9198609C93E82FF0E0F05F6083CF
:103400008C91877F8C9308950F931F93CF938C019A
:10341000E0ECF1E087858823ECF3C0E0F8016191EE
:103420008F018C2FDFDFCF5FC032C1F7CF911F91AB
:103430000F9108951F93CF93DF93E0ECF1E0978510
:103440009923ECF320E2829FC0011124C0ECD1E06B
:103450001A82998388831A8585E38A8761E08BECD9
:1034600091E005D01A87DF91CF911F9108951BBE7F
:10347000FC0128ED24BF608308950CD027C11FD123
:1034800040F016D130F021F45F3F19F0DFC0511148
:1034900068C10BC12CD198F39923C9F35523B1F31B
:1034A000951B550BBB27AA2762177307840738F0B3
:1034B0009F5F5F4F220F331F441FAA1FA9F333D012
:1034C0000E2E3AF0E0E830D091505040E695001CC6
:1034D000CAF729D0FE2F27D0660F771F881FBB1F82
:1034E000261737074807AB07B0E809F0BB0B802D5C
:1034F000BF01FF2793585F4F2AF09E3F510568F0A8
:10350000A5C02FC15F3FECF3983EDCF3869577951D
:103510006795B795F7959F5FC9F7880F911D9695A9
:10352000879597F90895E1E0660F771F881FBB1F05
:10353000621773078407BA0720F0621B730B840BB2
:10354000BA0BEE1F88F7E095089504D06894B11186
:1035500008C10895D4D088F09F5790F0B92F9927CB
:10356000B751A0F0D1F0660F771F881F991F1AF08E
:10357000BA95C9F712C0B13081F0F2D0B1E0089528
:10358000EFC0672F782F8827B85F39F0B93FCCF3A9
:10359000869577956795B395D9F73EF49095809584
:1035A000709561957F4F8F4F9F4F0895E89409C0A4
:1035B00097FB3EF490958095709561957F4F8F4F66
:1035C0009F4F9923A9F0F92F96E9BB279395F6957C
:1035D000879577956795B795F111F8CFFAF4BB0FFA
:1035E00011F460FF1BC06F5F7F4F8F4F9F4F16C05E
:1035F000882311F096E911C0772321F09EE8872FE8
:10360000762F05C0662371F096E8862F70E060E0A3
:103610002AF09A95660F771F881FDAF7880F96951C
:10362000879597F9089585D080F09F3740F49111E0
:103630000EF097C060E070E080E89FEB089526F4FC
:103640001B16611D711D811D07C021C097F99F6761
:1036500080E870E060E00895882371F4772321F01A
:103660009850872B762F07C0662311F499270DC039
:103670009051862B70E060E02AF09A95660F771FD4
:10368000881FDAF7880F9695879597F908959F3FD9
:1036900031F0915020F4879577956795B795880F0D
:1036A000911D9695879597F908959FEF80EC089561
:1036B00000240A9416161706180609060895002411
:1036C0000A9412161306140605060895092E03948B
:1036D000000C11F4882352F0BB0F40F4BF2B11F4FF
:1036E00060FF04C06F5F7F4F8F4F9F4F089557FD5E
:1036F0009058440F551F59F05F3F71F04795880F60
:1037000097FB991F61F09F3F79F0879508951216F6
:1037100013061406551FF2CF4695F1DF08C01616A2
:1037200017061806991FF1CF869571056105089453
:103730000895E5DFA0F0BEE7B91788F4BB279F38EE
:1037400060F41616B11D672F782F8827985FF7CF82
:10375000869577956795B11D93959639C8F3089529
:10376000E894BB2766277727CB0197F908950BD0FC
:10377000ADCF9EDF28F0A3DF18F0952309F066CFC8
:1037800094CF1124EECFB3DFA0F3959FD1F3950F23
:1037900050E0551F629FF001729FBB27F00DB11DD5
:1037A000639FAA27F00DB11DAA1F649F6627B00D65
:1037B000A11D661F829F2227B00DA11D621F739F4E
:1037C000B00DA11D621F839FA00D611D221F749F5C
:1037D0003327A00D611D231F849F600D211D822FA3
:1037E000762F6A2F11249F5750408AF0E1F08823EA
:1037F0004AF0EE0FFF1FBB1F661F771F881F9150F7
:103800005040A9F79E3F510570F020CFAACF5F3FEF
:10381000ECF3983EDCF3869577956795B795F79529
:10382000E7959F5FC1F7FE2B880F911D96958795B1
:1038300097F90895AA1BBB1B51E107C0AA1FBB1F24
:10384000A617B70710F0A61BB70B881F991F5A952C
:10385000A9F780959095BC01CD01089597FB072E9F
:1038600016F4009406D077FD08D0E4DF07FC05D0FD
:103870003EF4909581959F4F0895709561957F4F87
:103880000895EE0FFF1F0024001C0BBE0790F69159
:10389000E02D09948F929F92AF92BF92CF92DF92C8
:1038A000EF92FF92CF93DF93EC01688179818A8157
:1038B0009B81611571058105910521F464E279ED23
:1038C0008BE597E02DE133EF41E050E025D349014E
:1038D0005A019B01AC01A7EAB1E43AD36B017C0128
:1038E000ACEEB4EFA50194013FD3DC01CB018C0D0C
:1038F0009D1DAE1DBF1DB7FF03C00197A109B048B4
:1039000088839983AA83BB839F77DF91CF91FF90B0
:10391000EF90DF90CF90BF90AF909F908F900895E1
:10392000B9CF80E090E2B6CFA0E0B0E08093002075
:1039300090930120A0930220B09303200895FB01EF
:10394000DC0102C001900D9241505040D8F708951B
:10395000FB01DC0101900D920020E1F708950F9327
:103960001F93CF93DF93CDB7DEB72E97CDBFDEBFCA
:103970000D891E898F89988D26E02C8309831A83EF
:1039800097FF02C080E090E801978D839E83AE018F
:10399000455E5F4F698D7A8DCE01019616D04D81BF
:1039A0005E8157FD0AC02F813885421753070CF4FA
:1039B0009A01F801E20FF31F10822E96CDBFDEBFF1
:1039C000DF91CF911F910F9108952F923F924F92C7
:1039D0005F926F927F928F929F92AF92BF92CF929F
:1039E000DF92EF92FF920F931F93CF93DF93CDB7A8
:1039F000DEB72B97CDBFDEBF6C017B018A01FC01D6
:103A000016821782838181FFBFC1CE0101963C01DE
:103A1000F6019381F70193FD859193FF81917F01D9
:103A2000882309F4ADC1853239F493FD859193FF64
:103A300081917F01853221F4B60190E0D3D1E8CFA6
:103A4000912C212C312CFFE1F315D8F08B3279F039
:103A500038F4803279F08332A1F4232D20611DC027
:103A60008D3261F0803369F4232D216016C0832DDF
:103A70008260382EE32DE4603E2E2AC0F32DF860DC
:103A80001DC037FC2DC020ED280F2A3040F08E32AB
:103A9000B9F436FC75C1232D2064322E19C036FED0
:103AA00006C08AE0989E200D1124922E11C0EAE0F3
:103AB0002E9E200D1124222EF32DF0623F2E08C0E1
:103AC0008C3621F4832D8068382E02C0883641F46C
:103AD000F70193FD859193FF81917F018111B3CF10
:103AE000982F9F7D9554933028F40C5F1F4F9FE3D0
:103AF00099830DC0833631F0833771F0833509F037
:103B000055C020C0F801808189830E5F1F4F882433
:103B10008394912C530112C02801F2E04F0E511CE6
:103B2000F801A080B18036FE03C0692D70E002C0AC
:103B30006FEF7FEFC5014BD14C018201F32DFF7771
:103B40003F2E15C0280122E0420E511CF801A08032
:103B5000B18036FE03C0692D70E002C06FEF7FEFC9
:103B6000C5012AD14C01F32DF0683F2E820133FCB0
:103B700019C0822D90E088169906A0F4B60180E263
:103B800090E030D12A94F5CFF50137FC859137FECE
:103B900081915F01B60190E025D121102A9421E0A6
:103BA000821A91088114910479F7E1C0843611F0EA
:103BB000893639F5F80137FE07C06081718182814D
:103BC00093810C5F1F4F08C060817181072E000C2C
:103BD000880B990B0E5F1F4FF32DFF763F2E97FF3B
:103BE00009C090958095709561957F4F8F4F9F4F3D
:103BF000F0683F2E2AE030E0A30130D1882E8618ED
:103C000044C0853731F4232D2F7EB22E2AE030E0D8
:103C100025C0932D997FB92E8F36C1F018F48835C1
:103C200079F0AEC0803719F0883721F0A9C0E92FAC
:103C3000E061BE2EB4FE0DC0FB2DF460BF2E09C0A6
:103C400034FE0AC0292F2660B22E06C028E030E0DC
:103C500005C020E130E002C020E132E0F801B7FE0B
:103C600007C060817181828193810C5F1F4F06C004
:103C70006081718180E090E00E5F1F4FA301EED064
:103C8000882E8618FB2DFF773F2E36FE0DC0232D84
:103C90002E7FA22E891458F434FE0BC032FC09C0CA
:103CA000832D8E7EA82E05C0B82CA32C03C0B82C63
:103CB00001C0B92CA4FE0FC0FE01E80DF11D8081EA
:103CC000803321F49A2D997EA92E09C0A2FE06C048
:103CD000B394B39404C08A2D867809F0B394A3FCFE
:103CE00010C0A0FE06C0B21480F4280C922C9B18C1
:103CF0000DC0B21458F4B60180E290E073D0B394D2
:103D0000F8CFB21418F42B1802C0982C212CA4FE62
:103D10000FC0B60180E390E065D0A2FE16C0A1FC02
:103D200003C088E790E002C088E590E0B6010CC0CF
:103D30008A2D867851F0A1FE02C08BE201C080E29C
:103D4000A7FC8DE2B60190E04DD0891430F4B601A5
:103D500080E390E047D09A94F8CF8A94F301E80D7D
:103D6000F11D8081B60190E03DD08110F6CF222078
:103D700009F44ECEB60180E290E034D02A94F7CF19
:103D8000F6018681978102C08FEF9FEF2B96CDBF02
:103D9000DEBFDF91CF911F910F91FF90EF90DF90E9
:103DA000CF90BF90AF909F908F907F906F905F90DB
:103DB0004F903F902F900895FC0105906150704006
:103DC0000110D8F7809590958E0F9F1F0895FC01E4
:103DD0006150704001900110D8F7809590958E0F3A
:103DE0009F1F08950F931F93CF93DF93FB012381B0
:103DF00021FD03C08FEF9FEF2CC022FF16C046812C
:103E00005781248135814217530744F4A081B18141
:103E10009D012F5F3F4F208331838C932681378113
:103E20002F5F3F4F2683378314C08B01EC01FB01CA
:103E30000084F185E02D0995892BE1F6D8011696CD
:103E40008D919C911797019616968D939C93179739
:103E5000CE01DF91CF911F910F910895FA01AA270A
:103E6000283051F1203181F1E8946F936E7F6E5FBD
:103E70007F4F8F4F9F4FAF4FB1E03ED0B4E03CD06B
:103E8000670F781F891F9A1FA11D680F791F8A1F4E
:103E9000911DA11D6A0F711D811D911DA11D20D0B5
:103EA00009F468943F912AE0269F11243019305D6F
:103EB0003193DEF6CF010895462F4770405D419360
:103EC000B3E00FD0C9F7F6CF462F4F70405D4A33AD
:103ED00018F0495D31FD4052419302D0A9F7EACF75
:103EE000B4E0A6959795879577956795BA95C9F7A4
:103EF00000976105710508959B01AC010A2E069497
:103F00005795479537952795BA95C9F7620F731F4F
:103F1000841F951FA01D0895052E97FB16F400948D
:103F20000FD057FD05D024D007FC02D046F408C0BE
:103F300050954095309521953F4F4F4F5F4F0895D5
:103F400090958095709561957F4F8F4F9F4F089505
:103F500031D0A59F900DB49F900DA49F800D911D11
:103F600011240895B7FFF4CFF3DF821B930B08955C
:103F7000A1E21A2EAA1BBB1BFD010DC0AA1FBB1F6D
:103F8000EE1FFF1FA217B307E407F50720F0A21BDF
:103F9000B30BE40BF50B661F771F881F991F1A944C
:103FA00069F760957095809590959B01AC01BD0176
:103FB000CF010895A29FB001B39FC001A39F700DD0
:103FC000811D1124911DB29F700D811D1124911D21
:063FD0000895F894FFCFF4
:103FD60001000000000100000000000000000000D9
:103FE60000000000010000000000000000010101C7
:103FF60000000000000001010101010000000002B4
:104006000101010101020000020201010101010298
:104016000200020201010101010202020600010082
:104026000000000000000000000000000002000088
:104036000000000000000201020000000000000273
:10404600010101020000000002010101010102005C
:104056000002010101010101010200020101010149
:10406600010101010206000102020202020202022D
:10407600020202020202010202020202020202021B
:104086000101020202020202020101010102020210
:104096000202010101010101020201010101010106
:1040A60001010102010101010101010101010600F5
:1040B60001000000000000000000000100000000F8
:1040C60000000000000101000000000000000001E7
:1040D60001010000000000000001010101000000D4
:1040E60000000001010101010000000000010101C2
:1040F60001010100000000010101010101020000AF
:10410600000101010101010202000001010101019A
:104116000102020200010101010101020202020A7A
:104126000001000000000000000000000200000086
:104136000000000000000102000000000000000076
:104146000101020000000000000001010102000060
:104156000000000001010101020000000000010151
:10416600010101020000000001010101010102003C
:10417600000001010101010101020000010101012C
:104186000101010102000101010101010101010218
:104196000A0001000000000000000000000100000D
:1041A6000000000000000101000002000002000003
:1041B60000010002000000010200000002000101EF
:1041C60000000001020001020200020001020000DC
:1041D60001000201000101020200020102010001C8
:1041E60001020200020101010102020200000200B6
:1041F60000020102000202010201020102010201A3
:10420600020A000100000002020202000000010191
:104216000100000000010101010001020202020288
:104226000202020202010101010101010101010173
:10423600000102020202020202020202010202025C
:10424600020202020202010102020202020202024A
:10425600010101020202020202020101010102023F
:10426600020202020101010101020202020201012F
:104276000101010102020202010101010101010223
:104286000202010101010101010102020101010114
:104296000101010101020101010101010101010107
:1042A6000A0001000005010080FF000000FF000079
:1042B60050010000FF0A0000FF00005A0400FF0042
:1042C600000014FF00000001FFFFFF000000FF01D7
:1042D60000460200FF00000000FF01000501FFFF8D
:1042E60000000000FF02000A010000FFFF0000FFBF
:1042F6000200460100FFFF000000FF04005F04FF0C
:10430600000000FF00FF04001401FFFFFF0000FF94
:10431600FF04000501FF000000FF00FF06003C014E
:10432600FFFF000000FFFF06001E01FF8000FF00E8
:1043360000FF03004601FFFFFF0000FFFF03003CF4
:1043460001FF000000FF00FF00026401FF00000003
:1043560000FFFF010250010000FF000000FF030202
:104366005501FF000000FF00FF030264040000FF88
:1043760000FF00FF07026401FF00FF00FFFFFF01CF
:10438600011E1E1E1E1E1E323232323232FFFFFF49
:10439600FFFFFFFF320101A52BB62BFFFF00000137
:1043A600010101010203040507080A0B0C0D0D0C9F
:1043B6000B0A09070605050607090C0F1216191B35
:1043C6001C1C1B1A1714110E0B09090A0C101419C0
:1043D6001E23272A2C2C2A27231E1914100E0D0EF5
:1043E60011161C232A31363A3C3C39352F28211B1D
:1043F60015121112161C242D363E454A4C4B4842C6
:104406003B3229211B1615171C232C37424C545AB4
:104416005C5B5750473C3127201B191B212935412E
:104426004E5963696C6B665D5246392E251F1D1FFA
:1044360026303D4B596772797C7B756B5E504234F2
:104446002A2321242B364555657480898C8A8378E6
:104456006A5A4A3B2F282528303D4D5F71828F9836
:104466009C9A928676645241342C292C35435569A0
:104476007D8F9EA8ACAAA193826E5A4839302D3101
:104486003A4A5D73899DADB8BCB9B0A18E78624ECB
:104496003F3431354050657D95BCC7DCFF000020B8
:1044A60033404A525A60656A6E7276797D8082859B
:1044B600888A8C8E9092949698999B9D9EA0A1A294
:1044C600A4A5A6A7A9AAABACADAEAFB0B1B2B3B422
:1044D600B5B6B7B8B8B9BABBBCBCBDBEBFBFC0C124
:1044E600C2C2C3C4C4C5C6C6C7C7C8C9C9CACACB5F
:1044F600CBCCCDCDCECECFCFD0D0D1D1D2D2D3D3BF
:10450600D4D4D4D5D5D6D6D7D7D8D8D8D9D9DADA37
:10451600DADBDBDCDCDCDDDDDEDEDEDFDFDFE0E0C0
:10452600E0E1E1E1E2E2E2E3E3E3E4E4E4E5E5E558
:10453600E6E6E6E7E7E7E8E8E8E8E9E9E9EAEAEAF5
:10454600EAEBEBEBECECECECEDEDEDEDEEEEEEEF9D
:10455600EFEFEFF0F0F0F0F1F1F1F1F2F2F2F2F349
:10456600F3F3F3F3F4F4F4F4F5F5F5F5F5F6F6F6FE
:10457600F6F7F7F7F7F7F8F8F8F8F9F9F9F9F9FAB5
:10458600FAFAFAFAFBFBFBFBFBFCFCFCFCFCFCFD71
:10459600FDFDFDFDFEFEFEFEFEFFFFFFFF0000002F
:1045A6000000000000000000000000000000000005
:1045B60000000000000000000000000000000000F5
:1045C60000000000000000000000000000000000E5
:1045D60000000001010101010101010101010101C8
:1045E60001010101020202020202020202020303A7
:1045F6000303030303040404040404050505050575
:1046060006060606070707080808080909090A0A28
:104616000A0B0B0C0C0C0D0D0E0E0F0F10101111BA
:10462600121213131414151616171818191A1A1B22
:104636001C1D1D1E1F202122222324252627282952
:104646002A2B2C2D2E2F31323334353738393B3C3B
:104656003D3F404143444647494A4C4E4F515354CF
:1046660056585A5C5D5F61636567696B6D707274FD
:1046760076787B7D7F828487898C8E919396999BB1
:104686009EA1A4A7AAADB0B3B6B9BCBFC2C6C9CCD9
:10469600D0D3D7DADEE1E5E9EDF5F9FFFF00010257
:1046A600030405060708090A0B0C0D0E0F1011125C
:1046B600131415161718191A1B1C1D1E1F2021224C
:1046C600232425262728292A2B2C2D2E2F3031323C
:1046D600333435363738393A3B3C3D3E3F4041422C
:1046E600434445464748494A4B4C4D4E4F5051521C
:1046F600535455565758595A5B5C5D5E5F6061620C
:10470600636465666768696A6B6C6D6E6F707172FB
:10471600737475767778797A7B7C7D7E7F808182EB
:10472600838485868788898A8B8C8D8E8F909192DB
:10473600939495969798999A9B9C9D9E9FA0A1A2CB
:10474600A3A4A5A6A7A8A9AAABACADAEAFB0B1B2BB
:10475600B3B4B5B6B7B8B9BABBBCBDBEBFC0C1C2AB
:10476600C3C4C5C6C7C8C9CACBCCCDCECFD0D1D29B
:10477600D3D4D5D6D7D8D9DADBDCDDDEDFE0E1E28B
:10478600E3E4E5E6E7E8E9EAEBECEDEEEFF0F1F27B
:10479600F3F4F5F6F7F8F9FAFBFCFDFEFF496E694E
:1047A600742073746172742E2E2E0045432D444C72
:1047B6004D31202D2076322E332E3200444D582096
:1047C60043683A2025303364004D6F64652020200D
:1047D600202020202000444D5820416464726573D7
:1047E60073200052656420202031202020202000E4
:1047F600477265656E2031202020202000426C75AE
:1048060065202031202020202000526564202020B1
:1048160032202020202000477265656E203220203D
:1048260020202000426C7565202032202020202088
:104836000052656C656173652074696D6500416E33
:10484600696D6174696F6E20202000416E696D206C
:104856007472696767657200416E696D206375726F
:10486600766520200044696D6D6572202020202029
:104876002000496E7075742073656E73203100498F
:104886006E7075742073656E73203200496E707594
:10489600742073656E73203300496E7075742073CF
:1048A600656E73203400496E7075742073656E737F
:1048B600203500496E7075742073656E732036005E
:1048C6004E62206C6967687473202031004E622046
:1048D6006C6967687473202032004E62206C6967C9
:1048E600687473202033004E62206C6967687473A5
:1048F600202034004E62206C69676874732020356E
:10490600004E62206C696768747320203600456E1D
:10491600636C6F2E204C6967687400253031640023
:104926004C4344204C6967687420202000416E691E
:104936006D6174696F6E203120746F2033002530ED
:104946003364202025303364202025303364004131
:104956006E696D6174696F6E203420746F20360045
:10496600436F6C6F727320636F6E6669672E2E2EAF
:1049760000416E696D20636F6E6669672E2E2E206C
:10498600200047656E6572616C2073657475702EC4
:104996002E2E0055736572207072657365747320D0
:1049A60020202000466163746F72792070726573EF
:1049B60065747320004261636B2E2E2E202020200A
:1049C600005573652075736572207365742E2E2EDF
:1049D6000053617665207072657365742E2E2E20E5
:1049E6000053656C65637420662E2070726573656E
:1049F6007400507265736574202325303364005348
:104A0600656C65637420752E20707265736574001D
:104A16006C6F6164656420707265736574210065EE
:104A26006D707479207072657365742100536176B8
:104A360065642070726573657421004D616E7561E1
:104A46006C206D6F646500444D58206D6F64652061
:104A56002020004C696E65617220202020200045D0
:104A660078706F6E656E7469616C004C6F67617209
:104A760069746D6963200053696E757320466164BD
:104A86006520005472696767657220202020202007
:104A9600004175746F2073696E676C652020004154
:104AA60075746F20616C6C20202020200052616E8E
:104AB600646F6D2073696E676C650052616E646F1A
:104AC6006D20616C6C202020004F6E20202020205D
:104AD600202020202020004F666620202020202035
:104AE600202020200050756C736520202020202077
:104AF600202020200046696C6C20202020202020C9
:104B0600202020200043656E7465722066696C6CF7
:104B160020202020004551204D6F76696E672020A9
:104B260020202020004551204669786564202020F9
:104B3600202020200043656E746572204551204D6B
:104B46006F7620200043656E7465722045512046BD
:104B56006978656400436F6E7374656C6C61746923
:104B66006F6E20200050756C73652063656E7465EA
:104B760072202020003132332020202020202020C7
:104B8600202020202000202020202020202020203F
:104B96002020202020200021002D012E012F013071
:104BA6000131013201330134013501360137013853
:104BB6000139013A013B013C013D013E013F014003
:104BC600011F001E0021002100C900CA00CB00CC35
:104BD60000CD00CE00CF00D000D100D200D300D44B
:104BE60000D500D600D700D800D900DA00DB00DCFB
:104BF600000E000F00100011001200130014001523
:104C06000016001700180019001B001A0021000AE0
:104C1600000D000C000B0021000300040005000637
:104C260000070008000900210000000100020067DB
:0A4C360000680069006B006A0000CE
:00000001FF
