S01300004543444C4D3030315F56372E737265632F
S11300007FC200009EC200009CC200009AC2000091
S11300100C94281796C2000094C2000092C20000FB
S113002090C200008EC200000C946B098AC20000CA
S113003088C2000086C200000C94A20C82C2000098
S113004080C200007EC200007CC200007AC20000B0
S113005011C6000076C2000074C2000072C2000023
S113006070C200006EC200006CC200006AC20000D0
S113007068C2000066C2000064C2000062C20000E0
S113008060C200005EC200005CC200005AC20000F0
S113009058C2000056C2000054C2000052C2000000
S11300A050C200004EC200004CC200004AC2000010
S11300B048C2000046C2000044C200000C9466140A
S11300C040C200003EC200003CC200003AC2000030
S11300D038C200000C94E80934C2000032C20000A7
S11300E030C200002EC200002CC200002AC2000050
S11300F028C2000026C2000024C2000022C2000060
S11301000C946A171EC200001CC200001AC2000030
S113011018C2000016C2000014C2000012C200007F
S113012010C200000EC200000CC200000AC200008F
S113013008C200007FC6000004C2000002C2000022
S113014000C20000FEC10000FCC10000FAC10000B2
S1130150F8C10000F6C10000F4C10000F2C10000C3
S11301600C940D0AEEC10000ECC10000EAC10000CD
S1130170E8C10000E6C10000E4C10000E2C10000E3
S1130180E0C10000DEC10000DCC10000DAC10000F3
S1130190D8C10000D6C10000D4C10000D2C1000003
S11301A0D0C10000CEC10000CCC10000CAC1000013
S11301B0C8C10000C6C10000C4C10000C2C1000023
S11301C0C0C10000BEC10000BCC10000BAC1000033
S11301D0B8C10000B6C10000B4C10000B2C1000043
S11301E0B0C10000AEC10000ACC10000AAC1000053
S11301F0A8C10000A6C10000A4C10000A703C50354
S1130200CF03D903E303ED03F703B103BB03EA0709
S11302107B077B07DE07DE076E077507F10C2A0DE7
S1130220450D660D870DA80DC90DEA0D0B0EA80E20
S11302302C0E4D0E720E8D0EC90EEA0E0B0F2C0FE6
S11302404D0F6E0F8F0FB00FD10FF20F131034102C
S1130250761055109710CE10B911A5111612691108
S11302607D1191111612161216121612161216126A
S1130270161216121612161216121612161216123A
S1130280161216121612161216121612161216122A
S1130290161216121612161216121612161216121A
S11302A0161216121612161216121612161216120A
S11302B016121612161216121612161216121612FA
S11302C016121612161216121612161216121612EA
S11302D016121612161216121612161216121612DA
S11302E016121612161216121612051119112D11C4
S11302F04111551116121612161216121612161252
S113030016121612161216121612161216121612A9
S11303101612161216121612161216121612161299
S11303201612161216121612161216121612161289
S11303301612161216121612161216121612161279
S11303401612161216121612161216121612161269
S11303501612161216121612161216121612161259
S11303601612161216121612161216121612161249
S11303701612161216121612161216121612161239
S11303801612161216121612161216121612161229
S11303901612161216121612161216121612161219
S11303A01612161216121612161216121612CD1153
S11303B0CD11CD11CD11CD11CD11CD11CD11CD1149
S11303C0CD11CD11CD11CD11CD11CD11CD11CD1139
S11303D0CD11CD11CD1116121612161216121612B7
S11303E016121612161216121612161216121612C9
S11303F016121612161216121612161216121612B9
S113040016121612161216121612161216121612A8
S11304101612161216121612161216121612161298
S11304201612161216121612161216121612161288
S11304301612161216121612161216121612161278
S11304401612161216121612161216121612161268
S11304501612161216121612161216121612161258
S11304601612161216121612161216121612161248
S1130470161216121612F211F211F211F211F211F1
S1130480F211F211F211F211F211F211F211F21150
S1130490F211F211F211F211F211F211F211CA1465
S11304A0011512152B1544155D1576158F15BF15FD
S11304B0A815A916B916C916D715E815F9150A16F7
S11304C01B162C163D164F166116731685169716B5
S11304D0EA14DA143F2B4B2B572B632B6F2B7B2BFC
S11304E0872B952BA32BB12BBF2BCD2BDB2BE92BF0
S11304F0F92B092C192C292C392C492C592C692C11
S113050011241FBECFEFCDBFDFE5DEBF00E00CBF7F
S11305101DE2A0E0B0E2E4ECFEE300E00BBF02C0A9
S113052007900D92AE33B107D9F720E3AEE3BDE2F5
S113053001C01D92A631B207E1F70E94F50A0C949E
S1130540601F5ECD42305105C1F03CF441155105A8
S113055061F04130510569F020C044305105A9F0E3
S113056084F045305105A9F018C02091F42330E0FF
S113057016C02091F32330E012C02091F22330E022
S11305800EC02091F12330E00AC02091F02330E026
S113059006C02091EF2330E002C020E030E0DC010F
S11305A0CB01820F931FA11DB11D84369105A105B6
S11305B0B1051CF480E090E0DC018F3F9105A105BA
S11305C0B10529F024F08FEF90E0A0E0B0E0BA2F5D
S11305D0A92F982F8827009721E0A207B10520F0C2
S11305E08FEF9FEFA0E0B0E008952F923F924F92DB
S11305F05F926F927F928F929F92AF92BF92CF92AF
S1130600DF92EF92FF920F931F93CF93DF93CDB7B7
S1130610DEB7AF97CDBFDEBF7B01292F30E08091DD
S1130620B02F813061F028F0823079F0833099F076
S113063018C0F901EB5FF84D6080712C14C0F9010A
S1130640EB5FF94D6080712C0EC0F901EB5FFA4D40
S11306506080712C08C0F901EB5FFB4D6080712C48
S113066002C0612C712C8091B12F863031F085301D
S113067031F466246A94712C02C0612C712C23E03D
S1130680E216F104F9F04CF461E0E616F10471F0BD
S113069072E0E716F10471F045C084E0E816F10455
S11306A0E9F095E0E916F10449F13CC08091EE23AC
S11306B090E03AC02091EE238091ED2390E0820FE8
S11306C0911D32C02091EE238091ED2390E0820FA2
S11306D0911D2091EC23820F911D26C02091EE23C1
S11306E08091ED2390E0820F911D2091EC23820FE5
S11306F0911D2091EB23820F911D16C02091EE23B2
S11307008091ED2390E0820F911D2091EC23820FC4
S1130710911D2091EB23820F911D2091EA23820FDA
S1130720911D02C080E090E08C01000F111F080FA2
S1130730191F8091FD2390E08930910508F061C074
S1130740FC018827E250FF4F8F4F0C94B91BC090D7
S11307508722D0908822A0918922AF8B23E732E2AE
S113076056C0C0905922D0905A22B0915B22BF8BC0
S11307702BEE31E24CC0C0907022D0907122E091F7
S11307807222EF8B2CE532E242C0C090F822D09066
S1130790F922F091FA22FF8B2AE832E238C0C090A5
S11307A00621D0900721209108212F8B20EC30E2E4
S11307B02EC0C090E821D090E9214091EA214F8BCE
S11307C02AE731E224C0C0907721D090782160914B
S11307D079216F8B29E031E21AC0C090BD20D090FE
S11307E0BE207091BF207F8B2FE430E210C0C090F8
S11307F04C20D0904D2080914E208F8B26E030E20B
S113080006C020E030E01F8ACC24C394D12C80E0C1
S113081091E0B6010E94921B5B01C3010E94921BEE
S1130820FB01982F80E0B5010E94921B2B01AF01C0
S1130830440F551FCF01880F991F880F991F880FE8
S1130840991F840F951FCE16DF0629F03C01AAE0FC
S11308506A0E711C01C03C0119821A824091FB236B
S113086050E04B835C834091F82350E04D835E83DA
S11308701F8218864091FA2350E049875A87409195
S1130880F72350E04B875C871D861E864091F92331
S113089050E04F87588B4091F62350E0498B5A8B98
S11308A04091EE23E42FF0E0E88FF98F4091ED239F
S11308B0642F70E06A8F7B8F4091EC23A42FB0E00B
S11308C0AC8FBD8F4091EB23E42FF0E0EE8FFF8FD0
S11308D04091EA23642F70E068A379A34091E9234F
S11308E0A42FB0E0AAA3BBA3A090F523B12C065B70
S11308F0124DC12CD12CBAA1BCA3EBA1EDA3F8A13C
S1130900FEA349A14FA36E8D68A77F8D79A7AA8DF9
S1130910AAA7BB8DBBA7E88DECA7F98DFDA74C8DCD
S11309204EA76D8D6FA7620E731E4901880E991E26
S113093080E091E01C0124183508FCC0B6010D2CA0
S1130940000C880B990B0E94501A6B8B7C8B8D8B3F
S11309509E8B72E0E716F104C9F044F4E114F1044B
S113096079F091E0E916F104E9F40DC0A4E0EA1687
S1130970F10491F074F0E5E0EE16F10499F40FC07F
S11309806CA57DA511C06AA57BA50EC06EA57FA52B
S11309900BC068A579A508C06EA17FA105C06CA194
S11309A07DA102C060E070E0072E000C880B990B5B
S11309B00E94501A9B01AC0160E070E080E191E478
S11309C00E94B5192B893C894D895E890E942F1B91
S11309D00E948B1A0E941D1AF301E60FF71FA081D3
S11309E00A2E000CBB0BFF89F13009F06FC0F40133
S11309F0E60FF71F8081AA0FBB1F61E070E06C0F48
S1130A007D1F6A0F7B1FDB012D913C91429EF001FB
S1130A10439EF00D529EF00D11242F2F3327A82F43
S1130A20AA0FBB0BE1E0F0E0EC0FFD1FEA0FFB1F88
S1130A30EB8BFC8B40815181249EC001259E900D3F
S1130A40349E900D1124E92FFF27E20FF31FDB01E1
S1130A5016968D919C911797489E9001499E300D52
S1130A60589E300D1124432F5527AB89BC89169607
S1130A702D913C911797229EC001239E900D329E8A
S1130A80900D1124292F3327240F351FDB011C96C9
S1130A908D919C911D97489EA001499E500D589E92
S1130AA0500D1124452F5527AB89BC891C966D9197
S1130AB07C911D97269EC001279E900D369E900D19
S1130AC01124892F9927480F591F13C0AA0FBB1F40
S1130AD0E1E0F0E0EC0FFD1FAE0FBF1FED91FC91C4
S1130AE0119716962D913C9117971C964D915C91F8
S1130AF01D97EA9DC001EB9D900DFA9D900D112468
S1130B00D8019C932A9DC0012B9D900D3A9D900D78
S1130B10112411969C9311974A9DC0014B9D900DF1
S1130B205A9D900D112412969C93BFEFCB1ADB0AA9
S1130B300D5F1F4FE2E0EE16F10401F144F4E114FD
S1130B40F10479F021E0E216F10489F031C044E0C7
S1130B50E416F10409F1CCF075E0E716F10411F1A3
S1130B6027C0888D998DC816D906F4F16DC0AA8D59
S1130B70BB8DCA16DB060CF443C066C0EC8DFD8D3C
S1130B80CE16DF060CF448C05FC06E8D7F8DC6168E
S1130B90D7060CF44DC058C088A199A1C816D9062F
S1130BA05CF052C0AAA1BBA1CA16DB068CF04CC0F3
S1130BB0DD200CF4C3CE48C0B6010D2C000C880B0C
S1130BC0990B0E94501A6B8B7C8B8D8B9E8BE4CE81
S1130BD0B6010D2C000C880B990B0E94501A6B8BDC
S1130BE07C8B8D8B9E8BDBCEB6010D2C000C880B81
S1130BF0990B0E94501A6B8B7C8B8D8B9E8BC0CE75
S1130C00B6010D2C000C880B990B0E94501A6B8BAB
S1130C107C8B8D8B9E8BB7CEB6010D2C000C880B74
S1130C20990B0E94501A6B8B7C8B8D8B9E8BAECE56
S1130C30B6010D2C000C880B990B0E94501A6B8B7B
S1130C407C8B8D8B9E8BA5CEAF96CDBFDEBFDF9107
S1130C50CF911F910F91FF90EF90DF90CF90BF90B5
S1130C60AF909F908F907F906F905F904F903F9048
S1130C702F9008951F920F920FB60F9211240BB666
S1130C800F92AF92BF92CF92EF92FF921F932F9346
S1130C903F934F935F936F937F938F939F93AF9300
S1130CA0BF93CF93DF93EF93FF93A12CB12CEE244A
S1130CB0E394F12C1A2DC12CE7010A2C02C0CC0FAD
S1130CC0DD1F0A94E2F7DD2754C02091EE2330E0C3
S1130CD03AC08091EE232091ED2330E0280F311D9E
S1130CE032C08091EE232091ED2330E0280F311D96
S1130CF08091EC23280F311D26C08091EE23209192
S1130D00ED2330E0280F311D8091EC23280F311D95
S1130D108091EB23280F311D16C08091EE23209182
S1130D20ED2330E0280F311D8091EC23280F311D75
S1130D308091EB23280F311D8091EA23280F311D68
S1130D4002C020E030E0F901EE0FFF1F2E0F3F1F1D
S1130D50CA01880F991F840F951FF901E80FF91F25
S1130D60E65BF24D9E014281618180810E94DD1823
S1130D70C3944C2D50E01230D9F028F4112349F0DB
S1130D80113071F034C0143019F1D0F0153041F144
S1130D902EC08091EE2390E04817590794F227C0A3
S1130DA08091ED2390E0481759070CF48ECF1FC0B3
S1130DB08091EC2390E0481759070CF48ACF17C0B0
S1130DC08091EB2390E0481759070CF48ACF0FC0A9
S1130DD08091EA2390E0481759070CF48ECF07C09E
S1130DE08091E92390E0481759070CF496CF8FEFD0
S1130DF0A81AB80A86E0A816B10409F05BCFFF91DF
S1130E00EF91DF91CF91BF91AF919F918F917F919E
S1130E106F915F914F913F912F911F91FF90EF90B0
S1130E20CF90BF90AF900F900BBE0F900FBE0F905E
S1130E301F9018951F920F920FB60F9211240BB6A4
S1130E400F922F923F924F925F926F927F928F9266
S1130E509F92AF92BF92CF92DF92EF92FF920F9345
S1130E601F932F933F934F935F936F937F938F932E
S1130E709F93AF93BF93CF93DF93EF93FF938091AF
S1130E80B52F8111DAC002E71FE20F2EF8E9CF2E49
S1130E90FFE2DF2EF02D0F2EFEE3EF2EFDE2FF2EFC
S1130EA0F02DC0E0D0E00F2EF5E6AF2EB12CF02DE2
S1130EB088248394912C44244A94542C612C712CBE
S1130EC08091B12F90E08730910508F0A3C0FC0118
S1130ED08827E95FFE4F8F4F0C94B91BD6014D92C2
S1130EE05D926D927C92139795C0F60110821182E7
S1130EF0128213828FC0D7018D919C91892B81F529
S1130F008091FC23A501481B5109209104203091B4
S1130F100520429FC001439F900D529F900D1124C4
S1130F20AC01990F660B770BF80180819181A28146
S1130F30B381840F951FA61FB71F80839183A2835B
S1130F40B3838F3F9F4FA105B1050CF463C0D70154
S1130F508D929C92F80140825182628273825AC0BF
S1130F608091FC23A501481B510920910420309154
S1130F700520429FC001439F900D529F900D112464
S1130F80AC01990F660B770BF80180819181A281E6
S1130F90B381841B950BA60BB70B80839183A2832B
S1130FA0B383181619061A061B06A4F1D7011D925D
S1130FB01C9210821182128213822CC00E94081C7F
S1130FC0092E000CAA0BBB0BF80180839183A2832A
S1130FD0B38320C0F801808191812091FC23A50175
S1130FE0421B51099A01002436952795079436959A
S1130FF027950794322F202D2817390718F4821BC0
S1131000930B02C080E090E0A0E0B0E08083918385
S1131010A283B383F80181919191A191B1918F0140
S1131020BE01E3DA2196F4E0CF0ED11C22E0E20EF9
S1131030F11CC630D10509F043CFFF91EF91DF9148
S1131040CF91BF91AF919F918F917F916F915F915C
S11310504F913F912F911F910F91FF90EF90DF904F
S1131060CF90BF90AF909F908F907F906F905F9044
S11310704F903F902F900F900BBE0F900FBE0F908C
S11310801F901895FC016583138288E0818381E0B9
S113109084830895FC01848183708130C9F4660FD0
S11310A0642B668380E490E002C0880F991F4A9500
S11310B0E2F7248130E028233923232BD1F39481D0
S11310C0892F807194FF05C083E0838382E00895B3
S11310D081E0089523E0FC01238321E02483089523
S11310E0FC016783948196FFFDCF9481892F8071E1
S11310F094FF03C083E0838382E0089540E067E2C5
S113110080EA94E0C7DF60918B2F80EA94E0E8DF07
S113111080EA94E0DFCF089590918B2F9F7080FD3B
S113112003C090938B2F03C0906190938B2F81FF0A
S113113005C090918B2F906290938B2F82FF05C0F6
S113114090918B2F906490938B2F83FF05C0809197
S11311508B2F806880938B2F0895CF93C82F809115
S11311608B2F846080938B2F8C2F85958595859507
S11311708595D2DFC3DF80918B2F8B7F80938B2F5C
S1131180BDDF80918B2F846080938B2F8C2FC4DFE5
S1131190B5DF80918B2F8B7F80938B2FAFDF83EF15
S11311A091E00197F1F700C00000CF91089590916C
S11311B08B2F9C7F90938B2FD0CF089510928A2FE2
S11311C081E0F5CF0895662311F090E401C090E02A
S11311D0699F800D11248068EACF089590918B2F28
S11311E0916090938B2F8A3031F08C3091F4E6DF4C
S11311F010928A2F089580918A2F8F5F80938A2F6F
S1131200823011F410928A2F60918A2F80E0DBCF14
S11312100895A3CF0895CF93DF93EC0188818823A9
S113122029F02196DBDF89918111FCCFDF91CF91E9
S1131230089580918B2F886080938B2F5FCF0895C2
S113124080918B2F877F80938B2F58CF0895CF93D6
S113125085EA9EE00197F1F700C00000C3E083E057
S11312605BDF80918B2F846080938B2F47DF80918D
S11312708B2F8B7F80938B2F41DF87EE93E0019739
S1131280F1F700C00000C15051F782E045DF8091C2
S11312908B2F846080938B2F31DF80918B2F8B7FFA
S11312A080938B2F2BDF89EF90E00197F1F700C03B
S11312B000008CE27CDF88E07ADF81E078DF83EF76
S11312C091E00197F1F700C0000086E070DF8CE048
S11312D06EDFCF9108951F920F920FB60F921124D3
S11312E00BB60F92CF92DF92EF92FF920F931F9360
S11312F02F933F934F935F936F937F938F939F931A
S1131300AF93BF93CF93DF93EF93FF930F2EF8E93F
S1131310CF2EFFE2DF2EF02D0F2EF2E7EF2EFFE2AD
S1131320FF2EF02D00E010E0C0E4D2E0802F880F03
S1131330880F880F89A31AA288A1806888A38BA12B
S11313408823E9F36CA17DA18BA18BA30630110541
S1131350CCF480E090E0A801F5D8A0E0B0E0F6017C
S113136080839183A283B383F70140815181628199
S11313707381481759076A077B0724F48083918394
S1131380A283B3830F5F1F4FF4E0CF0ED11C84E020
S1131390E80EF11C0830110549F6FF91EF91DF9139
S11313A0CF91BF91AF919F918F917F916F915F91F9
S11313B04F913F912F911F910F91FF90EF90DF90EC
S11313C0CF900F900BBE0F900FBE0F901F901895EB
S11313D01F920F920FB60F9211248F939F93AF9386
S11313E0BF938091C22F9091C32FA091C42FB0912D
S11313F0C52F0196A11DB11D8093C22F9093C32FB9
S1131400A093C42FB093C52FBF91AF919F918F919B
S11314100F900FBE0F901F9018951F920F920FB64A
S11314200F9211240BB60F922F933F934F935F9318
S11314306F937F938F939F93AF93BF93EF93FF9398
S1131440E0EAF9E02181822F90E080938E2F90933F
S11314508F2F808190E08093922F9093932F80918F
S1131460B22F813009F0AEC024FF0EC080918C2FC2
S113147090918D2F019680938C2F90938D2F1092A5
S1131480902F1092912F0DC010928C2F10928D2FAF
S11314908091902F9091912F01968093902F90930B
S11314A0912F2091FE2330E0E091902FF091912F25
S11314B0C90101968E179F0721F48091922F809382
S11314C0FB23C9010296E817F90721F48091922FB2
S11314D08093FA23C9010396E817F90721F4809150
S11314E0922F8093F923C9010496E817F90721F490
S11314F08091922F8093F823C9010596E817F90784
S113150021F48091922F8093F723C9010696E8175E
S1131510F90721F48091922F8093F623C90107964D
S1131520E817F90781F44091922F5091932F64E6C4
S1131530649FC001659F900D11246FEF70E00E94BD
S1131540A61B6093FC23C9010896E817F90781F4E8
S11315508091922F9091932F880F991F880F991F34
S1131560880F991F6FEF70E00E94A61B6093FD2304
S1131570C9010996E817F90789F48091922F90918F
S1131580932FAC01440F551F840F951F880F991F8B
S11315906FEF70E00E94A61B6093B12F265F3F4F50
S11315A0E217F30779F48091922F9091932F9C0185
S11315B0220F331F820F931F6FEF70E00E94A61B50
S11315C06093B02FFF91EF91BF91AF919F918F9155
S11315D07F916F915F914F913F912F910F900BBE2F
S11315E00F900FBE0F901F90189588ED84BF82E076
S11315F080935000E0E5F0E0818181FFFDCF88ED2C
S113160084BFC0E4D0E011E018832FEF33EC89E00D
S1131610215030408040E1F700C000008CE192E0AE
S1131620EAE4FDE2DF019C011D9221503040E1F724
S113163086E0E8E9FFE2DF01282F1D922A95E9F709
S1131640E2E7FFE2DF01282F1D922A95E9F7E6E69B
S1131650FFE2DF011D928A95E9F780E2E6ECFFE202
S1131660DF01282F1D922A95E9F7E6E0F0E3DF0178
S11316701D928A95E9F783E0809381066BE980EAFD
S113168094E000DDE4DDD5DD60E080E09CDD96DD06
S113169060E080E098DD85E098E2BDDDBFEFE3ED3A
S11316A0F0E3B150E040F040E1F700C0000087E013
S11316B08093A2004DD7E0E2F6E08FEF828380E1D1
S11316C0808B818B828B838B848B858B868B878BA2
S11316D0E4B53FB7F89480EC91E022E0DC011A967F
S11316E02C931A97F0E0E4911A961C923FBFA0E461
S11316F0B2E01C96EC931C9745B53FB7F894FC01F7
S11317002287E42FF0E02491FC0112863FBF1D964E
S11317102C931D971C9384E011968C93119711962A
S11317208C9111978F7E11968C93119785E0149666
S11317308C93149712961C92129713961C921397DB
S113174092961C92929790961C93AFE7BEE31197E2
S1131750F1F700C000008B8310920004E0E0F4E095
S1131760818180FDFDCF1092080410920904E0E00D
S1131770F4E0818180FDFDCF82E090E080930A0453
S113178090930B04E0E0F4E0818180FDFDCFE0E084
S1131790F4E081E0838342E042839081987F91600A
S11317A09083E0E4FAE010822CE0218768E070E0A6
S11317B066A377A3868337E030839485916094870A
S11317C0A0E8B6E012969C9112979C6012969C93A6
S11317D01297E0E6F6E092819061928393E052964C
S11317E09C93529753969C93448B428540614287C5
S11317F08187A0EEB7E012964C911297436012963F
S11318004C93129741E150964C93509751964C93B8
S113181051971A964C911A9743601A964C931A97BB
S113182019968C93A0E8B1E04FE418964C9318975E
S113183042E74C93A0E0BAE048E613964C93139722
S113184042E050E096964D935C9397979C939096C4
S11318501D921C92919716969C93A0E0B8E01C925E
S113186019962C9319974CE25AE096964D935C93F3
S1131870979716968C9316973C931C964C911C97AD
S113188041601C964C934FEF40930106A0E4B8E0EE
S11318901C9219962C93199746EE5BE196964D93FC
S11318A05C93979716969C93169795E09C931C9639
S11318B09C911C9791601C969C93A0E0B9E01C92AB
S11318C019962C9319974EEB51E096964D935C9391
S11318D0979716968C9316973C931C969C911C97FD
S11318E091601C969C9391819A60918392819460FB
S11318F09283968192609683928194609283A0EA07
S1131900B0E012969C911297926012969C93A0EA72
S1131910B9E090E213969C9313972BE015962C93C1
S1131920159716968C93169717969C93179780E1A4
S113193014968C93789480818062808386818066FB
S11319408683FFCF1F920F920FB60F9211240BB60E
S11319500F922F933F934F935F936F937F938F9344
S11319609F93AF93BF93EF93FF93CF93DF93CDB741
S1131970DEB76097CDBFDEBF8091B52F882351F0CD
S1131980E0E6F6E0878180668783E091BE2FF091E0
S1131990BF2F18C08091E823813031F4E0E6F6E0EF
S11319A086818066868357C5E0E6F6E08581806699
S11319B0858351C58C31910509F4B9C34D9709F05C
S11319C057C5ECC3E0930324F0930424E13481E08D
S11319D0F80708F02BC58827E25FFE4F8F4F0C9461
S11319E0B91BA0910124B091022481E1E3E1F8E262
S11319F001900D928A95E1F780E1FE013196DF01B5
S1131A00982F1D929A95E9F79091FE231F929F9328
S1131A1024E238E23F932F931F928F93FF93EF9327
S1131A200E94261CE091B22FCDBFDEBFE13041F011
S1131A30F0E0EE0FFF1FEC52FB4F6591749103C071
S1131A40BE016F5F7F4F8091FF23909100240E941D
S1131A501F1CECC4A0910124B091022481E1E6E3AF
S1131A60F8E201900D928A95E1F7E091B22FF0E04F
S1131A70EE0FFF1FEC52FB4F659174918091FF2391
S1131A80909100240E941F1CD1C4A0910124B09104
S1131A90022481E1E7E4F8E201900D928A95E1F7EE
S1131AA08091FE231F928F9388E598E29F938F93F2
S1131AB01F9280E18F93809100248F938091FF2364
S1131AC08F930E94261CCDBFDEBFB0C4A091012419
S1131AD0B091022481E1EAE6F8E201900D928A9540
S1131AE0E1F78091FB231F928F9388E598E29F93FF
S1131AF08F931F9280E18F93809100248F93809124
S1131B00FF238F930E94261CCDBFDEBF8FC4A091FC
S1131B100124B091022481E1EBE7F8E201900D92F7
S1131B208A95E1F78091FA231F928F9388E598E2D2
S1131B309F938F931F9280E18F93809100248F93C2
S1131B408091FF238F930E94261CCDBFDEBF6EC4FD
S1131B50A0910124B091022481E1ECE8F8E2019023
S1131B600D928A95E1F78091F9231F928F9388E56E
S1131B7098E29F938F931F9280E18F93809100242A
S1131B808F938091FF238F930E94261CCDBFDEBFCD
S1131B904DC4A0910124B091022481E1EDE9F8E261
S1131BA001900D928A95E1F78091F8231F928F930B
S1131BB088E598E29F938F931F9280E18F938091A1
S1131BC000248F938091FF238F930E94261CCDBF06
S1131BD0DEBF2CC4A0910124B091022481E1EEEA7D
S1131BE0F8E201900D928A95E1F78091F7231F9214
S1131BF08F9388E598E29F938F931F9280E18F9350
S1131C00809100248F938091FF238F930E94261C40
S1131C10CDBFDEBF0BC4A0910124B091022481E1A9
S1131C20EFEBF8E201900D928A95E1F78091F623AB
S1131C301F928F9388E598E29F938F931F9280E180
S1131C408F93809100248F938091FF238F930E9420
S1131C50261CCDBFDEBFEAC3A0910124B0910224AB
S1131C6081E1E0EDF8E201900D928A95E1F780912F
S1131C70FC231F928F9388E598E29F938F931F9282
S1131C8080E18F93809100248F938091FF238F9321
S1131C900E94261CCDBFDEBFC9C38091FD2390E006
S1131CA08930910514F088E090E08093FD23A091A1
S1131CB00124B091022481E1E1EEF8E201900D9259
S1131CC08A95E1F7E091FD23F0E0EE0FFF1FE2516A
S1131CD0FB4F659174918091FF23909100240E94A1
S1131CE01F1CA4C3A0910124B091022481E1E2EF5E
S1131CF0F8E201900D928A95E1F7E091B12FF0E0BE
S1131D00EE0FFF1FE052FB4F659174918091FF230A
S1131D10909100240E941F1C89C3A0910124B091BA
S1131D20022481E1E3E0F9E201900D928A95E1F762
S1131D30E091B02FF0E0EE0FFF1FE852FB4F6591EA
S1131D4074918091FF23909100240E941F1C6EC304
S1131D50A0910124B091022481E1E4E1F9E201902F
S1131D600D928A95E1F78091F5231F928F9388E570
S1131D7098E29F938F931F9280E18F938091002428
S1131D808F938091FF238F930E94261CCDBFDEBFCB
S1131D904DC3A0910124B091022481E1E5E2F9E26E
S1131DA001900D928A95E1F78091F4231F928F930D
S1131DB088E598E29F938F931F9280E18F9380919F
S1131DC000248F938091FF238F930E94261CCDBF04
S1131DD0DEBF2CC3A0910124B091022481E1E6E38B
S1131DE0F9E201900D928A95E1F78091F3231F9215
S1131DF08F9388E598E29F938F931F9280E18F934E
S1131E00809100248F938091FF238F930E94261C3E
S1131E10CDBFDEBF0BC3A0910124B091022481E1A8
S1131E20E7E4F9E201900D928A95E1F78091F223BB
S1131E301F928F9388E598E29F938F931F9280E17E
S1131E408F93809100248F938091FF238F930E941E
S1131E50261CCDBFDEBFEAC2A0910124B0910224AA
S1131E6081E1E8E5F9E201900D928A95E1F780912C
S1131E70F1231F928F9388E598E29F938F931F928B
S1131E8080E18F93809100248F938091FF238F931F
S1131E900E94261CCDBFDEBFC9C2A0910124B0910F
S1131EA0022481E1E9E6F9E201900D928A95E1F7D5
S1131EB08091F0231F928F9388E598E29F938F93EC
S1131EC01F9280E18F93809100248F938091FF2350
S1131ED08F930E94261CCDBFDEBFA8C2A09101240F
S1131EE0B091022481E1EAE7F9E201900D928A952A
S1131EF0E1F78091EF231F928F9388E598E29F93F7
S1131F008F931F9280E18F93809100248F9380910F
S1131F10FF238F930E94261CCDBFDEBF87C2A091F2
S1131F200124B091022481E1EBE8F9E201900D92E1
S1131F308A95E1F78091EE231F928F9388E598E2CA
S1131F409F938F931F9280E18F93809100248F93AE
S1131F508091FF238F930E94261CCDBFDEBF66C2F3
S1131F60A0910124B091022481E1ECE9F9E201900D
S1131F700D928A95E1F78091ED231F928F9388E566
S1131F8098E29F938F931F9280E18F938091002416
S1131F908F938091FF238F930E94261CCDBFDEBFB9
S1131FA045C2A0910124B091022481E1EDEAF9E255
S1131FB001900D928A95E1F78091EC231F928F9303
S1131FC088E598E29F938F931F9280E18F9380918D
S1131FD000248F938091FF238F930E94261CCDBFF2
S1131FE0DEBF24C2A0910124B091022481E1EEEB72
S1131FF0F9E201900D928A95E1F78091EB231F920B
S11320008F9388E598E29F938F931F9280E18F933B
S1132010809100248F938091FF238F930E94261C2C
S1132020CDBFDEBF03C2A0910124B091022481E19F
S1132030EFECF9E201900D928A95E1F78091EA23A1
S11320401F928F9388E598E29F938F931F9280E16C
S11320508F93809100248F938091FF238F930E940C
S1132060261CCDBFDEBFE2C1A0910124B0910224A1
S113207081E1E0EEF9E201900D928A95E1F7809119
S1132080E9231F928F9388E598E29F938F931F9281
S113209080E18F93809100248F938091FF238F930D
S11320A00E94261CCDBFDEBFC1C1A0910124B09106
S11320B0022481E1E1EFF9E201900D928A95E1F7C2
S11320C08091E8231F928F9382E09AE29F938F93EB
S11320D01F9280E18F93809100248F938091FF233E
S11320E08F930E94261CCDBFDEBFA0C1A091012406
S11320F0B091022481E1E6E1FAE201900D928A9521
S1132100E1F78091E7231F928F9382E09AE29F93F5
S11321108F931F9280E18F93809100248F938091FD
S1132120FF238F930E94261CCDBFDEBF7FC1A091E9
S11321300124B091022481E1E7E2FAE201900D92D8
S11321408A95E1F7E8E9FFE283858F9382858F938F
S113215081858F9380858F9387818F9386818F93D9
S113216085818F9384818F9383818F9382818F93D1
S113217081818F9380818F9388E39AE29F938F93D9
S11321801F9280E18F93809100248F938091FF238D
S11321908F930E94261CCDBFDEBF48C1A0910124AD
S11321A0B091022481E1E9E4FAE201900D928A956A
S11321B0E1F7E8E9FFE287898F9386898F93858920
S11321C08F9384898F9383898F9382898F93818955
S11321D08F9380898F9387858F9386858F93858549
S11321E08F9384858F9388E39AE29F938F931F92B2
S11321F080E18F93809100248F938091FF238F93AC
S11322000E94261CCDBFDEBF11C1A0910124B09154
S1132210022481E1EAE5FAE201900D928A95E1F760
S11322206BEF72E28091FF23909100240E941F1CA7
S1132230FDC0A0910124B091022481E1EBE6FAE211
S113224001900D928A95E1F76BEF72E28091FF2382
S1132250909100240E941F1CE9C0A0910124B09118
S1132260022481E1ECE7FAE201900D928A95E1F70C
S11322706BEF72E28091FF23909100240E941F1C57
S1132280D5C0A0910124B091022481E1EDE8FAE2E5
S113229001900D928A95E1F76BEF72E28091FF2332
S11322A0909100240E941F1CC1C0A0910124B091F0
S11322B0022481E1EEE9FAE201900D928A95E1F7B8
S11322C06BEF72E28091FF23909100240E941F1C07
S11322D0ADC0A0910124B091022481E1EFEAFAE2B9
S11322E001900D928A95E1F76BEF72E28091FF23E2
S11322F0909100240E941F1C99C0A0910124B091C8
S1132300022481E1EEE9FAE201900D928A95E1F767
S11323106BEF72E28091FF23909100240E941F1CB6
S113232085C0A0910124B091022481E1EDE8FAE294
S113233001900D928A95E1F76BEF72E28091FF2391
S1132340909100240E941F1C71C0A0910124B0919F
S1132350022480E1E0ECFAE201900D928A95E1F723
S11323606BEF72E28091FF23909100240E941F1C66
S11323705DC0A0910124B091022480E1E0EDFAE275
S113238001900D928A95E1F76BEF72E28091FF2341
S1132390909100240E941F1C49C0A0910124B09177
S11323A0022481E1E0EEFAE201900D928A95E1F7D0
S11323B08091BE2F9091BF2F885C91099F938F933A
S11323C081EF9AE29F938F931F9280E18F93809184
S11323D000248F938091FF238F930E94261CCDBFEE
S11323E0DEBF24C0A0910124B091022481E1E3E086
S11323F0FBE201900D928A95E1F78091BE2F9091B6
S1132400BF2F8C5291409F938F9381EF9AE29F93B9
S11324108F931F9280E18F93809100248F938091FA
S1132420FF238F930E94261CCDBFDEBF60E080E0B7
S11324300E94E30880910124909102240E940B09D8
S113244061E080E00E94E3088091FF2390910024E2
S11324500E940B090DC08091032490910424E09103
S1132460BE2FF091BF2F8E179F0709F0ABCAA2CAE7
S11324706096CDBFDEBFDF91CF91FF91EF91BF9109
S1132480AF919F918F917F916F915F914F913F9108
S11324902F910F900BBE0F900FBE0F901F901895A9
S11324A0E6EEFFE28091B22F81838091FE23828346
S11324B08091FB2383838091FA2384838091F92381
S11324C085838091F82386838091F7238783809185
S11324D0F62380878091FC2382878091B02F8587A3
S11324E08091F52381878091F42386878091F3235B
S11324F087878091F223808B8091F123818B809157
S1132500F023828B8091EF23838B8091EE23848B45
S11325108091ED23858B8091EC23868B8091EB2336
S1132520878B8091EA23808F8091E923818F80912A
S1132530E723828F8091E823838F8091FD23838713
S11325408091B12F8487CF01D7D680E0EBC6089560
S113255040E250E066EC7FE280E090E0A3D6809118
S1132560C72F8F3F11F08093B22F8091C82F8F3FD8
S113257011F08093FE238091C92F8F3F11F0809337
S1132580FB238091CA2F8F3F11F08093FA2380910F
S1132590CB2F8F3F11F08093F9238091CC2F8F3F65
S11325A011F08093F8238091CD2F8F3F11F0809309
S11325B0F7238091CE2F8F3F11F08093F6238091E3
S11325C0D02F8F3F11F08093FC238091D22F8F3F27
S11325D011F08093B12F8091D12F8F3F11F0809310
S11325E0FD238091D32F8F3F11F08093B02F8091E2
S11325F0CF2F8F3F11F08093F5238091D42F8F3FFD
S113260011F08093F4239091D52F9F3F11F0909374
S1132610F3239091D62F9F3F11F09093F223909142
S1132620D72F9F3F11F09093F1239091D82F9F3F84
S113263011F09093F0238F3F21F08091D92F809354
S1132640EF238091DA2F8F3F11F08093EE23809156
S1132650DB2F8F3F11F08093ED238091DC2F8F3F90
S113266011F08093EC238091DD2F8F3F11F0809344
S1132670EB238091DE2F8F3F11F08093EA2380912A
S1132680DF2F8F3F11F08093E9238091E02F8F3F5C
S113269011F08093E7238091E12F8F3F11F0809315
S11326A0E8238091E723813019F40C9419090895E3
S11326B00C9420090895BC019091B52F911105C186
S11326C04091C02F5091C12FFA01EE0FFF1FEA5421
S11326D0F04D20813181CB01820F931F8083918340
S11326E04130510501F14230510509F4B2C0452B86
S11326F009F0EBC08830910514F087E090E099234D
S113270014F480E090E08093B62F9093B72F880F55
S1132710991FFC01E35DF24D808191818093BE2F6E
S11327209093BF2F08952091B62F3091B72F253065
S1132730310509F443C03CF42330310569F02430F9
S1132740310519F108952630310509F450C02730B8
S1132750310509F465C008958830910514F087E0C7
S113276090E0992314F480E090E08093B82F909344
S1132770B92F880F991FFC01E35EF24D808191818E
S11327808093BE2F9093BF2F08958530910514F048
S113279084E090E0992314F480E090E08093B82FD3
S11327A09093B92F880F991FFC01ED5EF24D808143
S11327B091818093BE2F9093BF2F08958F30910500
S11327C014F08EE090E0992314F480E090E080937C
S11327D0B82F9093B92F880F991FFC01EB50F34D3C
S11327E0808191818093BE2F9093BF2F089585316E
S11327F0910514F084E190E0992314F480E090E0D2
S11328008093B82F9093B92F880F991FFC01E5533B
S1132810F34D808191818093BE2F9093BF2F0895B3
S11328208330910514F082E090E0992314F480E061
S113283090E08093B82F9093B92F880F991FFC01D3
S1132840EB53F34D808191818093BE2F9093BF2FE2
S113285008952091B82F3091B92F2115310521F019
S113286021303105D1F008958531910514F084E1CA
S113287090E0992314F480E090E08093BA2F909331
S1132880BB2F880F991FFC01E556F34D8081918180
S11328908093BE2F9093BF2F08958531910514F036
S11328A084E190E0992314F480E090E08093BA2FBF
S11328B09093BB2F880F991FFC01E556F34D80813F
S11328C091818093BE2F9093BF2F08951F920F92F2
S11328D00FB60F9211240BB60F920F931F932F93E1
S11328E03F934F935F936F937F938F939F93AF9394
S11328F0BF93CF93DF93EF93FF938091B32F909186
S1132900B42F892B09F058C28091200A9091210A92
S1132910029718F4CFEFDFEF02C0C1E0D0E040919E
S1132920C22F5091C32F6091C42F7091C52F8091F5
S1132930962F9091972F092E000CAA0BBB0B8A019E
S11329409B01081B190B2A0B3B0B0C3011052105AD
S1132950310508F431C24093962F5093972F81E0AC
S113296090E08093B32F9093B42FCE01A4DE809196
S1132970B52F882309F41CC2E091BE2FF091BF2F1C
S11329803197EB31F10508F013C28827E15BFD4F65
S11329908F4FEFC68091B22FC80FD11D1C161D0694
S11329A014F4C1E0D0E0DD2314F4C0E0D0E0C0931F
S11329B0B22FFEC18091E823C80FD11D1C161D063D
S11329C014F4C1E0D0E0DD2314F4C0E0D0E0C093FF
S11329D0E823EEC18091E723C80FD11D1C161D0604
S11329E014F4C1E0D0E0DD2314F4C0E0D0E0C093DF
S11329F0E723C13019F40E941909DAC10E942009A1
S1132A00D7C18091FE23C80FD11DCF3FD10519F046
S1132A1014F0CFEFD0E0DD2314F4C0E0D0E0C09395
S1132A20FE23C6C18091FB23CC0FDD1FC295D29536
S1132A30D07FDC27C07FDC27C80FD11DCF3FD10555
S1132A4019F014F0CFEFD0E0DD2314F4C0E0D0E0AF
S1132A50C093FB23ADC18091FA23CC0FDD1FC29537
S1132A60D295D07FDC27C07FDC27C80FD11DCF3F94
S1132A70D10519F014F0CFEFD0E0DD2314F4C0E059
S1132A80D0E0C093FA2394C18091F923CC0FDD1FC9
S1132A90C295D295D07FDC27C07FDC27C80FD11D1B
S1132AA0CF3FD10519F014F0CFEFD0E0DD2314F4BB
S1132AB0C0E0D0E0C093F9237BC18091F823CC0F10
S1132AC0DD1FC295D295D07FDC27C07FDC27C80FDD
S1132AD0D11DCF3FD10519F014F0CFEFD0E0DD23A5
S1132AE014F4C0E0D0E0C093F82362C18091F723CE
S1132AF0CC0FDD1FC295D295D07FDC27C07FDC27A9
S1132B00C80FD11DCF3FD10519F014F0CFEFD0E09D
S1132B10DD2314F4C0E0D0E0C093F72349C18091D1
S1132B20F623CC0FDD1FC295D295D07FDC27C07F62
S1132B30DC27C80FD11DCF3FD10519F014F0CFEF1A
S1132B40D0E0DD2314F4C0E0D0E0C093F62330C11C
S1132B502091FC23CE01880F991F880F991FC80F5D
S1132B60D91FC20FD11DC536D10514F0C4E6D0E07B
S1132B70DD2314F4C0E0D0E0C093FC2319C12091FC
S1132B80F523CE01880F991F880F991FC80FD91FED
S1132B90C20FD11DCF3FD10519F014F0CFEFD0E013
S1132BA0DD2314F4C0E0D0E0C093F52301C180918B
S1132BB0F423C80FD11DCF3FD10519F014F0CFEF86
S1132BC0D0E0DD2314F4C0E0D0E0C093F423F0C0DF
S1132BD08091F323C80FD11DCF3FD10519F014F014
S1132BE0CFEFD0E0DD2314F4C0E0D0E0C093F323B2
S1132BF0DFC08091F223C80FD11DCF3FD10519F05A
S1132C0014F0CFEFD0E0DD2314F4C0E0D0E0C093A3
S1132C10F223CEC08091F123C80FD11DCF3FD1053F
S1132C2019F014F0CFEFD0E0DD2314F4C0E0D0E0CD
S1132C30C093F123BDC08091F023C80FD11DCF3FB5
S1132C40D10519F014F0CFEFD0E0DD2314F4C0E087
S1132C50D0E0C093F023ACC08091EF23C80FD11D06
S1132C60CF3FD10519F014F0CFEFD0E0DD2314F4F9
S1132C70C0E0D0E0C093EF239BC08091EE23C80F47
S1132C80D11DCA30D10534F0CF31D1052CF0CEE1BD
S1132C90D0E002C0CAE0D0E0C093EE2389C08091A6
S1132CA0ED23C80FD11DCA30D10534F0CF31D10581
S1132CB02CF0CEE1D0E002C0CAE0D0E0C093ED2316
S1132CC077C08091EC23C80FD11DCA30D10534F0F0
S1132CD0CF31D1052CF0CEE1D0E002C0CAE0D0E083
S1132CE0C093EC2365C08091EB23C80FD11DCA307B
S1132CF0D10534F0CF31D1052CF0CEE1D0E002C0C3
S1132D00CAE0D0E0C093EB2353C08091EA23C80FFC
S1132D10D11DCA30D10534F0CF31D1052CF0CEE12C
S1132D20D0E002C0CAE0D0E0C093EA2341C0809161
S1132D30E923C80FD11DCA30D10534F0CF31D105F4
S1132D402CF0CEE1D0E002C0CAE0D0E0C093E92389
S1132D502FC08091FD23C80FD11DC930D10514F0B7
S1132D60C8E0D0E0DD2314F4C0E0D0E0C093FD233C
S1132D701FC08091B12FC80FD11DC730D10514F0E9
S1132D80C6E0D0E0DD2314F4C0E0D0E0C093B12F5E
S1132D900FC08091B02FC80FD11DC430D10514F0DD
S1132DA0C3E0D0E0DD2314F4C0E0D0E0C093B02F42
S1132DB01092B32F1092B42FFF91EF91DF91CF9126
S1132DC0BF91AF919F918F917F916F915F914F913F
S1132DD03F912F911F910F910F900BBE0F900FBE3B
S1132DE00F901F901895EF92FF920F931F93CF931C
S1132DF0DF93CDB7DEB72B97CDBFDEBF2093FB2388
S1132E003093FA234093F9235093F8236093F723E4
S1132E107093F6230093FC23F092B12FE092FD23EC
S1132E2011501093B02F8093F52361E080E00E944D
S1132E30E30884E19BE20E940B0932DB2B96CDBFB1
S1132E40DEBFDF91CF911F910F91FF90EF90089516
S1132E501F920F920FB60F9211240BB60F922F935D
S1132E603F934F935F936F937F938F939F93AF930E
S1132E70BF93EF93FF938091B52F81110FC0809181
S1132E80C02F9091C12F009791F001978093C02F8C
S1132E909093C12F80E090E00EDC09C0813039F4BA
S1132EA0FFDA9091B52F81E089278093B52FFF91A8
S1132EB0EF91BF91AF919F918F917F916F915F91AE
S1132EC04F913F912F910F900BBE0F900FBE0F901B
S1132ED01F9018951F920F920FB60F9211240BB6E4
S1132EE00F92EF92FF920F931F932F933F934F9361
S1132EF05F936F937F938F939F93AF93BF93CF937E
S1132F00DF93EF93FF934091C22F5091C32F6091B1
S1132F10C42F7091C52F8091942F9091952F092ED5
S1132F20000CAA0BBB0B8A019B01081B190B2A0B73
S1132F303B0B0A3011052105310508F425C14093E6
S1132F40942F5093952FC091BE2FD091BF2FC13293
S1132F50D10569F48091C02F9091C12F019780937E
S1132F60C02F9093C12F80E090E0A5DB0DC1CE016E
S1132F70875691098530910540F08B5B9F4F8230D5
S1132F80910518F004960297A0F48091C02F9091B7
S1132F90C12F01968093C02F9093C12F880F991F42
S1132FA0FC01EA54F04D1082118280E090E083DB52
S1132FB0EBC0E091C02FF091C12FEE0FFF1FEC5436
S1132FC0F04D80819181009709F073C0CD3211E0FA
S1132FD0D1070CF4C3C0CE018B52914040E250E0C3
S1132FE066E070E3880F991F82959295907F9827E9
S1132FF0807F982757D1909113309F3F49F461E027
S113300080E00E94E30883E29BE20E940B09BCC0BB
S11330108FEF8093FB238093FA238093F92380938B
S1133020F8238093F7238093F623809109308F3F10
S113303011F08093FB2380910A308F3F11F080932D
S1133040FA2380910B308F3F11F08093F923809104
S11330500C308F3F11F08093F82380910D308F3F17
S113306011F08093F72380910E308F3F11F08093FD
S1133070F623809110308F3F11F08093FC238091D0
S113308012308F3F11F08093B12F809111308F3F18
S113309009F472C08093FD236FC08093F52361E02F
S11330A080E00E94E30884E19BE20E940B09F8D9C6
S11330B06BC081309105B1F5CD3221E0D2070CF41B
S11330C04DC0E6E0F0E38091FB2383838091FA23F3
S11330D084838091F92385838091F823868380916A
S11330E0F72387838091F62380878091FC2382874E
S11330F08091B02F85878091F52381878091FD236E
S113310083878091B12F8487CF01F6D08C2F8B5287
S113311009D161E080E00E94E30881E39BE20E9420
S11331200B0932C00697D1F4C93CD105BCF0C95C87
S1133130D1098BE08C9FF0018D9FF00D1124E55F88
S1133140FC4DE080F1800281138124813581468128
S1133150578160857185828546DE16C06C97A1F023
S11331608091B52F813009F49BD99091B52F81E0DE
S113317089278093B52F08C09093B02F80910F308A
S11331808F3F09F08ACF8BCFFF91EF91DF91CF91E1
S1133190BF91AF919F918F917F916F915F914F916B
S11331A03F912F911F910F91FF90EF900F900BBEC5
S11331B00F900FBE0F901F901895F89498E0E0E0E0
S11331C0F6E0522F5095662374F43481322B348305
S11331D035E03A95F1F734813523348332E03A957A
S11331E0F1F700C00EC03481322B348332E03A95BB
S11331F0F1F7000034813523348335E03A95F1F753
S11332000000660F9150F9F698E0E0E0F6E0522FE6
S11332105095882374F43481322B348335E03A9505
S1133220F1F734813523348332E03A95F1F700C065
S11332300EC03481322B348332E03A95F1F700002A
S113324034813523348335E03A95F1F70000880F53
S11332509150F9F688E0E0E0F6E0322F309544230F
S113326074F49481922B948395E09A95F1F7948168
S11332709323948392E09A95F1F700C00EC0948151
S1133280922B948392E09A95F1F700009481932312
S1133290948395E09A95F1F70000440F8150F9F674
S11332A078940895CF93DF939C01DB01E0ECF1E087
S11332B097859923ECF3CCECD1E0988198609883BE
S11332C0B901705FCD01B2D28881877F8883DF9195
S11332D0CF910895E0ECF1E097859923ECF3ACEC01
S11332E0B1E09C9198609C93E82FF0E0F05F6083DC
S11332F08C91877F8C9308950F931F93CF938C01A8
S1133300E0ECF1E087858823ECF3C0E0F8016191FB
S11333108F018C2FDFDFCF5FC032C1F7CF911F91B8
S11333200F9108951F93CF93DF93E0ECF1E097851D
S11333309923ECF320E2829FC0011124C0ECD1E078
S11333401A82998388831A8585E38A8761E08BECE6
S113335091E005D01A87DF91CF911F9108951BBE8C
S1133360FC0128ED24BF608308950CD027C11FD130
S113337040F016D130F021F45F3F19F0DFC0511155
S113338068C10BC12CD198F39923C9F35523B1F328
S1133390951B550BBB27AA2762177307840738F0C0
S11333A09F5F5F4F220F331F441FAA1FA9F333D01F
S11333B00E2E3AF0E0E830D091505040E695001CD3
S11333C0CAF729D0FE2F27D0660F771F881FBB1F8F
S11333D0261737074807AB07B0E809F0BB0B802D69
S11333E0BF01FF2793585F4F2AF09E3F510568F0B5
S11333F0A5C02FC15F3FECF3983EDCF3869577952B
S11334006795B795F7959F5FC9F7880F911D9695B6
S1133410879597F90895E1E0660F771F881FBB1F12
S1133420621773078407BA0720F0621B730B840BBF
S1133430BA0BEE1F88F7E095089504D06894B11193
S113344008C10895D4D088F09F5790F0B92F9927D8
S1133450B751A0F0D1F0660F771F881F991F1AF09B
S1133460BA95C9F712C0B13081F0F2D0B1E0089535
S1133470EFC0672F782F8827B85F39F0B93FCCF3B6
S1133480869577956795B395D9F73EF49095809591
S1133490709561957F4F8F4F9F4F0895E89409C0B1
S11334A097FB3EF490958095709561957F4F8F4F73
S11334B09F4F9923A9F0F92F96E9BB279395F69589
S11334C0879577956795B795F111F8CFFAF4BB0F07
S11334D011F460FF1BC06F5F7F4F8F4F9F4F16C06B
S11334E0882311F096E911C0772321F09EE8872FF5
S11334F0762F05C0662371F096E8862F70E060E0B1
S11335002AF09A95660F771F881FDAF7880F969529
S1133510879597F9089585D080F09F3740F49111ED
S11335200EF097C060E070E080E89FEB089526F409
S11335301B16611D711D811D07C021C097F99F676E
S113354080E870E060E00895882371F4772321F027
S11335509850872B762F07C0662311F499270DC046
S11335609051862B70E060E02AF09A95660F771FE1
S1133570881FDAF7880F9695879597F908959F3FE6
S113358031F0915020F4879577956795B795880F1A
S1133590911D9695879597F908959FEF80EC08956E
S11335A000240A941616170618060906089500241E
S11335B00A9412161306140605060895092E039498
S11335C0000C11F4882352F0BB0F40F4BF2B11F40C
S11335D060FF04C06F5F7F4F8F4F9F4F089557FD6B
S11335E09058440F551F59F05F3F71F04795880F6D
S11335F097FB991F61F09F3F79F087950895121604
S113360013061406551FF2CF4695F1DF08C01616AF
S113361017061806991FF1CF869571056105089460
S11336200895E5DFA0F0BEE7B91788F4BB279F38FB
S113363060F41616B11D672F782F8827985FF7CF8F
S1133640869577956795B11D93959639C8F3089536
S1133650E894BB2766277727CB0197F908950BD009
S1133660ADCF9EDF28F0A3DF18F0952309F066CFD5
S113367094CF1124EECFB3DFA0F3959FD1F3950F30
S113368050E0551F629FF001729FBB27F00DB11DE2
S1133690639FAA27F00DB11DAA1F649F6627B00D72
S11336A0A11D661F829F2227B00DA11D621F739F5B
S11336B0B00DA11D621F839FA00D611D221F749F69
S11336C03327A00D611D231F849F600D211D822FB0
S11336D0762F6A2F11249F5750408AF0E1F08823F7
S11336E04AF0EE0FFF1FBB1F661F771F881F915004
S11336F05040A9F79E3F510570F020CFAACF5F3FFD
S1133700ECF3983EDCF3869577956795B795F79536
S1133710E7959F5FC1F7FE2B880F911D96958795BE
S113372097F90895AA1BBB1B51E107C0AA1FBB1F31
S1133730A617B70710F0A61BB70B881F991F5A9539
S1133740A9F780959095BC01CD01089597FB072EAC
S113375016F4009406D077FD08D0E4DF07FC05D00A
S11337603EF4909581959F4F0895709561957F4F94
S11337700895EE0FFF1F881F8BBF0790F691E02D71
S113378019948F929F92AF92BF92CF92DF92EF9251
S1133790FF92CF93DF93EC01688179818A819B81C9
S11337A0611571058105910521F464E279ED8BE5DC
S11337B097E02DE133EF41E050E025D349015A0170
S11337C09B01AC01A7EAB1E43AD36B017C01ACEEF6
S11337D0B4EFA50194013FD3DC01CB018C0D9D1DF9
S11337E0AE1DBF1DB7FF03C00197A109B048888370
S11337F09983AA83BB839F77DF91CF91FF90EF904A
S1133800DF90CF90BF90AF909F908F900895B9CFE5
S113381080E090E2B6CFA0E0B0E0809300209093E7
S11338200120A0930220B09303200895FB01DC0142
S113383002C001900D9241505040D8F70895FB0109
S1133840DC0101900D920020E1F708950F931F937E
S1133850CF93DF93CDB7DEB72E97CDBFDEBF0E89F2
S11338601F89888D998D26E02C8309831A8397FFFD
S113387002C080E090E801978D839E83AE01445E90
S11338805F4F6A8D7B8DCE01019616D04D815E818E
S113389057FD0AC02F813885421753070CF49A014B
S11338A0F801E20FF31F10822E96CDBFDEBFDF9129
S11338B0CF911F910F9108952F923F924F925F9253
S11338C06F927F928F929F92AF92BF92CF92DF922C
S11338D0EF92FF920F931F93CF93DF93CDB7DEB791
S11338E02B97CDBFDEBF6C017B018A01FC011682E0
S11338F01782838181FFBFC1CE0101963C01F6018D
S11339009381F70193FD859193FF81917F01882332
S113391009F4ADC1853239F493FD859193FF81910A
S11339207F01853221F4B60190E0D3D1E8CF912C08
S1133930212C312CFFE1F315D8F08B3279F038F4D7
S1133940803279F08332A1F4232D20611DC08D32A1
S113395061F0803369F4232D216016C0832D8260C9
S1133960382EE32DE4603E2E2AC0F32DF8601DC0EE
S113397037FC2DC020ED280F2A3040F08E32B9F4E8
S113398036FC75C1232D2064322E19C036FE06C0C4
S11339908AE0989E200D1124922E11C0EAE02E9EFA
S11339A0200D1124222EF32DF0623F2E08C08C36F8
S11339B021F4832D8068382E02C0883641F4F70143
S11339C093FD859193FF81917F018111B3CF982F4E
S11339D09F7D9554933028F40C5F1F4F9FE3998388
S11339E00DC0833631F0833771F0833509F055C04B
S11339F020C0F801808189830E5F1F4F882483943F
S1133A00912C530112C02801F2E04F0E511CF80111
S1133A10A080B18036FE03C0692D70E002C06FEF54
S1133A207FEFC5014BD14C018201F32DFF773F2E6F
S1133A3015C0280122E0420E511CF801A080B1807B
S1133A4036FE03C0692D70E002C06FEF7FEFC50141
S1133A502AD14C01F32DF0683F2E820133FC19C0AA
S1133A60822D90E088169906A0F4B60180E290E0D9
S1133A7030D12A94F5CFF50137FC859137FE819139
S1133A805F01B60190E025D121102A9421E0821A29
S1133A9091088114910479F7E1C0843611F08936D4
S1133AA039F5F80137FE07C0608171818281938105
S1133AB00C5F1F4F08C060817181072E000C880BBA
S1133AC0990B0E5F1F4FF32DFF763F2E97FF09C012
S1133AD090958095709561957F4F8F4F9F4FF068BB
S1133AE03F2E2AE030E0A30130D1882E861844C04E
S1133AF0853731F4232D2F7EB22E2AE030E025C005
S1133B00932D997FB92E8F36C1F018F4883579F04A
S1133B10AEC0803719F0883721F0A9C0E92FE061E1
S1133B20BE2EB4FE0DC0FB2DF460BF2E09C034FEC2
S1133B300AC0292F2660B22E06C028E030E005C056
S1133B4020E130E002C020E132E0F801B7FE07C016
S1133B5060817181828193810C5F1F4F06C06081F7
S1133B60718180E090E00E5F1F4FA301EED0882E9C
S1133B708618FB2DFF773F2E36FE0DC0232D2E7F9A
S1133B80A22E891458F434FE0BC032FC09C0832DD4
S1133B908E7EA82E05C0B82CA32C03C0B82C01C05F
S1133BA0B92CA4FE0FC0FE01E80DF11D8081803305
S1133BB021F49A2D997EA92E09C0A2FE06C0B394C1
S1133BC0B39404C08A2D867809F0B394A3FC10C082
S1133BD0A0FE06C0B21480F4280C922C9B180DC0D1
S1133BE0B21458F4B60180E290E073D0B394F8CFE5
S1133BF0B21418F42B1802C0982C212CA4FE0FC068
S1133C00B60180E390E065D0A2FE16C0A1FC03C01B
S1133C1088E790E002C088E590E0B6010CC08A2DE8
S1133C20867851F0A1FE02C08BE201C080E2A7FCBD
S1133C308DE2B60190E04DD0891430F4B60180E3F2
S1133C4090E047D09A94F8CF8A94F301E80DF11DDF
S1133C508081B60190E03DD08110F6CF222009F496
S1133C604ECEB60180E290E034D02A94F7CFF6012C
S1133C708681978102C08FEF9FEF2B96CDBFDEBF69
S1133C80DF91CF911F910F91FF90EF90DF90CF9034
S1133C90BF90AF909F908F907F906F905F904F9068
S1133CA03F902F900895FC010590615070400110E1
S1133CB0D8F7809590958E0F9F1F0895FC01615051
S1133CC0704001900110D8F7809590958E0F9F1F3A
S1133CD008950F931F93CF93DF93FB01238121FD5D
S1133CE003C08FEF9FEF2CC022FF16C0468157817F
S1133CF0248135814217530744F4A081B1819D0189
S1133D002F5F3F4F208331838C93268137812F5F30
S1133D103F4F2683378314C08B01EC01FB010084E1
S1133D20F185E02D1995892BE1F6D80116968D9130
S1133D309C911797019616968D939C931797CE0195
S1133D40DF91CF911F910F910895FA01AA2728308E
S1133D5051F1203181F1E8946F936E7F6E5F7F4F54
S1133D608F4F9F4FAF4FB1E03ED0B4E03CD0670FD0
S1133D70781F891F9A1FA11D680F791F8A1F911D23
S1133D80A11D6A0F711D811D911DA11D20D009F473
S1133D9068943F912AE0269F11243019305D3193B5
S1133DA0DEF6CF010895462F4770405D4193B3E09E
S1133DB00FD0C9F7F6CF462F4F70405D4A3318F045
S1133DC0495D31FD4052419302D0A9F7EACFB4E0F6
S1133DD0A6959795879577956795BA95C9F70097AE
S1133DE06105710508959B01AC010A2E069457954F
S1133DF0479537952795BA95C9F7620F731F841FA6
S1133E00951FA01D0895052E97FB16F400940FD05E
S1133E1057FD05D024D007FC02D046F408C05095C5
S1133E204095309521953F4F4F4F5F4F08959095A2
S1133E308095709561957F4F8F4F9F4F089531D036
S1133E40A59F900DB49F900DA49F800D911D1124EA
S1133E500895B7FFF4CFF3DF821B930B0895A1E21B
S1133E601A2EAA1BBB1BFD010DC0AA1FBB1FEE1FF0
S1133E70FF1FA217B307E407F50720F0A21BB30B3B
S1133E80E40BF50B661F771F881F991F1A9469F7B7
S1133E9060957095809590959B01AC01BD01CF0113
S1133EA00895A29FB001B39FC001A39F700D811D0F
S1133EB01124911DB29F700D811D1124911D08952F
S1073EC0F894FFCFA0
S1133EC401000000000100000000000000000000E8
S1133ED400000000010000000000000000010101D6
S1133EE400000000000001010101010000000002C3
S1133EF401010101010200000202010101010102A8
S1133F040200020201010101010202020600010091
S1133F140000000000000000000100000000000098
S1133F240000020001000000000000020000000183
S1133F340000000002000000000001000002000074
S1133F440000000000010200000000000000000264
S1133F540100000000000000020000010000000055
S1133F640002000000000100000002000000000044
S1133F74000100020000000000000000010A00012A
S1133F84020202020202020202020202020201020A
S1133F9402020202020202020101020202020202FB
S1133FA402010101010202020202010101010101F3
S1133FB402020101010101010101010201010101E6
S1133FC401010101010106000100000000000000DC
S1133FD400000001000000000000000000010100D6
S1133FE400000000000000010101000000000000C6
S1133FF400010101010000000000000101010101B0
S113400400000000000101010101010000000001A1
S11340140101010101020000000101010101010289
S11340240200000101010101010202020001010177
S1134034010101020202020A000100000000000062
S11340440000000002000000000000000000010263
S11340540000000000000000010102000000000054
S1134064000001010102000000000000010101013F
S1134074020000000000010101010102000000002F
S1134084010101010101020000000101010101011A
S11340940102000001010101010101010200010109
S11340A401010101010101020A00010000000000F4
S11340B400000000000100000000000000000101F5
S11340C400000200000200000001000200000001E0
S11340D402000000020001010000000102000102CC
S11340E402000200010200000100020100010102B9
S11340F402000201020100010102020002010101A5
S11341040102020200000200000201020002020194
S11341140201020102010201020A0001000000027C
S1134124020202000000010101000000000101017B
S1134134010001020202020202020202020101015E
S11341440101010101010101000102020202020252
S1134154020202020102020202020202020201013A
S1134164020202020202020201010102020202022A
S1134174020201010101020202020202010101011F
S1134184010202020202010101010101020202020E
S11341940101010101010102020201010101010104
S11341A401010202010101010101010101020101F4
S11341B401010101010101010A0001202020202044
S11341C42020202020202020202020000005010081
S11341D480FF000000FF000050010000FF0A0000FF
S11341E4FF00005A0400FF00000014FF0000000157
S11341F4FFFFFF000000FF0100460200FF00000073
S113420400FF01000501FFFF00000000FF02000A97
S1134214010000FFFF0000FF0200460100FFFF0051
S11342240000FF04005F04FF000000FF00FF04001F
S11342341401FFFFFF0000FFFF04000501FF00005D
S113424400FF00FF06003C01FFFF000000FFFF0623
S1134254001E01FF8000FF0000FF03004601FFFF72
S1134264FF0000FFFF03003C01FF000000FF00FF0C
S113427400026401FF00000000FFFF01025001007E
S113428400FF000000FF03025501FF000000FF00CF
S1134294FF030264040000FF00FF00FF070264013F
S11342A4FF00FF00FFFFFF01011E1E1E1E1E1E3223
S11342B43232323232FFFFFFFFFFFFFF3201017956
S11342C42C8A2CFFFF0000010101010102030405F3
S11342D407080A0B0C0D0D0C0B0A09070605050645
S11342E407090C0F1216191B1C1C1B1A1714110E88
S11342F40B09090A0C1014191E23272A2C2C2A270B
S1134304231E1914100E0D0E11161C232A31363ACD
S11343143C3C39352F28211B15121112161C242D4F
S1134324363E454A4C4B48423B3229211B1615174D
S11343341C232C37424C545A5C5B5750473C31275E
S1134344201B191B212935414E5963696C6B665D29
S11343545246392E251F1D1F26303D4B596772794D
S11343647C7B756B5E5042342A2321242B364555BD
S1134374657480898C8A83786A5A4A3B2F28252855
S1134384303D4D5F71828F989C9A92867664524137
S1134394342C292C354355697D8F9EA8ACAAA1934E
S11343A4826E5A4839302D313A4A5D73899DADB8CD
S11343B4BCB9B0A18E78624E3F3431354050657D2E
S11343C495BCC7DCFF00002033404A525A60656A3A
S11343D46E7276797D808285888A8C8E909294968A
S11343E498999B9D9EA0A1A2A4A5A6A7A9AAABAC9B
S11343F4ADAEAFB0B1B2B3B4B5B6B7B8B8B9BABB71
S1134404BCBCBDBEBFBFC0C1C2C2C3C4C4C5C6C692
S1134414C7C7C8C9C9CACACBCBCCCDCDCECECFCFE2
S1134424D0D0D1D1D2D2D3D3D4D4D4D5D5D6D6D74F
S1134434D7D8D8D8D9D9DADADADBDBDCDCDCDDDDD1
S1134444DEDEDEDFDFDFE0E0E0E1E1E1E2E2E2E361
S1134454E3E3E4E4E4E5E5E5E6E6E6E7E7E7E8E8FC
S1134464E8E8E9E9E9EAEAEAEAEBEBEBECECECECA0
S1134474EDEDEDEDEEEEEEEFEFEFEFF0F0F0F0F149
S1134484F1F1F1F2F2F2F2F3F3F3F3F3F4F4F4F4FA
S1134494F5F5F5F5F5F6F6F6F6F7F7F7F7F7F8F8B0
S11344A4F8F8F9F9F9F9F9FAFAFAFAFAFBFBFBFB69
S11344B4FBFCFCFCFCFCFCFDFDFDFDFDFEFEFEFE28
S11344C4FEFFFFFFFF0000000000000000000000EA
S11344D400000000000000000000000000000000D4
S11344E400000000000000000000000000000000C4
S11344F400000000000000000000000101010101AF
S1134504010101010101010101010101020202028F
S11345140202020202020303030303030304040466
S11345240404040505050505060606060707070829
S11345340808080909090A0A0A0B0B0C0C0C0D0DCE
S11345440E0E0F0F1010111112121313141415164A
S113455416171818191A1A1B1C1D1D1E1F20212298
S113456422232425262728292A2B2C2D2E2F3132A9
S11345743334353738393B3C3D3F40414344464767
S1134584494A4C4E4F51535456585A5C5D5F6163CB
S11345946567696B6D70727476787B7D7F828487BE
S11345A4898C8E919396999B9EA1A4A7AAADB0B32E
S11345B4B6B9BCBFC2C6C9CCD0D3D7DADEE1E5E90B
S11345C4EDF5F9FFFF000102030405060708090AD3
S11345D40B0C0D0E0F101112131415161718191AAB
S11345E41B1C1D1E1F202122232425262728292A9B
S11345F42B2C2D2E2F303132333435363738393A8B
S11346043B3C3D3E3F404142434445464748494A7A
S11346144B4C4D4E4F505152535455565758595A6A
S11346245B5C5D5E5F606162636465666768696A5A
S11346346B6C6D6E6F707172737475767778797A4A
S11346447B7C7D7E7F808182838485868788898A3A
S11346548B8C8D8E8F909192939495969798999A2A
S11346649B9C9D9E9FA0A1A2A3A4A5A6A7A8A9AA1A
S1134674ABACADAEAFB0B1B2B3B4B5B6B7B8B9BA0A
S1134684BBBCBDBEBFC0C1C2C3C4C5C6C7C8C9CAFA
S1134694CBCCCDCECFD0D1D2D3D4D5D6D7D8D9DAEA
S11346A4DBDCDDDEDFE0E1E2E3E4E5E6E7E8E9EADA
S11346B4EBECEDEEEFF0F1F2F3F4F5F6F7F8F9FACA
S11346C4FBFCFDFEFF496E69742073746172742EE1
S11346D42E2E004C4954444C4D31202D2076332E3B
S11346E432202000444D582043683A202530336456
S11346F42020202020004D6F6465202020202020CD
S113470420202020202000444D58204164647265F8
S1134714737320202020200025303364202020209F
S113472420202020202020202000526564202020E6
S11347343120202020202020202000477265656E2F
S1134744203120202020202020202000426C756568
S113475420203120202020202020202000526564A5
S113476420202032202020202020202020004772D6
S113477465656E2032202020202020202020004245
S11347846C75652020322020202020202020200049
S113479452656C656173652074696D652020202001
S11347A400416E696D6174696F6E202020202020A1
S11347B42000416E696D20747269676765722020F8
S11347C4202000416E696D20637572766520202077
S11347D42020200044696D6D657220202020202053
S11347E42020202000496E7075742073656E732038
S11347F4312020202000496E7075742073656E7317
S113480420322020202000496E7075742073656E58
S11348147320332020202000496E70757420736542
S11348246E7320342020202000496E707574207328
S1134834656E7320352020202000496E7075742025
S113484473656E73203620202020004E62206C692C
S11348546768747320203120202020004E62206C6D
S1134864696768747320203220202020004E62205F
S11348746C696768747320203320202020004E6202
S1134884206C696768747320203420202020004E33
S113489462206C696768747320203520202020000E
S11348A44E62206C696768747320203620202020AF
S11348B400456E636C6F2E204C6967687420202059
S11348C42000253031642020202020202020202096
S11348D42020202020004C4344204C696768742025
S11348E420202020202000416E696D6174696F6E60
S11348F4203120746F203300253033642020253088
S1134904336420202530336400416E696D61746919
S11349146F6E203420746F203600436F6C6F727393
S113492420636F6E6669672E2E2E00416E696D20BA
S1134934636F6E6669672E2E2E20200047656E65B0
S113494472616C2073657475702E2E2E0055736518
S11349547220707265736574732020202000466190
S113496463746F7279207072657365747320004286
S113497461636B2E2E2E2020202020202020200056
S11349845573652075736572207365742E2E2E001D
S113499453617665207072657365742E2E2E200023
S11349A453656C65637420662E2070726573657438
S11349B400507265736574202325303364202020ED
S11349C420200053656C65637420752E2070726515
S11349D4736574006C6F61646564207072657365DB
S11349E4742100656D707479207072657365742127
S11349F40053617665642070726573657421004D9B
S1134A04616E75616C206D6F646500444D58206D52
S1134A146F6465202020004C696E6561722020203B
S1134A242020004578706F6E656E7469616C004C6B
S1134A346F67617269746D6963200053696E75737D
S1134A44204661646520005472696767657220209A
S1134A5420202020004175746F2073696E676C6593
S1134A642020004175746F20616C6C20202020206C
S1134A740052616E646F6D2073696E676C650052D9
S1134A84616E646F6D20616C6C202020004F6E2079
S1134A9420202020202020202020004F6666202073
S1134AA420202020202020200050756C73652020B5
S1134AB420202020202020200046696C6C20202007
S1134AC420202020202020200043656E746572205D
S1134AD466696C6C20202020004551204D6F766956
S1134AE46E672020202020200045512046697865E7
S1134AF4642020202020202000446F75626C6520EF
S1134B04506F696E742020200043656E74657220B2
S1134B14455120466978656400436F6E7374656C0F
S1134B246C6174696F6E20200050756C736520632A
S1134B34656E7465722020200031323320202020D9
S1134B44202020202020202020002020202020207D
S1134B54202020202020202020200021002D012E90
S1134B64012F0130013101320133013401350136A1
S1134B74013701380139013A013B013C013D013E51
S1134B84013F0140011F001E0021002100C900CA89
S1134B9400CB00CC00CD00CE00CF00D000D100D299
S1134BA400D300D400D500D600D700D800D900DA49
S1134BB400DB00DC000E000F0010001100120013D3
S1134BC4001400150016001700180019001B001A21
S1134BD40021000A000D000C000B00210003000456
S1134BE40005000600070008000900210000000178
S1114BF40002006700680069006B006A0000A0
S9030000FC
