S01300004543444C4D3030315F56372E737265632F
S113000085C20000A4C20000A2C20000A0C2000079
S11300100C94B1199CC200009AC2000098C200005E
S113002096C2000094C200000C94710990C20000B2
S11300308EC200008CC200000C94800D88C20000A7
S113004086C2000084C2000082C2000080C2000098
S113005017C600007CC200007AC2000078C200000B
S113006076C2000074C2000072C2000070C20000B8
S11300706EC200006CC200006AC2000068C20000C8
S113008066C2000064C2000062C2000060C20000D8
S11300905EC200005CC200005AC2000058C20000E8
S11300A056C2000054C2000052C2000050C20000F8
S11300B04EC200004CC200004AC200000C947716E5
S11300C046C2000044C2000042C2000040C2000018
S11300D03EC200000C947A0A3AC2000038C2000002
S11300E036C2000034C2000032C2000030C2000038
S11300F02EC200002CC200002AC2000028C2000048
S11301000C94F31924C2000022C2000020C2000093
S11301101EC200001CC200001AC2000018C2000067
S113012016C2000014C2000012C2000010C2000077
S11301300EC2000085C600000AC2000008C200000A
S113014006C2000004C2000002C2000000C2000097
S1130150FEC10000FCC10000FAC10000F8C10000AB
S11301600C94C30AF4C10000F2C10000F0C1000005
S1130170EEC10000ECC10000EAC10000E8C10000CB
S1130180E6C10000E4C10000E2C10000E0C10000DB
S1130190DEC10000DCC10000DAC10000D8C10000EB
S11301A0D6C10000D4C10000D2C10000D0C10000FB
S11301B0CEC10000CCC10000CAC10000C8C100000B
S11301C0C6C10000C4C10000C2C10000C0C100001B
S11301D0BEC10000BCC10000BAC10000B8C100002B
S11301E0B6C10000B4C10000B2C10000B0C100003B
S11301F0AEC10000ACC10000AAC10000AD03CB0336
S1130200D503DF03E903F303FD03B703C103F007D9
S113021081078107E407E40774077B07CF0D080E05
S1130220230E440E650E860EA70EC80EE90E860F29
S11302300A0F2B0F500F6B0FA70FC80FE90F0A10EF
S11302402B104C106D108E10AF10D010F110121135
S11302503311541175119611B711D8111A12F911DD
S11302603B12721271135D13CE132113351349130C
S1130270CE13CE13CE13CE13CE13CE13CE13CE1372
S1130280CE13CE13CE13CE13CE13CE13CE13CE1362
S1130290CE13CE13CE13CE13CE13CE13CE13CE1352
S11302A0CE13CE13CE13CE13CE13CE13CE13CE1342
S11302B0CE13CE13CE13CE13CE13CE13CE13CE1332
S11302C0CE13CE13CE13CE13CE13CE13CE13CE1322
S11302D0CE13CE13CE13CE13CE13CE13CE13CE1312
S11302E0CE13CE13CE13CE13CE13A912D112E51210
S11302F0F9120D13CE13BD12CE13CE13CE13CE139B
S1130300CE13CE13CE13CE13CE13CE13CE13CE13E1
S1130310CE13CE13CE13CE13CE13CE13CE13CE13D1
S1130320CE13CE13CE13CE13CE13CE13CE13CE13C1
S1130330CE13CE13CE13CE13CE13CE13CE13CE13B1
S1130340CE13CE13CE13CE13CE13CE13CE13CE13A1
S1130350CE13CE13CE13CE13CE13CE13CE13CE1391
S1130360CE13CE13CE13CE13CE13CE13CE13CE1381
S1130370CE13CE13CE13CE13CE13CE13CE13CE1371
S1130380CE13CE13CE13CE13CE13CE13CE13CE1361
S1130390CE13CE13CE13CE13CE13CE13CE13CE1351
S11303A0CE13CE13CE13CE13CE13CE13CE1385138A
S11303B08513851385138513851385138513851379
S11303C08513851385138513851385138513851369
S11303D0851385138513CE13CE13CE13CE13CE13EC
S11303E0CE13CE13CE13CE13CE13CE13CE13CE1301
S11303F0CE13CE13CE13CE13CE13CE13CE13CE13F1
S1130400CE13CE13CE13CE13CE13CE13CE13CE13E0
S1130410CE13CE13CE13CE13CE13CE13CE13CE13D0
S1130420CE13CE13CE13CE13CE13CE13CE13CE13C0
S1130430CE13CE13CE13CE13CE13CE13CE13CE13B0
S1130440CE13CE13CE13CE13CE13CE13CE13CE13A0
S1130450CE13CE13CE13CE13CE13CE13CE13CE1390
S1130460CE13CE13CE13CE13CE13CE13CE13CE1380
S1130470CE13CE13CE13AA13AA13AA13AA13AA1324
S1130480AA13AA13AA13AA13AA13AA13AA13AA1380
S1130490AA13AA13AA13AA13AA13AA13AA13DB163C
S11304A0121723173C1755176E178717A017D01765
S11304B0B917BA18CA185219E817F9170A181B18E5
S11304C02C183D184E186018721884189618A8181D
S11304D0DA18EE18021916192A193E19FB16EB162A
S11304E0C82BD42BE02BEC2BF82B042C102C1E2C1B
S11304F02C2C3A2C482C562C642C722C822C922CAA
S1130500A22CB22CC22CD22CE22CF22C11241FBE11
S1130510CFEFCDBFDFE5DEBF00E00CBF1DE2A0E002
S1130520B0E2EAEDF3E400E00BBF02C007900D92E5
S1130530A63DB107D9F720E3A6EDBDE201C01D92A7
S1130540A23DB207E1F70E94AB0B0C94EB2158CD0E
S113055042305105C1F03CF44115510561F0413080
S1130560510569F020C044305105A9F084F04530AC
S11305705105A9F018C02091062430E016C020913E
S1130580052430E012C02091042430E00EC02091F4
S1130590032430E00AC02091022430E006C02091F8
S11305A0012430E002C020E030E0DC01CB01820F06
S11305B0931FA11DB11D84369105A105B1051CF43D
S11305C080E090E0DC018F3F9105A105B10529F0A1
S11305D024F08FEF90E0A0E0B0E0BA2FA92F982F7D
S11305E08827009721E0A207B10520F08FEF9FEF45
S11305F0A0E0B0E008952F923F924F925F926F92E5
S11306007F928F929F92AF92BF92CF92DF92EF929E
S1130610FF920F931F93CF93DF93CDB7DEB7AF97BE
S1130620CDBFDEBF7B01292F30E080916C3081305B
S113063061F028F0823079F0833099F018C0F90124
S1130640E95EF84D6080712C14C0F901E95EF94D42
S11306506080712C0EC0F901E95EFA4D6080712C46
S113066008C0F901E95EFB4D6080712C02C0612C69
S1130670712C80916D30863031F0853031F46624F0
S11306806A94712C02C0612C712C23E0E216F104EF
S1130690F9F04CF461E0E616F10471F072E0E7164B
S11306A0F10471F045C084E0E816F104E9F095E046
S11306B0E916F10449F13CC08091002490E03AC06D
S11306C0209100248091FF2390E0820F911D32C07D
S11306D0209100248091FF2390E0820F911D2091AE
S11306E0FE23820F911D26C0209100248091FF23B8
S11306F090E0820F911D2091FE23820F911D209185
S1130700FD23820F911D16C0209100248091FF23A8
S113071090E0820F911D2091FE23820F911D209164
S1130720FD23820F911D2091FC23820F911D02C095
S113073080E090E08C01000F111F080F191F8091B9
S11307400F2490E08930910508F061C0FC018827EE
S1130750E250FF4F8F4F0C94441EC0908722D090DC
S11307608822A0918922AF8B23E732E256C0C09041
S11307705922D0905A22B0915B22BF8B2BEE31E2EA
S11307804CC0C0907022D0907122E0917222EF8B05
S11307902CE532E242C0C090F822D090F922F091C8
S11307A0FA22FF8B2AE832E238C0C0900621D090AA
S11307B00721209108212F8B20EC30E22EC0C0901D
S11307C0E821D090E9214091EA214F8B2AE731E2D8
S11307D024C0C0907721D0907821609179216F8BCB
S11307E029E031E21AC0C090BD20D090BE207091A3
S11307F0BF207F8B2FE430E210C0C0904C20D090FB
S11308004D2080914E208F8B26E030E206C020E000
S113081030E01F8ACC24C394D12C80E091E0B6014F
S11308200E941D1E5B01C3010E941D1EFB01982F27
S113083080E0B5010E941D1E2B01AF01440F551F1E
S1130840CF01880F991F880F991F880F991F840F54
S1130850951FCE16DF0629F03C01AAE06A0E711C32
S113086001C03C0119821A8240910D2450E04B834F
S11308705C8340910A2450E04D835E831F82188676
S113088040910C2450E049875A874091092450E054
S11308904B875C871D861E8640910B2450E04F8752
S11308A0588B4091082450E0498B5A8B4091002486
S11308B0E42FF0E0E88FF98F4091FF23642F70E07C
S11308C06A8F7B8F4091FE23A42FB0E0AC8FBD8F45
S11308D04091FD23E42FF0E0EE8FFF8F4091FC2345
S11308E0642F70E068A379A34091FB23A42FB0E0A8
S11308F0AAA3BBA3A0900724B12C0A5F114DC12C5D
S1130900D12CBAA1BCA3EBA1EDA3F8A1FEA349A1EC
S11309104FA36E8D68A77F8D79A7AA8DAAA7BB8DDB
S1130920BBA7E88DECA7F98DFDA74C8D4EA76D8D67
S11309306FA7620E731E4901880E991E80E091E034
S11309401C0124183508FCC0B6010D2C000C880BC2
S1130950990B0E94DB1C6B8B7C8B8D8B9E8B72E0C6
S1130960E716F104C9F044F4E114F10479F091E0DC
S1130970E916F104E9F40DC0A4E0EA16F10491F0DB
S113098074F0E5E0EE16F10499F40FC06CA57DA5B2
S113099011C06AA57BA50EC06EA57FA50BC068A576
S11309A079A508C06EA17FA105C06CA17DA102C07C
S11309B060E070E0072E000C880B990B0E94DB1C92
S11309C09B01AC0160E070E080E191E40E94401C76
S11309D02B893C894D895E890E94BA1D0E94161D8F
S11309E00E94A81CF301E60FF71FA0810A2E000C39
S11309F0BB0BFF89F13009F06FC0F401E60FF71F5C
S1130A008081AA0FBB1F61E070E06C0F7D1F6A0F2D
S1130A107B1FDB012D913C91429EF001439EF00D22
S1130A20529EF00D11242F2F3327A82FAA0FBB0B92
S1130A30E1E0F0E0EC0FFD1FEA0FFB1FEB8BFC8BFA
S1130A4040815181249EC001259E900D349E900DBD
S1130A501124E92FFF27E20FF31FDB0116968D9176
S1130A609C911797489E9001499E300D589E300DD9
S1130A701124432F5527AB89BC8916962D913C919F
S1130A801797229EC001239E900D329E900D112433
S1130A90292F3327240F351FDB011C968D919C9140
S1130AA01D97489EA001499E500D589E500D11243B
S1130AB0452F5527AB89BC891C966D917C911D9758
S1130AC0269EC001279E900D369E900D1124892FDD
S1130AD09927480F591F13C0AA0FBB1FE1E0F0E08C
S1130AE0EC0FFD1FAE0FBF1FED91FC9111971696F1
S1130AF02D913C9117971C964D915C911D97EA9D01
S1130B00C001EB9D900DFA9D900D1124D8019C938A
S1130B102A9DC0012B9D900D3A9D900D1124119694
S1130B209C9311974A9DC0014B9D900D5A9D900D29
S1130B30112412969C93BFEFCB1ADB0A0D5F1F4F53
S1130B40E2E0EE16F10401F144F4E114F10479F069
S1130B5021E0E216F10489F031C044E0E416F10426
S1130B6009F1CCF075E0E716F10411F127C0888D86
S1130B70998DC816D906F4F16DC0AA8DBB8DCA161D
S1130B80DB060CF443C066C0EC8DFD8DCE16DF068B
S1130B900CF448C05FC06E8D7F8DC616D7060CF46A
S1130BA04DC058C088A199A1C816D9065CF052C09E
S1130BB0AAA1BBA1CA16DB068CF04CC0DD200CF444
S1130BC0C3CE48C0B6010D2C000C880B990B0E94B3
S1130BD0DB1C6B8B7C8B8D8B9E8BE4CEB6010D2C3A
S1130BE0000C880B990B0E94DB1C6B8B7C8B8D8B10
S1130BF09E8BDBCEB6010D2C000C880B990B0E944A
S1130C00DB1C6B8B7C8B8D8B9E8BC0CEB6010D2C2D
S1130C10000C880B990B0E94DB1C6B8B7C8B8D8BDF
S1130C209E8BB7CEB6010D2C000C880B990B0E943D
S1130C30DB1C6B8B7C8B8D8B9E8BAECEB6010D2C0F
S1130C40000C880B990B0E94DB1C6B8B7C8B8D8BAF
S1130C509E8BA5CEAF96CDBFDEBFDF91CF911F9106
S1130C600F91FF90EF90DF90CF90BF90AF909F9047
S1130C708F907F906F905F904F903F902F9008954A
S1130C801F920F920FB60F9211240BB60F92AF92D0
S1130C90BF92CF92EF92FF921F932F933F934F9364
S1130CA05F936F937F938F939F93AF93BF93CF93F0
S1130CB0DF93EF93FF93A12CB12CEE24E394F12C5A
S1130CC01A2DC12CE7010A2C02C0CC0FDD1F0A9497
S1130CD0E2F7DD2754C02091002430E03AC080912F
S1130CE000242091FF2330E0280F311D32C0809171
S1130CF000242091FF2330E0280F311D8091FE2332
S1130D00280F311D26C0809100242091FF2330E05C
S1130D10280F311D8091FE23280F311D8091FD2362
S1130D20280F311D16C0809100242091FF2330E04C
S1130D30280F311D8091FE23280F311D8091FD2342
S1130D40280F311D8091FC23280F311D02C020E0A3
S1130D5030E0F901EE0FFF1F2E0F3F1FCA01880F6D
S1130D60991F840F951FF901E80FF91FEA5FF14DF0
S1130D709E014281618180810E94681BC3944C2D35
S1130D8050E01230D9F028F4112349F0113071F0F9
S1130D9034C0143019F1D0F0153041F12EC08091D7
S1130DA0002490E04817590794F227C08091FF234C
S1130DB090E0481759070CF48ECF1FC08091FE2392
S1130DC090E0481759070CF48ACF17C08091FD238F
S1130DD090E0481759070CF48ACF0FC08091FC2388
S1130DE090E0481759070CF48ECF07C08091FB237D
S1130DF090E0481759070CF496CF8FEFA81AB80A59
S1130E0086E0A816B10409F05BCFFF91EF91DF9162
S1130E10CF91BF91AF919F918F917F916F915F918E
S1130E204F913F912F911F91FF90EF90CF90BF90E2
S1130E30AF900F900BBE0F900FBE0F901F901895A0
S1130E401F920F920FB60F9211240BB60F922F928E
S1130E503F924F925F926F927F928F929F92AF9246
S1130E60BF92CF92DF92EF92FF920F931F932F9333
S1130E703F934F935F936F937F938F939F93AF931E
S1130E80BF93CF93DF93EF93FF93809171308111E0
S1130E90DAC00EE210E30F2EF4E5CF2EF0E3DF2EDE
S1130EA0F02D0F2EF6EDEF2EFDE2FF2EF02DC0E01B
S1130EB0D0E00F2EF5E6AF2EB12CF02D88248394CC
S1130EC0912C44244A94542C612C712C80916D30C3
S1130ED090E08730910508F0A3C0FC018827E95F02
S1130EE0FE4F8F4F0C94441ED6014D925D926D922D
S1130EF07C92139795C0F60110821182128213829C
S1130F008FC0D7018D919C91892B81F580910E24FE
S1130F10A501481B51092091042030910520429FCE
S1130F20C001439F900D529F900D1124AC01990F65
S1130F30660B770BF80180819181A281B381840FC4
S1130F40951FA61FB71F80839183A283B3838F3F0E
S1130F509F4FA105B1050CF463C0D7018D929C92FB
S1130F60F80140825182628273825AC080910E24B9
S1130F70A501481B51092091042030910520429F6E
S1130F80C001439F900D529F900D1124AC01990F05
S1130F90660B770BF80180819181A281B381841B58
S1130FA0950BA60BB70B80839183A283B38318168A
S1130FB019061A061B06A4F1D7011D921C92108271
S1130FC01182128213822CC00E94931E092E000CDF
S1130FD0AA0BBB0BF80180839183A283B38320C047
S1130FE0F8018081918120910E24A501421B5109B1
S1130FF09A010024369527950794369527950794EA
S1131000322F202D2817390718F4821B930B02C0A6
S113101080E090E0A0E0B0E080839183A283B3837A
S1131020F80181919191A191B1918F01BE01E3DA0F
S11310302196F4E0CF0ED11C22E0E20EF11CC63062
S1131040D10509F043CFFF91EF91DF91CF91BF918B
S1131050AF919F918F917F916F915F914F913F914C
S11310602F911F910F91FF90EF90DF90CF90BF9041
S1131070AF909F908F907F906F905F904F903F9034
S11310802F900F900BBE0F900FBE0F901F901895CE
S1131090FC016583138288E0818381E08483089561
S11310A0FC01848183708130C9F4660F642B6683EC
S11310B080E490E002C0880F991F4A95E2F72481EA
S11310C030E028233923232BD1F39481892F807195
S11310D094FF05C083E0838382E0089581E008954E
S11310E023E0FC01238321E024830895FC0167832A
S11310F0948196FFFDCF9481892F807194FF03C062
S113110083E0838382E0089540E067E280EA94E02C
S1131110C7DF6091473080EA94E0E8DF80EA94E03A
S1131120DFCF0895909147309F7080FD03C0909366
S1131130473003C090619093473081FF05C0909180
S1131140473090629093473082FF05C090914730BA
S113115090649093473083FF05C080914730806846
S1131160809347300895CF93C82F8091473084608F
S1131170809347308C2F8595859585958595D2DF0D
S1131180C3DF809147308B7F80934730BDDF8091F0
S113119047308460809347308C2FC4DFB5DF809163
S11311A047308B7F80934730AFDF83EF91E0019727
S11311B0F1F700C00000CF910895909147309C7FD3
S11311C090934730D0CF08951092463081E0F5CF08
S11311D00895662311F090E401C090E0699F800DAA
S11311E011248068EACF08959091473091609093DC
S11311F047308A3031F08C3091F4E6DF109246307B
S11312000895809146308F5F80934630823011F488
S1131210109246306091463080E0DBCF0895A3CF32
S11312200895CF93DF93EC018881882329F02196D8
S1131230DBDF89918111FCCFDF91CF9108958091FB
S113124047308860809347305FCF0895809147305E
S1131250877F8093473058CF0895CF9385EA9EE0E7
S11312600197F1F700C00000C3E083E05BDF8091E9
S1131270473084608093473047DF809147308B7FCD
S11312808093473041DF87EE93E00197F1F700C088
S11312900000C15051F782E045DF809147308460FF
S11312A08093473031DF809147308B7F8093473084
S11312B02BDF89EF90E00197F1F700C000008CE28A
S11312C07CDF88E07ADF81E078DF83EF91E00197CB
S11312D0F1F700C0000086E070DF8CE06EDFCF9194
S11312E008951F920F920FB60F9211240BB60F920E
S11312F02F923F925F926F927F928F929F92AF92C2
S1131300BF92CF92DF92EF92FF920F931F932F938E
S11313103F934F935F936F937F938F939F93AF9379
S1131320BF93EF93FF93CF93DF93CDB7DEB72A97A5
S1131330CDBFDEBF0F2EF2EECF2EFDE2DF2EF02D5D
S11313400F2EFBEF6F2EF2E27F2EF02D0F2EFEE21A
S1131350EF2EF0E3FF2EF02D0F2EF4E52F2EF0E309
S11313603F2EF02D00E010E055245394802F880F79
S1131370880F880F8093610210926202809160024C
S1131380806880936002809163028823E1F3609116
S11313906402709165028091630280936302063057
S11313A011050CF06EC080E090E0A801D1D8A0E057
S11313B0B0E0F10180839183A283B3839701F701A5
S11313C04081518162817381481759076A077B07FD
S11313D024F480839183A283B383C986DA86F601D9
S11313E080809180A280B380F90140815181628123
S11313F073814D835E836F83788784169506A60672
S1131400B706CCF498012050324DF9012081211106
S113141012C050829C01AD01012E19E055954795EB
S1131420379527951A95D1F7102D29833A834B8345
S11314305C83F3012083181419041A041B04B4F404
S1131440892B8A2B8B2B91F4D801A650B24D8C9109
S113145081110CC0D801A050B24D8C91811106C0ED
S1131460D801A650B24D5C92D3011C922D813E81CD
S11314704F815885A985BA852D933D934D935C93EF
S113148013970F5F1F4FB4E0CB0ED11CEFEF6E1A12
S11314907E0AF4E0EF0EF11C24E0220E311C083029
S11314A0110509F063CF2A96CDBFDEBFDF91CF913E
S11314B0FF91EF91BF91AF919F918F917F916F9128
S11314C05F914F913F912F911F910F91FF90EF905A
S11314D0DF90CF90BF90AF909F908F907F906F9050
S11314E05F903F902F900F900BBE0F900FBE0F9008
S11314F01F9018951F920F920FB60F9211248F937D
S11315009F93AF93BF9380917E3090917F30A09151
S11315108030B09181300196A11DB11D80937E3041
S113152090937F30A0938030B0938130BF91AF917E
S11315309F918F910F900FBE0F901F901895E0EA26
S1131540F9E0918195FFFDCF8093A0090895CF9391
S1131550DF93D62FC42F8F708069F1DF8D2F8F77A3
S1131560EEDF8C2F8F77EBDFDF91CF910895CF9350
S1131570C62F8F708068E3DF8C2F8F77E0DF80E0E9
S1131580DEDFCF9108951F920F920FB60F921124B0
S11315900BB60F922F933F934F935F936F937F9369
S11315A08F939F93AF93BF93EF93FF93E0EAF9E098
S11315B02181822F90E080934A3090934B30808138
S11315C090E080934E3090934F3080916E30813014
S11315D009F0AEC024FF0EC080914830909149308C
S11315E00196809348309093493010924C30109279
S11315F04D300DC0109248301092493080914C30DB
S113160090914D30019680934C3090934D302091C1
S1131610102430E0E0914C30F0914D30C901019636
S11316208E179F0721F480914E3080930D24C901B9
S11316300296E817F90721F480914E3080930C2428
S1131640C9010396E817F90721F480914E3080937D
S11316500B24C9010496E817F90721F480914E3050
S113166080930A24C9010596E817F90721F48091AB
S11316704E3080930924C9010696E817F90721F42E
S113168080914E3080930824C9010796E817F90722
S113169081F440914E3050914F3064E6649FC00114
S11316A0659F900D11246FEF70E00E94311E6093CE
S11316B00E24C9010896E817F90781F480914E3089
S11316C090914F30880F991F880F991F880F991F89
S11316D06FEF70E00E94311E60930F24C9010996D8
S11316E0E817F90789F480914E3090914F30AC019E
S11316F0440F551F840F951F880F991F6FEF70E0DB
S11317000E94311E60936D30265F3F4FE217F3074E
S113171079F480914E3090914F309C01220F331F09
S1131720820F931F6FEF70E00E94311E60936C3044
S1131730FF91EF91BF91AF919F918F917F916F91A5
S11317405F914F913F912F910F900BBE0F900FBE61
S11317500F901F90189588ED84BF82E0809350000D
S1131760E0E5F0E0818181FFFDCF88ED84BFC0E436
S1131770D0E011E018832FEF33EC89E021503040A2
S11317808040E1F700C000008CE192E0E6E0FEE278
S1131790DF019C011D9221503040E1F786E0E4E531
S11317A0F0E3DF01282F1D922A95E9F7EEE2F0E33A
S11317B0DF01282F1D922A95E9F7E2E2F0E3DF0129
S11317C01D928A95E9F780E2E2E8F0E3DF01282F31
S11317D01D922A95E9F7E2ECF0E3DF011D928A9568
S11317E0E9F783E0809381066BE980EA94E050DCBA
S11317F034DD25DD60E080E0ECDCE6DC60E080E008
S1131800E8DC87E198E20DDDBFEFE3EDF0E3B150F2
S1131810E040F040E1F700C0000087E08093A200C0
S11318200E946C14E0E2F6E08FE3828380E1808B17
S1131830818B828B838B848B858B868B878BE4B5A2
S11318403FB7F89480EC91E022E0DC011A962C93E7
S11318501A97F0E0E4911A961C923FBFA0E4B2E01C
S11318601C96EC931C9745B53FB7F894FC0122876E
S1131870E42FF0E02491FC0112863FBF1D962C93C7
S11318801D971C9384E011968C93119711968C915B
S113189011978F7E11968C93119785E014968C93F3
S11318A0149712961C92129713961C921397929661
S11318B01C92929790961C93AFE7BEE31197F1F7B1
S11318C000C000008B8310920004E0E0F4E081810A
S11318D080FDFDCF1092080410920904E0E0F4E0CA
S11318E0818180FDFDCF82E090E080930A04909393
S11318F00B04E0E0F4E0818180FDFDCFE0E0F4E062
S113190091E0938342E042838081887F8160808379
S1131910E0E4FAE010822CE0218768E070E066A33E
S113192077A3968337E03083848581608487A0E839
S1131930B6E012968C9112978C6012968C93129743
S1131940E0E6F6E082818061828383E052968C93A4
S1131950529753968C93448B42854061428791877A
S1131960A0EEB7E012964C911297436012964C93F6
S1131970129741E150964C93509751964C9351973E
S11319801A964C911A9743601A964C931A97199683
S11319909C93A0E8B1E04FE418964C93189742E763
S11319A04C93A0E0BAE048E613964C93139742E0B8
S11319B050E096964D935C9397978C9390961D92D6
S11319C01C92919716968C93A0E0B8E01C921996FD
S11319D02C9319974CE25AE096964D935C93979703
S11319E016969C9316973C931C964C911C974160B9
S11319F01C964C934FEF40930106A0E4B8E01C9270
S1131A0019962C93199746EE5BE196964D935C9349
S1131A10979716968C93169745E04C931C964C9189
S1131A201C9741601C964C93A0E0B9E01C92199657
S1131A302C9319974EEB51E096964D935C939797A0
S1131A4016969C9316973C931C969C911C979160B8
S1131A501C969C93A0EAB9E014969C911497977EE7
S1131A6014969C93149790EC16969C9316979FEA61
S1131A7017969C93179715968C93159714968C919B
S1131A801497886014968C9388E08183789480817D
S1131A908066808386818066868301E013E20F2E50
S1131AA0FBEFEF2EF2E2FF2EF02DC0E0D0E0FE01BE
S1131AB0E050F24D8081882351F0F7014081D80134
S1131AC06C9181E044DDFE01E050F24D1082FE0194
S1131AD0E650F24D8081882349F040E0F8016081AE
S1131AE081E045DDFE01E650F24D108221960F5F44
S1131AF01F4FFFEFEF1AFF0AC630D105C1F6CDCF55
S1131B001F920F920FB60F9211240BB60F922F93C0
S1131B103F934F935F936F937F938F939F93AF9371
S1131B20BF93EF93FF93CF93DF93CDB7DEB7609767
S1131B30CDBFDEBF80917130882351F0E0E6F6E03E
S1131B40878180668783E0917A30F0917B3018C07A
S1131B508091FA23813031F4E0E6F6E086818066F4
S1131B60868331C6E0E6F6E08581806685832BC6F0
S1131B708232910509F47FC4839709F031C6B2C457
S1131B80E0931524F0931624E13481E0F80708F07B
S1131B9005C68827E25FFE4F8F4F0C94441EA09128
S1131BA01324B091142481E1E5E2F8E201900D924E
S1131BB08A95E1F780E1FE013196DF01982F1D92AD
S1131BC09A95E9F7909110241F929F9326E338E2A7
S1131BD03F932F931F928F93FF93EF930E94B11E15
S1131BE0E0916E30CDBFDEBFE13041F0F0E0EE0FAA
S1131BF0FF1FE052FB4F6591749103C0BE016F5FFC
S1131C007F4F80911124909112240E94AA1EC6C570
S1131C10A0911324B091142481E1E8E4F8E2019046
S1131C200D928A95E1F7E0916E30F0E0EE0FFF1F20
S1131C30E052FB4F6591749180911124909112248C
S1131C400E94AA1EABC5A0911324B091142481E173
S1131C50E9E5F8E201900D928A95E1F7809110246C
S1131C601F928F938AE698E29F938F931F9280E14D
S1131C708F93809112248F93809111248F930E94CB
S1131C80B11ECDBFDEBF8AC5A0911324B091142428
S1131C9081E1ECE7F8E201900D928A95E1F78091F9
S1131CA00D241F928F938AE698E29F938F931F923D
S1131CB080E18F93809112248F93809111248F93CC
S1131CC00E94B11ECDBFDEBF69C5A0911324B0919F
S1131CD0142481E1EDE8F8E201900D928A95E1F790
S1131CE080910C241F928F938AE698E29F938F939E
S1131CF01F9280E18F93809112248F9380911124FD
S1131D008F930E94B11ECDBFDEBF48C5A09113249E
S1131D10B091142481E1EEE9F8E201900D928A95E4
S1131D20E1F780910B241F928F938AE698E29F93A8
S1131D308F931F9280E18F93809112248F938091CF
S1131D4011248F930E94B11ECDBFDEBF27C5A09181
S1131D501324B091142481E1EFEAF8E201900D928A
S1131D608A95E1F780910A241F928F938AE698E27C
S1131D709F938F931F9280E18F93809112248F936E
S1131D80809111248F930E94B11ECDBFDEBF06C582
S1131D90A0911324B091142481E1E0ECF8E20190C5
S1131DA00D928A95E1F7809109241F928F938AE618
S1131DB098E29F938F931F9280E18F9380911224D6
S1131DC08F93809111248F930E94B11ECDBFDEBFEB
S1131DD0E5C4A0911324B091142481E1E1EDF8E26B
S1131DE001900D928A95E1F7809108241F928F93B8
S1131DF08AE698E29F938F931F9280E18F9380915C
S1131E0012248F93809111248F930E94B11ECDBF11
S1131E10DEBFC4C4A0911324B091142481E1E2EE86
S1131E20F8E201900D928A95E1F780910E241F92B9
S1131E308F938AE698E29F938F931F9280E18F930A
S1131E40809112248F93809111248F930E94B11E4C
S1131E50CDBFDEBFA3C480910F2490E089309105EB
S1131E6014F088E090E080930F24A0911324B091A3
S1131E70142481E1E3EFF8E201900D928A95E1F7F1
S1131E80E0910F24F0E0EE0FFF1FE650FB4F659149
S1131E90749180911124909112240E94AA1E7EC4F0
S1131EA0A0911324B091142481E1E4E0F9E20190BB
S1131EB00D928A95E1F7E0916D30F0E0EE0FFF1F8F
S1131EC0E451FB4F659174918091112490911224F7
S1131ED00E94AA1E63C4A0911324B091142481E12A
S1131EE0E5E1F9E201900D928A95E1F7E0916C3019
S1131EF0F0E0EE0FFF1FEC51FB4F65917491809160
S1131F001124909112240E94AA1E48C4A091132463
S1131F10B091142481E1E6E2F9E201900D928A95F0
S1131F20E1F7809107241F928F938AE698E29F93AA
S1131F308F931F9280E18F93809112248F938091CD
S1131F4011248F930E94B11ECDBFDEBF27C4A09180
S1131F501324B091142481E1E7E3F9E201900D9296
S1131F608A95E1F7809106241F928F938AE698E27E
S1131F709F938F931F9280E18F93809112248F936C
S1131F80809111248F930E94B11ECDBFDEBF06C481
S1131F90A0911324B091142481E1E8E4F9E20190C2
S1131FA00D928A95E1F7809105241F928F938AE61A
S1131FB098E29F938F931F9280E18F9380911224D4
S1131FC08F93809111248F930E94B11ECDBFDEBFE9
S1131FD0E5C3A0911324B091142481E1E9E5F9E269
S1131FE001900D928A95E1F7809104241F928F93BA
S1131FF08AE698E29F938F931F9280E18F9380915A
S113200012248F93809111248F930E94B11ECDBF0F
S1132010DEBFC4C3A0911324B091142481E1EAE685
S1132020F9E201900D928A95E1F7809103241F92C1
S11320308F938AE698E29F938F931F9280E18F9308
S1132040809112248F93809111248F930E94B11E4A
S1132050CDBFDEBFA3C3A0911324B091142481E1AA
S1132060EBE7F9E201900D928A95E1F78091022461
S11320701F928F938AE698E29F938F931F9280E139
S11320808F93809112248F93809111248F930E94B7
S1132090B11ECDBFDEBF82C3A0911324B09114241E
S11320A081E1ECE8F9E201900D928A95E1F78091E3
S11320B001241F928F938AE698E29F938F931F9235
S11320C080E18F93809112248F93809111248F93B8
S11320D00E94B11ECDBFDEBF61C3A0911324B09195
S11320E0142481E1EDE9F9E201900D928A95E1F77A
S11320F0809100241F928F938AE698E29F938F9396
S11321001F9280E18F93809112248F9380911124E8
S11321108F930E94B11ECDBFDEBF40C3A091132494
S1132120B091142481E1EEEAF9E201900D928A95CE
S1132130E1F78091FF231F928F938AE698E29F93A1
S11321408F931F9280E18F93809112248F938091BB
S113215011248F930E94B11ECDBFDEBF1FC3A09177
S11321601324B091142481E1EFEBF9E201900D9274
S11321708A95E1F78091FE231F928F938AE698E275
S11321809F938F931F9280E18F93809112248F935A
S1132190809111248F930E94B11ECDBFDEBFFEC279
S11321A0A0911324B091142481E1E0EDF9E20190AF
S11321B00D928A95E1F78091FD231F928F938AE611
S11321C098E29F938F931F9280E18F9380911224C2
S11321D08F93809111248F930E94B11ECDBFDEBFD7
S11321E0DDC2A0911324B091142481E1E1EEF9E25F
S11321F001900D928A95E1F78091FC231F928F93B1
S11322008AE698E29F938F931F9280E18F93809147
S113221012248F93809111248F930E94B11ECDBFFD
S1132220DEBFBCC2A0911324B091142481E1E2EF7B
S1132230F9E201900D928A95E1F78091FB231F92B8
S11322408F938AE698E29F938F931F9280E18F93F6
S1132250809112248F93809111248F930E94B11E38
S1132260CDBFDEBF9BC2A0911324B091142481E1A1
S1132270E3E0FAE201900D928A95E1F78091F82368
S11322801F928F938AE698E29F938F931F9280E127
S11322908F93809112248F93809111248F930E94A5
S11322A0B11ECDBFDEBF7AC2A0911324B091142415
S11322B081E1E4E1FAE201900D928A95E1F78091DF
S11322C0F7231F928F938AE698E29F938F931F922E
S11322D080E18F93809112248F93809111248F93A6
S11322E00E94B11ECDBFDEBF59C2A0911324B0918C
S11322F0142481E1E5E2FAE201900D928A95E1F776
S11323008091F6231F928F938AE698E29F938F938E
S11323101F9280E18F93809112248F9380911124D6
S11323208F930E94B11ECDBFDEBF38C2A09113248B
S1132330B091142481E1E6E3FAE201900D928A95CA
S1132340E1F78091F5231F928F938AE698E29F9399
S11323508F931F9280E18F93809112248F938091A9
S113236011248F930E94B11ECDBFDEBF17C2A0916E
S11323701324B091142481E1E7E4FAE201900D9270
S11323808A95E1F78091F4231F928F938AE698E26D
S11323909F938F931F9280E18F93809112248F9348
S11323A0809111248F930E94B11ECDBFDEBFF6C170
S11323B0A0911324B091142481E1E8E5FAE201909C
S11323C00D928A95E1F78091F3231F928F938AE609
S11323D098E29F938F931F9280E18F9380911224B0
S11323E08F93809111248F930E94B11ECDBFDEBFC5
S11323F0D5C1A0911324B091142481E1E9E6FAE255
S113240001900D928A95E1F78091FA231F928F93A0
S11324108AE79AE29F938F931F9280E18F93809132
S113242012248F93809111248F930E94B11ECDBFEB
S1132430DEBFB4C1A0911324B091142481E1EEE86D
S1132440FAE201900D928A95E1F78091F9231F92A7
S11324508F938AE79AE29F938F931F9280E18F93E1
S1132460809112248F93809111248F930E94B11E26
S1132470CDBFDEBF93C1A0911324B091142481E198
S1132480EFE9FAE201900D928A95E1F7E4E5F0E3D1
S113249083858F9382858F9381858F9380858F9396
S11324A087818F9386818F9385818F9384818F9386
S11324B083818F9382818F9381818F9380818F9386
S11324C080EB9AE29F938F931F9280E18F93809188
S11324D012248F93809111248F930E94B11ECDBF3B
S11324E0DEBF5CC1A0911324B091142481E1E1EC1E
S11324F0FAE201900D928A95E1F7E4E5F0E3878929
S11325008F9386898F9385898F9384898F93838909
S11325108F9382898F9381898F9380898F93878505
S11325208F9386858F9385858F9384858F9380EB96
S11325309AE29F938F931F9280E18F93809112244C
S11325408F93809111248F930E94B11ECDBFDEBF63
S113255025C1A0911324B091142481E1E2EDFAE2A3
S113256001900D928A95E1F767E073E2809111245E
S1132570909112240E94AA1E11C1A0911324B0911B
S1132580142481E1E3EEFAE201900D928A95E1F7D9
S113259067E073E280911124909112240E94AA1E94
S11325A0FDC0A0911324B091142481E1E4EFFAE278
S11325B001900D928A95E1F767E073E2809111240E
S11325C0909112240E94AA1EE9C0A0911324B091F4
S11325D0142481E1E5E0FBE201900D928A95E1F794
S11325E067E073E280911124909112240E94AA1E44
S11325F0D5C0A0911324B091142481E1E6E1FBE25B
S113260001900D928A95E1F767E073E280911124BD
S1132610909112240E94AA1EC1C0A0911324B091CB
S1132620142481E1E7E2FBE201900D928A95E1F73F
S113263067E073E280911124909112240E94AA1EF3
S1132640ADC0A0911324B091142481E1E8E3FBE22E
S113265001900D928A95E1F767E073E2809111246D
S1132660909112240E94AA1E99C0A0911324B091A3
S1132670142481E1E7E2FBE201900D928A95E1F7EF
S113268067E073E280911124909112240E94AA1EA3
S113269085C0A0911324B091142481E1E6E1FBE20A
S11326A001900D928A95E1F767E073E2809111241D
S11326B0909112240E94AA1E71C0A0911324B0917B
S11326C0142480E1E9E4FBE201900D928A95E1F79C
S11326D067E073E280911124909112240E94AA1E53
S11326E05DC0A0911324B091142480E1E9E5FBE2DC
S11326F001900D928A95E1F767E073E280911124CD
S1132700909112240E94AA1E49C0A0911324B09152
S1132710142481E1E9E6FBE201900D928A95E1F748
S113272080917A3090917B30885C91099F938F934C
S11327308AE79BE29F938F931F9280E18F9380910E
S113274012248F93809111248F930E94B11ECDBFC8
S1132750DEBF24C0A0911324B091142481E1ECE8DD
S1132760FBE201900D928A95E1F780917A30909185
S11327707B308C5291409F938F938AE79BE29F9387
S11327808F931F9280E18F93809112248F93809175
S113279011248F930E94B11ECDBFDEBF60E080E0A4
S11327A00E94E90880911324909114240E94110935
S11327B061E080E00E94E908809111249091122444
S11327C00E9411090DC08091152490911624E09166
S11327D07A30F0917B308E179F0709F0D1C9C8C9B0
S11327E06096CDBFDEBFDF91CF91FF91EF91BF9196
S11327F0AF919F918F917F916F915F914F913F9195
S11328002F910F900BBE0F900FBE0F901F90189535
S1132810E2EAF0E380916E30818380911024828318
S113282080910D24838380910C24848380910B24D4
S1132830858380910A2486838091092487838091EB
S11328400824808780910E24828780916C3085874C
S113285080910724818780910624868780910524AE
S1132860878780910424808B80910324818B8091BD
S11328700224828B80910124838B80910024848B99
S11328808091FF23858B8091FE23868B8091FD238D
S1132890878B8091FC23808F8091FB23818F809193
S11328A00F24838780916D3084878091F823828FF1
S11328B08091F723838F8091F623848F8091F52371
S11328C0858F8091F423868F8091F323878FCF01A6
S11328D09ED780E0B2C7089540E250E062E870E31A
S11328E080E090E06AD7809183308F3F11F080932D
S11328F06E30809184308F3F11F08093102480914A
S113290085308F3F11F080930D24809186308F3F66
S113291011F080930C24809187308F3F11F08093C5
S11329200B24809188308F3F11F080930A2480918A
S113293089308F3F11F08093092480918A308F3F32
S113294011F08093082480918C308F3F11F0809394
S11329500E2480918E308F3F11F080936D308091E2
S11329608D308F3F11F080930F2480918F308F3FF3
S113297011F080936C3080918B308F3F11F08093F5
S11329800724809190308F3F11F08093062490911A
S113299091309F3F11F090930524909192309F3F86
S11329A011F090930424909193309F3F11F09093F1
S11329B00324909194309F3F11F0909302248F3F11
S11329C021F08091953080930124809196308F3F3F
S11329D011F080930024809197308F3F11F0809301
S11329E0FF23809198308F3F11F08093FE238091D4
S11329F099308F3F11F08093FD2380919A308F3F5F
S1132A0011F08093FC2380919B308F3F11F08093D1
S1132A10FB238091A2308F3F19F081E08093F9234A
S1132A208091A3308F3F19F081E08093FA23809145
S1132A309C308F3F21F08093F82380930123809171
S1132A409D308F3F21F08093F72380930223809160
S1132A509E308F3F21F08093F6238093032380914F
S1132A609F308F3F21F08093F5238093042380913E
S1132A70A0308F3F21F08093F4238093052380912D
S1132A80A1308F3F21F08093F3238093062380911C
S1132A90F923813019F40C941F0908950C94260924
S1132AA00895BC0190917130911120C140917C3006
S1132AB050917D30FA01EE0FFF1FEE58FF4C20813C
S1132AC03181CB01820F931F808391834130510563
S1132AD001F14230510509F4CDC0452B09F006C17E
S1132AE08930910514F088E090E0992314F480E093
S1132AF090E08093723090937330880F991FFC019B
S1132B00EC53F24D8081918180937A3090937B30A5
S1132B10089520917230309173302530310509F4D5
S1132B2045C03CF42330310579F02430310529F1D6
S1132B3008952730310509F46BC00CF450C02830D7
S1132B40310509F47EC008958730910514F086E0BC
S1132B5090E0992314F480E090E080937430909393
S1132B607530880F991FFC01EA55F24D80819181DF
S1132B7080937A3090937B3008958830910514F0D7
S1132B8087E090E0992314F480E090E0809374301F
S1132B9090937530880F991FFC01EC54F24D80819D
S1132BA0918180937A3090937B300895853091059C
S1132BB014F084E090E0992314F480E090E0809392
S1132BC0743090937530880F991FFC01E456F24DD0
S1132BD08081918180937A3090937B3008958F30F7
S1132BE0910514F08EE090E0992314F480E090E0D5
S1132BF08093743090937530880F991FFC01E258CC
S1132C00F24D8081918180937A3090937B30089546
S1132C108531910514F084E190E0992314F480E067
S1132C2090E08093743090937530880F991FFC0165
S1132C30EC5AF24D8081918180937A3090937B306D
S1132C4008958330910514F082E090E0992314F400
S1132C5080E090E08093743090937530880F991FD2
S1132C60FC01E25BF24D8081918180937A309093F4
S1132C707B300895209174303091753021153105E1
S1132C8021F021303105D1F008958531910514F0FA
S1132C9084E190E0992314F480E090E0809376300E
S1132CA090937730880F991FFC01EC5DF24D808181
S1132CB0918180937A3090937B300895853191058A
S1132CC014F084E190E0992314F480E090E0809380
S1132CD0763090937730880F991FFC01EC5DF24DAC
S1132CE08081918180937A3090937B3008951F92F4
S1132CF00F920FB60F9211240BB60F920F931F93DE
S1132D002F933F934F935F936F937F938F939F93EF
S1132D10AF93BF93CF93DF93EF93FF9380916F3083
S1132D2090917030892B09F0D0C28091200A909143
S1132D30210A029718F4CFEFDFEF02C0C1E0D0E020
S1132D4040917E3050917F3060918030709181301D
S1132D508091523090915330092E000CAA0BBB0B7A
S1132D608A019B01081B190B2A0B3B0B0C30110524
S1132D702105310508F4A9C24093523050935330D1
S1132D8081E090E080936F3090937030CE0189DEC3
S1132D9080917130882309F494C2E0917A30F091E3
S1132DA07B303197E132F10508F08BC28827E15B73
S1132DB0FD4F8F4F69C780916E30C80FD11D1C160F
S1132DC01D0614F4C1E0D0E0DD2314F4C0E0D0E02B
S1132DD0C0936E3076C28091FA23C80FD11D1C16A1
S1132DE01D0614F4C1E0D0E0DD2314F4C0E0D0E00B
S1132DF0C093FA2366C28091F923C80FD11D1C1613
S1132E001D0614F4C1E0D0E0DD2314F4C0E0D0E0EA
S1132E10C093F923C13019F40E941F0952C20E94C1
S1132E2026094FC280911024C80FD11DCF3FD10570
S1132E3019F014F0CFEFD0E0DD2314F4C0E0D0E0BB
S1132E40C09310243EC280910D24CC0FDD1FC29587
S1132E50D295D07FDC27C07FDC27C80FD11DCF3FA0
S1132E60D10519F014F0CFEFD0E0DD2314F4C0E065
S1132E70D0E0C0930D2425C280910C24CC0FDD1F1B
S1132E80C295D295D07FDC27C07FDC27C80FD11D27
S1132E90CF3FD10519F014F0CFEFD0E0DD2314F4C7
S1132EA0C0E0D0E0C0930C240CC280910B24CC0F62
S1132EB0DD1FC295D295D07FDC27C07FDC27C80FE9
S1132EC0D11DCF3FD10519F014F0CFEFD0E0DD23B1
S1132ED014F4C0E0D0E0C0930B24F3C180910A2421
S1132EE0CC0FDD1FC295D295D07FDC27C07FDC27B5
S1132EF0C80FD11DCF3FD10519F014F0CFEFD0E0AA
S1132F00DD2314F4C0E0D0E0C0930A24DAC1809138
S1132F100924CC0FDD1FC295D295D07FDC27C07F5A
S1132F20DC27C80FD11DCF3FD10519F014F0CFEF26
S1132F30D0E0DD2314F4C0E0D0E0C0930924C1C183
S1132F4080910824CC0FDD1FC295D295D07FDC2759
S1132F50C07FDC27C80FD11DCF3FD10519F014F075
S1132F60CFEFD0E0DD2314F4C0E0D0E0C093082418
S1132F70A8C120910E24CE01880F991F880F991F94
S1132F80C80FD91FC20FD11DC536D10514F0C4E630
S1132F90D0E0DD2314F4C0E0D0E0C0930E2491C14E
S1132FA020910724CE01880F991F880F991FC80FFD
S1132FB0D91FC20FD11DCF3FD10519F014F0CFEFA7
S1132FC0D0E0DD2314F4C0E0D0E0C093072479C13D
S1132FD080910624C80FD11DCF3FD10519F014F0FC
S1132FE0CFEFD0E0DD2314F4C0E0D0E0C09306249A
S1132FF068C180910524C80FD11DCF3FD10519F0B8
S113300014F0CFEFD0E0DD2314F4C0E0D0E0C0939F
S1133010052457C180910424C80FD11DCF3FD10589
S113302019F014F0CFEFD0E0DD2314F4C0E0D0E0C9
S1133030C093042446C180910324C80FD11DCF3FFF
S1133040D10519F014F0CFEFD0E0DD2314F4C0E083
S1133050D0E0C093032435C180910224C80FD11D50
S1133060CF3FD10519F014F0CFEFD0E0DD2314F4F5
S1133070C0E0D0E0C093022424C180910124C80F91
S1133080D11DCF3FD10519F014F0CFEFD0E0DD23EF
S113309014F4C0E0D0E0C093012413C18091002453
S11330A0C80FD11DCA30D10534F0CF31D1052CF071
S11330B0CEE1D0E002C0CAE0D0E0C093002401C158
S11330C08091FF23C80FD11DCA30D10534F0CF3110
S11330D0D1052CF0CEE1D0E002C0CAE0D0E0C0932C
S11330E0FF23EFC08091FE23C80FD11DCA30D10544
S11330F034F0CF31D1052CF0CEE1D0E002C0CAE0EB
S1133100D0E0C093FE23DDC08091FD23C80FD11D04
S1133110CA30D10534F0CF31D1052CF0CEE1D0E066
S113312002C0CAE0D0E0C093FD23CBC08091FC2351
S1133130C80FD11DCA30D10534F0CF31D1052CF0E0
S1133140CEE1D0E002C0CAE0D0E0C093FC23B9C015
S11331508091FB23C80FD11DCA30D10534F0CF3183
S1133160D1052CF0CEE1D0E002C0CAE0D0E0C0939B
S1133170FB23A7C080910F24C80FD11DC930D105EE
S113318014F0C8E0D0E0DD2314F4C0E0D0E0C09334
S11331900F2497C080916D30C80FD11DC730D10561
S11331A014F0C6E0D0E0DD2314F4C0E0D0E0C09316
S11331B06D3087C08091F823C80FD11DC233D1056B
S11331C034F0C135D1052CF0C0E5D0E002C0C2E333
S11331D0D0E0C093F823C093012373C08091F723F8
S11331E0C80FD11DC233D10534F0C135D1052CF03F
S11331F0C0E5D0E002C0C2E3D0E0C093F723C0939F
S113320002235FC08091F623C80FD11DC233D105BC
S113321034F0C135D1052CF0C0E5D0E002C0C2E3E2
S1133220D0E0C093F623C09303234BC08091F523D1
S1133230C80FD11DC233D10534F0C135D1052CF0EE
S1133240C0E5D0E002C0C2E3D0E0C093F523C09350
S1133250042337C08091F423C80FD11DC233D10594
S113326034F0C135D1052CF0C0E5D0E002C0C2E392
S1133270D0E0C093F423C093052323C08091F323AB
S1133280C80FD11DC233D10534F0C135D1052CF09E
S1133290C0E5D0E002C0C2E3D0E0C093F323C09302
S11332A006230FC080916C30C80FD11DC430D105E6
S11332B014F0C3E0D0E0DD2314F4C0E0D0E0C09308
S11332C06C3010926F3010927030FF91EF91DF915B
S11332D0CF91BF91AF919F918F917F916F915F91AA
S11332E04F913F912F911F910F910F900BBE0F9013
S11332F00FBE0F901F901895EF92FF920F931F939C
S1133300CF93DF93CDB7DEB72B97CDBFDEBF20932E
S11333100D2430930C2440930B2450930A2460937F
S113332009247093082400930E24F0926D30E092E7
S11333300F24115010936C308093072461E080E0D7
S11333400E94E9088DE99BE20E94110961DA2B963B
S1133350CDBFDEBFDF91CF911F910F91FF90EF9012
S113336008951F920F920FB60F9211240BB60F926D
S11333702F933F934F935F936F937F938F939F9379
S1133380AF93BF93EF93FF938091713081110FC07E
S113339080917C3090917D30009791F001978093DB
S11333A07C3090937D3080E090E07BDB09C08130FD
S11333B039F42EDA9091713081E08927809371304D
S11333C0FF91EF91BF91AF919F918F917F916F91F9
S11333D05F914F913F912F910F900BBE0F900FBEB5
S11333E00F901F9018951F920F920FB60F921124F1
S11333F00BB60F92EF92FF920F931F932F933F936D
S11334004F935F936F937F938F939F93AF93BF93E8
S1133410CF93DF93EF93FF9340917E3050917F30B1
S11334206091803070918130809150309091513012
S1133430092E000CAA0BBB0B8A019B01081B190B5C
S11334402A0B3B0B0A3011052105310508F427C16D
S11334504093503050935130C0917A30D0917B30AA
S1133460C732D10569F480917C3090917D30019709
S113347080937C3090937D3080E090E012DB0FC12C
S1133480CE01875691098530910550F0CD36D1058E
S113349039F0CF968230910518F004960297A0F483
S11334A080917C3090917D30019680937C30909314
S11334B07D30880F991FFC01EE58FF4C1082118259
S11334C080E090E0EEDAEBC0E0917C30F0917D306A
S11334D0EE0FFF1FE059FF4C80819181009709F0A6
S11334E073C0CD3211E0D1070CF4C3C0CE018B52AE
S11334F0914040E250E062EC70E3880F991F82959E
S11335009295907F9827807F982757D19091CF30BC
S11335109F3F49F461E080E00E94E9088CEA9BE265
S11335200E941109BCC08FEF80930D2480930C245A
S113353080930B2480930A24809309248093082485
S11335408091C5308F3F11F080930D248091C63057
S11335508F3F11F080930C248091C7308F3F11F07E
S113356080930B248091C8308F3F11F080930A24FC
S11335708091C9308F3F11F0809309248091CA3023
S11335808F3F11F0809308248091CC308F3F11F04D
S113359080930E248091CE308F3F11F080936D3054
S11335A08091CD308F3F09F472C080930F246FC097
S11335B08093072461E080E00E94E9088DE99BE2A2
S11335C00E94110925D96BC081309105B1F5CD3226
S11335D021E0D2070CF44DC0E2ECF0E380910D241D
S11335E0838380910C24848380910B248583809130
S11335F00A24868380910924878380910824808704
S113360080910E24828780916C3085878091072475
S1133610818780910F24838780916D308487CF01C7
S1133620F6D08C2F8B5209D161E080E00E94E9082A
S11336308AEB9BE20E94110932C00797D1F4C93C7E
S1133640D105BCF0C95CD1098BE08C9FF0018D9F42
S1133650F00D1124E95EFC4DE080F18002811381BC
S1133660248135814681578160857185828544DE58
S113367016C0A297A1F080917130813009F4C8D8A6
S11336809091713081E089278093713008C09093C4
S11336906C308091CB308F3F09F08ACF8BCFFF9174
S11336A0EF91DF91CF91BF91AF919F918F917F91D6
S11336B06F915F914F913F912F911F910F91FF90C7
S11336C0EF900F900BBE0F900FBE0F901F901895A8
S11336D0F89498E0E0E0F6E0522F5095662374F4F5
S11336E03481322B348335E03A95F1F73481352334
S11336F0348332E03A95F1F700C00EC03481322BA6
S1133700348332E03A95F1F7000034813523348371
S113371035E03A95F1F70000660F9150F9F698E01C
S1133720E0E0F6E0522F5095882374F43481322B74
S1133730348335E03A95F1F734813523348332E02C
S11337403A95F1F700C00EC03481322B348332E055
S11337503A95F1F7000034813523348335E03A9506
S1133760F1F70000880F9150F9F688E0E0E0F6E008
S1133770322F3095442374F49481922B948395E0F2
S11337809A95F1F794819323948392E09A95F1F7B3
S113379000C00EC09481922B948392E09A95F1F725
S11337A0000094819323948395E09A95F1F70000A7
S11337B0440F8150F9F678940895CF93DF939C01D8
S11337C0DB01E0ECF1E097859923ECF3CCECD1E05C
S11337D0988198609883B901705FCD01B2D28881D5
S11337E0877F8883DF91CF910895E0ECF1E097859E
S11337F09923ECF3ACECB1E09C9198609C93E82F96
S1133800F0E0F05F60838C91877F8C9308950F9331
S11338101F93CF938C01E0ECF1E087858823ECF3D0
S1133820C0E0F80161918F018C2FDFDFCF5FC032E0
S1133830C1F7CF911F910F9108951F93CF93DF93F9
S1133840E0ECF1E097859923ECF320E2829FC0013C
S11338501124C0ECD1E01A82998388831A8585E308
S11338608A8761E08BEC91E005D01A87DF91CF91D4
S11338701F9108951BBEFC0128ED24BF60830895A9
S11338800CD027C11FD140F016D130F021F45F3F96
S113389019F0DFC0511168C10BC12CD198F39923E1
S11338A0C9F35523B1F3951B550BBB27AA27621700
S11338B07307840738F09F5F5F4F220F331F441F45
S11338C0AA1FA9F333D00E2E3AF0E0E830D091507D
S11338D05040E695001CCAF729D0FE2F27D0660F6A
S11338E0771F881FBB1F261737074807AB07B0E8A9
S11338F009F0BB0B802DBF01FF2793585F4F2AF0BF
S11339009E3F510568F0A5C02FC15F3FECF3983E80
S1133910DCF3869577956795B795F7959F5FC9F71B
S1133920880F911D9695879597F90895E1E0660FA4
S1133930771F881FBB1F621773078407BA0720F01D
S1133940621B730B840BBA0BEE1F88F7E095089586
S113395004D06894B11108C10895D4D088F09F5759
S113396090F0B92F9927B751A0F0D1F0660F771FC7
S1133970881F991F1AF0BA95C9F712C0B13081F0A7
S1133980F2D0B1E00895EFC0672F782F8827B85F91
S113399039F0B93FCCF3869577956795B395D9F708
S11339A03EF490958095709561957F4F8F4F9F4F12
S11339B00895E89409C097FB3EF49095809570951E
S11339C061957F4F8F4F9F4F9923A9F0F92F96E967
S11339D0BB279395F695879577956795B795F111DC
S11339E0F8CFFAF4BB0F11F460FF1BC06F5F7F4F79
S11339F08F4F9F4F16C0882311F096E911C077238B
S1133A0021F09EE8872F762F05C0662371F096E893
S1133A10862F70E060E02AF09A95660F771F881F62
S1133A20DAF7880F9695879597F9089585D080F0F1
S1133A309F3740F491110EF097C060E070E080E889
S1133A409FEB089526F41B16611D711D811D07C08F
S1133A5021C097F99F6780E870E060E008958823AB
S1133A6071F4772321F09850872B762F07C06623B3
S1133A7011F499270DC09051862B70E060E02AF074
S1133A809A95660F771F881FDAF7880F96958795A2
S1133A9097F908959F3F31F0915020F487957795D9
S1133AA06795B795880F911D9695879597F9089511
S1133AB09FEF80EC089500240A9416161706180642
S1133AC00906089500240A9412161306140605061E
S1133AD00895092E0394000C11F4882352F0BB0FAF
S1133AE040F4BF2B11F460FF04C06F5F7F4F8F4F12
S1133AF09F4F089557FD9058440F551F59F05F3F4D
S1133B0071F04795880F97FB991F61F09F3F79F0FB
S1133B1087950895121613061406551FF2CF46957D
S1133B20F1DF08C0161617061806991FF1CF8695FF
S1133B307105610508940895E5DFA0F0BEE7B917A3
S1133B4088F4BB279F3860F41616B11D672F782FB1
S1133B508827985FF7CF869577956795B11D9395DC
S1133B609639C8F30895E894BB2766277727CB01D5
S1133B7097F908950BD0ADCF9EDF28F0A3DF18F09E
S1133B80952309F066CF94CF1124EECFB3DFA0F3D1
S1133B90959FD1F3950F50E0551F629FF001729FDE
S1133BA0BB27F00DB11D639FAA27F00DB11DAA1FFD
S1133BB0649F6627B00DA11D661F829F2227B00D4A
S1133BC0A11D621F739FB00DA11D621F839FA00DD5
S1133BD0611D221F749F3327A00D611D231F849F25
S1133BE0600D211D822F762F6A2F11249F5750407C
S1133BF08AF0E1F088234AF0EE0FFF1FBB1F661F17
S1133C00771F881F91505040A9F79E3F510570F0CF
S1133C1020CFAACF5F3FECF3983EDCF386957795EF
S1133C206795B795F795E7959F5FC1F7FE2B880FCA
S1133C30911D9695879597F90895AA1BBB1B51E191
S1133C4007C0AA1FBB1FA617B70710F0A61BB70B08
S1133C50881F991F5A95A9F780959095BC01CD01AD
S1133C60089597FB072E16F4009406D077FD08D02C
S1133C70E4DF07FC05D03EF4909581959F4F0895AD
S1133C80709561957F4F0895EE0FFF1F881F8BBFBE
S1133C900790F691E02D19948F929F92AF92BF9264
S1133CA0CF92DF92EF92FF92CF93DF93EC01688182
S1133CB079818A819B81611571058105910521F4C2
S1133CC064E279ED8BE597E02DE133EF41E050E0DC
S1133CD025D349015A019B01AC01A7EAB1E43AD3C7
S1133CE06B017C01ACEEB4EFA50194013FD3DC0180
S1133CF0CB018C0D9D1DAE1DBF1DB7FF03C00197E9
S1133D00A109B04888839983AA83BB839F77DF91F5
S1133D10CF91FF90EF90DF90CF90BF90AF909F90A6
S1133D208F900895B9CF80E090E2B6CFA0E0B0E0E4
S1133D308093002090930120A0930220B09303204D
S1133D400895FB01DC0102C001900D9241505040E6
S1133D50D8F70895FB01DC0101900D920020E1F7F2
S1133D6008950F931F93CF93DF93CDB7DEB72E97AC
S1133D70CDBFDEBF0E891F89888D998D26E02C83E7
S1133D8009831A8397FF02C080E090E801978D832E
S1133D909E83AE01445E5F4F6A8D7B8DCE0101969A
S1133DA016D04D815E8157FD0AC02F813885421798
S1133DB053070CF49A01F801E20FF31F10822E96B8
S1133DC0CDBFDEBFDF91CF911F910F9108952F9248
S1133DD03F924F925F926F927F928F929F92AF9297
S1133DE0BF92CF92DF92EF92FF920F931F93CF93E4
S1133DF0DF93CDB7DEB72B97CDBFDEBF6C017B0160
S1133E008A01FC0116821782838181FFBFC1CE0122
S1133E1001963C01F6019381F70193FD859193FF8F
S1133E2081917F01882309F4ADC1853239F493FD72
S1133E30859193FF81917F01853221F4B60190E051
S1133E40D3D1E8CF912C212C312CFFE1F315D8F0FC
S1133E508B3279F038F4803279F08332A1F4232D57
S1133E6020611DC08D3261F0803369F4232D2160FF
S1133E7016C0832D8260382EE32DE4603E2E2AC0C6
S1133E80F32DF8601DC037FC2DC020ED280F2A301B
S1133E9040F08E32B9F436FC75C1232D2064322EE5
S1133EA019C036FE06C08AE0989E200D1124922E79
S1133EB011C0EAE02E9E200D1124222EF32DF06273
S1133EC03F2E08C08C3621F4832D8068382E02C022
S1133ED0883641F4F70193FD859193FF81917F0129
S1133EE08111B3CF982F9F7D9554933028F40C5FA4
S1133EF01F4F9FE399830DC0833631F0833771F0F0
S1133F00833509F055C020C0F801808189830E5F94
S1133F101F4F88248394912C530112C02801F2E08E
S1133F204F0E511CF801A080B18036FE03C0692DEC
S1133F3070E002C06FEF7FEFC5014BD14C018201ED
S1133F40F32DFF773F2E15C0280122E0420E511CAD
S1133F50F801A080B18036FE03C0692D70E002C074
S1133F606FEF7FEFC5012AD14C01F32DF0683F2E8E
S1133F70820133FC19C0822D90E088169906A0F4C2
S1133F80B60180E290E030D12A94F5CFF50137FCF8
S1133F90859137FE81915F01B60190E025D1211012
S1133FA02A9421E0821A91088114910479F7E1C0DE
S1133FB0843611F0893639F5F80137FE07C060817F
S1133FC07181828193810C5F1F4F08C06081718170
S1133FD0072E000C880B990B0E5F1F4FF32DFF76F5
S1133FE03F2E97FF09C090958095709561957F4FFE
S1133FF08F4F9F4FF0683F2E2AE030E0A30130D16D
S1134000882E861844C0853731F4232D2F7EB22E96
S11340102AE030E025C0932D997FB92E8F36C1F068
S113402018F4883579F0AEC0803719F0883721F05C
S1134030A9C0E92FE061BE2EB4FE0DC0FB2DF460D3
S1134040BF2E09C034FE0AC0292F2660B22E06C036
S113405028E030E005C020E130E002C020E132E099
S1134060F801B7FE07C060817181828193810C5F82
S11340701F4F06C06081718180E090E00E5F1F4F8A
S1134080A301EED0882E8618FB2DFF773F2E36FE37
S11340900DC0232D2E7FA22E891458F434FE0BC09C
S11340A032FC09C0832D8E7EA82E05C0B82CA32C0B
S11340B003C0B82C01C0B92CA4FE0FC0FE01E80D4A
S11340C0F11D8081803321F49A2D997EA92E09C097
S11340D0A2FE06C0B394B39404C08A2D867809F076
S11340E0B394A3FC10C0A0FE06C0B21480F4280C44
S11340F0922C9B180DC0B21458F4B60180E290E0E3
S113410073D0B394F8CFB21418F42B1802C0982CBF
S1134110212CA4FE0FC0B60180E390E065D0A2FE7E
S113412016C0A1FC03C088E790E002C088E590E0D7
S1134130B6010CC08A2D867851F0A1FE02C08BE234
S113414001C080E2A7FC8DE2B60190E04DD0891455
S113415030F4B60180E390E047D09A94F8CF8A9483
S1134160F301E80DF11D8081B60190E03DD081108E
S1134170F6CF222009F44ECEB60180E290E034D08E
S11341802A94F7CFF6018681978102C08FEF9FEFC3
S11341902B96CDBFDEBFDF91CF911F910F91FF9082
S11341A0EF90DF90CF90BF90AF909F908F907F90D3
S11341B06F905F904F903F902F900895FC01059071
S11341C0615070400110D8F7809590958E0F9F1F15
S11341D00895FC016150704001900110D8F780955A
S11341E090958E0F9F1F08950F931F93CF93DF9386
S11341F0FB01238121FD03C08FEF9FEF2CC022FF21
S113420016C046815781248135814217530744F4EF
S1134210A081B1819D012F5F3F4F208331838C9317
S1134220268137812F5F3F4F2683378314C08B014C
S1134230EC01FB010084F185E02D1995892BE1F651
S1134240D80116968D919C911797019616968D9389
S11342509C931797CE01DF91CF911F910F910895F1
S1134260FA01AA27283051F1203181F1E8946F93A3
S11342706E7F6E5F7F4F8F4F9F4FAF4FB1E03ED049
S1134280B4E03CD0670F781F891F9A1FA11D680FE7
S1134290791F8A1F911DA11D6A0F711D811D911D1A
S11342A0A11D20D009F468943F912AE0269F11248F
S11342B03019305D3193DEF6CF010895462F4770F3
S11342C0405D4193B3E00FD0C9F7F6CF462F4F704E
S11342D0405D4A3318F0495D31FD4052419302D0AC
S11342E0A9F7EACFB4E0A695979587957795679552
S11342F0BA95C9F700976105710508959B01AC0152
S11343000A2E06945795479537952795BA95C9F778
S1134310620F731F841F951FA01D0895052E97FB20
S113432016F400940FD057FD05D024D007FC02D01A
S113433046F408C050954095309521953F4F4F4F16
S11343405F4F089590958095709561957F4F8F4F3D
S11343509F4F089531D0A59F900DB49F900DA49FB9
S1134360800D911D11240895B7FFF4CFF3DF821B54
S1134370930B0895A1E21A2EAA1BBB1BFD010DC0CD
S1134380AA1FBB1FEE1FFF1FA217B307E407F50701
S113439020F0A21BB30BE40BF50B661F771F881FDD
S11343A0991F1A9469F760957095809590959B0173
S11343B0AC01BD01CF010895A29FB001B39FC0011C
S11343C0A39F700D811D1124911DB29F700D811D3D
S10D43D01124911D0895F894FFCF05
S11343DA01000000000100000000000000000000CD
S11343EA00000000010000000000000000010101BB
S11343FA00000000000001010101010000000002A8
S113440A010101010102000002020101010101028C
S113441A0200020201010101010202020600010076
S113442A000000000000000000010000000000007D
S113443A0000020001000000000000020000000168
S113444A0000000002000000000001000002000059
S113445A0000000000010200000000000000000249
S113446A010000000000000002000001000000003A
S113447A0002000000000100000002000000000029
S113448A000100020000000000000000010A00010F
S113449A02020202020202020202020202020102EF
S11344AA02020202020202020101020202020202E0
S11344BA02010101010202020202010101010101D8
S11344CA02020101010101010101010201010101CB
S11344DA01010101010106000100000000000000C1
S11344EA00000001000000000000000000010100BB
S11344FA00000000000000010101000000000000AB
S113450A0001010101000000000000010101010194
S113451A0000000000010101010101000000000186
S113452A010101010102000000010101010101026E
S113453A020000010101010101020202000101015C
S113454A010101020202020A000100000000000047
S113455A0000000002000000000000000000010248
S113456A0000000000000000010102000000000039
S113457A0000010101020000000000000101010124
S113458A0200000000000101010101020000000014
S113459A01010101010102000000010101010101FF
S11345AA01020000010101010101010102000101EE
S11345BA01010101010101020A00010000000000D9
S11345CA00000000000100000000000000000101DA
S11345DA00000200000200000001000200000001C5
S11345EA02000000020001010000000102000102B1
S11345FA020002000102000001000201000101029E
S113460A0200020102010001010202000201010189
S113461A0102020200000200000201020002020179
S113462A0201020102010201020A00010000000261
S113463A0202020000000101010000000001010160
S113464A0100010202020202020202020201010143
S113465A0101010101010101000102020202020237
S113466A020202020102020202020202020201011F
S113467A020202020202020201010102020202020F
S113468A0202010101010202020202020101010104
S113469A01020202020201010101010102020202F3
S11346AA01010101010101020202010101010101E9
S11346BA01010202010101010101010101020101D9
S11346CA01010101010101010A00016464646464D5
S11346DA643C3E40414345202020202020202020C5
S11346EA20202020202020000005010080FF000057
S11346FA00FF000050010000FF0A0000FF00005AFA
S113470A0400FF00000014FF00000001FFFFFF0087
S113471A0000FF0100460200FF00000000FF010044
S113472A0501FFFF00000000FF02000A010000FF6C
S113473AFF0000FF0200460100FFFF000000FF0423
S113474A005F04FF000000FF00FF04001401FFFFE4
S113475AFF0000FFFF04000501FF000000FF00FF47
S113476A06003C01FFFF000000FFFF06001E01FFD8
S113477A8000FF0000FF03004601FFFFFF0000FF67
S113478AFF03003C01FF000000FF00FF0002640178
S113479AFF00000000FFFF010250010000FF0000BB
S11347AA00FF03025501FF000000FF00FF0302643B
S11347BA040000FF00FF00FF07026401FF00FF007E
S11347CAFFFFFF464442403E3C01011E1E1E1E1EC0
S11347DA1E323232323232FFFFFFFFFFFFFF320155
S11347EA01022D132DFFFF00000101010101020343
S11347FA040507080A0B0C0D0D0C0B0A090706051C
S113480A050607090C0F1216191B1C1C1B1A171470
S113481A110E0B09090A0C1014191E23272A2C2C11
S113482A2A27231E1914100E0D0E11161C232A31C1
S113483A363A3C3C39352F28211B15121112161C05
S113484A242D363E454A4C4B48423B3229211B16FD
S113485A15171C232C37424C545A5C5B5750473C5F
S113486A3127201B191B212935414E5963696C6B69
S113487A665D5246392E251F1D1F26303D4B59674A
S113488A72797C7B756B5E5042342A2321242B3641
S113489A4555657480898C8A83786A5A4A3B2F28DD
S11348AA2528303D4D5F71828F989C9A9286766452
S11348BA5241342C292C354355697D8F9EA8ACAAC4
S11348CAA193826E5A4839302D313A4A5D73899DD3
S11348DAADB8BCB9B0A18E78624E3F343135405080
S11348EA657D95BCC7DCFF00002033404A525A60FC
S11348FA656A6E7276797D808285888A8C8E9092BA
S113490A949698999B9D9EA0A1A2A4A5A6A7A9AA9C
S113491AABACADAEAFB0B1B2B3B4B5B6B7B8B8B963
S113492ABABBBCBCBDBEBFBFC0C1C2C2C3C4C4C57E
S113493AC6C6C7C7C8C9C9CACACBCBCCCDCDCECEC9
S113494ACFCFD0D0D1D1D2D2D3D3D4D4D4D5D5D633
S113495AD6D7D7D8D8D8D9D9DADADADBDBDCDCDCB3
S113496ADDDDDEDEDEDFDFDFE0E0E0E1E1E1E2E241
S113497AE2E3E3E3E4E4E4E5E5E5E6E6E6E7E7E7DC
S113498AE8E8E8E8E9E9E9EAEAEAEAEBEBEBECEC7D
S113499AECECEDEDEDEDEEEEEEEFEFEFEFF0F0F027
S11349AAF0F1F1F1F1F2F2F2F2F3F3F3F3F3F4F4D6
S11349BAF4F4F5F5F5F5F5F6F6F6F6F7F7F7F7F78D
S11349CAF8F8F8F8F9F9F9F9F9FAFAFAFAFAFBFB44
S11349DAFBFBFBFCFCFCFCFCFCFDFDFDFDFDFEFE03
S11349EAFEFEFEFFFFFFFF000000000000000000C3
S11349FA00000000000000000000000000000000A9
S1134A0A0000000000000000000000000000000098
S1134A1A0000000000000000000000000001010185
S1134A2A0101010101010101010101010101020266
S1134A3A020202020202020203030303030303043F
S1134A4A0404040404050505050506060606070705
S1134A5A07080808080909090A0A0A0B0B0C0C0CAE
S1134A6A0D0D0E0E0F0F1010111112121313141430
S1134A7A151616171818191A1A1B1C1D1D1E1F2085
S1134A8A212222232425262728292A2B2C2D2E2F9E
S1134A9A31323334353738393B3C3D3F4041434466
S1134AAA4647494A4C4E4F51535456585A5C5D5FD7
S1134ABA61636567696B6D70727476787B7D7F82DA
S1134ACA8487898C8E919396999B9EA1A4A7AAAD5B
S1134ADAB0B3B6B9BCBFC2C6C9CCD0D3D7DADEE14B
S1134AEAE5E9EDF5F9FFFF000102030405060708ED
S1134AFA090A0B0C0D0E0F101112131415161718A0
S1134B0A191A1B1C1D1E1F2021222324252627288F
S1134B1A292A2B2C2D2E2F3031323334353637387F
S1134B2A393A3B3C3D3E3F4041424344454647486F
S1134B3A494A4B4C4D4E4F5051525354555657585F
S1134B4A595A5B5C5D5E5F6061626364656667684F
S1134B5A696A6B6C6D6E6F7071727374757677783F
S1134B6A797A7B7C7D7E7F8081828384858687882F
S1134B7A898A8B8C8D8E8F9091929394959697981F
S1134B8A999A9B9C9D9E9FA0A1A2A3A4A5A6A7A80F
S1134B9AA9AAABACADAEAFB0B1B2B3B4B5B6B7B8FF
S1134BAAB9BABBBCBDBEBFC0C1C2C3C4C5C6C7C8EF
S1134BBAC9CACBCCCDCECFD0D1D2D3D4D5D6D7D8DF
S1134BCAD9DADBDCDDDEDFE0E1E2E3E4E5E6E7E8CF
S1134BDAE9EAEBECEDEEEFF0F1F2F3F4F5F6F7F8BF
S1134BEAF9FAFBFCFDFEFF496E6974207374617265
S1134BFA742E2E2E004C4954444C4D312D76342EAD
S1134C0A334D49444900444D582043683A202530DD
S1134C1A33642020202020004D6F6465202020204A
S1134C2A202020202020202000444D582041646464
S1134C3A72657373202020202000253033642020DD
S1134C4A20202020202020202020200052656420BB
S1134C5A2020312020202020202020200047726597
S1134C6A656E203120202020202020202000426C44
S1134C7A7565202031202020202020202020005269
S1134C8A656420202032202020202020202020009B
S1134C9A477265656E2032202020202020202020A3
S1134CAA00426C75652020322020202020202020FC
S1134CBA200052656C656173652074696D652020F6
S1134CCA202000416E696D6174696F6E2020202076
S1134CDA20202000416E696D2074726967676572CD
S1134CEA2020202000416E696D206375727665204C
S1134CFA20202020200044696D6D65722020202028
S1134D0A20202020202000496E7075742073656E5F
S1134D1A7320312020202000496E70757420736539
S1134D2A6E7320322020202000496E70757420731F
S1134D3A656E7320332020202000496E707574201C
S1134D4A73656E7320342020202000496E707574B8
S1134D5A2073656E7320352020202000496E7075FB
S1134D6A742073656E73203620202020004E622042
S1134D7A6C696768747320203120202020004E62F9
S1134D8A206C696768747320203220202020004E2A
S1134D9A62206C6967687473202033202020200005
S1134DAA4E62206C696768747320203420202020A6
S1134DBA004E62206C6967687473202035202020B5
S1134DCA20004E62206C69676874732020362020A4
S1134DDA2020004D696469206E6F7465203120209B
S1134DEA202020004D696469206E6F74652032208A
S1134DFA20202020004D696469206E6F7465203379
S1134E0A2020202020004D696469206E6F7465207B
S1134E1A342020202020004D696469206E6F746557
S1134E2A20352020202020004D696469206E6F748B
S1134E3A652036202020202000456E636C6F2E20CA
S1134E4A4C696768742020202000253031642020B2
S1134E5A20202020202020202020202020004C4315
S1134E6A44204C69676874202020202020200041B7
S1134E7A6E696D6174696F6E203120746F2033001E
S1134E8A25303364202025303364202025303364D0
S1134E9A00416E696D6174696F6E203420746F20ED
S1134EAA3600436F6C6F727320636F6E6669672E88
S1134EBA2E2E004D696469206E6F7465732E2E2E32
S1134ECA20202000416E696D20636F6E6669672E2B
S1134EDA2E2E20200047656E6572616C20736574FE
S1134EEA75702E2E2E005573657220707265736567
S1134EFA74732020202000466163746F72792070D5
S1134F0A72657365747320004261636B2E2E2E20C2
S1134F1A20202020202020200055736520757365E9
S1134F2A72207365742E2E2E00536176652070727A
S1134F3A657365742E2E2E200053656C6563742088
S1134F4A662E207072657365740050726573657499
S1134F5A20232530336420202020200053656C65EB
S1134F6A637420752E20707265736574006C6F61AA
S1134F7A646564207072657365742100656D70746C
S1134F8A79207072657365742100536176656420B3
S1134F9A70726573657421004D616E75616C206D64
S1134FAA6F646500444D58206D6F646520202000AD
S1134FBA4C696E6561722020202020004578706F4C
S1134FCA6E656E7469616C004C6F67617269746DA9
S1134FDA6963200053696E75732046616465200015
S1134FEA5472696767657220202020202000417569
S1134FFA746F2073696E676C652020004175746F45
S113500A20616C6C20202020200052616E646F6D38
S113501A2073696E676C650052616E646F6D2061FE
S113502A6C6C202020004F6E20202020202020207D
S113503A202020004F6666202020202020202020C7
S113504A200050756C736520202020202020202009
S113505A200046696C6C202020202020202020205B
S113506A200043656E7465722066696C6C2020208A
S113507A20004551204D6F76696E6720202020203C
S113508A200045512046697865642020202020208C
S113509A2000446F75626C6520506F696E7420201D
S11350AA200043656E74657220455120466978650F
S11350BA6400436F6E7374656C6C6174696F6E20FF
S11350CA200050756C73652063656E7465722020C8
S11350DA20003132332020202020202020202020AC
S11350EA20200020202020202020202020202020D2
S11350FA2020200027002D012E012F01300131012B
S113510A32013301340135013601370138013901DD
S113511A3A013B013C013D013E013F0140012500AA
S113512A240027002700C900CA00CB00CC00CD0008
S113513ACE00CF00D000D100D200D300D400D500D5
S113514AD600D700D800D900DA00DB00DC000E0054
S113515A0F001000110012001300140015001600AD
S113516A1700180019002100200027000A000D006A
S113517A0C000B0027001A001B001C001D001E0057
S113518A1F002700030004000500060007000800AA
S113519A090027000000010002006D006700680092
S10951AA69006B006A00BD
S9030000FC
