S01300004543444C4D3030315F56372E737265632F
S11300007FC200009CC200009AC2000098C2000097
S11300100C945C1794C2000092C2000090C20000CD
S11300208EC200008CC200000C946F0988C20000CC
S113003086C2000084C200000C94B10C80C200008F
S11300407EC200007CC200007AC2000078C20000B8
S113005016C6000074C2000072C2000070C2000024
S11300606EC200006CC200006AC2000068C20000D8
S113007066C2000064C2000062C2000060C20000E8
S11300805EC200005CC200005AC2000058C20000F8
S113009056C2000054C2000052C2000050C2000008
S11300A04EC200004CC200004AC2000048C2000018
S11300B046C2000044C2000042C200000C948A14EC
S11300C03EC200003CC200003AC2000038C2000038
S11300D036C200000C94E70932C2000030C20000AE
S11300E02EC200002CC200002AC2000028C2000058
S11300F026C2000024C2000022C2000020C2000068
S11301000C949E171CC200001AC2000018C2000002
S113011016C2000014C2000012C2000010C2000087
S11301200EC200000CC200000AC2000008C2000097
S113013006C2000084C6000002C2000000C2000023
S1130140FEC10000FCC10000FAC10000F8C10000BB
S1130150F6C10000F4C10000F2C10000F0C10000CB
S11301600C940C0AECC10000EAC10000E8C10000D4
S1130170E6C10000E4C10000E2C10000E0C10000EB
S1130180DEC10000DCC10000DAC10000D8C10000FB
S1130190D6C10000D4C10000D2C10000D0C100000B
S11301A0CEC10000CCC10000CAC10000C8C100001B
S11301B0C6C10000C4C10000C2C10000C0C100002B
S11301C0BEC10000BCC10000BAC10000B8C100003B
S11301D0B6C10000B4C10000B2C10000B0C100004B
S11301E0AEC10000ACC10000AAC10000A8C100005B
S11301F0A6C10000A4C10000A2C10000AC03CA0350
S1130200D403DE03E803F203FC03B603C003EE07E2
S11302107F077F07E207E20772077907180D510D80
S11302206C0D8D0DAE0DCF0DF00D110E320ECF0EE7
S1130230530E740E990EB40EF00E110F320F530FAD
S1130240740F950FB60FD70FF80F19103A105B10F3
S11302509D107C10BE10F510E011CC113D129011D0
S1130260A411B8113D123D123D123D123D123D1232
S11302703D123D123D123D123D123D123D123D1202
S11302803D123D123D123D123D123D123D123D12F2
S11302903D123D123D123D123D123D123D123D12E2
S11302A03D123D123D123D123D123D123D123D12D2
S11302B03D123D123D123D123D123D123D123D12C2
S11302C03D123D123D123D123D123D123D123D12B2
S11302D03D123D123D123D123D123D123D123D12A2
S11302E03D123D123D123D123D122C11401154118C
S11302F068117C113D123D123D123D123D123D121A
S11303003D123D123D123D123D123D123D123D1271
S11303103D123D123D123D123D123D123D123D1261
S11303203D123D123D123D123D123D123D123D1251
S11303303D123D123D123D123D123D123D123D1241
S11303403D123D123D123D123D123D123D123D1231
S11303503D123D123D123D123D123D123D123D1221
S11303603D123D123D123D123D123D123D123D1211
S11303703D123D123D123D123D123D123D123D1201
S11303803D123D123D123D123D123D123D123D12F1
S11303903D123D123D123D123D123D123D123D12E1
S11303A03D123D123D123D123D123D123D12F4111B
S11303B0F411F411F411F411F411F411F411F41111
S11303C0F411F411F411F411F411F411F411F41101
S11303D0F411F411F4113D123D123D123D123D127F
S11303E03D123D123D123D123D123D123D123D1291
S11303F03D123D123D123D123D123D123D123D1281
S11304003D123D123D123D123D123D123D123D1270
S11304103D123D123D123D123D123D123D123D1260
S11304203D123D123D123D123D123D123D123D1250
S11304303D123D123D123D123D123D123D123D1240
S11304403D123D123D123D123D123D123D123D1230
S11304503D123D123D123D123D123D123D123D1220
S11304603D123D123D123D123D123D123D123D1210
S11304703D123D123D1219121912191219121912B4
S11304801912191219121912191219121912191210
S11304901912191219121912191219121912DF1438
S11304A01F153015491562157B159415AD15DD150D
S11304B0C615C716D716E716F51506161716281605
S11304C039164A165B166D167F169116A316B516C5
S11304D00815EF14692A752A812A8D2A992AA52AD2
S11304E0B12ABF2ACD2ADB2AE92AF72A052B132BA6
S11304F0232B332B432B532B632B732B832B932BC8
S113050011241FBECFEFCDBFDFE2DEBF1CE2A0E0AF
S1130510B0E2EAE4FFE300E00BBF02C007900D92F3
S1130520A836B107D9F72FE2A8E6BCE201C01D92B4
S1130530AF34B207E1F70E94F40A0C94A31F60CD14
S113054042305105C1F03CF44115510561F0413090
S1130550510569F020C044305105A9F084F04530BC
S11305605105A9F018C02091BC2330E016C0209199
S1130570BB2330E012C02091BA2330E00EC020919A
S1130580B92330E00AC02091B82330E006C020919E
S1130590B72330E002C020E030E0DC01CB01820F61
S11305A0931FA11DB11D8F319105A105B1051CF04B
S11305B04E97A109B10984369105A105B1051CF432
S11305C080E090E0DC018F3F9105A105B10529F0A1
S11305D024F08FEF90E0A0E0B0E0BA2FA92F982F7D
S11305E08827009721E0A207B10520F08FEF9FEF45
S11305F0A0E0B0E008952F923F924F925F926F92E5
S11306007F928F929F92AF92BF92CF92DF92EF929E
S1130610FF920F931F93CF93DF93CDB7DEB7AF97BE
S1130620CDBFDEBF7B01292F30E08091EB2E8130DE
S113063061F028F0823079F0833099F018C0F90124
S1130640E353F94D6080712C14C0F901E353FA4D62
S11306506080712C0EC0F901E353FB4D6080712C56
S113066008C0F901E353FC4D6080712C02C0612C79
S1130670712C8091EC2E863031F0853031F4662473
S11306806A94712C02C0612C712C23E0E216F104EF
S1130690F9F04CF461E0E616F10471F072E0E7164B
S11306A0F10471F045C084E0E816F104E9F095E046
S11306B0E916F10449F13CC08091B62390E03AC0B8
S11306C02091B6238091B52390E0820F911D32C012
S11306D02091B6238091B52390E0820F911D209143
S11306E0B423820F911D26C02091B6238091B52397
S11306F090E0820F911D2091B423820F911D2091CF
S1130700B323820F911D16C02091B6238091B52387
S113071090E0820F911D2091B423820F911D2091AE
S1130720B323820F911D2091B223820F911D02C029
S113073080E090E08C01000F111F080F191FE09159
S1130740C5238E2F90E08930910508F05FC0FC012D
S1130750E250FF4F0C94FB1BC0905F22D0906022AC
S1130760A0916122AF8B2BE432E256C0C0903122BB
S1130770D0903222B0913322BF8B23EC31E24CC0B3
S1130780C0904822D0904922E0914A22EF8B24E382
S113079032E242C0C090D022D090D122F091D22235
S11307A0FF8B22E632E238C0C090DE20D090DF20FA
S11307B02091E0202F8B28E930E22EC0C090C02188
S11307C0D090C1214091C2214F8B22E531E224C057
S11307D0C0904F21D0905021609151216F8B21EE18
S11307E030E21AC0C0909520D09096207091972046
S11307F07F8B2FE430E210C0C0904C20D0904D206D
S113080080914E208F8B26E030E206C020E030E05D
S11308101F8ACC24C394D12C80E091E0B6010E94BD
S1130820D41B5B01C3010E94D41BFB01982F80E001
S1130830B5010E94D41B2B01AF01440F551FCF01FA
S1130840880F991F880F991F880F991F840F951F70
S1130850CE16DF0629F03C01AAE06A0E711C01C025
S11308603C0119821A824091C32350E04B835C837C
S11308704091C02350E04D835E831F8218864091CF
S1130880C22350E049875A874091BF2350E04B87E9
S11308905C871D861E864091C12350E04F87588B8C
S11308A04091BE2350E0498B5A8B4091B623E42FEC
S11308B0F0E0E88FF98F4091B523642F70E06A8FE0
S11308C07B8F4091B423A42FB0E0AC8FBD8F4091B7
S11308D0B323E42FF0E0EE8FFF8F4091B223642F17
S11308E070E068A379A34091B123A42FB0E0AAA338
S11308F0BBA3A090BD23B12C0C58134DC12CD12CFB
S1130900BAA1BCA3EBA1EDA3F8A1FEA349A14FA3F7
S11309106E8D68A77F8D79A7AA8DAAA7BB8DBBA76B
S1130920E88DECA7F98DFDA74C8D4EA76D8D6FA7B3
S1130930620E731E4901880E991E80E091E01C012D
S113094024183508FCC0B6010D2C000C880B990B3B
S11309500E94921A6B8B7C8B8D8B9E8B72E0E716B8
S1130960F104C9F044F4E114F10479F091E0E916DA
S1130970F104E9F40DC0A4E0EA16F10491F074F076
S1130980E5E0EE16F10499F40FC06CA57DA511C045
S11309906AA57BA50EC06EA57FA50BC068A579A529
S11309A008C06EA17FA105C06CA17DA102C060E05A
S11309B070E0072E000C880B990B0E94921A9B0181
S11309C0AC0160E070E080E191E40E94F7192B89AA
S11309D03C894D895E890E94711B0E94CD1A0E9438
S11309E05F1AF301E60FF71FA0810A2E000CBB0B60
S11309F0FF89F13009F06FC0F401E60FF71F808121
S1130A00AA0FBB1F61E070E06C0F7D1F6A0F7B1F94
S1130A10DB012D913C91429EF001439EF00D529ECC
S1130A20F00D11242F2F3327A82FAA0FBB0BE1E0C1
S1130A30F0E0EC0FFD1FEA0FFB1FEB8BFC8B4081FA
S1130A405181249EC001259E900D349E900D112449
S1130A50E92FFF27E20FF31FDB0116968D919C917E
S1130A601797489E9001499E300D589E300D1124D1
S1130A70432F5527AB89BC8916962D913C91179726
S1130A80229EC001239E900D329E900D1124292F89
S1130A903327240F351FDB011C968D919C911D97E4
S1130AA0489EA001499E500D589E500D1124452F7B
S1130AB05527AB89BC891C966D917C911D97269E08
S1130AC0C001279E900D369E900D1124892F9927E1
S1130AD0480F591F13C0AA0FBB1FE1E0F0E0EC0F51
S1130AE0FD1FAE0FBF1FED91FC91119716962D912E
S1130AF03C9117971C964D915C911D97EA9DC001FE
S1130B00EB9D900DFA9D900D1124D8019C932A9D84
S1130B10C0012B9D900D3A9D900D112411969C932C
S1130B2011974A9DC0014B9D900D5A9D900D112423
S1130B3012969C93BFEFCB1ADB0A0D5F1F4FE2E0C6
S1130B40EE16F10401F144F4E114F10479F021E02A
S1130B50E216F10489F031C044E0E416F10409F12D
S1130B60CCF075E0E716F10411F127C0888D998D5A
S1130B70C816D906F4F16DC0AA8DBB8DCA16DB0662
S1130B800CF443C066C0EC8DFD8DCE16DF060CF46C
S1130B9048C05FC06E8D7F8DC616D7060CF44DC05D
S1130BA058C088A199A1C816D9065CF052C0AAA160
S1130BB0BBA1CA16DB068CF04CC0DD200CF4C3CEFE
S1130BC048C0B6010D2C000C880B990B0E94921A98
S1130BD06B8B7C8B8D8B9E8BE4CEB6010D2C000C25
S1130BE0880B990B0E94921A6B8B7C8B8D8B9E8B3E
S1130BF0DBCEB6010D2C000C880B990B0E94921AC7
S1130C006B8B7C8B8D8B9E8BC0CEB6010D2C000C18
S1130C10880B990B0E94921A6B8B7C8B8D8B9E8B0D
S1130C20B7CEB6010D2C000C880B990B0E94921ABA
S1130C306B8B7C8B8D8B9E8BAECEB6010D2C000CFA
S1130C40880B990B0E94921A6B8B7C8B8D8B9E8BDD
S1130C50A5CEAF96CDBFDEBFDF91CF911F910F918F
S1130C60FF90EF90DF90CF90BF90AF909F908F90C8
S1130C707F906F905F904F903F902F9008951F92B8
S1130C800F920FB60F9211240BB60F92AF92BF9230
S1130C90CF92EF92FF921F932F933F934F935F93C3
S1130CA06F937F938F939F93AF93BF93CF93DF9370
S1130CB0EF93FF93A12CB12CEE24E394F12C1A2D85
S1130CC0C12CE7010A2C02C0CC0FDD1F0A94E2F705
S1130CD0DD2754C02091B62330E03AC08091B6237A
S1130CE02091B52330E0280F311D32C08091B62306
S1130CF02091B52330E0280F311D8091B423280FB3
S1130D00311D26C08091B6232091B52330E0280FF1
S1130D10311D8091B423280F311D8091B323280FF6
S1130D20311D16C08091B6232091B52330E0280FE1
S1130D30311D8091B423280F311D8091B323280FD6
S1130D40311D8091B223280F311D02C020E030E014
S1130D50F901EE0FFF1F2E0F3F1FCA01880F991FC5
S1130D60840F951FF901E80FF91FEC58F34D9E010C
S1130D704281618180810E941F19C3944C2D50E0EF
S1130D801230D9F028F4112349F0113071F034C035
S1130D90143019F1D0F0153041F12EC08091B623F2
S1130DA090E04817590794F227C08091B52390E04A
S1130DB0481759070CF48ECF1FC08091B42390E0DC
S1130DC0481759070CF48ACF17C08091B32390E0D9
S1130DD0481759070CF48ACF0FC08091B22390E0D2
S1130DE0481759070CF48ECF07C08091B12390E0C7
S1130DF0481759070CF496CF8FEFA81AB80A86E063
S1130E00A816B10409F05BCFFF91EF91DF91CF9168
S1130E10BF91AF919F918F917F916F915F914F910E
S1130E203F912F911F91FF90EF90CF90BF90AF9083
S1130E300F900BBE0F900FBE0F901F9018951F922E
S1130E400F920FB60F9211240BB60F922F923F926E
S1130E504F925F926F927F928F929F92AF92BF92C6
S1130E60CF92DF92EF92FF920F931F932F933F93B2
S1130E704F935F936F937F938F939F93AF93BF939E
S1130E80CF93DF93EF93FF938091EE2E8111D9C01E
S1130E900CE91EE20F2EF3EDCF2EFEE2DF2EF02D35
S1130EA00F2EF8E6EF2EFCE2FF2EF02DC0E0D0E08E
S1130EB00F2EF5E6AF2EB12CF02D88248394912CBF
S1130EC044244A94542C612C712CE091EC2E8E2FE6
S1130ED090E08730910508F0A1C0FC01E95FFE4F66
S1130EE00C94FB1BD6014D925D926D927C921397EC
S1130EF095C0F60110821182128213828FC0D7012D
S1130F008D919C91892B81F58091C423A501481B67
S1130F1051092091042030910520429FC001439F34
S1130F20900D529F900D1124092E000CAA0BBB0B9F
S1130F30F8014081518162817381840F951FA61F3E
S1130F40B71F80839183A283B3838F3F9F4FA105F3
S1130F50B1050CF463C0D7018D929C92F8014082D4
S1130F605182628273825AC08091C4239501281BE6
S1130F7031098091042090910520289FA001299F88
S1130F80500D389F500D1124052E000C660B770B65
S1130F90F80180819181A281B381841B950BA60BFA
S1130FA0B70B80839183A283B383181619061A069C
S1130FB01B06A4F1D7011D921C9210821182128289
S1130FC013822CC00E944B1C092E000CAA0BBB0BD5
S1130FD0F80180839183A283B38320C0F8018081C8
S1130FE091812091C423A501421B51099A01002437
S1130FF0369527950794369527950794322F202DFB
S11310002817390718F4821B930B02C080E090E084
S1131010A0E0B0E080839183A283B383F80181913F
S11310209191A191B1918F01BE01E5DA2196F4E08D
S1131030CF0ED11C22E0E20EF11CC630D10509F01E
S113104044CFFF91EF91DF91CF91BF91AF919F91E9
S11310508F917F916F915F914F913F912F911F914C
S11310600F91FF90EF90DF90CF90BF90AF909F9043
S11310708F907F906F905F904F903F902F900F9044
S11310800BBE0F900FBE0F901F901895FC01658347
S1131090138288E0818381E084830895FC01848144
S11310A083708130C9F4660F642B668380E490E01A
S11310B002C0880F991F4A95E2F7248130E0282363
S11310C03923232BD1F39481892F807194FF05C098
S11310D083E0838382E0089581E0089523E0FC01A6
S11310E0238321E024830895FC016783948196FF80
S11310F0FDCF9481892F807194FF03C083E08383A3
S113110082E0089540E067E280EA94E0C7DF6091FE
S1131110B52E80EA94E0E8DF80EA94E0DFCF08951A
S11311209091B52E9F7080FD03C09093B52E03C09F
S113113090619093B52E81FF05C09091B52E906279
S11311409093B52E82FF05C09091B52E9064909334
S1131150B52E83FF05C08091B52E80688093B52E8F
S11311600895CF93C82F8091B52E84608093B52EB7
S11311708C2F8595859585958595D2DFC3DF8091E4
S1131180B52E8B7F8093B52EBDDF8091B52E846004
S11311908093B52E8C2FC4DFB5DF8091B52E8B7F65
S11311A08093B52EAFDF83EF91E00197F1F700C094
S11311B00000CF9108959091B52E9C7F9093B52E09
S11311C0D0CF08951092B42E81E0F5CF0895662310
S11311D011F090E401C090E0699F800D11248068B3
S11311E0EACF08959091B52E91609093B52E8A30F0
S11311F031F08C3091F4E6DF1092B42E0895809192
S1131200B42E8F5F8093B42E823011F41092B42EDA
S11312106091B42E80E0DBCF0895A3CF0895CF93DF
S1131220DF93EC018881882329F02196DBDF899103
S11312308111FCCFDF91CF9108958091B52E886004
S11312408093B52E5FCF08958091B52E877F8093CC
S1131250B52E58CF0895CF9385EA9EE00197F1F714
S113126000C00000C3E083E05BDF8091B52E8460A2
S11312708093B52E47DF8091B52E8B7F8093B52E5A
S113128041DF87EE93E00197F1F700C00000C15001
S113129051F782E045DF8091B52E84608093B52EAE
S11312A031DF8091B52E8B7F8093B52E2BDF89EFB4
S11312B090E00197F1F700C000008CE27CDF88E049
S11312C07ADF81E078DF83EF91E00197F1F700C0E6
S11312D0000086E070DF8CE06EDFCF9108951F92EE
S11312E00F920FB60F9211240BB60F92CF92DF928A
S11312F0EF92FF920F931F932F933F934F935F931C
S11313006F937F938F939F93AF93BF93CF93DF9309
S1131310EF93FF930F2EF3EDCF2EFEE2DF2EF02D91
S11313200F2EFCE9EF2EFEE2FF2EF02D00E010E080
S1131330C0E4D2E0802F880F880F880F89A31AA2F7
S113134088A1806888A38BA18823E9F38BA18BA350
S11313506CA17DA180E090E0A801F2D8A0E0B0E00B
S1131360F60181939193A193B1936F01F7014081A9
S1131370518162817381481759076A077B0724F4F6
S113138080839183A283B3830F5F1F4FF4E0EF0E3A
S1131390F11C0630110571F6FF91EF91DF91CF91A9
S11313A0BF91AF919F918F917F916F915F914F9179
S11313B03F912F911F910F91FF90EF90DF90CF906D
S11313C00F900BBE0F900FBE0F901F9018951F9299
S11313D00F920FB60F9211248F939F93AF93BF93E5
S11313E08091FB2E9091FC2EA091FD2EB091FE2EAB
S11313F00196A11DB11D8093FB2E9093FC2EA0930A
S1131400FD2EB093FE2EBF91AF919F918F910F90BF
S11314100FBE0F901F9018951F920F920FB60F9248
S113142011240BB60F922F933F934F935F936F93B7
S11314307F938F939F93AF93BF93EF93FF93E0EAD0
S1131440F9E02181822F90E08093B82E9093B92EF9
S1131450808190E08093BC2E9093BD2E8091ED2EE0
S1131460813009F0AEC024FF0EC08091B62E909159
S1131470B72E01968093B62E9093B72E1092BA2E63
S11314801092BB2E0DC01092B62E1092B72E8091E2
S1131490BA2E9091BB2E01968093BA2E9093BB2EB8
S11314A02091C62330E0E091BA2EF091BB2EC90101
S11314B001968E179F0721F48091BC2E8093C3233D
S11314C0C9010296E817F90721F48091BC2E809394
S11314D0C223C9010396E817F90721F48091BC2EB1
S11314E08093C123C9010496E817F90721F4809178
S11314F0BC2E8093C023C9010596E817F90721F48F
S11315008091BC2E8093BF23C9010696E817F90782
S113151021F48091BC2E8093BE23C9010796E8175D
S1131520F90781F44091BC2E5091BD2E64E6649F6E
S1131530C001659F900D11246FEF70E00E94E81BBD
S11315406093C423C9010896E817F90781F48091D0
S1131550BC2E9091BD2E880F991F880F991F880F5C
S1131560991F6FEF70E00E94E81B6093C523C901C7
S11315700996E817F90789F48091BC2E9091BD2E45
S1131580AC01440F551F840F951F880F991F6FEFEF
S113159070E00E94E81B6093EC2E265F3F4FE21739
S11315A0F30779F48091BC2E9091BD2E9C01220FFB
S11315B0331F820F931F6FEF70E00E94E81B60934C
S11315C0EB2EFF91EF91BF91AF919F918F917F91FE
S11315D06F915F914F913F912F910F900BBE0F90A0
S11315E00FBE0F901F90189588ED84BF82E0809302
S11315F05000E0E5F0E0818181FFFDCF88ED84BFFC
S1131600C0E4D0E011E018832FEF33EC89E02150DF
S113161030408040E1F700C000008CE192E0E4E754
S1131620FCE2DF019C011D9221503040E1F786E08D
S1131630E3EDFEE2DF01282F1D922A95E9F7ECE99C
S1131640FEE2DF01282F1D922A95E9F7E0E9FEE288
S1131650DF011D928A95E9F780E2EFEFFEE2DF01F8
S1131660282F1D922A95E9F7EFE3FFE2DF011D928F
S11316708A95E9F70F2EF0E6EF2EF6E0FF2EF02D17
S1131680F70181818066818380E4858383E0809390
S113169081066BE980EA94E0F9DCDDDDCEDD60E013
S11316A080E095DD8FDD60E080E091DD8DEC97E2F8
S11316B0B6DDFFEF23ED30E3F15020403040E1F799
S11316C000C0000080E6D70115968C9387E08093D4
S11316D0A20057D7E0E2F6E08FEF828380E1808BAF
S11316E0818B828B838B848B858B868B878BE4B5F4
S11316F04FB7F89420EC31E092E0D9011A969C930C
S11317001A97F0E0E4911A961C924FBFA0E4B2E05D
S11317101C96EC931C9755B54FB7F894F901928732
S1131720E52FF0E09491F90112864FBF1D969C932A
S11317301D971C9394E011969C93119711969C917C
S113174011979F7E11969C93119795E014969C9304
S1131750149712968C93129713961C921397929641
S11317601C92929790961C93AFE7BCE01197F1F707
S113177000C000009B8310920004E0E0F4E081814B
S113178080FDFDCF1092080410920904E0E0F4E01B
S1131790818180FDFDCF82E090E080930A049093E4
S11317A00B04E0E0F4E0818180FDFDCFE0E0F4E0B3
S11317B081E0838342E042839081987F91609083AB
S11317C0E0E4FAE010829CE0918728E030E026A370
S11317D037A3868337E03083248521602487A0E8FB
S11317E0B6E012962C9112972C6012962C931297B5
S11317F0E0E6F6E022812061228323E052962C93D6
S1131800529753962C93448B42854061428781873B
S1131810A0EEB7E012964C911297436012964C9347
S1131820129741E150964C93509751964C9351978F
S11318301A964C911A9743601A964C931A971996D4
S11318408C93A0E8B1E04FE418964C93189742E7C4
S11318504C93A0E0BAE048E613964C93139742E009
S113186050E096964D935C9397972C9390961D9287
S11318701C92919716968C93A0E0B8E01C9219964E
S11318809C9319974CE25AE096964D935C939797E4
S113189016968C9316973C931C964C911C9741601A
S11318A01C964C934FEF40930106A0E4B8E01C92C1
S11318B019969C93199746EE5BE196964D935C932B
S11318C0979716962C93169725E02C931C962C919B
S11318D01C9721601C962C93A0E0B9E01C921996E9
S11318E09C9319974EEB51E096964D935C93979782
S11318F016968C9316973C931C969C911C9791601A
S11319001C969C9391819A609183928194609283B6
S1131910968192609683928194609283A0EAB0E06B
S113192012969C911297926012969C93A0EAB9E049
S113193090E213969C9313972BE015962C9315978E
S113194016968C93169717969C93179780E1149686
S11319508C93789481818066818385818066858378
S1131960FFCF1F920F920FB60F9211240BB60F9256
S11319702F933F934F935F936F937F938F939F9393
S1131980AF93BF93EF93FF93CF93DF93CDB7DEB7BE
S11319906097CDBFDEBF2091CB233091CC238091C3
S11319A0F72E9091F82E2817390761F48091EE2EC6
S11319B0811118C02C31310571F12D31310509F037
S11319C070C529C08093CB239093CC232091EE2E15
S11319D0211108C04C970297F0F0F4DB8091EE2EB1
S11319E08823C9F08091C22E8F5F8093C22E8430E9
S11319F019F41092C22E02C0811106C0E0E6F6E08E
S1131A0087818064878307C0823029F4E0E6F6E0AA
S1131A10878180628783E091F72EF091F82EE1347C
S1131A2081E0F80708F029C5E25FFE4F0C94FB1B28
S1131A30A091C923B091CA238FE0EBEDF7E20190A6
S1131A400D928A95E1F780E1FE013196DF01982F2E
S1131A501D929A95E9F79091C6231F929F932AEEBF
S1131A6037E23F932F931F928F93FF93EF930E943C
S1131A70691CE091ED2ECDBFDEBFE13041F0F0E016
S1131A80EE0FFF1FEC52FB4F6591749103C0BE0132
S1131A906F5F7F4F8091C7239091C8230E94621C7F
S1131AA0ECC4A091C923B091CA238DE0E7EFF7E21B
S1131AB001900D928A95E1F7E091ED2EF0E0EE0FA2
S1131AC0FF1FEC52FB4F659174918091C723909155
S1131AD0C8230E94621CD1C4A091C923B091CA2317
S1131AE08DE0E4E0F8E201900D928A95E1F78091AF
S1131AF0C6231F928F9388E799E29F938F931F9237
S1131B0080E18F938091C8238F938091C7238F9313
S1131B100E94691CCDBFDEBFB0C4A091C923B0919F
S1131B20CA238DE0E1E1F8E201900D928A95E1F794
S1131B308091C3231F928F9388E799E29F938F9399
S1131B401F9280E18F938091C8238F938091C72344
S1131B508F930E94691CCDBFDEBF8FC4A091C9239F
S1131B60B091CA238DE0EEE1F8E201900D928A95DE
S1131B70E1F78091C2231F928F9388E799E29F93A4
S1131B808F931F9280E18F938091C8238F938091CC
S1131B90C7238F930E94691CCDBFDEBF6EC4A09182
S1131BA0C923B091CA238DE0EBE2F8E201900D92D3
S1131BB08A95E1F78091C1231F928F9388E799E278
S1131BC09F938F931F9280E18F938091C8238F936B
S1131BD08091C7238F930E94691CCDBFDEBF4DC483
S1131BE0A091C923B091CA238DE0E8E3F8E2019003
S1131BF00D928A95E1F78091C0231F928F9388E715
S1131C0099E29F938F931F9280E18F938091C823D1
S1131C108F938091C7238F930E94691CCDBFDEBF31
S1131C202CC4A091C923B091CA238DE0E5E4F8E265
S1131C3001900D928A95E1F78091BF231F928F93B3
S1131C4088E799E29F938F931F9280E18F9380910D
S1131C50C8238F938091C7238F930E94691CCDBFA3
S1131C60DEBF0BC4A091C923B091CA238DE0E2E585
S1131C70F8E201900D928A95E1F78091BE231F92BC
S1131C808F9388E799E29F938F931F9280E18F93BC
S1131C908091C8238F938091C7238F930E94691CDE
S1131CA0CDBFDEBFEAC3A091C923B091CA238DE0A2
S1131CB0EFE5F8E201900D928A95E1F78091C42353
S1131CC01F928F9388E799E29F938F931F9280E1ED
S1131CD08F938091C8238F938091C7238F930E9401
S1131CE0691CCDBFDEBFC9C38091C52390E0893094
S1131CF0910514F088E090E08093C523A091C92356
S1131D00B091CA238DE0ECE6F8E201900D928A9539
S1131D10E1F7E091C523F0E0EE0FFF1FE251FB4F26
S1131D20659174918091C7239091C8230E94621C8D
S1131D30A4C3A091C923B091CA238DE0E9E7F8E2D6
S1131D4001900D928A95E1F7E091EC2EF0E0EE0F10
S1131D50FF1FE052FB4F659174918091C7239091CE
S1131D60C8230E94621C89C3A091C923B091CA23CD
S1131D708DE0E6E8F8E201900D928A95E1F7E091B2
S1131D80EB2EF0E0EE0FFF1FE852FB4F65917491CC
S1131D908091C7239091C8230E94621C6EC3A091B6
S1131DA0C923B091CA238DE0E3E9F8E201900D92D2
S1131DB08A95E1F78091BD231F928F9388E799E27A
S1131DC09F938F931F9280E18F938091C8238F9369
S1131DD08091C7238F930E94691CCDBFDEBF4DC382
S1131DE0A091C923B091CA238DE0E0EAF8E2019002
S1131DF00D928A95E1F78091BC231F928F9388E717
S1131E0099E29F938F931F9280E18F938091C823CF
S1131E108F938091C7238F930E94691CCDBFDEBF2F
S1131E202CC3A091C923B091CA238DE0EDEAF8E256
S1131E3001900D928A95E1F78091BB231F928F93B5
S1131E4088E799E29F938F931F9280E18F9380910B
S1131E50C8238F938091C7238F930E94691CCDBFA1
S1131E60DEBF0BC3A091C923B091CA238DE0EAEB76
S1131E70F8E201900D928A95E1F78091BA231F92BE
S1131E808F9388E799E29F938F931F9280E18F93BA
S1131E908091C8238F938091C7238F930E94691CDC
S1131EA0CDBFDEBFEAC2A091C923B091CA238DE0A1
S1131EB0E7ECF8E201900D928A95E1F78091B9235D
S1131EC01F928F9388E799E29F938F931F9280E1EB
S1131ED08F938091C8238F938091C7238F930E94FF
S1131EE0691CCDBFDEBFC9C2A091C923B091CA236A
S1131EF08DE0E4EDF8E201900D928A95E1F780918E
S1131F00B8231F928F9388E799E29F938F931F9230
S1131F1080E18F938091C8238F938091C7238F93FF
S1131F200E94691CCDBFDEBFA8C2A091C923B09195
S1131F30CA238DE0E1EEF8E201900D928A95E1F773
S1131F408091B7231F928F9388E799E29F938F9391
S1131F501F9280E18F938091C8238F938091C72330
S1131F608F930E94691CCDBFDEBF87C2A091C92395
S1131F70B091CA238DE0EEEEF8E201900D928A95BD
S1131F80E1F78091B6231F928F9388E799E29F939C
S1131F908F931F9280E18F938091C8238F938091B8
S1131FA0C7238F930E94691CCDBFDEBF66C2A09178
S1131FB0C923B091CA238DE0EBEFF8E201900D92B2
S1131FC08A95E1F78091B5231F928F9388E799E270
S1131FD09F938F931F9280E18F938091C8238F9357
S1131FE08091C7238F930E94691CCDBFDEBF45C279
S1131FF0A091C923B091CA238DE0E8E0F9E20190F1
S11320000D928A95E1F78091B4231F928F9388E70C
S113201099E29F938F931F9280E18F938091C823BD
S11320208F938091C7238F930E94691CCDBFDEBF1D
S113203024C2A091C923B091CA238DE0E5E1F9E25D
S113204001900D928A95E1F78091B3231F928F93AB
S113205088E799E29F938F931F9280E18F938091F9
S1132060C8238F938091C7238F930E94691CCDBF8F
S1132070DEBF03C2A091C923B091CA238DE0E2E27E
S1132080F9E201900D928A95E1F78091B2231F92B3
S11320908F9388E799E29F938F931F9280E18F93A8
S11320A08091C8238F938091C7238F930E94691CCA
S11320B0CDBFDEBFE2C1A091C923B091CA238DE098
S11320C0EFE2F9E201900D928A95E1F78091B12354
S11320D01F928F9388E799E29F938F931F9280E1D9
S11320E08F938091C8238F938091C7238F930E94ED
S11320F0691CCDBFDEBFC1C1A091C923B091CA2361
S11321008DE0ECE3F9E201900D928A95E1F780917C
S1132110B0231F928F9389E499E29F938F931F9228
S113212080E18F938091C8238F938091C7238F93ED
S11321300E94691CCDBFDEBFA0C1A091C923B0918C
S1132140CA238DE0EEE4F9E201900D928A95E1F75D
S11321508091AF231F928F9389E499E29F938F9389
S11321601F9280E18F938091C8238F938091C7231E
S11321708F930E94691CCDBFDEBF7FC1A091C9238C
S1132180B091CA2381E1EBE5F9E201900D928A95C1
S1132190E1F7E3EDFEE283858F9382858F9381855A
S11321A08F9380858F9387818F9386818F93858189
S11321B08F9384818F9383818F9382818F93818185
S11321C08F9380818F938CE699E29F938F931F92D4
S11321D080E18F938091C8238F938091C7238F933D
S11321E00E94691CCDBFDEBF48C1A091C923B09134
S11321F0CA2381E1EDE7F9E201900D928A95E1F7B6
S1132200E3EDFEE287898F9386898F9385898F9387
S113221084898F9383898F9382898F9381898F9304
S113222080898F9387858F9386858F9385858F93F8
S113223084858F938CE699E29F938F931F9280E11C
S11322408F938091C8238F938091C7238F930E948B
S1132250691CCDBFDEBF11C1A091C923B091CA23AF
S113226081E1EEE8F9E201900D928A95E1F763ECE1
S11322707EE28091C7239091C8230E94621CFDC016
S1132280A091C923B091CA2381E1EFE9F9E2019059
S11322900D928A95E1F763EC7EE28091C7239091D9
S11322A0C8230E94621CE9C0A091C923B091CA232B
S11322B081E1E0EBF9E201900D928A95E1F763EC9C
S11322C07EE28091C7239091C8230E94621CD5C0EE
S11322D0A091C923B091CA2381E1E1ECF9E2019014
S11322E00D928A95E1F763EC7EE28091C723909189
S11322F0C8230E94621CC1C0A091C923B091CA2303
S113230081E1E2EDF9E201900D928A95E1F763EC47
S11323107EE28091C7239091C8230E94621CADC0C5
S1132320A091C923B091CA238CE0E3EEF9E20190B5
S11323300D928A95E1F763EC7EE28091C723909138
S1132340C8230E94621C99C0A091C923B091CA23DA
S113235081E1E2EDF9E201900D928A95E1F763ECF7
S11323607EE28091C7239091C8230E94621C85C09D
S1132370A091C923B091CA2381E1E1ECF9E2019073
S11323800D928A95E1F763EC7EE28091C7239091E8
S1132390C8230E94621C71C0A091C923B091CA23B2
S11323A080E1EFEEF9E201900D928A95E1F763EC9A
S11323B07EE28091C7239091C8230E94621C5DC075
S11323C0A091C923B091CA2380E1EFEFF9E2019013
S11323D00D928A95E1F763EC7EE28091C723909198
S11323E0C8230E94621C49C0A091C923B091CA238A
S11323F081E1EFE0FAE201900D928A95E1F7809194
S1132400F72E9091F82E885C91099F938F9380E228
S11324109AE29F938F931F9280E18F938091C823B8
S11324208F938091C7238F930E94691CCDBFDEBF19
S113243024C0A091C923B091CA2381E1EDE2FAE25C
S113244001900D928A95E1F78091F72E9091F82EE4
S11324508C5291409F938F9380E29AE29F938F9343
S11324601F9280E18F938091C8238F938091C7231B
S11324708F930E94691CCDBFDEBF60E080E00E94A4
S1132480E7088091C9239091CA230E940F0961E053
S113249080E00E94E7088091C7239091C8230E949E
S11324A00F096096CDBFDEBFDF91CF91FF91EF9111
S11324B0BF91AF919F918F917F916F915F914F9158
S11324C03F912F910F900BBE0F900FBE0F901F9056
S11324D01895EFE1FFE28091ED2E81838091C62370
S11324E082838091C32383838091C22384838091D8
S11324F0C12385838091C02386838091BF238783F2
S11325008091BE2380878091C42382878091EB2EA3
S113251085878091BD2381878091BC2386878091A4
S1132520BB2387878091BA23808B8091B923818BC9
S11325308091B823828B8091B723838B8091B623BB
S1132540848B8091B523858B8091B423868B809175
S1132550B323878B8091B223808F8091B123818FA5
S11325608091AF23828F8091B023838F8091C52384
S113257083878091EC2E8487CF0100D780E014C735
S1132580089540E250E06FEF7EE280E090E0CCD628
S11325908091002F8F3F11F08093ED2E8091012FB9
S11325A08F3F11F08093C6238091022F8F3F11F04B
S11325B08093C3238091032F8F3F11F08093C22314
S11325C08091042F8F3F11F08093C1238091052FB8
S11325D08F3F11F08093C0238091062F8F3F11F01D
S11325E08093BF238091072F8F3F11F08093BE23E8
S11325F08091092F8F3F11F08093C42380910B2F7A
S11326008F3F11F08093EC2E80910A2F8F3F11F0B1
S11326108093C52380910C2F8F3F11F08093EB2E74
S11326208091082F8F3F11F08093BD2380910D2F4F
S11326308F3F11F08093BC2390910E2F9F3F11F098
S11326409093BB2390910F2F9F3F11F09093BA2347
S11326509091102F9F3F11F09093B9239091112FD7
S11326609F3F11F09093B8238F3F21F08091122F58
S11326708093B7238091132F8F3F11F08093B6235B
S11326808091142F8F3F11F08093B5238091152FE3
S11326908F3F11F08093B4238091162F8F3F11F058
S11326A08093B3238091172F8F3F11F08093B2232F
S11326B08091182F8F3F11F08093B1238091192FAF
S11326C08F3F11F08093AF2380911A2F8F3F11F029
S11326D08093B0238091AF23813019F40E941D09A7
S11326E002C00E9424098091B023813021F480E249
S11326F080936506089580E2809366060895BC0180
S11327009091EE2E911105C14091F92E5091FA2E1F
S1132710FA01EE0FFF1FE151F14D20813181CB0110
S1132720820F931F808391834130510501F1423020
S1132730510509F4B2C0452B09F0EBC0883091056E
S113274014F087E090E0992314F480E090E0809303
S1132750EF2E9093F02E880F991FFC01E95AF34D48
S1132760808191818093F72E9093F82E0895209183
S1132770EF2E3091F02E2530310509F443C03CF49E
S11327802330310569F02430310519F108952630DC
S1132790310509F450C02730310509F465C00895A6
S11327A08830910514F087E090E0992314F480E0D8
S11327B090E08093F12E9093F22E880F991FFC01E4
S11327C0E95BF34D808191818093F72E9093F82EED
S11327D008958530910514F084E090E0992314F471
S11327E080E090E08093F12E9093F22E880F991F51
S11327F0FC01E35CF34D808191818093F72E9093EB
S1132800F82E08958F30910514F08EE090E099230E
S113281014F480E090E08093F12E9093F22E880FD0
S1132820991FFC01E15EF34D808191818093F72E25
S11328309093F82E08958531910514F084E190E089
S1132840992314F480E090E08093F12E9093F22E7B
S1132850880F991FFC01EB50F44D80819181809386
S1132860F72E9093F82E08958330910514F082E0AA
S113287090E0992314F480E090E08093F12E9093FB
S1132880F22E880F991FFC01E151F44D8081918152
S11328908093F72E9093F82E08952091F12E309185
S11328A0F22E2115310521F021303105D1F00895A2
S11328B08531910514F084E190E0992314F480E0CB
S11328C090E08093F32E9093F42E880F991FFC01CF
S11328D0EB53F44D808191818093F72E9093F82EE1
S11328E008958531910514F084E190E0992314F45E
S11328F080E090E08093F32E9093F42E880F991F3C
S1132900FC01EB53F44D808191818093F72E9093D9
S1132910F82E08951F920F920FB60F9211240BB642
S11329200F920F931F932F933F934F935F936F9344
S11329307F938F939F93AF93BF93CF93DF93EF9343
S1132940FF938091200A9091210A029718F4CFEF07
S1132950DFEF02C0C1E0D0E04091FB2E5091FC2E8D
S11329606091FD2E7091FE2E8091C02E9091C12E0B
S1132970092E000CAA0BBB0B8A019B01081B190B27
S11329802A0B3B0B023011052105310508F42EC238
S11329904093C02E5093C12ECE01B1DE8091EE2E15
S11329A0882309F423C2E091F72EF091F82E319791
S11329B0EB31F10508F01AC2E15BFD4F1CC78091B1
S11329C0ED2EC80FD11D1C161D0614F4C1E0D0E075
S11329D0DD2314F4C0E0D0E0C093ED2E07C2809153
S11329E0B023C80FD11D1C161D0614F4C1E0D0E09D
S11329F0DD2314F4C0E0D0E0C093B023C13021F44F
S1132A0080E280936506F2C180E280936606EEC19F
S1132A108091AF23C80FD11D1C161D0614F4C1E00C
S1132A20D0E0DD2314F4C0E0D0E0C093AF23C13084
S1132A3019F40E941D09DAC10E942409D7C18091AA
S1132A40C623C80FD11DCF3FD10519F014F0CFEF25
S1132A50D0E0DD2314F4C0E0D0E0C093C623C6C1A7
S1132A608091C323CC0FDD1FC295D295D07FDC2784
S1132A70C07FDC27C80FD11DCF3FD10519F014F05A
S1132A80CFEFD0E0DD2314F4C0E0D0E0C093C32343
S1132A90ADC18091C223CC0FDD1FC295D295D07FEA
S1132AA0DC27C07FDC27C80FD11DCF3FD10519F02B
S1132AB014F0CFEFD0E0DD2314F4C0E0D0E0C093F5
S1132AC0C22394C18091C123CC0FDD1FC295D2953E
S1132AD0D07FDC27C07FDC27C80FD11DCF3FD105B5
S1132AE019F014F0CFEFD0E0DD2314F4C0E0D0E00F
S1132AF0C093C1237BC18091C023CC0FDD1FC2953D
S1132B00D295D07FDC27C07FDC27C80FD11DCF3FF3
S1132B10D10519F014F0CFEFD0E0DD2314F4C0E0B8
S1132B20D0E0C093C02362C18091BF23CC0FDD1FCE
S1132B30C295D295D07FDC27C07FDC27C80FD11D7A
S1132B40CF3FD10519F014F0CFEFD0E0DD2314F41A
S1132B50C0E0D0E0C093BF2349C18091BE23CC0F15
S1132B60DD1FC295D295D07FDC27C07FDC27C80F3C
S1132B70D11DCF3FD10519F014F0CFEFD0E0DD2304
S1132B8014F4C0E0D0E0C093BE2330C12091C4232C
S1132B90CE01880F991F880F991FC80FD91FC20F24
S1132BA0D11DC536D10514F0C4E6D0E0DD2314F4FC
S1132BB0C0E0D0E0C093C42319C12091BD23CE014D
S1132BC0880F991F880F991FC80FD91FC20FD11DD5
S1132BD0CF3FD10519F014F0CFEFD0E0DD2314F48A
S1132BE0C0E0D0E0C093BD2301C18091BC23C80FD5
S1132BF0D11DCF3FD10519F014F0CFEFD0E0DD2384
S1132C0014F4C0E0D0E0C093BC23F0C08091BB2397
S1132C10C80FD11DCF3FD10519F014F0CFEFD0E08C
S1132C20DD2314F4C0E0D0E0C093BB23DFC0809167
S1132C30BA23C80FD11DCF3FD10519F014F0CFEF3F
S1132C40D0E0DD2314F4C0E0D0E0C093BA23CEC0BA
S1132C508091B923C80FD11DCF3FD10519F014F0CD
S1132C60CFEFD0E0DD2314F4C0E0D0E0C093B9236B
S1132C70BDC08091B823C80FD11DCF3FD10519F035
S1132C8014F0CFEFD0E0DD2314F4C0E0D0E0C09323
S1132C90B823ACC08091B723C80FD11DCF3FD10555
S1132CA019F014F0CFEFD0E0DD2314F4C0E0D0E04D
S1132CB0C093B7239BC08091B623C80FD11DCA30DF
S1132CC0D10534F0CF31D1052CF0CEE1D0E002C0F3
S1132CD0CAE0D0E0C093B62389C08091B523C80F61
S1132CE0D11DCA30D10534F0CF31D1052CF0CEE15D
S1132CF0D0E002C0CAE0D0E0C093B52377C0809191
S1132D00B423C80FD11DCA30D10534F0CF31D10559
S1132D102CF0CEE1D0E002C0CAE0D0E0C093B423EE
S1132D2065C08091B323C80FD11DCA30D10534F0DA
S1132D30CF31D1052CF0CEE1D0E002C0CAE0D0E022
S1132D40C093B32353C08091B223C80FD11DCA309E
S1132D50D10534F0CF31D1052CF0CEE1D0E002C062
S1132D60CAE0D0E0C093B22341C08091B123C80F20
S1132D70D11DCA30D10534F0CF31D1052CF0CEE1CC
S1132D80D0E002C0CAE0D0E0C093B1232FC080914C
S1132D90C523C80FD11DC930D10514F0C8E0D0E057
S1132DA0DD2314F4C0E0D0E0C093C5231FC080919C
S1132DB0EC2EC80FD11DC730D10514F0C6E0D0E009
S1132DC0DD2314F4C0E0D0E0C093EC2E0FC080915A
S1132DD0EB2EC80FD11DC430D10514F0C3E0D0E0F0
S1132DE0DD2314F4C0E0D0E0C093EB2EFF91EF910B
S1132DF0DF91CF91BF91AF919F918F917F916F910F
S1132E005F914F913F912F911F910F910F900BBEA6
S1132E100F900FBE0F901F901895EF92FF920F9393
S1132E201F93CF93DF93CDB7DEB72B97CDBFDEBF14
S1132E302093C3233093C2234093C1235093C023D0
S1132E406093BF237093BE230093C423F092EC2EAF
S1132E50E092C52311501093EB2E8093BD2361E0C3
S1132E6080E00E94E7088EE39AE20E940F0931DBBA
S1132E702B96CDBFDEBFDF91CF911F910F91FF90B5
S1132E80EF900895F894E0E6F6E086818066868304
S1132E9083E294EF0197F1F700C00000858180661A
S1132EA0858383E294EF0197F1F700C000008681E7
S1132EB080668683789408951F920F920FB60F92BE
S1132EC011240BB60F922F933F934F935F936F93FD
S1132ED07F938F939F93AF93BF93EF93FF938091CF
S1132EE0EE2E81110FC08091F92E9091FA2E009749
S1132EF091F001978093F92E9093FA2E80E090E060
S1132F00FEDB09C0813039F4E4DA9091EE2E81E0E1
S1132F1089278093EE2EFF91EF91BF91AF919F91FE
S1132F208F917F916F915F914F913F912F910F906E
S1132F300BBE0F900FBE0F901F9018951F920F920B
S1132F400FB60F9211240BB60F92EF92FF920F93CC
S1132F501F932F933F934F935F936F937F938F931D
S1132F609F93AF93BF93CF93DF93EF93FF934091DE
S1132F70FB2E5091FC2E6091FD2E7091FE2E8091BF
S1132F80BE2E9091BF2E092E000CAA0BBB0B8A01FA
S1132F909B01081B190B2A0B3B0B0A301105210559
S1132FA0310508F433C14093BE2E5093BF2EC09117
S1132FB0F72ED091F82EC132D10569F48091F92E03
S1132FC09091FA2E01978093F92E9093FA2E80E037
S1132FD090E095DB1BC1CE018756910985309105A0
S1132FE040F08B5B9F4F8230910518F00496029756
S1132FF0A0F48091F92E9091FA2E01968093F92EE7
S11330009093FA2E880F991FFC01E151F14D108223
S1133010118280E090E073DBF9C0E091F92EF09129
S1133020FA2EEE0FFF1FE351F14D8081918100973D
S113303009F074C0CD3211E0D1070CF4C6C0CE0142
S11330408B52914040E250E06FE37FE2880F991F7A
S113305082959295907F9827807F982765D190914B
S11330604C2F9F3F49F461E080E00E94E7088DE423
S11330709AE20E940F0950C08FEF8093C32380937C
S1133080C2238093C1238093C0238093BF23809362
S1133090BE238091422F8F3F11F08093C3238091F0
S11330A0432F8F3F11F08093C2238091442F8F3F91
S11330B011F08093C1238091452F8F3F11F08093AD
S11330C0C0238091462F8F3F11F08093BF238091BE
S11330D0472F8F3F11F08093BE238091492F8F3F5C
S11330E011F08093C42380914B2F8F3F11F0809374
S11330F0EC2E80914A2F8F3F09F480C08093C52322
S11331007DC08093BD2361E080E00E94E7088EE3E8
S11331109AE20E940F09DDD9B5DE78C081309105AD
S1133120B9F5CD3221E0D2070CF44FC0EFE3FFE252
S11331308091C32383838091C22384838091C1239C
S113314085838091C02386838091BF238783809168
S1133150BE2380878091C42382878091EB2E85874C
S11331608091BD2381878091C52383878091EC2E34
S11331708487CF0103D18C2F8B5216D161E080E07C
S11331800E94E7088BE59AE20E940F097BDE3EC0AD
S11331900697D9F4C93CD105C4F0C95CD1098BE0C8
S11331A08C9FF0018D9FF00D1124ED52FD4DE080B8
S11331B0F1800281138124813581468157816085A4
S11331C0718582852ADE5EDE21C06C97F9F08091DC
S11331D0EE2E813009F47DD99091EE2E81E089277D
S11331E08093EE2E8091B023813021F480E280938D
S11331F065060CC080E28093660608C09093EB2EAF
S11332008091482F8F3F09F07CCF7DCFFF91EF91C4
S1133210DF91CF91BF91AF919F918F917F916F91EA
S11332205F914F913F912F911F910F91FF90EF90DC
S11332300F900BBE0F900FBE0F901F901895F8942F
S113324098E0E0E0F6E0522F5095662374F4348160
S1133250322B348335E03A95F1F7348135233483C6
S113326032E03A95F1F700C00EC03481322B34833A
S113327032E03A95F1F7000034813523348335E0A8
S11332803A95F1F70000660F9150F9F698E0E0E006
S1133290F6E0522F5095882374F43481322B348312
S11332A035E03A95F1F734813523348332E03A95A9
S11332B0F1F700C00EC03481322B348332E03A95EA
S11332C0F1F7000034813523348335E03A95F1F782
S11332D00000880F9150F9F688E0E0E0F6E0322F24
S11332E03095442374F49481922B948395E09A95B9
S11332F0F1F794819323948392E09A95F1F700C0B7
S11333000EC09481922B948392E09A95F1F7000079
S113331094819323948395E09A95F1F70000440FE8
S11333208150F9F678940895CF93DF939C01DB01E3
S1133330E0ECF1E097859923ECF3CCECD1E09881B3
S113334098609883B901705FCD01B3D28881877F7B
S11333508883DF91CF910895E0ECF1E0978599237C
S1133360ECF3ACECB1E09C9198609C93E82FF0E016
S1133370F05F60838C91877F8C9308950F931F93E4
S1133380CF938C01E0ECF1E087858823ECF3C0E077
S1133390F80161918F018C2FDFDFCF5FC032C1F75D
S11333A0CF911F910F9108951F93CF93DF93E0EC7A
S11333B0F1E097859923ECF320E2829FC001112468
S11333C0C0ECD1E01A82998388831A8585E38A87C1
S11333D061E08BEC91E005D01A87DF91CF911F91CA
S11333E008951BBEFC0128ED24BF608308950CD012
S11333F027C11FD140F016D130F021F45F3F19F0FE
S1133400DFC0511168C10BC12CD198F39923C9F3C2
S11334105523B1F3951B550BBB27AA2762177307D6
S1133420840738F09F5F5F4F220F331F441FAA1F8A
S1133430A9F333D00E2E3AF0E0E830D0915050404A
S1133440E695001CCAF729D0FE2F27D0660F771FF8
S1133450881FBB1F261737074807AB07B0E809F0DA
S1133460BB0B802DBF01FF2793585F4F2AF09E3F6F
S1133470510568F0A5C02FC15F3FECF3983EDCF323
S1133480869577956795B795F7959F5FC9F7880FE8
S1133490911D9695879597F90895E1E0660F771F3A
S11334A0881FBB1F621773078407BA0720F0621BCB
S11334B0730B840BBA0BEE1F88F7E095089504D0C4
S11334C06894B11108C10895D4D088F09F5790F042
S11334D0B92F9927B751A0F0D1F0660F771F881F35
S11334E0991F1AF0BA95C9F712C0B13081F0F2D021
S11334F0B1E00895EFC0672F782F8827B85F39F0BF
S1133500B93FCCF3869577956795B395D9F73EF493
S113351090958095709561957F4F8F4F9F4F08953B
S1133520E89409C097FB3EF4909580957095619559
S11335307F4F8F4F9F4F9923A9F0F92F96E9BB270F
S11335409395F695879577956795B795F111F8CF8B
S1133550FAF4BB0F11F460FF1BC06F5F7F4F8F4FF6
S11335609F4F16C0882311F096E911C0772321F0EC
S11335709EE8872F762F05C0662371F096E8862F84
S113358070E060E02AF09A95660F771F881FDAF7DB
S1133590880F9695879597F9089585D080F09F3781
S11335A040F491110EF097C060E070E080E89FEB6A
S11335B0089526F41B16611D711D811D07C021C0CD
S11335C097F99F6780E870E060E00895882371F4BC
S11335D0772321F09850872B762F07C0662311F4A8
S11335E099270DC09051862B70E060E02AF09A95DF
S11335F0660F771F881FDAF7880F9695879597F9D6
S113360008959F3F31F0915020F487957795679501
S1133610B795880F911D9695879597F908959FEF13
S113362080EC089500240A94161617061806090655
S1133630089500240A941216130614060506089524
S1133640092E0394000C11F4882352F0BB0F40F4AC
S1133650BF2B11F460FF04C06F5F7F4F8F4F9F4FEC
S1133660089557FD9058440F551F59F05F3F71F06E
S11336704795880F97FB991F61F09F3F79F08795D5
S11336800895121613061406551FF2CF4695F1DF5E
S113369008C0161617061806991FF1CF86957105EE
S11336A0610508940895E5DFA0F0BEE7B91788F432
S11336B0BB279F3860F41616B11D672F782F882713
S11336C0985FF7CF869577956795B11D9395963951
S11336D0C8F30895E894BB2766277727CB0197F9A9
S11336E008950BD0ADCF9EDF28F0A3DF18F095230B
S11336F009F066CF94CF1124EECFB3DFA0F3959FEA
S1133700D1F3950F50E0551F629FF001729FBB27C4
S1133710F00DB11D639FAA27F00DB11DAA1F649F70
S11337206627B00DA11D661F829F2227B00DA11D23
S1133730621F739FB00DA11D621F839FA00D611DA9
S1133740221F749F3327A00D611D231F849F600DCA
S1133750211D822F762F6A2F11249F5750408AF003
S1133760E1F088234AF0EE0FFF1FBB1F661F771F8F
S1133770881F91505040A9F79E3F510570F020CF0B
S1133780AACF5F3FECF3983EDCF386957795679577
S1133790B795F795E7959F5FC1F7FE2B880F911DAD
S11337A09695879597F90895AA1BBB1B51E107C00D
S11337B0AA1FBB1FA617B70710F0A61BB70B881FBD
S11337C0991F5A95A9F780959095BC01CD0108954C
S11337D097FB072E16F4009406D077FD08D0E4DF9B
S11337E007FC05D03EF4909581959F4F0895709500
S11337F061957F4F0895EE0FFF1F0024001C0BBE40
S11338000790F691E02D09948F929F92AF92BF9208
S1133810CF92DF92EF92FF92CF93DF93EC01688116
S113382079818A819B81611571058105910521F456
S113383064E279ED8BE597E02DE133EF41E050E070
S113384025D349015A019B01AC01A7EAB1E43AD35B
S11338506B017C01ACEEB4EFA50194013FD3DC0114
S1133860CB018C0D9D1DAE1DBF1DB7FF03C001977D
S1133870A109B04888839983AA83BB839F77DF918A
S1133880CF91FF90EF90DF90CF90BF90AF909F903B
S11338908F900895B9CF80E090E2B6CFA0E0B0E079
S11338A08093002090930120A0930220B0930320E2
S11338B00895FB01DC0102C001900D92415050407B
S11338C0D8F70895FB01DC0101900D920020E1F787
S11338D008950F931F93CF93DF93CDB7DEB72E9741
S11338E0CDBFDEBF0D891E898F89988D26E02C837C
S11338F009831A8397FF02C080E090E801978D83C3
S11339009E83AE01455E5F4F698D7A8DCE0101962F
S113391016D04D815E8157FD0AC02F81388542172C
S113392053070CF49A01F801E20FF31F10822E964C
S1133930CDBFDEBFDF91CF911F910F9108952F92DC
S11339403F924F925F926F927F928F929F92AF922B
S1133950BF92CF92DF92EF92FF920F931F93CF9378
S1133960DF93CDB7DEB72B97CDBFDEBF6C017B01F4
S11339708A01FC0116821782838181FFBFC1CE01B7
S113398001963C01F6019381F70193FD859193FF24
S113399081917F01882309F4ADC1853239F493FD07
S11339A0859193FF81917F01853221F4B60190E0E6
S11339B0D3D1E8CF912C212C312CFFE1F315D8F091
S11339C08B3279F038F4803279F08332A1F4232DEC
S11339D020611DC08D3261F0803369F4232D216094
S11339E016C0832D8260382EE32DE4603E2E2AC05B
S11339F0F32DF8601DC037FC2DC020ED280F2A30B0
S1133A0040F08E32B9F436FC75C1232D2064322E79
S1133A1019C036FE06C08AE0989E200D1124922E0D
S1133A2011C0EAE02E9E200D1124222EF32DF06207
S1133A303F2E08C08C3621F4832D8068382E02C0B6
S1133A40883641F4F70193FD859193FF81917F01BD
S1133A508111B3CF982F9F7D9554933028F40C5F38
S1133A601F4F9FE399830DC0833631F0833771F084
S1133A70833509F055C020C0F801808189830E5F29
S1133A801F4F88248394912C530112C02801F2E023
S1133A904F0E511CF801A080B18036FE03C0692D81
S1133AA070E002C06FEF7FEFC5014BD14C01820182
S1133AB0F32DFF773F2E15C0280122E0420E511C42
S1133AC0F801A080B18036FE03C0692D70E002C009
S1133AD06FEF7FEFC5012AD14C01F32DF0683F2E23
S1133AE0820133FC19C0822D90E088169906A0F457
S1133AF0B60180E290E030D12A94F5CFF50137FC8D
S1133B00859137FE81915F01B60190E025D12110A6
S1133B102A9421E0821A91088114910479F7E1C072
S1133B20843611F0893639F5F80137FE07C0608113
S1133B307181828193810C5F1F4F08C06081718104
S1133B40072E000C880B990B0E5F1F4FF32DFF7689
S1133B503F2E97FF09C090958095709561957F4F92
S1133B608F4F9F4FF0683F2E2AE030E0A30130D101
S1133B70882E861844C0853731F4232D2F7EB22E2B
S1133B802AE030E025C0932D997FB92E8F36C1F0FD
S1133B9018F4883579F0AEC0803719F0883721F0F1
S1133BA0A9C0E92FE061BE2EB4FE0DC0FB2DF46068
S1133BB0BF2E09C034FE0AC0292F2660B22E06C0CB
S1133BC028E030E005C020E130E002C020E132E02E
S1133BD0F801B7FE07C060817181828193810C5F17
S1133BE01F4F06C06081718180E090E00E5F1F4F1F
S1133BF0A301EED0882E8618FB2DFF773F2E36FECC
S1133C000DC0232D2E7FA22E891458F434FE0BC030
S1133C1032FC09C0832D8E7EA82E05C0B82CA32C9F
S1133C2003C0B82C01C0B92CA4FE0FC0FE01E80DDE
S1133C30F11D8081803321F49A2D997EA92E09C02B
S1133C40A2FE06C0B394B39404C08A2D867809F00A
S1133C50B394A3FC10C0A0FE06C0B21480F4280CD8
S1133C60922C9B180DC0B21458F4B60180E290E077
S1133C7073D0B394F8CFB21418F42B1802C0982C54
S1133C80212CA4FE0FC0B60180E390E065D0A2FE13
S1133C9016C0A1FC03C088E790E002C088E590E06C
S1133CA0B6010CC08A2D867851F0A1FE02C08BE2C9
S1133CB001C080E2A7FC8DE2B60190E04DD08914EA
S1133CC030F4B60180E390E047D09A94F8CF8A9418
S1133CD0F301E80DF11D8081B60190E03DD0811023
S1133CE0F6CF222009F44ECEB60180E290E034D023
S1133CF02A94F7CFF6018681978102C08FEF9FEF58
S1133D002B96CDBFDEBFDF91CF911F910F91FF9016
S1133D10EF90DF90CF90BF90AF909F908F907F9067
S1133D206F905F904F903F902F900895FC01059005
S1133D30615070400110D8F7809590958E0F9F1FA9
S1133D400895FC016150704001900110D8F78095EE
S1133D5090958E0F9F1F08950F931F93CF93DF931A
S1133D60FB01238121FD03C08FEF9FEF2CC022FFB5
S1133D7016C046815781248135814217530744F484
S1133D80A081B1819D012F5F3F4F208331838C93AC
S1133D90268137812F5F3F4F2683378314C08B01E1
S1133DA0EC01FB010084F185E02D0995892BE1F6F6
S1133DB0D80116968D919C911797019616968D931E
S1133DC09C931797CE01DF91CF911F910F91089586
S1133DD0FA01AA27283051F1203181F1E8946F9338
S1133DE06E7F6E5F7F4F8F4F9F4FAF4FB1E03ED0DE
S1133DF0B4E03CD0670F781F891F9A1FA11D680F7C
S1133E00791F8A1F911DA11D6A0F711D811D911DAE
S1133E10A11D20D009F468943F912AE0269F112423
S1133E203019305D3193DEF6CF010895462F477087
S1133E30405D4193B3E00FD0C9F7F6CF462F4F70E2
S1133E40405D4A3318F0495D31FD4052419302D040
S1133E50A9F7EACFB4E0A6959795879577956795E6
S1133E60BA95C9F700976105710508959B01AC01E6
S1133E700A2E06945795479537952795BA95C9F70D
S1133E80620F731F841F951FA01D0895052E97FBB5
S1133E9016F400940FD057FD05D024D007FC02D0AF
S1133EA046F408C050954095309521953F4F4F4FAB
S1133EB05F4F089590958095709561957F4F8F4FD2
S1133EC09F4F089531D0A59F900DB49F900DA49F4E
S1133ED0800D911D11240895B7FFF4CFF3DF821BE9
S1133EE0930B0895A1E21A2EAA1BBB1BFD010DC062
S1133EF0AA1FBB1FEE1FFF1FA217B307E407F50796
S1133F0020F0A21BB30BE40BF50B661F771F881F71
S1133F10991F1A9469F760957095809590959B0107
S1133F20AC01BD01CF010895A29FB001B39FC001B0
S1133F30A39F700D811D1124911DB29F700D811DD1
S10D3F401124911D0895F894FFCF99
S1133F4A0100000000010000000000000000000061
S1133F5A000000000100000000000000000101014F
S1133F6A000000000000010101010100000000023C
S1133F7A0101010101020000020201010101010221
S1133F8A020002020101010101020202060001000B
S1133F9A0000000000000000000000000002000011
S1133FAA00000000000002010200000000000002FC
S1133FBA01010102000000000201010101010200E5
S1133FCA00020101010101010102000201010101D2
S1133FDA01010101020600010202020202020202B6
S1133FEA02020202020201020202020202020202A4
S1133FFA0101020202020202020101010102020299
S113400A020201010101010102020101010101018E
S113401A010101020101010101010101010106007D
S113402A0100000000000000000000010000000080
S113403A000000000001010000000000000000016F
S113404A010100000000000000010101010000005C
S113405A000000010101010100000000000101014A
S113406A0101010000000001010101010102000037
S113407A0001010101010102020000010101010123
S113408A0102020200010101010101020202020A03
S113409A000100000000000000000000020000000F
S11340AA00000000000001020000000000000000FF
S11340BA01010200000000000000010101020000E9
S11340CA00000000010101010200000000000101DA
S11340DA01010102000000000101010101010200C5
S11340EA00000101010101010102000001010101B5
S11340FA01010101020001010101010101010102A1
S113410A0A00010000000000000000000001000095
S113411A000000000000010100000200000200008B
S113412A0001000200000001020000000200010177
S113413A0000000102000102020002000102000064
S113414A0100020100010102020002010201000150
S113415A010202000201010101020202000002003E
S113416A000201020002020102010201020102012B
S113417A020A00010000000202020200000001011A
S113418A0100000000010101010001020202020211
S113419A02020202020101010101010101010101FC
S11341AA00010202020202020202020201020202E5
S11341BA02020202020201010202020202020202D3
S11341CA01010102020202020202010101010202C8
S11341DA02020202010101010102020202020101B8
S11341EA01010101020202020101010101010102AC
S11341FA020201010101010101010202010101019D
S113420A010101010102010101010101010101018F
S113421A0A0001000005010080FF000000FF000001
S113422A50010000FF0A0000FF00005A0400FF00CA
S113423A000014FF00000001FFFFFF000000FF015F
S113424A00460200FF00000000FF01000501FFFF15
S113425A00000000FF02000A010000FFFF0000FF47
S113426A0200460100FFFF000000FF04005F04FF94
S113427A000000FF00FF04001401FFFFFF0000FF1D
S113428AFF04000501FF000000FF00FF06003C01D7
S113429AFFFF000000FFFF06001E01FF8000FF0071
S11342AA00FF03004601FFFFFF0000FFFF03003C7D
S11342BA01FF000000FF00FF00026401FF0000008C
S11342CA00FFFF010250010000FF000000FF03028B
S11342DA5501FF000000FF00FF030264040000FF11
S11342EA00FF00FF07026401FF00FF00FFFFFF0158
S11342FA011E1E1E1E1E1E323232323232FFFFFFD2
S113430AFFFFFFFF320101A32BB42BFFFF000001C3
S113431A010101010203040507080A0B0C0D0D0C27
S113432A0B0A09070605050607090C0F1216191BBD
S113433A1C1C1B1A1714110E0B09090A0C10141948
S113434A1E23272A2C2C2A27231E1914100E0D0E7D
S113435A11161C232A31363A3C3C39352F28211BA5
S113436A15121112161C242D363E454A4C4B48424E
S113437A3B3229211B1615171C232C37424C545A3D
S113438A5C5B5750473C3127201B191B21293541B7
S113439A4E5963696C6B665D5246392E251F1D1F83
S11343AA26303D4B596772797C7B756B5E5042347B
S11343BA2A2321242B364555657480898C8A83786F
S11343CA6A5A4A3B2F282528303D4D5F71828F98BF
S11343DA9C9A928676645241342C292C3543556929
S11343EA7D8F9EA8ACAAA193826E5A4839302D318A
S11343FA3A4A5D73899DADB8BCB9B0A18E78624E54
S113440A3F3431354050657D95BCC7DCFF00002040
S113441A33404A525A60656A6E7276797D80828523
S113442A888A8C8E9092949698999B9D9EA0A1A21C
S113443AA4A5A6A7A9AAABACADAEAFB0B1B2B3B4AA
S113444AB5B6B7B8B8B9BABBBCBCBDBEBFBFC0C1AC
S113445AC2C2C3C4C4C5C6C6C7C7C8C9C9CACACBE7
S113446ACBCCCDCDCECECFCFD0D0D1D1D2D2D3D347
S113447AD4D4D4D5D5D6D6D7D7D8D8D8D9D9DADAC0
S113448ADADBDBDCDCDCDDDDDEDEDEDFDFDFE0E049
S113449AE0E1E1E1E2E2E2E3E3E3E4E4E4E5E5E5E1
S11344AAE6E6E6E7E7E7E8E8E8E8E9E9E9EAEAEA7E
S11344BAEAEBEBEBECECECECEDEDEDEDEEEEEEEF26
S11344CAEFEFEFF0F0F0F0F1F1F1F1F2F2F2F2F3D2
S11344DAF3F3F3F3F4F4F4F4F5F5F5F5F5F6F6F687
S11344EAF6F7F7F7F7F7F8F8F8F8F9F9F9F9F9FA3E
S11344FAFAFAFAFAFBFBFBFBFBFCFCFCFCFCFCFDFA
S113450AFDFDFDFDFEFEFEFEFEFFFFFFFF000000B7
S113451A000000000000000000000000000000008D
S113452A000000000000000000000000000000007D
S113453A000000000000000000000000000000006D
S113454A0000000101010101010101010101010150
S113455A010101010202020202020202020203032F
S113456A03030303030404040404040505050505FD
S113457A06060606070707080808080909090A0AB1
S113458A0A0B0B0C0C0C0D0D0E0E0F0F1010111143
S113459A121213131414151616171818191A1A1BAB
S11345AA1C1D1D1E1F2021222223242526272829DB
S11345BA2A2B2C2D2E2F31323334353738393B3CC4
S11345CA3D3F404143444647494A4C4E4F51535458
S11345DA56585A5C5D5F61636567696B6D70727486
S11345EA76787B7D7F828487898C8E919396999B3A
S11345FA9EA1A4A7AAADB0B3B6B9BCBFC2C6C9CC62
S113460AD0D3D7DADEE1E5E9EDF5F9FFFF000102DF
S113461A030405060708090A0B0C0D0E0F101112E4
S113462A131415161718191A1B1C1D1E1F202122D4
S113463A232425262728292A2B2C2D2E2F303132C4
S113464A333435363738393A3B3C3D3E3F404142B4
S113465A434445464748494A4B4C4D4E4F505152A4
S113466A535455565758595A5B5C5D5E5F60616294
S113467A636465666768696A6B6C6D6E6F70717284
S113468A737475767778797A7B7C7D7E7F80818274
S113469A838485868788898A8B8C8D8E8F90919264
S11346AA939495969798999A9B9C9D9E9FA0A1A254
S11346BAA3A4A5A6A7A8A9AAABACADAEAFB0B1B244
S11346CAB3B4B5B6B7B8B9BABBBCBDBEBFC0C1C234
S11346DAC3C4C5C6C7C8C9CACBCCCDCECFD0D1D224
S11346EAD3D4D5D6D7D8D9DADBDCDDDEDFE0E1E214
S11346FAE3E4E5E6E7E8E9EAEBECEDEEEFF0F1F204
S113470AF3F4F5F6F7F8F9FAFBFCFDFEFF496E69D6
S113471A742073746172742E2E2E004C4954444CC6
S113472A4D31202D2076332E3000444D58204368D5
S113473A3A2025303364004D6F6465202020202000
S113474A20202000444D582041646472657373200C
S113475A0052656420202031202020202000477246
S113476A65656E2031202020202000426C7565206A
S113477A203120202020200052656420202032206D
S113478A2020202000477265656E203220202020D8
S113479A2000426C756520203220202020200052FF
S11347AA656C656173652074696D6500416E696D38
S11347BA6174696F6E20202000416E696D207472E5
S11347CA696767657200416E696D20637572766503
S11347DA20200044696D6D6572202020202020006D
S11347EA496E7075742073656E73203100496E705A
S11347FA75742073656E73203200496E7075742067
S113480A73656E73203300496E7075742073656E18
S113481A73203400496E7075742073656E73203585
S113482A00496E7075742073656E732036004E628B
S113483A206C6967687473202031004E62206C69A9
S113484A67687473202032004E62206C696768744A
S113485A73202033004E62206C69676874732020C9
S113486A34004E62206C6967687473202035004EE8
S113487A62206C696768747320203600456E636C25
S113488A6F2E204C696768740025303164004C43EC
S113489A44204C6967687420202000416E696D6168
S11348AA74696F6E203120746F20330025303364AD
S11348BA20202530336420202530336400416E697A
S11348CA6D6174696F6E203420746F203600436FF3
S11348DA6C6F727320636F6E6669672E2E2E0041A9
S11348EA6E696D20636F6E6669672E2E2E20200016
S11348FA47656E6572616C2073657475702E2E2E11
S113490A0055736572207072657365747320202074
S113491A2000466163746F727920707265736574DE
S113492A7320004261636B2E2E2E20202020005516
S113493A73652075736572207365742E2E2E005369
S113494A617665207072657365742E2E2E2000536D
S113495A656C65637420662E2070726573657400D5
S113496A5072657365742023253033640053656C73
S113497A65637420752E20707265736574006C6F9C
S113498A61646564207072657365742100656D7075
S113499A7479207072657365742100536176656455
S11349AA2070726573657421004D616E75616C20A7
S11349BA6D6F646500444D58206D6F646520202036
S11349CA004C696E656172202020202000457870B1
S11349DA6F6E656E7469616C004C6F67617269749D
S11349EA6D6963200053696E75732046616465209E
S11349FA00547269676765722020202020200041D4
S1134A0A75746F2073696E676C6520200041757434
S1134A1A6F20616C6C20202020200052616E646F2C
S1134A2A6D2073696E676C650052616E646F6D20E8
S1134A3A616C6C202020004F6E2020202020202032
S1134A4A20202020004F66662020202020202020BD
S1134A5A20200050756C73652020202020202020FF
S1134A6A20200046696C6C20202020202020202051
S1134A7A20200043656E7465722066696C6C202080
S1134A8A2020004551204D6F76696E672020202032
S1134A9A2020004551204669786564202020202082
S1134AAA20200043656E746572204551204D6F764F
S1134ABA20200043656E746572204551204669784A
S1134ACA656400436F6E7374656C6C6174696F6EB0
S1134ADA20200050756C73652063656E74657220BE
S1134AEA20200031323320202020202020202020A2
S1134AFA20202000202020202020202020202020C8
S1134B0A202020200021002D012E012F0130013107
S1134B1A01320133013401350136013701380139D3
S1134B2A013A013B013C013D013E013F0140011FA5
S1134B3A001E0021002100C900CA00CB00CC00CD10
S1134B4A00CE00CF00D000D100D200D300D400D5CB
S1134B5A00D600D700D800D900DA00DB00DC000E4A
S1134B6A000F0010001100120013001400150016A3
S1134B7A001700180019001B001A0021000A000D72
S1134B8A000C000B002100030004000500060007C6
S1134B9A0008000900210000000100020067006803
S10B4BAA0069006B006A0000C1
S9030000FC
