:100000007FC200009CC200009AC2000098C200009B
:100010000C94541794C2000092C2000090C20000D9
:100020008EC200008CC200000C94670988C20000D8
:1000300086C2000084C200000C94A90C80C200009B
:100040007EC200007CC200007AC2000078C20000BC
:100050000EC6000074C2000072C2000070C2000030
:100060006EC200006CC200006AC2000068C20000DC
:1000700066C2000064C2000062C2000060C20000EC
:100080005EC200005CC200005AC2000058C20000FC
:1000900056C2000054C2000052C2000050C200000C
:1000A0004EC200004CC200004AC2000048C200001C
:1000B00046C2000044C2000042C200000C948214F8
:1000C0003EC200003CC200003AC2000038C200003C
:1000D00036C200000C94DF0932C2000030C20000BA
:1000E0002EC200002CC200002AC2000028C200005C
:1000F00026C2000024C2000022C2000020C200006C
:100100000C9496171CC200001AC2000018C200000E
:1001100016C2000014C2000012C2000010C200008B
:100120000EC200000CC200000AC2000008C200009B
:1001300006C200007CC6000002C2000000C200002F
:10014000FEC10000FCC10000FAC10000F8C10000BF
:10015000F6C10000F4C10000F2C10000F0C10000CF
:100160000C94040AECC10000EAC10000E8C10000E0
:10017000E6C10000E4C10000E2C10000E0C10000EF
:10018000DEC10000DCC10000DAC10000D8C10000FF
:10019000D6C10000D4C10000D2C10000D0C100000F
:1001A000CEC10000CCC10000CAC10000C8C100001F
:1001B000C6C10000C4C10000C2C10000C0C100002F
:1001C000BEC10000BCC10000BAC10000B8C100003F
:1001D000B6C10000B4C10000B2C10000B0C100004F
:1001E000AEC10000ACC10000AAC10000A8C100005F
:1001F000A6C10000A4C10000A2C10000A403C20364
:10020000CC03D603E003EA03F403AE03B803E60726
:1002100077077707DA07DA076A077107100D490DC4
:10022000640D850DA60DC70DE80D090E2A0EC70E2B
:100230004B0E6C0E910EAC0EE80E090F2A0F4B0FF1
:100240006C0F8D0FAE0FCF0FF00F11103210531037
:1002500095107410B610ED10D811C4113512881114
:100260009C11B01135123512351235123512351276
:100270003512351235123512351235123512351246
:100280003512351235123512351235123512351236
:100290003512351235123512351235123512351226
:1002A0003512351235123512351235123512351216
:1002B0003512351235123512351235123512351206
:1002C00035123512351235123512351235123512F6
:1002D00035123512351235123512351235123512E6
:1002E00035123512351235123512241138114C11D0
:1002F000601174113512351235123512351235125E
:1003000035123512351235123512351235123512B5
:1003100035123512351235123512351235123512A5
:100320003512351235123512351235123512351295
:100330003512351235123512351235123512351285
:100340003512351235123512351235123512351275
:100350003512351235123512351235123512351265
:100360003512351235123512351235123512351255
:100370003512351235123512351235123512351245
:100380003512351235123512351235123512351235
:100390003512351235123512351235123512351225
:1003A0003512351235123512351235123512EC115F
:1003B000EC11EC11EC11EC11EC11EC11EC11EC1155
:1003C000EC11EC11EC11EC11EC11EC11EC11EC1145
:1003D000EC11EC11EC1135123512351235123512C3
:1003E00035123512351235123512351235123512D5
:1003F00035123512351235123512351235123512C5
:1004000035123512351235123512351235123512B4
:1004100035123512351235123512351235123512A4
:100420003512351235123512351235123512351294
:100430003512351235123512351235123512351284
:100440003512351235123512351235123512351274
:100450003512351235123512351235123512351264
:100460003512351235123512351235123512351254
:1004700035123512351211121112111211121112F8
:100480001112111211121112111211121112111254
:100490001112111211121112111211121112D7147C
:1004A0001715281541155A1573158C15A515D51551
:1004B000BE15BF16CF16DF16ED15FE150F1620164A
:1004C0003116421653166516771689169B16AD1609
:1004D0000015E714912A9D2AA92AB52AC12ACD2AF6
:1004E000D92AE72AF52A032B112B1F2B2D2B3B2B67
:1004F0004B2B5B2B6B2B7B2B8B2B9B2BAB2BBB2B8C
:1005000011241FBECFEFCDBFDFE2DEBF1CE2A0E0B3
:10051000B0E2EAE3FFE300E00BBF02C007900D92F8
:10052000A039B107D9F72FE2A0E9BCE201C01D92C2
:10053000A737B207E1F70E94EC0A0C949B1F60CD2D
:1005400042305105C1F03CF44115510561F0413094
:10055000510569F020C044305105A9F084F04530C0
:100560005105A9F018C02091E42330E016C0209175
:10057000E32330E012C02091E22330E00EC020914E
:10058000E12330E00AC02091E02330E006C0209152
:10059000DF2330E002C020E030E0DC01CB01820F3D
:1005A000931FA11DB11D84369105A105B1051CF451
:1005B00080E090E0DC018F3F9105A105B10529F0B5
:1005C00024F08FEF90E0A0E0B0E0BA2FA92F982F91
:1005D0008827009721E0A207B10520F08FEF9FEF59
:1005E000A0E0B0E008952F923F924F925F926F92F9
:1005F0007F928F929F92AF92BF92CF92DF92EF92B3
:10060000FF920F931F93CF93DF93CDB7DEB7AF97D2
:10061000CDBFDEBF7B01292F30E08091132F8130C9
:1006200061F028F0823079F0833099F018C0F90138
:10063000EB50F94D6080712C14C0F901EB50FA4D6C
:100640006080712C0EC0F901EB50FB4D6080712C65
:1006500008C0F901EB50FC4D6080712C02C0612C88
:10066000712C8091142F863031F0853031F466245E
:100670006A94712C02C0612C712C23E0E216F10403
:10068000F9F04CF461E0E616F10471F072E0E7165F
:10069000F10471F045C084E0E816F104E9F095E05A
:1006A000E916F10449F13CC08091DE2390E03AC0A4
:1006B0002091DE238091DD2390E0820F911D32C0D6
:1006C0002091DE238091DD2390E0820F911D209107
:1006D000DC23820F911D26C02091DE238091DD2333
:1006E00090E0820F911D2091DC23820F911D2091BB
:1006F000DB23820F911D16C02091DE238091DD2324
:1007000090E0820F911D2091DC23820F911D20919A
:10071000DB23820F911D2091DA23820F911D02C0ED
:1007200080E090E08C01000F111F080F191FE0916D
:10073000ED238E2F90E08930910508F05FC0FC0119
:10074000E250FF4F0C94F31BC0908722D090882278
:10075000A0918922AF8B23E732E256C0C090592284
:10076000D0905A22B0915B22BF8B2BEE31E24CC06D
:10077000C0907022D0907122E0917222EF8B2CE514
:1007800032E242C0C090F822D090F922F091FA22D1
:10079000FF8B2AE832E238C0C0900621D0900721B2
:1007A000209108212F8B20EC30E22EC0C090E82150
:1007B000D090E9214091EA214F8B2AE731E224C011
:1007C000C0907721D0907821609179216F8B29E0BA
:1007D00031E21AC0C090BD20D090BE207091BF20E1
:1007E0007F8B2FE430E210C0C0904C20D0904D2081
:1007F00080914E208F8B26E030E206C020E030E072
:100800001F8ACC24C394D12C80E091E0B6010E94D1
:10081000CC1B5B01C3010E94CC1BFB01982F80E025
:10082000B5010E94CC1B2B01AF01440F551FCF0116
:10083000880F991F880F991F880F991F840F951F84
:10084000CE16DF0629F03C01AAE06A0E711C01C039
:100850003C0119821A824091EB2350E04B835C8368
:100860004091E82350E04D835E831F8218864091BB
:10087000EA2350E049875A874091E72350E04B87AD
:100880005C871D861E864091E92350E04F87588B78
:100890004091E62350E0498B5A8B4091DE23E42FB0
:1008A000F0E0E88FF98F4091DD23642F70E06A8FCC
:1008B0007B8F4091DC23A42FB0E0AC8FBD8F4091A3
:1008C000DB23E42FF0E0EE8FFF8F4091DA23642FDB
:1008D00070E068A379A34091D923A42FB0E0AAA324
:1008E000BBA3A090E523B12C0456134DC12CD12CF1
:1008F000BAA1BCA3EBA1EDA3F8A1FEA349A14FA30C
:100900006E8D68A77F8D79A7AA8DAAA7BB8DBBA77F
:10091000E88DECA7F98DFDA74C8D4EA76D8D6FA7C7
:10092000620E731E4901880E991E80E091E01C0141
:1009300024183508FCC0B6010D2C000C880B990B4F
:100940000E948A1A6B8B7C8B8D8B9E8B72E0E716D4
:10095000F104C9F044F4E114F10479F091E0E916EE
:10096000F104E9F40DC0A4E0EA16F10491F074F08A
:10097000E5E0EE16F10499F40FC06CA57DA511C059
:100980006AA57BA50EC06EA57FA50BC068A579A53D
:1009900008C06EA17FA105C06CA17DA102C060E06E
:1009A00070E0072E000C880B990B0E948A1A9B019D
:1009B000AC0160E070E080E191E40E94EF192B89C6
:1009C0003C894D895E890E94691B0E94C51A0E945C
:1009D000571AF301E60FF71FA0810A2E000CBB0B7C
:1009E000FF89F13009F06FC0F401E60FF71F808135
:1009F000AA0FBB1F61E070E06C0F7D1F6A0F7B1FA9
:100A0000DB012D913C91429EF001439EF00D529EE0
:100A1000F00D11242F2F3327A82FAA0FBB0BE1E0D5
:100A2000F0E0EC0FFD1FEA0FFB1FEB8BFC8B40810E
:100A30005181249EC001259E900D349E900D11245D
:100A4000E92FFF27E20FF31FDB0116968D919C9192
:100A50001797489E9001499E300D589E300D1124E5
:100A6000432F5527AB89BC8916962D913C9117973A
:100A7000229EC001239E900D329E900D1124292F9D
:100A80003327240F351FDB011C968D919C911D97F8
:100A9000489EA001499E500D589E500D1124452F8F
:100AA0005527AB89BC891C966D917C911D97269E1C
:100AB000C001279E900D369E900D1124892F9927F5
:100AC000480F591F13C0AA0FBB1FE1E0F0E0EC0F65
:100AD000FD1FAE0FBF1FED91FC91119716962D9142
:100AE0003C9117971C964D915C911D97EA9DC00112
:100AF000EB9D900DFA9D900D1124D8019C932A9D99
:100B0000C0012B9D900D3A9D900D112411969C9340
:100B100011974A9DC0014B9D900D5A9D900D112437
:100B200012969C93BFEFCB1ADB0A0D5F1F4FE2E0DA
:100B3000EE16F10401F144F4E114F10479F021E03E
:100B4000E216F10489F031C044E0E416F10409F141
:100B5000CCF075E0E716F10411F127C0888D998D6E
:100B6000C816D906F4F16DC0AA8DBB8DCA16DB0676
:100B70000CF443C066C0EC8DFD8DCE16DF060CF480
:100B800048C05FC06E8D7F8DC616D7060CF44DC071
:100B900058C088A199A1C816D9065CF052C0AAA174
:100BA000BBA1CA16DB068CF04CC0DD200CF4C3CE12
:100BB00048C0B6010D2C000C880B990B0E948A1AB4
:100BC0006B8B7C8B8D8B9E8BE4CEB6010D2C000C39
:100BD000880B990B0E948A1A6B8B7C8B8D8B9E8B5A
:100BE000DBCEB6010D2C000C880B990B0E948A1AE3
:100BF0006B8B7C8B8D8B9E8BC0CEB6010D2C000C2D
:100C0000880B990B0E948A1A6B8B7C8B8D8B9E8B29
:100C1000B7CEB6010D2C000C880B990B0E948A1AD6
:100C20006B8B7C8B8D8B9E8BAECEB6010D2C000C0E
:100C3000880B990B0E948A1A6B8B7C8B8D8B9E8BF9
:100C4000A5CEAF96CDBFDEBFDF91CF911F910F91A3
:100C5000FF90EF90DF90CF90BF90AF909F908F90DC
:100C60007F906F905F904F903F902F9008951F92CC
:100C70000F920FB60F9211240BB60F92AF92BF9244
:100C8000CF92EF92FF921F932F933F934F935F93D7
:100C90006F937F938F939F93AF93BF93CF93DF9384
:100CA000EF93FF93A12CB12CEE24E394F12C1A2D99
:100CB000C12CE7010A2C02C0CC0FDD1F0A94E2F719
:100CC000DD2754C02091DE2330E03AC08091DE233E
:100CD0002091DD2330E0280F311D32C08091DE23CA
:100CE0002091DD2330E0280F311D8091DC23280F77
:100CF000311D26C08091DE232091DD2330E0280FB6
:100D0000311D8091DC23280F311D8091DB23280FBA
:100D1000311D16C08091DE232091DD2330E0280FA5
:100D2000311D8091DC23280F311D8091DB23280F9A
:100D3000311D8091DA23280F311D02C020E030E000
:100D4000F901EE0FFF1F2E0F3F1FCA01880F991FD9
:100D5000840F951FF901E80FF91FE456F34D9E012A
:100D60004281618180810E941719C3944C2D50E00B
:100D70001230D9F028F4112349F0113071F034C049
:100D8000143019F1D0F0153041F12EC08091DE23DE
:100D900090E04817590794F227C08091DD2390E036
:100DA000481759070CF48ECF1FC08091DC2390E0C8
:100DB000481759070CF48ACF17C08091DB2390E0C5
:100DC000481759070CF48ACF0FC08091DA2390E0BE
:100DD000481759070CF48ECF07C08091D92390E0B3
:100DE000481759070CF496CF8FEFA81AB80A86E077
:100DF000A816B10409F05BCFFF91EF91DF91CF917D
:100E0000BF91AF919F918F917F916F915F914F9122
:100E10003F912F911F91FF90EF90CF90BF90AF9097
:100E20000F900BBE0F900FBE0F901F9018951F9242
:100E30000F920FB60F9211240BB60F922F923F9282
:100E40004F925F926F927F928F929F92AF92BF92DA
:100E5000CF92DF92EF92FF920F931F932F933F93C6
:100E60004F935F936F937F938F939F93AF93BF93B2
:100E7000CF93DF93EF93FF938091162F8111D9C009
:100E800004EC1EE20F2EFBEFCF2EFEE2DF2EF02D44
:100E90000F2EF0E9EF2EFCE2FF2EF02DC0E0D0E0A7
:100EA0000F2EF5E6AF2EB12CF02D88248394912CD3
:100EB00044244A94542C612C712CE091142F8E2FD1
:100EC00090E08730910508F0A1C0FC01E95FFE4F7A
:100ED0000C94F31BD6014D925D926D927C92139708
:100EE00095C0F60110821182128213828FC0D70141
:100EF0008D919C91892B81F58091EC23A501481B54
:100F000051092091042030910520429FC001439F48
:100F1000900D529F900D1124092E000CAA0BBB0BB3
:100F2000F8014081518162817381840F951FA61F52
:100F3000B71F80839183A283B3838F3F9F4FA10507
:100F4000B1050CF463C0D7018D929C92F8014082E8
:100F50005182628273825AC08091EC239501281BD2
:100F600031098091042090910520289FA001299F9C
:100F7000500D389F500D1124052E000C660B770B79
:100F8000F80180819181A281B381841B950BA60B0E
:100F9000B70B80839183A283B383181619061A06B0
:100FA0001B06A4F1D7011D921C921082118212829D
:100FB00013822CC00E94431C092E000CAA0BBB0BF1
:100FC000F80180839183A283B38320C0F8018081DC
:100FD00091812091EC23A501421B51099A01002423
:100FE000369527950794369527950794322F202D0F
:100FF0002817390718F4821B930B02C080E090E099
:10100000A0E0B0E080839183A283B383F801819153
:101010009191A191B1918F01BE01E5DA2196F4E0A1
:10102000CF0ED11C22E0E20EF11CC630D10509F032
:1010300044CFFF91EF91DF91CF91BF91AF919F91FD
:101040008F917F916F915F914F913F912F911F9160
:101050000F91FF90EF90DF90CF90BF90AF909F9057
:101060008F907F906F905F904F903F902F900F9058
:101070000BBE0F900FBE0F901F901895FC0165835B
:10108000138288E0818381E084830895FC01848158
:1010900083708130C9F4660F642B668380E490E02E
:1010A00002C0880F991F4A95E2F7248130E0282377
:1010B0003923232BD1F39481892F807194FF05C0AC
:1010C00083E0838382E0089581E0089523E0FC01BA
:1010D000238321E024830895FC016783948196FF94
:1010E000FDCF9481892F807194FF03C083E08383B7
:1010F00082E0089540E067E280EA94E0C7DF609113
:10110000DD2E80EA94E0E8DF80EA94E0DFCF089506
:101110009091DD2E9F7080FD03C09093DD2E03C063
:1011200090619093DD2E81FF05C09091DD2E90623D
:101130009093DD2E82FF05C09091DD2E90649093F8
:10114000DD2E83FF05C08091DD2E80688093DD2E2B
:101150000895CF93C82F8091DD2E84608093DD2E7B
:101160008C2F8595859585958595D2DFC3DF8091F8
:10117000DD2E8B7F8093DD2EBDDF8091DD2E8460A0
:101180008093DD2E8C2FC4DFB5DF8091DD2E8B7F29
:101190008093DD2EAFDF83EF91E00197F1F700C080
:1011A0000000CF9108959091DD2E9C7F9093DD2ECD
:1011B000D0CF08951092DC2E81E0F5CF08956623FC
:1011C00011F090E401C090E0699F800D11248068C7
:1011D000EACF08959091DD2E91609093DD2E8A30B4
:1011E00031F08C3091F4E6DF1092DC2E089580917E
:1011F000DC2E8F5F8093DC2E823011F41092DC2E77
:101200006091DC2E80E0DBCF0895A3CF0895CF93CB
:10121000DF93EC018881882329F02196DBDF899117
:101220008111FCCFDF91CF9108958091DD2E8860F0
:101230008093DD2E5FCF08958091DD2E877F809390
:10124000DD2E58CF0895CF9385EA9EE00197F1F700
:1012500000C00000C3E083E05BDF8091DD2E84608E
:101260008093DD2E47DF8091DD2E8B7F8093DD2EF6
:1012700041DF87EE93E00197F1F700C00000C15015
:1012800051F782E045DF8091DD2E84608093DD2E72
:1012900031DF8091DD2E8B7F8093DD2E2BDF89EF78
:1012A00090E00197F1F700C000008CE27CDF88E05D
:1012B0007ADF81E078DF83EF91E00197F1F700C0FA
:1012C000000086E070DF8CE06EDFCF9108951F9202
:1012D0000F920FB60F9211240BB60F92CF92DF929E
:1012E000EF92FF920F931F932F933F934F935F9330
:1012F0006F937F938F939F93AF93BF93CF93DF931E
:10130000EF93FF930F2EFBEFCF2EFEE2DF2EF02D9B
:101310000F2EF4ECEF2EFEE2FF2EF02D00E010E099
:10132000C0E4D2E0802F880F880F880F89A31AA20B
:1013300088A1806888A38BA18823E9F38BA18BA364
:101340006CA17DA180E090E0A801FAD8A0E0B0E017
:10135000F60181939193A193B1936F01F7014081BD
:10136000518162817381481759076A077B0724F40A
:1013700080839183A283B3830F5F1F4FF4E0EF0E4E
:10138000F11C0630110571F6FF91EF91DF91CF91BD
:10139000BF91AF919F918F917F916F915F914F918D
:1013A0003F912F911F910F91FF90EF90DF90CF9081
:1013B0000F900BBE0F900FBE0F901F9018951F92AD
:1013C0000F920FB60F9211248F939F93AF93BF93F9
:1013D0008091232F9091242FA091252FB091262F1B
:1013E0000196A11DB11D8093232F9093242FA093CC
:1013F000252FB093262FBF91AF919F918F910F9082
:101400000FBE0F901F9018951F920F920FB60F925C
:1014100011240BB60F922F933F934F935F936F93CB
:101420007F938F939F93AF93BF93EF93FF93E0EAE4
:10143000F9E02181822F90E08093E02E9093E12EBD
:10144000808190E08093E42E9093E52E8091152F7B
:10145000813009F0AEC024FF0EC08091DE2E909145
:10146000DF2E01968093DE2E9093DF2E1092E22ED7
:101470001092E32E0DC01092DE2E1092DF2E80917E
:10148000E22E9091E32E01968093E22E9093E32E2C
:101490002091EE2330E0E091E22EF091E32EC9019D
:1014A00001968E179F0721F48091E42E8093EB2301
:1014B000C9010296E817F90721F48091E42E809380
:1014C000EA23C9010396E817F90721F48091E42E75
:1014D0008093E923C9010496E817F90721F4809164
:1014E000E42E8093E823C9010596E817F90721F453
:1014F0008091E42E8093E723C9010696E817F90747
:1015000021F48091E42E8093E623C9010796E81721
:10151000F90781F44091E42E5091E52E64E6649F32
:10152000C001659F900D11246FEF70E00E94E01BD9
:101530006093EC23C9010896E817F90781F48091BC
:10154000E42E9091E52E880F991F880F991F880F20
:10155000991F6FEF70E00E94E01B6093ED23C901BB
:101560000996E817F90789F48091E42E9091E52E09
:10157000AC01440F551F840F951F880F991F6FEF03
:1015800070E00E94E01B6093142F265F3F4FE2172C
:10159000F30779F48091E42E9091E52E9C01220FBF
:1015A000331F820F931F6FEF70E00E94E01B609368
:1015B000132FFF91EF91BF91AF919F918F917F91E9
:1015C0006F915F914F913F912F910F900BBE0F90B4
:1015D0000FBE0F901F90189588ED84BF82E0809316
:1015E0005000E0E5F0E0818181FFFDCF88ED84BF10
:1015F000C0E4D0E011E018832FEF33EC89E02150F4
:1016000030408040E1F700C000008CE192E0ECE95E
:10161000FCE2DF019C011D9221503040E1F786E0A1
:10162000EBEFFEE2DF01282F1D922A95E9F7E4ECAB
:10163000FEE2DF01282F1D922A95E9F7E8EBFEE292
:10164000DF011D928A95E9F780E2E7E2FFE2DF0120
:10165000282F1D922A95E9F7E7E6FFE2DF011D92A8
:101660008A95E9F70F2EF0E6EF2EF6E0FF2EF02D2B
:10167000F70181818066818380E4858383E08093A4
:1016800081066BE980EA94E0F9DCDDDDCEDD60E027
:1016900080E095DD8FDD60E080E091DD85EF97E211
:1016A000B6DDFFEF23ED30E3F15020403040E1F7AD
:1016B00000C0000080E6D70115968C9387E08093E8
:1016C000A20057D7E0E2F6E08FEF828380E1808BC3
:1016D000818B828B838B848B858B868B878BE4B508
:1016E0004FB7F89420EC31E092E0D9011A969C9320
:1016F0001A97F0E0E4911A961C924FBFA0E4B2E072
:101700001C96EC931C9755B54FB7F894F901928746
:10171000E52FF0E09491F90112864FBF1D969C933E
:101720001D971C9394E011969C93119711969C9190
:1017300011979F7E11969C93119795E014969C9318
:10174000149712968C93129713961C921397929655
:101750001C92929790961C93AFE7BCE01197F1F71B
:1017600000C000009B8310920004E0E0F4E081815F
:1017700080FDFDCF1092080410920904E0E0F4E02F
:10178000818180FDFDCF82E090E080930A049093F8
:101790000B04E0E0F4E0818180FDFDCFE0E0F4E0C7
:1017A00081E0838342E042839081987F91609083BF
:1017B000E0E4FAE010829CE0918728E030E026A384
:1017C00037A3868337E03083248521602487A0E80F
:1017D000B6E012962C9112972C6012962C931297C9
:1017E000E0E6F6E022812061228323E052962C93EA
:1017F000529753962C93448B428540614287818750
:10180000A0EEB7E012964C911297436012964C935B
:10181000129741E150964C93509751964C935197A3
:101820001A964C911A9743601A964C931A971996E8
:101830008C93A0E8B1E04FE418964C93189742E7D8
:101840004C93A0E0BAE048E613964C93139742E01D
:1018500050E096964D935C9397972C9390961D929B
:101860001C92919716968C93A0E0B8E01C92199662
:101870009C9319974CE25AE096964D935C939797F8
:1018800016968C9316973C931C964C911C9741602E
:101890001C964C934FEF40930106A0E4B8E01C92D5
:1018A00019969C93199746EE5BE196964D935C933F
:1018B000979716962C93169725E02C931C962C91AF
:1018C0001C9721601C962C93A0E0B9E01C921996FD
:1018D0009C9319974EEB51E096964D935C93979796
:1018E00016968C9316973C931C969C911C9791602E
:1018F0001C969C9391819A609183928194609283CB
:10190000968192609683928194609283A0EAB0E07F
:1019100012969C911297926012969C93A0EAB9E05D
:1019200090E213969C9313972BE015962C931597A2
:1019300016968C93169717969C93179780E114969A
:101940008C9378948181806681838581806685838C
:10195000FFCF1F920F920FB60F9211240BB60F926A
:101960002F933F934F935F936F937F938F939F93A7
:10197000AF93BF93EF93FF93CF93DF93CDB7DEB7D2
:101980006097CDBFDEBF2091F3233091F423809187
:101990001F2F9091202F2817390761F48091162F5F
:1019A000811118C02C31310571F12D31310509F04B
:1019B00070C529C08093F3239093F4232091162FB0
:1019C000211108C04C970297F0F0F4DB8091162F9C
:1019D0008823C9F08091EA2E8F5F8093EA2E8430AD
:1019E00019F41092EA2E02C0811106C0E0E6F6E07A
:1019F00087818064878307C0823029F4E0E6F6E0BF
:101A0000878180628783E0911F2FF091202FE1343E
:101A100081E0F80708F029C5E25FFE4F0C94F31B44
:101A2000A091F123B091F2238FE0E3E0F8E201907E
:101A30000D928A95E1F780E1FE013196DF01982F42
:101A40001D929A95E9F79091EE231F929F9322E1C0
:101A500038E23F932F931F928F93FF93EF930E944F
:101A6000611CE091152FCDBFDEBFE13041F0F0E009
:101A7000EE0FFF1FEC52FB4F6591749103C0BE0146
:101A80006F5F7F4F8091EF239091F0230E945A1C4B
:101A9000ECC4A091F123B091F2238DE0EFE1F8E2E4
:101AA00001900D928A95E1F7E091152FF0E0EE0F8D
:101AB000FF1FEC52FB4F659174918091EF23909141
:101AC000F0230E945A1CD1C4A091F123B091F223BB
:101AD0008DE0ECE2F8E201900D928A95E1F78091B9
:101AE000EE231F928F9380EA99E29F938F931F9228
:101AF00080E18F938091F0238F938091EF238F93D8
:101B00000E94611CCDBFDEBFB0C4A091F123B09193
:101B1000F2238DE0E9E3F8E201900D928A95E1F776
:101B20008091EB231F928F9380EA99E29F938F938A
:101B30001F9280E18F938091F0238F938091EF2308
:101B40008F930E94611CCDBFDEBF8FC4A091F12393
:101B5000B091F2238DE0E6E4F8E201900D928A95CF
:101B6000E1F78091EA231F928F9380EA99E29F9395
:101B70008F931F9280E18F938091F0238F938091B8
:101B8000EF238F930E94611CCDBFDEBF6EC4A09176
:101B9000F123B091F2238DE0E3E5F8E201900D929C
:101BA0008A95E1F78091E9231F928F9380EA99E269
:101BB0009F938F931F9280E18F938091F0238F9357
:101BC0008091EF238F930E94611CCDBFDEBF4DC477
:101BD000A091F123B091F2238DE0E0E6F8E20190CC
:101BE0000D928A95E1F78091E8231F928F9380EA06
:101BF00099E29F938F931F9280E18F938091F023BE
:101C00008F938091EF238F930E94611CCDBFDEBF25
:101C10002CC4A091F123B091F2238DE0EDE6F8E21F
:101C200001900D928A95E1F78091E7231F928F939F
:101C300080EA99E29F938F931F9280E18F93809126
:101C4000F0238F938091EF238F930E94611CCDBF6F
:101C5000DEBF0BC4A091F123B091F2238DE0EAE73F
:101C6000F8E201900D928A95E1F78091E6231F92A8
:101C70008F9380EA99E29F938F931F9280E18F93D5
:101C80008091F0238F938091EF238F930E94611CAA
:101C9000CDBFDEBFEAC3A091F123B091F2238DE066
:101CA000E7E8F8E201900D928A95E1F78091EC2344
:101CB0001F928F9380EA99E29F938F931F9280E106
:101CC0008F938091F0238F938091EF238F930E94C5
:101CD000611CCDBFDEBFC9C38091ED2390E0893088
:101CE000910514F088E090E08093ED23A091F1231A
:101CF000B091F2238DE0E4E9F8E201900D928A952B
:101D0000E1F7E091ED23F0E0EE0FFF1FE251FB4F12
:101D1000659174918091EF239091F0230E945A1C59
:101D2000A4C3A091F123B091F2238DE0E1EAF8E29F
:101D300001900D928A95E1F7E091142FF0E0EE0FFB
:101D4000FF1FE052FB4F659174918091EF239091BA
:101D5000F0230E945A1C89C3A091F123B091F22371
:101D60008DE0EEEAF8E201900D928A95E1F7E091BC
:101D7000132FF0E0EE0FFF1FE852FB4F65917491B7
:101D80008091EF239091F0230E945A1C6EC3A09182
:101D9000F123B091F2238DE0EBEBF8E201900D928C
:101DA0008A95E1F78091E5231F928F9380EA99E26B
:101DB0009F938F931F9280E18F938091F0238F9355
:101DC0008091EF238F930E94611CCDBFDEBF4DC376
:101DD000A091F123B091F2238DE0E8ECF8E20190BC
:101DE0000D928A95E1F78091E4231F928F9380EA08
:101DF00099E29F938F931F9280E18F938091F023BC
:101E00008F938091EF238F930E94611CCDBFDEBF23
:101E10002CC3A091F123B091F2238DE0E5EDF8E21F
:101E200001900D928A95E1F78091E3231F928F93A1
:101E300080EA99E29F938F931F9280E18F93809124
:101E4000F0238F938091EF238F930E94611CCDBF6D
:101E5000DEBF0BC3A091F123B091F2238DE0E2EE3F
:101E6000F8E201900D928A95E1F78091E2231F92AA
:101E70008F9380EA99E29F938F931F9280E18F93D3
:101E80008091F0238F938091EF238F930E94611CA8
:101E9000CDBFDEBFEAC2A091F123B091F2238DE065
:101EA000EFEEF8E201900D928A95E1F78091E1233F
:101EB0001F928F9380EA99E29F938F931F9280E104
:101EC0008F938091F0238F938091EF238F930E94C3
:101ED000611CCDBFDEBFC9C2A091F123B091F22336
:101EE0008DE0ECEFF8E201900D928A95E1F7809198
:101EF000E0231F928F9380EA99E29F938F931F9222
:101F000080E18F938091F0238F938091EF238F93C3
:101F10000E94611CCDBFDEBFA8C2A091F123B09189
:101F2000F2238DE0E9E0F9E201900D928A95E1F764
:101F30008091DF231F928F9380EA99E29F938F9382
:101F40001F9280E18F938091F0238F938091EF23F4
:101F50008F930E94611CCDBFDEBF87C2A091F12389
:101F6000B091F2238DE0E6E1F9E201900D928A95BD
:101F7000E1F78091DE231F928F9380EA99E29F938D
:101F80008F931F9280E18F938091F0238F938091A4
:101F9000EF238F930E94611CCDBFDEBF66C2A0916C
:101FA000F123B091F2238DE0E3E2F9E201900D928A
:101FB0008A95E1F78091DD231F928F9380EA99E261
:101FC0009F938F931F9280E18F938091F0238F9343
:101FD0008091EF238F930E94611CCDBFDEBF45C26D
:101FE000A091F123B091F2238DE0E0E3F9E20190BA
:101FF0000D928A95E1F78091DC231F928F9380EAFE
:1020000099E29F938F931F9280E18F938091F023A9
:102010008F938091EF238F930E94611CCDBFDEBF11
:1020200024C2A091F123B091F2238DE0EDE3F9E217
:1020300001900D928A95E1F78091DB231F928F9397
:1020400080EA99E29F938F931F9280E18F93809112
:10205000F0238F938091EF238F930E94611CCDBF5B
:10206000DEBF03C2A091F123B091F2238DE0EAE438
:10207000F9E201900D928A95E1F78091DA231F929F
:102080008F9380EA99E29F938F931F9280E18F93C1
:102090008091F0238F938091EF238F930E94611C96
:1020A000CDBFDEBFE2C1A091F123B091F2238DE05C
:1020B000E7E5F9E201900D928A95E1F78091D92345
:1020C0001F928F9380EA99E29F938F931F9280E1F2
:1020D0008F938091F0238F938091EF238F930E94B1
:1020E000611CCDBFDEBFC1C1A091F123B091F2232D
:1020F0008DE0E4E6F9E201900D928A95E1F7809196
:10210000D8231F928F9381E799E29F938F931F9219
:1021100080E18F938091F0238F938091EF238F93B1
:102120000E94611CCDBFDEBFA0C1A091F123B09180
:10213000F2238DE0E6E7F9E201900D928A95E1F74E
:102140008091D7231F928F9381E799E29F938F937A
:102150001F9280E18F938091F0238F938091EF23E2
:102160008F930E94611CCDBFDEBF7FC1A091F12380
:10217000B091F22381E1E3E8F9E201900D928A95B2
:10218000E1F7EBEFFEE283858F9382858F93818564
:102190008F9380858F9387818F9386818F9385819D
:1021A0008F9384818F9383818F9382818F93818199
:1021B0008F9380818F9384E999E29F938F931F92ED
:1021C00080E18F938091F0238F938091EF238F9301
:1021D0000E94611CCDBFDEBF48C1A091F123B09128
:1021E000F22381E1E5EAF9E201900D928A95E1F7A7
:1021F000EBEFFEE287898F9386898F9385898F9392
:1022000084898F9383898F9382898F9381898F9318
:1022100080898F9387858F9386858F9385858F930C
:1022200084858F9384E999E29F938F931F9280E135
:102230008F938091F0238F938091EF238F930E944F
:10224000611CCDBFDEBF11C1A091F123B091F2237B
:1022500081E1E6EBF9E201900D928A95E1F76BEEF0
:102260007EE28091EF239091F0230E945A1CFDC0E2
:10227000A091F123B091F22381E1E7ECF9E2019022
:102280000D928A95E1F76BEE7EE28091EF239091BB
:10229000F0230E945A1CE9C0A091F123B091F223CF
:1022A00081E1E8EDF9E201900D928A95E1F76BEE9C
:1022B0007EE28091EF239091F0230E945A1CD5C0BA
:1022C000A091F123B091F22381E1E9EEF9E20190CE
:1022D0000D928A95E1F76BEE7EE28091EF2390916B
:1022E000F0230E945A1CC1C0A091F123B091F223A7
:1022F00081E1EAEFF9E201900D928A95E1F76BEE48
:102300007EE28091EF239091F0230E945A1CADC091
:10231000A091F123B091F2238CE0EBE0FAE201907E
:102320000D928A95E1F76BEE7EE28091EF2390911A
:10233000F0230E945A1C99C0A091F123B091F2237E
:1023400081E1EAEFF9E201900D928A95E1F76BEEF7
:102350007EE28091EF239091F0230E945A1C85C069
:10236000A091F123B091F22381E1E9EEF9E201902D
:102370000D928A95E1F76BEE7EE28091EF239091CA
:10238000F0230E945A1C71C0A091F123B091F22356
:1023900080E1E7E1FAE201900D928A95E1F76BEEB8
:1023A0007EE28091EF239091F0230E945A1C5DC041
:1023B000A091F123B091F22380E1E7E2FAE20190EB
:1023C0000D928A95E1F76BEE7EE28091EF2390917A
:1023D000F0230E945A1C49C0A091F123B091F2232E
:1023E00081E1E7E3FAE201900D928A95E1F78091AD
:1023F0001F2F9091202F885C91099F938F9388E4E1
:102400009AE29F938F931F9280E18F938091F023A4
:102410008F938091EF238F930E94611CCDBFDEBF0D
:1024200024C0A091F123B091F22381E1E5E5FAE225
:1024300001900D928A95E1F780911F2F9091202FA6
:102440008C5291409F938F9388E49AE29F938F934D
:102450001F9280E18F938091F0238F938091EF23DF
:102460008F930E94611CCDBFDEBF60E080E00E94C0
:10247000DF088091F1239091F2230E94070961E027
:1024800080E00E94DF088091EF239091F0230E946A
:1024900007096096CDBFDEBFDF91CF91FF91EF912D
:1024A000BF91AF919F918F917F916F915F914F916C
:1024B0003F912F910F900BBE0F900FBE0F901F906A
:1024C0001895E7E4FFE28091152F81838091EE2338
:1024D00082838091EB2383838091EA23848380919C
:1024E000E92385838091E82386838091E72387838E
:1024F0008091E62380878091EC2382878091132F3F
:1025000085878091E52381878091E4238687809168
:10251000E32387878091E223808B8091E123818B65
:102520008091E023828B8091DF23838B8091DE2357
:10253000848B8091DD23858B8091DC23868B809139
:10254000DB23878B8091DA23808F8091D923818F41
:102550008091D723828F8091D823838F8091ED2320
:1025600083878091142F8487CF0100D780E014C720
:10257000089540E250E067E27FE280E090E0CCD650
:102580008091282F8F3F11F08093152F8091292F54
:102590008F3F11F08093EE2380912A2F8F3F11F00F
:1025A0008093EB2380912B2F8F3F11F08093EA23B0
:1025B00080912C2F8F3F11F08093E92380912D2F54
:1025C0008F3F11F08093E82380912E2F8F3F11F0E1
:1025D0008093E72380912F2F8F3F11F08093E62384
:1025E0008091312F8F3F11F08093EC238091332F16
:1025F0008F3F11F08093142F8091322F8F3F11F075
:102600008093ED238091342F8F3F11F08093132F0F
:102610008091302F8F3F11F08093E5238091352FEB
:102620008F3F11F08093E4239091362F9F3F11F05C
:102630009093E3239091372F9F3F11F09093E223E3
:102640009091382F9F3F11F09093E1239091392F73
:102650009F3F11F09093E0238F3F21F080913A2F1C
:102660008093DF2380913B2F8F3F11F08093DE23F7
:1026700080913C2F8F3F11F08093DD2380913D2F7F
:102680008F3F11F08093DC2380913E2F8F3F11F01C
:102690008093DB2380913F2F8F3F11F08093DA23CB
:1026A0008091402F8F3F11F08093D9238091412F4B
:1026B0008F3F11F08093D7238091422F8F3F11F0ED
:1026C0008093D8238091D723813019F40E94150973
:1026D00002C00E941C098091D823813021F480E23D
:1026E00080936506089580E2809366060895BC0194
:1026F0009091162F911105C14091212F5091222FB9
:10270000FA01EE0FFF1FE95EF04D20813181CB0110
:10271000820F931F808391834130510501F1423034
:10272000510509F4B2C0452B09F0EBC08830910582
:1027300014F087E090E0992314F480E090E0809317
:10274000172F9093182F880F991FFC01E158F34D14
:102750008081918180931F2F9093202F0895209145
:10276000172F3091182F2530310509F443C03CF460
:102770002330310569F02430310519F108952630F0
:10278000310509F450C02730310509F465C00895BA
:102790008830910514F087E090E0992314F480E0EC
:1027A00090E08093192F90931A2F880F991FFC01A6
:1027B000E159F34D8081918180931F2F9093202FB9
:1027C00008958530910514F084E090E0992314F485
:1027D00080E090E08093192F90931A2F880F991F13
:1027E000FC01EB59F34D8081918180931F2F9093D1
:1027F000202F08958F30910514F08EE090E09923FA
:1028000014F480E090E08093192F90931A2F880F92
:10281000991FFC01E95BF34D8081918180931F2F0B
:102820009093202F08958531910514F084E190E074
:10283000992314F480E090E08093192F90931A2F3D
:10284000880F991FFC01E35EF34D80819181809395
:102850001F2F9093202F08958330910514F082E06C
:1028600090E0992314F480E090E08093192F9093E6
:102870001A2F880F991FFC01E95EF34D8081918129
:1028800080931F2F9093202F08952091192F30911E
:102890001A2F2115310521F021303105D1F008958D
:1028A0008531910514F084E190E0992314F480E0DF
:1028B00090E080931B2F90931C2F880F991FFC0191
:1028C000E351F44D8081918180931F2F9093202FAD
:1028D00008958531910514F084E190E0992314F472
:1028E00080E090E080931B2F90931C2F880F991FFE
:1028F000FC01E351F44D8081918180931F2F9093CF
:10290000202F08951F920F920FB60F9211240BB62D
:102910000F920F931F932F933F934F935F936F9358
:102920007F938F939F93AF93BF93CF93DF93EF9357
:10293000FF938091200A9091210A029718F4CFEF1B
:10294000DFEF02C0C1E0D0E04091232F5091242F4F
:102950006091252F7091262F8091E82E9091E92E7D
:10296000092E000CAA0BBB0B8A019B01081B190B3B
:102970002A0B3B0B023011052105310508F42EC24C
:102980004093E82E5093E92ECE01B1DE8091162FB0
:10299000882309F423C2E0911F2FF091202F319753
:1029A000EB31F10508F01AC2E15BFD4F1CC78091C5
:1029B000152FC80FD11D1C161D0614F4C1E0D0E060
:1029C000DD2314F4C0E0D0E0C093152F07C280913E
:1029D000D823C80FD11D1C161D0614F4C1E0D0E089
:1029E000DD2314F4C0E0D0E0C093D823C13021F43B
:1029F00080E280936506F2C180E280936606EEC1B4
:102A00008091D723C80FD11D1C161D0614F4C1E0F8
:102A1000D0E0DD2314F4C0E0D0E0C093D723C13070
:102A200019F40E941509DAC10E941C09D7C18091CE
:102A3000EE23C80FD11DCF3FD10519F014F0CFEF11
:102A4000D0E0DD2314F4C0E0D0E0C093EE23C6C193
:102A50008091EB23CC0FDD1FC295D295D07FDC2770
:102A6000C07FDC27C80FD11DCF3FD10519F014F06E
:102A7000CFEFD0E0DD2314F4C0E0D0E0C093EB232F
:102A8000ADC18091EA23CC0FDD1FC295D295D07FD6
:102A9000DC27C07FDC27C80FD11DCF3FD10519F03F
:102AA00014F0CFEFD0E0DD2314F4C0E0D0E0C09309
:102AB000EA2394C18091E923CC0FDD1FC295D29502
:102AC000D07FDC27C07FDC27C80FD11DCF3FD105C9
:102AD00019F014F0CFEFD0E0DD2314F4C0E0D0E023
:102AE000C093E9237BC18091E823CC0FDD1FC29501
:102AF000D295D07FDC27C07FDC27C80FD11DCF3F08
:102B0000D10519F014F0CFEFD0E0DD2314F4C0E0CC
:102B1000D0E0C093E82362C18091E723CC0FDD1F92
:102B2000C295D295D07FDC27C07FDC27C80FD11D8E
:102B3000CF3FD10519F014F0CFEFD0E0DD2314F42E
:102B4000C0E0D0E0C093E72349C18091E623CC0FD9
:102B5000DD1FC295D295D07FDC27C07FDC27C80F50
:102B6000D11DCF3FD10519F014F0CFEFD0E0DD2318
:102B700014F4C0E0D0E0C093E62330C12091EC23F0
:102B8000CE01880F991F880F991FC80FD91FC20F38
:102B9000D11DC536D10514F0C4E6D0E0DD2314F410
:102BA000C0E0D0E0C093EC2319C12091E523CE0111
:102BB000880F991F880F991FC80FD91FC20FD11DE9
:102BC000CF3FD10519F014F0CFEFD0E0DD2314F49E
:102BD000C0E0D0E0C093E52301C18091E423C80F99
:102BE000D11DCF3FD10519F014F0CFEFD0E0DD2398
:102BF00014F4C0E0D0E0C093E423F0C08091E3235C
:102C0000C80FD11DCF3FD10519F014F0CFEFD0E0A0
:102C1000DD2314F4C0E0D0E0C093E323DFC0809153
:102C2000E223C80FD11DCF3FD10519F014F0CFEF2B
:102C3000D0E0DD2314F4C0E0D0E0C093E223CEC0A6
:102C40008091E123C80FD11DCF3FD10519F014F0B9
:102C5000CFEFD0E0DD2314F4C0E0D0E0C093E12357
:102C6000BDC08091E023C80FD11DCF3FD10519F021
:102C700014F0CFEFD0E0DD2314F4C0E0D0E0C09337
:102C8000E023ACC08091DF23C80FD11DCF3FD10519
:102C900019F014F0CFEFD0E0DD2314F4C0E0D0E061
:102CA000C093DF239BC08091DE23C80FD11DCA30A3
:102CB000D10534F0CF31D1052CF0CEE1D0E002C007
:102CC000CAE0D0E0C093DE2389C08091DD23C80F25
:102CD000D11DCA30D10534F0CF31D1052CF0CEE171
:102CE000D0E002C0CAE0D0E0C093DD2377C080917D
:102CF000DC23C80FD11DCA30D10534F0CF31D10546
:102D00002CF0CEE1D0E002C0CAE0D0E0C093DC23DA
:102D100065C08091DB23C80FD11DCA30D10534F0C6
:102D2000CF31D1052CF0CEE1D0E002C0CAE0D0E036
:102D3000C093DB2353C08091DA23C80FD11DCA3062
:102D4000D10534F0CF31D1052CF0CEE1D0E002C076
:102D5000CAE0D0E0C093DA2341C08091D923C80FE4
:102D6000D11DCA30D10534F0CF31D1052CF0CEE1E0
:102D7000D0E002C0CAE0D0E0C093D9232FC0809138
:102D8000ED23C80FD11DC930D10514F0C8E0D0E043
:102D9000DD2314F4C0E0D0E0C093ED231FC0809188
:102DA000142FC80FD11DC730D10514F0C6E0D0E0F4
:102DB000DD2314F4C0E0D0E0C093142F0FC0809145
:102DC000132FC80FD11DC430D10514F0C3E0D0E0DB
:102DD000DD2314F4C0E0D0E0C093132FFF91EF91F6
:102DE000DF91CF91BF91AF919F918F917F916F9123
:102DF0005F914F913F912F911F910F910F900BBEBB
:102E00000F900FBE0F901F901895EF92FF920F93A7
:102E10001F93CF93DF93CDB7DEB72B97CDBFDEBF28
:102E20002093EB233093EA234093E9235093E82344
:102E30006093E7237093E6230093EC23F092142F22
:102E4000E092ED2311501093132F8093E52361E05E
:102E500080E00E94DF0886E69AE20E94070931DBE3
:102E60002B96CDBFDEBFDF91CF911F910F91FF90C9
:102E7000EF900895F894E0E6F6E086818066868318
:102E800083E294EF0197F1F700C00000858180662E
:102E9000858383E294EF0197F1F700C000008681FB
:102EA00080668683789408951F920F920FB60F92D2
:102EB00011240BB60F922F933F934F935F936F9311
:102EC0007F938F939F93AF93BF93EF93FF938091E3
:102ED000162F81110FC08091212F9091222F0097E2
:102EE00091F001978093212F9093222F80E090E022
:102EF000FEDB09C0813039F4E4DA9091162F81E0CD
:102F000089278093162FFF91EF91BF91AF919F91E9
:102F10008F917F916F915F914F913F912F910F9082
:102F20000BBE0F900FBE0F901F9018951F920F921F
:102F30000FB60F9211240BB60F92EF92FF920F93E0
:102F40001F932F933F934F935F936F937F938F9331
:102F50009F93AF93BF93CF93DF93EF93FF934091F2
:102F6000232F5091242F6091252F7091262F80912F
:102F7000E62E9091E72E092E000CAA0BBB0B8A01BE
:102F80009B01081B190B2A0B3B0B0A30110521056D
:102F9000310508F433C14093E62E5093E72EC091DB
:102FA0001F2FD091202FC132D10569F48091212F9C
:102FB0009091222F01978093212F9093222F80E0D0
:102FC00090E095DB1BC1CE018756910985309105B4
:102FD00040F08B5B9F4F8230910518F0049602976A
:102FE000A0F48091212F9091222F01968093212F80
:102FF0009093222F880F991FFC01E95EF04D1082FB
:10300000118280E090E073DBF9C0E091212FF09114
:10301000222FEE0FFF1FEB5EF04D80819181009714
:1030200009F074C0CD3211E0D1070CF4C6C0CE0156
:103030008B52914040E250E067E67FE2880F991F93
:1030400082959295907F9827807F982765D190915F
:10305000742F9F3F49F461E080E00E94DF0885E71C
:103060009AE20E94070950C08FEF8093EB23809370
:10307000EA238093E9238093E8238093E7238093D6
:10308000E62380916A2F8F3F11F08093EB2380918C
:103090006B2F8F3F11F08093EA2380916C2F8F3F2D
:1030A00011F08093E92380916D2F8F3F11F0809371
:1030B000E82380916E2F8F3F11F08093E72380915A
:1030C0006F2F8F3F11F08093E6238091712F8F3FF8
:1030D00011F08093EC238091732F8F3F11F0809338
:1030E000142F8091722F8F3F09F480C08093ED23BD
:1030F0007DC08093E52361E080E00E94DF0886E6E2
:103100009AE20E940709DDD9B5DE78C081309105C9
:10311000B9F5CD3221E0D2070CF44FC0E7E6FFE26B
:103120008091EB2383838091EA2384838091E92338
:1031300085838091E82386838091E723878380912C
:10314000E62380878091EC2382878091132F8587E7
:103150008091E52381878091ED2383878091142FCF
:103160008487CF0103D18C2F8B5216D161E080E090
:103170000E94DF0883E89AE20E9407097BDE3EC0D6
:103180000697D9F4C93CD105C4F0C95CD1098BE0DC
:103190008C9FF0018D9FF00D1124E550FD4DE080D6
:1031A000F1800281138124813581468157816085B8
:1031B000718582852ADE5EDE21C06C97F9F08091F0
:1031C000162F813009F47DD99091162F81E089273F
:1031D0008093162F8091D823813021F480E2809350
:1031E00065060CC080E28093660608C09093132F9A
:1031F0008091702F8F3F09F07CCF7DCFFF91EF91B1
:10320000DF91CF91BF91AF919F918F917F916F91FE
:103210005F914F913F912F911F910F91FF90EF90F0
:103220000F900BBE0F900FBE0F901F901895F89443
:1032300098E0E0E0F6E0522F5095662374F4348174
:10324000322B348335E03A95F1F7348135233483DA
:1032500032E03A95F1F700C00EC03481322B34834E
:1032600032E03A95F1F7000034813523348335E0BC
:103270003A95F1F70000660F9150F9F698E0E0E01A
:10328000F6E0522F5095882374F43481322B348326
:1032900035E03A95F1F734813523348332E03A95BD
:1032A000F1F700C00EC03481322B348332E03A95FE
:1032B000F1F7000034813523348335E03A95F1F796
:1032C0000000880F9150F9F688E0E0E0F6E0322F38
:1032D0003095442374F49481922B948395E09A95CD
:1032E000F1F794819323948392E09A95F1F700C0CB
:1032F0000EC09481922B948392E09A95F1F700008E
:1033000094819323948395E09A95F1F70000440FFC
:103310008150F9F678940895CF93DF939C01DB01F7
:10332000E0ECF1E097859923ECF3CCECD1E09881C7
:1033300098609883B901705FCD01B3D28881877F8F
:103340008883DF91CF910895E0ECF1E09785992390
:10335000ECF3ACECB1E09C9198609C93E82FF0E02A
:10336000F05F60838C91877F8C9308950F931F93F8
:10337000CF938C01E0ECF1E087858823ECF3C0E08B
:10338000F80161918F018C2FDFDFCF5FC032C1F771
:10339000CF911F910F9108951F93CF93DF93E0EC8E
:1033A000F1E097859923ECF320E2829FC00111247C
:1033B000C0ECD1E01A82998388831A8585E38A87D5
:1033C00061E08BEC91E005D01A87DF91CF911F91DE
:1033D00008951BBEFC0128ED24BF608308950CD026
:1033E00027C11FD140F016D130F021F45F3F19F012
:1033F000DFC0511168C10BC12CD198F39923C9F3D7
:103400005523B1F3951B550BBB27AA2762177307EA
:10341000840738F09F5F5F4F220F331F441FAA1F9E
:10342000A9F333D00E2E3AF0E0E830D0915050405E
:10343000E695001CCAF729D0FE2F27D0660F771F0C
:10344000881FBB1F261737074807AB07B0E809F0EE
:10345000BB0B802DBF01FF2793585F4F2AF09E3F83
:10346000510568F0A5C02FC15F3FECF3983EDCF337
:10347000869577956795B795F7959F5FC9F7880FFC
:10348000911D9695879597F90895E1E0660F771F4E
:10349000881FBB1F621773078407BA0720F0621BDF
:1034A000730B840BBA0BEE1F88F7E095089504D0D8
:1034B0006894B11108C10895D4D088F09F5790F056
:1034C000B92F9927B751A0F0D1F0660F771F881F49
:1034D000991F1AF0BA95C9F712C0B13081F0F2D035
:1034E000B1E00895EFC0672F782F8827B85F39F0D3
:1034F000B93FCCF3869577956795B395D9F73EF4A8
:1035000090958095709561957F4F8F4F9F4F08954F
:10351000E89409C097FB3EF490958095709561956D
:103520007F4F8F4F9F4F9923A9F0F92F96E9BB2723
:103530009395F695879577956795B795F111F8CF9F
:10354000FAF4BB0F11F460FF1BC06F5F7F4F8F4F0A
:103550009F4F16C0882311F096E911C0772321F000
:103560009EE8872F762F05C0662371F096E8862F98
:1035700070E060E02AF09A95660F771F881FDAF7EF
:10358000880F9695879597F9089585D080F09F3795
:1035900040F491110EF097C060E070E080E89FEB7E
:1035A000089526F41B16611D711D811D07C021C0E1
:1035B00097F99F6780E870E060E00895882371F4D0
:1035C000772321F09850872B762F07C0662311F4BC
:1035D00099270DC09051862B70E060E02AF09A95F3
:1035E000660F771F881FDAF7880F9695879597F9EA
:1035F00008959F3F31F0915020F487957795679516
:10360000B795880F911D9695879597F908959FEF27
:1036100080EC089500240A94161617061806090669
:10362000089500240A941216130614060506089538
:10363000092E0394000C11F4882352F0BB0F40F4C0
:10364000BF2B11F460FF04C06F5F7F4F8F4F9F4F00
:10365000089557FD9058440F551F59F05F3F71F082
:103660004795880F97FB991F61F09F3F79F08795E9
:103670000895121613061406551FF2CF4695F1DF72
:1036800008C0161617061806991FF1CF8695710502
:10369000610508940895E5DFA0F0BEE7B91788F446
:1036A000BB279F3860F41616B11D672F782F882727
:1036B000985FF7CF869577956795B11D9395963965
:1036C000C8F30895E894BB2766277727CB0197F9BD
:1036D00008950BD0ADCF9EDF28F0A3DF18F095231F
:1036E00009F066CF94CF1124EECFB3DFA0F3959FFE
:1036F000D1F3950F50E0551F629FF001729FBB27D9
:10370000F00DB11D639FAA27F00DB11DAA1F649F84
:103710006627B00DA11D661F829F2227B00DA11D37
:10372000621F739FB00DA11D621F839FA00D611DBD
:10373000221F749F3327A00D611D231F849F600DDE
:10374000211D822F762F6A2F11249F5750408AF017
:10375000E1F088234AF0EE0FFF1FBB1F661F771FA3
:10376000881F91505040A9F79E3F510570F020CF1F
:10377000AACF5F3FECF3983EDCF38695779567958B
:10378000B795F795E7959F5FC1F7FE2B880F911DC1
:103790009695879597F90895AA1BBB1B51E107C021
:1037A000AA1FBB1FA617B70710F0A61BB70B881FD1
:1037B000991F5A95A9F780959095BC01CD01089560
:1037C00097FB072E16F4009406D077FD08D0E4DFAF
:1037D00007FC05D03EF4909581959F4F0895709514
:1037E00061957F4F0895EE0FFF1F0024001C0BBE54
:1037F0000790F691E02D09948F929F92AF92BF921D
:10380000CF92DF92EF92FF92CF93DF93EC0168812A
:1038100079818A819B81611571058105910521F46A
:1038200064E279ED8BE597E02DE133EF41E050E084
:1038300025D349015A019B01AC01A7EAB1E43AD36F
:103840006B017C01ACEEB4EFA50194013FD3DC0128
:10385000CB018C0D9D1DAE1DBF1DB7FF03C0019791
:10386000A109B04888839983AA83BB839F77DF919E
:10387000CF91FF90EF90DF90CF90BF90AF909F904F
:103880008F900895B9CF80E090E2B6CFA0E0B0E08D
:103890008093002090930120A0930220B0930320F6
:1038A0000895FB01DC0102C001900D92415050408F
:1038B000D8F70895FB01DC0101900D920020E1F79B
:1038C00008950F931F93CF93DF93CDB7DEB72E9755
:1038D000CDBFDEBF0D891E898F89988D26E02C8390
:1038E00009831A8397FF02C080E090E801978D83D7
:1038F0009E83AE01455E5F4F698D7A8DCE01019644
:1039000016D04D815E8157FD0AC02F813885421740
:1039100053070CF49A01F801E20FF31F10822E9660
:10392000CDBFDEBFDF91CF911F910F9108952F92F0
:103930003F924F925F926F927F928F929F92AF923F
:10394000BF92CF92DF92EF92FF920F931F93CF938C
:10395000DF93CDB7DEB72B97CDBFDEBF6C017B0108
:103960008A01FC0116821782838181FFBFC1CE01CB
:1039700001963C01F6019381F70193FD859193FF38
:1039800081917F01882309F4ADC1853239F493FD1B
:10399000859193FF81917F01853221F4B60190E0FA
:1039A000D3D1E8CF912C212C312CFFE1F315D8F0A5
:1039B0008B3279F038F4803279F08332A1F4232D00
:1039C00020611DC08D3261F0803369F4232D2160A8
:1039D00016C0832D8260382EE32DE4603E2E2AC06F
:1039E000F32DF8601DC037FC2DC020ED280F2A30C4
:1039F00040F08E32B9F436FC75C1232D2064322E8E
:103A000019C036FE06C08AE0989E200D1124922E21
:103A100011C0EAE02E9E200D1124222EF32DF0621B
:103A20003F2E08C08C3621F4832D8068382E02C0CA
:103A3000883641F4F70193FD859193FF81917F01D1
:103A40008111B3CF982F9F7D9554933028F40C5F4C
:103A50001F4F9FE399830DC0833631F0833771F098
:103A6000833509F055C020C0F801808189830E5F3D
:103A70001F4F88248394912C530112C02801F2E037
:103A80004F0E511CF801A080B18036FE03C0692D95
:103A900070E002C06FEF7FEFC5014BD14C01820196
:103AA000F32DFF773F2E15C0280122E0420E511C56
:103AB000F801A080B18036FE03C0692D70E002C01D
:103AC0006FEF7FEFC5012AD14C01F32DF0683F2E37
:103AD000820133FC19C0822D90E088169906A0F46B
:103AE000B60180E290E030D12A94F5CFF50137FCA1
:103AF000859137FE81915F01B60190E025D12110BB
:103B00002A9421E0821A91088114910479F7E1C086
:103B1000843611F0893639F5F80137FE07C0608127
:103B20007181828193810C5F1F4F08C06081718118
:103B3000072E000C880B990B0E5F1F4FF32DFF769D
:103B40003F2E97FF09C090958095709561957F4FA6
:103B50008F4F9F4FF0683F2E2AE030E0A30130D115
:103B6000882E861844C0853731F4232D2F7EB22E3F
:103B70002AE030E025C0932D997FB92E8F36C1F011
:103B800018F4883579F0AEC0803719F0883721F005
:103B9000A9C0E92FE061BE2EB4FE0DC0FB2DF4607C
:103BA000BF2E09C034FE0AC0292F2660B22E06C0DF
:103BB00028E030E005C020E130E002C020E132E042
:103BC000F801B7FE07C060817181828193810C5F2B
:103BD0001F4F06C06081718180E090E00E5F1F4F33
:103BE000A301EED0882E8618FB2DFF773F2E36FEE0
:103BF0000DC0232D2E7FA22E891458F434FE0BC045
:103C000032FC09C0832D8E7EA82E05C0B82CA32CB3
:103C100003C0B82C01C0B92CA4FE0FC0FE01E80DF2
:103C2000F11D8081803321F49A2D997EA92E09C03F
:103C3000A2FE06C0B394B39404C08A2D867809F01E
:103C4000B394A3FC10C0A0FE06C0B21480F4280CEC
:103C5000922C9B180DC0B21458F4B60180E290E08B
:103C600073D0B394F8CFB21418F42B1802C0982C68
:103C7000212CA4FE0FC0B60180E390E065D0A2FE27
:103C800016C0A1FC03C088E790E002C088E590E080
:103C9000B6010CC08A2D867851F0A1FE02C08BE2DD
:103CA00001C080E2A7FC8DE2B60190E04DD08914FE
:103CB00030F4B60180E390E047D09A94F8CF8A942C
:103CC000F301E80DF11D8081B60190E03DD0811037
:103CD000F6CF222009F44ECEB60180E290E034D037
:103CE0002A94F7CFF6018681978102C08FEF9FEF6C
:103CF0002B96CDBFDEBFDF91CF911F910F91FF902B
:103D0000EF90DF90CF90BF90AF909F908F907F907B
:103D10006F905F904F903F902F900895FC01059019
:103D2000615070400110D8F7809590958E0F9F1FBD
:103D30000895FC016150704001900110D8F7809502
:103D400090958E0F9F1F08950F931F93CF93DF932E
:103D5000FB01238121FD03C08FEF9FEF2CC022FFC9
:103D600016C046815781248135814217530744F498
:103D7000A081B1819D012F5F3F4F208331838C93C0
:103D8000268137812F5F3F4F2683378314C08B01F5
:103D9000EC01FB010084F185E02D0995892BE1F60A
:103DA000D80116968D919C911797019616968D9332
:103DB0009C931797CE01DF91CF911F910F9108959A
:103DC000FA01AA27283051F1203181F1E8946F934C
:103DD0006E7F6E5F7F4F8F4F9F4FAF4FB1E03ED0F2
:103DE000B4E03CD0670F781F891F9A1FA11D680F90
:103DF000791F8A1F911DA11D6A0F711D811D911DC3
:103E0000A11D20D009F468943F912AE0269F112437
:103E10003019305D3193DEF6CF010895462F47709B
:103E2000405D4193B3E00FD0C9F7F6CF462F4F70F6
:103E3000405D4A3318F0495D31FD4052419302D054
:103E4000A9F7EACFB4E0A6959795879577956795FA
:103E5000BA95C9F700976105710508959B01AC01FA
:103E60000A2E06945795479537952795BA95C9F721
:103E7000620F731F841F951FA01D0895052E97FBC9
:103E800016F400940FD057FD05D024D007FC02D0C3
:103E900046F408C050954095309521953F4F4F4FBF
:103EA0005F4F089590958095709561957F4F8F4FE6
:103EB0009F4F089531D0A59F900DB49F900DA49F62
:103EC000800D911D11240895B7FFF4CFF3DF821BFD
:103ED000930B0895A1E21A2EAA1BBB1BFD010DC076
:103EE000AA1FBB1FEE1FFF1FA217B307E407F507AA
:103EF00020F0A21BB30BE40BF50B661F771F881F86
:103F0000991F1A9469F760957095809590959B011B
:103F1000AC01BD01CF010895A29FB001B39FC001C4
:103F2000A39F700D811D1124911DB29F700D811DE5
:0A3F30001124911D0895F894FFCFAD
:103F3A000100000000010000000000000000000075
:103F4A000000000001000000000000000001010163
:103F5A000000000000000101010101000000000250
:103F6A000101010101020000020201010101010235
:103F7A00020002020101010101020202060001001F
:103F8A000000000000000000000100000000000026
:103F9A000000020001000000000000020000000111
:103FAA000000000002000000000001000002000002
:103FBA0000000000000102000000000000000002F2
:103FCA0001000000000000000200000100000000E3
:103FDA0000020000000001000000020000000000D2
:103FEA00000100020000000000000000010A0001B8
:103FFA000202020202020202020202020202010298
:10400A000202020202020202010102020202020288
:10401A000201010101020202020201010101010180
:10402A000202010101010101010101020101010173
:10403A000101010101010600010000000000000069
:10404A000000000100000000000000000001010063
:10405A000000000000000001010100000000000053
:10406A00000101010100000000000001010101013D
:10407A00000000000001010101010100000000012F
:10408A000101010101020000000101010101010217
:10409A000200000101010101010202020001010105
:1040AA00010101020202020A0001000000000000F0
:1040BA0000000000020000000000000000000102F1
:1040CA0000000000000000000101020000000000E2
:1040DA0000000101010200000000000001010101CD
:1040EA0002000000000001010101010200000000BD
:1040FA0001010101010102000000010101010101A8
:10410A000102000001010101010101010200010196
:10411A0001010101010101020A0001000000000081
:10412A000000000000010000000000000000010182
:10413A00000002000002000000010002000000016D
:10414A000200000002000101000000010200010259
:10415A000200020001020000010002010001010246
:10416A000200020102010001010202000201010132
:10417A000102020200000200000201020002020122
:10418A000201020102010201020A0001000000020A
:10419A000202020000000101010000000001010109
:1041AA0001000102020202020202020202010101EC
:1041BA0001010101010101010001020202020202E0
:1041CA0002020202010202020202020202020101C8
:1041DA0002020202020202020101010202020202B8
:1041EA0002020101010102020202020201010101AD
:1041FA00010202020202010101010101020202029C
:10420A000101010101010102020201010101010191
:10421A000101020201010101010101010102010181
:10422A0001010101010101010A000100000501006B
:10423A0080FF000000FF000050010000FF0A00009C
:10424A00FF00005A0400FF00000014FF00000001F4
:10425A00FFFFFF000000FF0100460200FF00000010
:10426A0000FF01000501FFFF00000000FF02000A35
:10427A00010000FFFF0000FF0200460100FFFF00EF
:10428A000000FF04005F04FF000000FF00FF0400BD
:10429A001401FFFFFF0000FFFF04000501FF0000FB
:1042AA0000FF00FF06003C01FFFF000000FFFF06C1
:1042BA00001E01FF8000FF0000FF03004601FFFF10
:1042CA00FF0000FFFF03003C01FF000000FF00FFAA
:1042DA0000026401FF00000000FFFF01025001001C
:1042EA0000FF000000FF03025501FF000000FF006D
:1042FA00FF030264040000FF00FF00FF07026401DD
:10430A00FF00FF00FFFFFF01011E1E1E1E1E1E32C0
:10431A003232323232FFFFFFFFFFFFFF320101CBA1
:10432A002BDC2BFFFF000001010101010203040540
:10433A0007080A0B0C0D0D0C0B0A090706050506E2
:10434A0007090C0F1216191B1C1C1B1A1714110E25
:10435A000B09090A0C1014191E23272A2C2C2A27A8
:10436A00231E1914100E0D0E11161C232A31363A6B
:10437A003C3C39352F28211B15121112161C242DED
:10438A00363E454A4C4B48423B3229211B161517EB
:10439A001C232C37424C545A5C5B5750473C3127FC
:1043AA00201B191B212935414E5963696C6B665DC7
:1043BA005246392E251F1D1F26303D4B59677279EB
:1043CA007C7B756B5E5042342A2321242B3645555B
:1043DA00657480898C8A83786A5A4A3B2F282528F3
:1043EA00303D4D5F71828F989C9A928676645241D5
:1043FA00342C292C354355697D8F9EA8ACAAA193EC
:10440A00826E5A4839302D313A4A5D73899DADB86A
:10441A00BCB9B0A18E78624E3F3431354050657DCB
:10442A0095BCC7DCFF00002033404A525A60656AD7
:10443A006E7276797D808285888A8C8E9092949627
:10444A0098999B9D9EA0A1A2A4A5A6A7A9AAABAC38
:10445A00ADAEAFB0B1B2B3B4B5B6B7B8B8B9BABB0E
:10446A00BCBCBDBEBFBFC0C1C2C2C3C4C4C5C6C630
:10447A00C7C7C8C9C9CACACBCBCCCDCDCECECFCF80
:10448A00D0D0D1D1D2D2D3D3D4D4D4D5D5D6D6D7ED
:10449A00D7D8D8D8D9D9DADADADBDBDCDCDCDDDD6F
:1044AA00DEDEDEDFDFDFE0E0E0E1E1E1E2E2E2E3FF
:1044BA00E3E3E4E4E4E5E5E5E6E6E6E7E7E7E8E89A
:1044CA00E8E8E9E9E9EAEAEAEAEBEBEBECECECEC3E
:1044DA00EDEDEDEDEEEEEEEFEFEFEFF0F0F0F0F1E7
:1044EA00F1F1F1F2F2F2F2F3F3F3F3F3F4F4F4F498
:1044FA00F5F5F5F5F5F6F6F6F6F7F7F7F7F7F8F84E
:10450A00F8F8F9F9F9F9F9FAFAFAFAFAFBFBFBFB06
:10451A00FBFCFCFCFCFCFCFDFDFDFDFDFEFEFEFEC5
:10452A00FEFFFFFFFF000000000000000000000087
:10453A000000000000000000000000000000000071
:10454A000000000000000000000000000000000061
:10455A00000000000000000000000001010101014C
:10456A00010101010101010101010101020202022D
:10457A000202020202020303030303030304040404
:10458A0004040405050505050606060607070708C7
:10459A000808080909090A0A0A0B0B0C0C0C0D0D6C
:1045AA000E0E0F0F101011111212131314141516E8
:1045BA0016171818191A1A1B1C1D1D1E1F20212236
:1045CA0022232425262728292A2B2C2D2E2F313247
:1045DA003334353738393B3C3D3F40414344464705
:1045EA00494A4C4E4F51535456585A5C5D5F616369
:1045FA006567696B6D70727476787B7D7F8284875C
:10460A00898C8E919396999B9EA1A4A7AAADB0B3CB
:10461A00B6B9BCBFC2C6C9CCD0D3D7DADEE1E5E9A8
:10462A00EDF5F9FFFF000102030405060708090A70
:10463A000B0C0D0E0F101112131415161718191A48
:10464A001B1C1D1E1F202122232425262728292A38
:10465A002B2C2D2E2F303132333435363738393A28
:10466A003B3C3D3E3F404142434445464748494A18
:10467A004B4C4D4E4F505152535455565758595A08
:10468A005B5C5D5E5F606162636465666768696AF8
:10469A006B6C6D6E6F707172737475767778797AE8
:1046AA007B7C7D7E7F808182838485868788898AD8
:1046BA008B8C8D8E8F909192939495969798999AC8
:1046CA009B9C9D9E9FA0A1A2A3A4A5A6A7A8A9AAB8
:1046DA00ABACADAEAFB0B1B2B3B4B5B6B7B8B9BAA8
:1046EA00BBBCBDBEBFC0C1C2C3C4C5C6C7C8C9CA98
:1046FA00CBCCCDCECFD0D1D2D3D4D5D6D7D8D9DA88
:10470A00DBDCDDDEDFE0E1E2E3E4E5E6E7E8E9EA77
:10471A00EBECEDEEEFF0F1F2F3F4F5F6F7F8F9FA67
:10472A00FBFCFDFEFF496E69742073746172742E7E
:10473A002E2E004C4954444C4D31202D2076332ED8
:10474A003000444D582043683A2025303364004DE8
:10475A006F6465202020202020202000444D58200E
:10476A0041646472657373200052656420202031AD
:10477A00202020202000477265656E2031202020ED
:10478A00202000426C756520203120202020200046
:10479A0052656420202032202020202000477265A4
:1047AA00656E2032202020202000426C7565202072
:1047BA003220202020200052656C656173652074C8
:1047CA00696D6500416E696D6174696F6E202020A4
:1047DA0000416E696D207472696767657200416E87
:1047EA00696D20637572766520200044696D6D6578
:1047FA007220202020202000496E70757420736575
:10480A006E73203100496E7075742073656E732063
:10481A003200496E7075742073656E7320330049D7
:10482A006E7075742073656E73203400496E7075EE
:10483A00742073656E73203500496E707574207329
:10484A00656E732036004E62206C69676874732047
:10485A002031004E62206C69676874732020320030
:10486A004E62206C6967687473202033004E6220A0
:10487A006C6967687473202034004E62206C696723
:10488A00687473202035004E62206C6967687473FF
:10489A0020203600456E636C6F2E204C6967687461
:1048AA000025303164004C4344204C696768742009
:1048BA00202000416E696D6174696F6E2031207429
:1048CA006F203300253033642020253033642020C4
:1048DA002530336400416E696D6174696F6E2034EE
:1048EA0020746F203600436F6C6F727320636F6E93
:1048FA006669672E2E2E00416E696D20636F6E66A3
:10490A0069672E2E2E20200047656E6572616C2025
:10491A0073657475702E2E2E005573657220707231
:10492A0065736574732020202000466163746F727A
:10493A0079207072657365747320004261636B2E0F
:10494A002E2E202020200055736520757365722055
:10495A007365742E2E2E005361766520707265730E
:10496A0065742E2E2E200053656C65637420662EA6
:10497A0020707265736574005072657365742023C4
:10498A00253033640053656C65637420752E20707E
:10499A007265736574006C6F61646564207072651A
:1049AA007365742100656D70747920707265736522
:1049BA007421005361766564207072657365742191
:1049CA00004D616E75616C206D6F646500444D58D1
:1049DA00206D6F6465202020004C696E656172202D
:1049EA0020202020004578706F6E656E7469616CB6
:1049FA00004C6F67617269746D6963200053696E58
:104A0A007573204661646520005472696767657230
:104A1A00202020202020004175746F2073696E6762
:104A2A006C652020004175746F20616C6C20202019
:104A3A0020200052616E646F6D2073696E676C6529
:104A4A000052616E646F6D20616C6C202020004FF3
:104A5A006E2020202020202020202020004F666663
:104A6A00202020202020202020200050756C7365F3
:104A7A00202020202020202020200046696C6C2045
:104A8A00202020202020202020200043656E7465ED
:104A9A00722066696C6C20202020004551204D6FE1
:104AAA0076696E6720202020202000455120466923
:104ABA007865642020202020202000446F75626CD5
:104ACA006520506F696E742020200043656E7465FE
:104ADA007220455120466978656400436F6E73748D
:104AEA00656C6C6174696F6E20200050756C73651B
:104AFA002063656E746572202020003132332020D5
:104B0A0020202020202020202020200020202020BB
:104B1A002020202020202020202020200021002DBD
:104B2A00012E012F013001310132013301340135E7
:104B3A000136013701380139013A013B013C013D97
:104B4A00013E013F0140011F001E0021002100C952
:104B5A0000CA00CB00CC00CD00CE00CF00D000D1DF
:104B6A0000D200D300D400D500D600D700D800D98F
:104B7A0000DA00DB00DC000E000F0010001100124A
:104B8A000013001400150016001700180019001B66
:104B9A00001A0021000A000D000C000B002100037E
:104BAA0000040005000600070008000900210000B3
:104BBA0000010002006700680069006B006A0000DB
:00000001FF
