:1000000051C300006EC300000C94350A6AC300009F
:100010000C94D61966C3000064C3000062C30000DC
:1000200060C300005EC300005CC300005AC3000050
:1000300058C3000056C300000C945E0F52C300006A
:1000400050C300004EC300004CC300004AC3000070
:100050000C94490846C3000044C3000042C300009A
:1000600040C300003EC300003CC300003AC3000090
:1000700038C3000036C3000034C3000032C30000A0
:1000800030C300002EC300002CC300002AC30000B0
:1000900028C3000026C3000024C3000022C30000C0
:1000A00020C300001EC300001CC300001AC30000D0
:1000B00018C3000016C3000014C300000C944817B6
:1000C00010C300000EC300000CC300000AC30000F0
:1000D00008C300000C94E30C04C3000002C300003A
:1000E00000C30000FEC20000FCC20000FAC2000013
:1000F000F8C20000F6C20000F4C20000F2C2000024
:100100000C94181AEEC20000ECC20000EAC2000013
:10011000E8C20000E6C20000E4C20000E2C2000043
:10012000E0C20000DEC20000DCC20000DAC2000053
:10013000D8C200000C942909D4C20000D2C2000029
:10014000D0C20000CEC20000CCC200000C94620BF2
:10015000C8C20000C6C20000C4C20000C2C2000083
:100160000C94FA0CBEC20000BCC20000BAC200006F
:10017000B8C20000B6C20000B4C20000B2C20000A3
:10018000B0C20000AEC20000ACC20000AAC20000B3
:10019000A8C20000A6C20000A4C20000A2C20000C3
:1001A000A0C200009EC200009CC200009AC20000D3
:1001B00098C2000096C2000094C2000092C20000E3
:1001C00090C200008EC200008CC200008AC20000F3
:1001D00088C2000086C2000084C2000082C2000003
:1001E00080C200007EC200007CC200007AC2000013
:1001F00078C2000076C2000074C200007A037C035B
:100200007E038003820384038603880327055D053C
:100210006F0581059305A505B70539054B05D90976
:1002200090099009D309D30988098C09C90F0210D4
:100230001D103E105F108010A110C210E31080113D
:10024000041125114A116511A111C211E311041203
:100250002512461267128812A912CA12EB120C1349
:100260004E132D136F139A1379146514D614291491
:100270003D145114D614D614D614D614D614D6144C
:10028000D614D614D614D614D614D614D614D6141E
:10029000D614D614D614D614D614D614D614D6140E
:1002A000D614D614D614D614D614D614D614D614FE
:1002B000D614D614D614D614D614D614D614D614EE
:1002C000D614D614D614D614D614D614D614D614DE
:1002D000D614D614D614D614D614D614D614D614CE
:1002E000D614D614D614D614D614D614D614D614BE
:1002F000D614D614D614D614D614C513D913ED13A8
:1003000001141514D614D614D614D614D614D61433
:10031000D614D614D614D614D614D614D614D6148D
:10032000D614D614D614D614D614D614D614D6147D
:10033000D614D614D614D614D614D614D614D6146D
:10034000D614D614D614D614D614D614D614D6145D
:10035000D614D614D614D614D614D614D614D6144D
:10036000D614D614D614D614D614D614D614D6143D
:10037000D614D614D614D614D614D614D614D6142D
:10038000D614D614D614D614D614D614D614D6141D
:10039000D614D614D614D614D614D614D614D6140D
:1003A000D614D614D614D614D614D614D614D614FD
:1003B000D614D614D614D614D614D614D6148D1436
:1003C0008D148D148D148D148D148D148D148D1425
:1003D0008D148D148D148D148D148D148D148D1415
:1003E0008D148D148D14D614D614D614D614D61498
:1003F000D614D614D614D614D614D614D614D614AD
:10040000D614D614D614D614D614D614D614D6149C
:10041000D614D614D614D614D614D614D614D6148C
:10042000D614D614D614D614D614D614D614D6147C
:10043000D614D614D614D614D614D614D614D6146C
:10044000D614D614D614D614D614D614D614D6145C
:10045000D614D614D614D614D614D614D614D6144C
:10046000D614D614D614D614D614D614D614D6143C
:10047000D614D614D614D614D614D614D614D6142C
:10048000D614D614D614B214B214B214B214B214D0
:10049000B214B214B214B214B214B214B214B2142C
:1004A000B214B214B214B214B214B214B2148E173D
:1004B000CE17DF17F91713182D18471861188B1866
:1004C0007B18781988199819A618B718C818D91858
:1004D000EA18FB180C191E1930194219541966191B
:1004E000B7179E170000000048E17A3F14AEE73FBF
:1004F000EC51184014AE274000002040E17A04403F
:10050000EC51B83F5C8F423FAE47613E00000000B7
:10051000713D8A3E3333933F1F852B4048E19A401B
:100520000000F0401F85274100005841713D824185
:10053000EC5194410000A04185EBA34133339F412E
:100540007B149241295C7B410000484114AE0F416D
:1005500085EBB14048E12A408FC2353F00000000E2
:100560005C8F423F0AD743409A99D94000003C41F2
:1005700000008C41E17ABC41C3F5EA41E17A0942CD
:10058000333318420000204200002042C3F51742D6
:100590005C8F08426666E6410000B441713D7E41D1
:1005A0003D0A1B415C8F92409A99993F00000000E0
:1005B0000000A03F3D0A9F4052B82E41AE479541F2
:1005C0000000DC419A991242000035420AD751429C
:1005D000713D6642000070423D0A6E42EC5160423D
:1005E0007B1448425C8F2742000002426666B64197
:1005F000C3F55C4114AECF40EC51D83F0000000081
:1006000052B8DE3FF628DC40CDCC70415C8FCC4147
:1006100000001642C3F546421F8574429A198D4266
:10062000D7239A420000A0423D0A9E420A579442B4
:10063000AEC7834285EB5B4200002A4214AEED4117
:10064000A4708F41666606411F850B4000000000C4
:1006500052B80E40D7A30C41295C994185EB014269
:1006600000003E42EC517B421F059A42AE47B14228
:10067000F628C1420000C842592A652A712A7D2AFB
:10068000892A952AA12AAF2ABD2ACB2AD92AE72A64
:10069000F52A032B132B232B332B432B532B632BA9
:1006A000732B832B11241FBECFEFCDBFDFE2DEBF44
:1006B0001CE2A0E0B0E2EAEAF4E400E00BBF02C012
:1006C00007900D92A835B107D9F72FE2A8E5BCE253
:1006D00001C01D92A233B207E1F70E94E20D0C9413
:1006E00053228ECC88309105A8F4FC01E250FF4FD4
:1006F0000C94971E40E20FC040E10DC048E00BC0D3
:1007000044E009C042E007C041E005C040E403C046
:1007100040E801C040E0E0EAF6E02581242B258393
:100720002091480630E0082E02C0359527950A949E
:10073000E2F720FF15C021E030E002C0220F331F96
:100740008A95E2F7E0E4F6E089EF90E00197F1F7AF
:1007500000C00000808590E082239323892BA1F7BD
:10076000E0EAF6E08681482B468308952F923F9277
:100770004F925F926F927F928F929F92AF92BF92B1
:10078000CF92DF92EF92FF920F931F93CF93DF935D
:10079000CDB7DEB7E597CDBFDEBF5B01BC01990FDA
:1007A000880B990B0E94421D2AE939ED43EA53E474
:1007B0000E94A71C1B012C010E947D1D0E94141D7C
:1007C0008091D02E813001F130F08230B1F1833050
:1007D00009F44CC06CC0862F90E0FC01EE0FFF1FA7
:1007E000EE0FFF1FE75DF94D60807180828093807E
:1007F000880F991F880F991FFC01E35DF94DC08098
:10080000D180E280F3805BC0862F90E0FC01EE0F88
:10081000FF1FEE0FFF1FEB56FB4D60807180828043
:100820009380880F991F880F991FFC01E756FB4D95
:10083000C080D180E280F38042C0862F90E0FC012E
:10084000EE0FFF1FEE0FFF1FEF5FFC4D608071800A
:1008500082809380880F991F880F991FFC01EB5F9E
:10086000FC4DC080D180E280F38029C0862F90E0CB
:10087000FC01EE0FFF1FEE0FFF1FEC51FB4F059128
:10088000159125913491602E712E822E932EFC01AC
:10089000EE0FFF1FEE0FFF1FE851FB4F8591959163
:1008A000A591B491C82ED92EEA2EFB2E08C0C12CDA
:1008B000D12CE12CF12C612C712C812C912C80916C
:1008C000D12E863009F447C0853009F448C070E065
:1008D00080E090E00E94401D9B01AC01C201B1018B
:1008E0000E94421C0E940F1D24E6269F8001279F24
:1008F000100D112464E670E0601B710B072E000CD4
:10090000880B990B0E94421D262D372D482D592DFD
:100910000E94211E2B013C01B801110F880B990B7D
:100920000E94421D2C2D3D2D4E2D5F2D0E94211E1B
:100930009B01AC01C301B2010E94431C20E030E0E6
:1009400048EC52E40E94A71C20E030E048EC52E45E
:100950000E94A71C08C060E070E0CB0104C060E00A
:1009600070E080E89FE323E0A216B10411F14CF49B
:10097000A1E0AA16B10471F0B2E0AB16B10471F0B7
:1009800051C0E4E0AE16B10419F1F5E0AF16B104C0
:1009900091F148C02091EA2230E046C02091EA223D
:1009A0003091E922432F50E0DA01A20FB11D9D01E1
:1009B0003BC02091EA223091E922432F50E0420FC0
:1009C000511D2091E822FA01E20FF11D9F012CC078
:1009D0002091EA223091E922432F50E0420F511D2D
:1009E0002091E822420F511D2091E722DA01A20F47
:1009F000B11D9D0119C02091EA223091E922432FB7
:100A000050E0420F511D2091E822420F511D2091CC
:100A1000E722420F511D2091E622FA01E20FF11D5B
:100A20009F0102C020E030E08901000F111F020F7A
:100A3000131FE091F922CE2ED12CF9E0CF16D1046C
:100A400008F0A7C0F601EA5FFE4F0C94971E2091B4
:100A50006B2230916C2240916D2250916E22A091B8
:100A60006F22AF8B0F2EF7E5CF2EF2E2DF2EF02DA7
:100A700097C02091392230913A2240913B225091E7
:100A80003C22B0913D22BF8B0F2EFBECCF2EF1E22A
:100A9000DF2EF02D85C020915222309153224091BB
:100AA000542250915522E0915622EF8B0F2EFEE3F7
:100AB000CF2EF2E2DF2EF02D73C02091DE22309196
:100AC000DF224091E0225091E122F091E222FF8B5F
:100AD0000F2EF0E7CF2EF2E2DF2EF02D61C0209135
:100AE000E0203091E1204091E2205091E320A0915C
:100AF000E420AF8B0F2EFAE9CF2EF0E2DF2EF02D9F
:100B00004FC02091C6213091C7214091C8215091FA
:100B1000C921B091CA21BF8B0F2EF8E5CF2EF1E28B
:100B2000DF2EF02D3DC02091532130915421409172
:100B3000552150915621E0915721EF8B0F2EF5EE64
:100B4000CF2EF0E2DF2EF02D2BC02091952030919A
:100B500096204091972050919820F0919920FF8BFA
:100B60000F2EFFE4CF2EF0E2DF2EF02D19C02091E2
:100B70004A2030914B2040914C2050914D20A09123
:100B80004E20AF8B0F2EF4E0CF2EF0E2DF2EF02DB3
:100B900007C0C12CD12C1F8A20E030E040E85FE381
:100BA0000E94211E6B8B7C8B8D8B9E8B0E947D1DEA
:100BB0000E940F1D2B013C01072E000C880B990B86
:100BC0000E94421D9B01AC016B897C898D899E89A5
:100BD0000E94421C20E030E048EC52E40E94211EBA
:100BE0000E940F1D1B01C201880F991F3201660C64
:100BF000771C660C771C660C771C860D971DAC0164
:100C0000465F5F4F19821A822091F72230E02B83D2
:100C10003C832091F42230E02D833E831F8218868E
:100C20002091F62230E029873A872091F32230E0A4
:100C30002B873C871D861E862091F52230E02F876A
:100C4000388B2091F22230E0298B3A8B2091EA22D6
:100C5000E22FF0E0EE8FFF8F2091E922622F70E00B
:100C600068A379A32091E822A22FB0E0AAA3BBA396
:100C70002091E722E22FF0E0ECA3FDA32091E622F1
:100C8000622F70E06EA37FA32091E522A22FB0E037
:100C9000A8A7B9A76090F122712C0F58134DE12C31
:100CA000F12CB8A5BAA7E9A5EBA7FEA1FCA72FA137
:100CB0002DA73CA13EA76DA16FA778A178ABA9A1F4
:100CC000A9ABBE8DBAABEF8DEBABFAA1FCAB2BA100
:100CD0002DABB601680F791F688F798FC601840F1D
:100CE000951F8A8F9B8F0F2EF4E64F2E512CF02DDF
:100CF000D201A219B309AC8FBD8F2DC1B7010F2C42
:100D0000000C880B990B0E94421D6B8B7C8B8D8B8A
:100D10009E8BB2E0AB16B104C9F044F4A114B10447
:100D200079F0F1E0AF16B104E9F40DC024E0A216A9
:100D3000B10491F074F065E0A616B10499F40FC007
:100D40006AA97BA911C068A979A90EC06CA97DA95F
:100D50000BC06EA57FA508C06CA57DA505C06AA5C2
:100D60007BA502C060E070E0072E000C880B990B99
:100D70000E94421D9B01AC0160E070E080E191E4C3
:100D80000E94A71C2B893C894D895E890E94211EE7
:100D90000E947D1D0E940F1DE88DF98DE60FF71F43
:100DA0008080082C000C9908EA8DFB8DE60FF71F58
:100DB000A0810A2E000CBB0B7F89713009F078C02E
:100DC000AA0FBB1FCC24C394D12CCC0EDD1ECA0E9F
:100DD000DB1ED6012D913C91229EC001239E900DD9
:100DE000329E900D1124B2010E94841E9B01880C3A
:100DF000991CE1E0F0E0EC0FFD1F8E0E9F1ED40168
:100E00004D915C91EC8DFD8DE49FC001E59F900DAF
:100E1000F49F900D1124B2010E94841EF901E60F87
:100E2000F71FD60116962D913C911797229EC0016F
:100E3000239E900D329E900D1124B2010E94841EBB
:100E40009B01D40116964D915C9117976C8D7D8D09
:100E5000649FC001659F900D749F900D1124B20195
:100E60000E94841E260F371FD6011C964D915C915F
:100E70001D97249EC001259E900D349E900D112437
:100E8000B2010E94841E6B01D4011C964D915C91AD
:100E90001D976C8D7D8D649FC001659F900D749F23
:100EA000900D1124B2010E94841EC60ED71E2BC0C5
:100EB00072E327163104A4F4880C991CA1E0B0E079
:100EC000AC0FBD1FA80DB91DED91FC9111971696A1
:100ED0002D913C9117971C96CD90DC901D9713C0D7
:100EE000AA0FBB1F81E090E08C0F9D1FA80FB91FB8
:100EF000ED91FC91119716962D913C9117971C96A8
:100F0000CD90DC901D97E69DC001E79D900DF69D6C
:100F1000900D1124B2010E94841ED8016C93269D6D
:100F2000C001279D900D369D900D1124B2010E94A5
:100F3000841EF8016183C69CC001C79C900DD69C9D
:100F4000900D1124B2010E94841E6283FFEFEF1AFC
:100F5000FF0A0D5F1F4F22E0A216B104F9F044F41E
:100F6000A114B10479F061E0A616B10489F02FC094
:100F700074E0A716B104F1F0BCF095E0A916B10435
:100F8000F9F025C0AE8DBF8DEA16FB0624F16BC0CB
:100F9000E8A1F9A1EE16FF0654F165C02AA13BA114
:100FA000E216F30684F15FC06CA17DA1E616F70698
:100FB000B4F159C08EA19FA1E816F906E4F153C01F
:100FC000A8A5B9A5EA16FB060CF441C04CC0FF2049
:100FD0000CF494CE48C0B7010F2C000C880B990B71
:100FE0000E94421D6B8B7C8B8D8B9E8BA9CEB70193
:100FF0000F2C000C880B990B0E94421D6B8B7C8B75
:101000008D8B9E8BA0CEB7010F2C000C880B990BFB
:101010000E94421D6B8B7C8B8D8B9E8B97CEB70174
:101020000F2C000C880B990B0E94421D6B8B7C8B44
:101030008D8B9E8B8ECEB7010F2C000C880B990BDD
:101040000E94421D6B8B7C8B8D8B9E8B85CEB70156
:101050000F2C000C880B990B0E94421D6B8B7C8B14
:101060008D8B9E8B7CCEE596CDBFDEBFDF91CF9181
:101070001F910F91FF90EF90DF90CF90BF90AF90B6
:101080009F908F907F906F905F904F903F902F90A8
:1010900008951F920F920FB60F9211240BB60F9264
:1010A000AF92BF92CF92EF92FF921F932F933F93F5
:1010B0004F935F936F937F938F939F93AF93BF9360
:1010C000CF93DF93EF93FF93A12CB12CEE24E39405
:1010D000F12C1A2DC12CE7010A2C02C0CC0FDD1F08
:1010E0000A94E2F7DD2754C02091EA2230E03AC0AA
:1010F0008091EA222091E92230E0280F311D32C090
:101100008091EA222091E92230E0280F311D809160
:10111000E822280F311D26C08091EA222091E92281
:1011200030E0280F311D8091E822280F311D809179
:10113000E722280F311D16C08091EA222091E92272
:1011400030E0280F311D8091E822280F311D809159
:10115000E722280F311D8091E622280F311D02C0A1
:1011600020E030E0F901EE0FFF1F2E0F3F1FCA01F4
:10117000880F991F840F951FF901E80FF91FEF5889
:10118000F34D9E014281618180810E946A1BC3945C
:101190004C2D50E01230D9F028F4112349F01130D1
:1011A00071F034C0143019F1D0F0153041F12EC077
:1011B0008091EA2290E04817590794F227C0809165
:1011C000E92290E0481759070CF48ECF1FC0809198
:1011D000E82290E0481759070CF48ACF17C0809195
:1011E000E72290E0481759070CF48ACF0FC080918E
:1011F000E62290E0481759070CF48ECF07C0809183
:10120000E52290E0481759070CF496CF8FEFA81A03
:10121000B80A86E0A816B10409F05BCFFF91EF9100
:10122000DF91CF91BF91AF919F918F917F916F91FE
:101230005F914F913F912F911F91FF90EF90CF9031
:10124000BF90AF900F900BBE0F900FBE0F901F90EE
:1012500018951F920F920FB60F9211240BB60F9292
:101260002F923F924F925F926F927F928F929F92B6
:10127000AF92BF92CF92DF92EF92FF920F931F93A4
:101280002F933F934F935F936F937F938F939F938E
:10129000AF93BF93CF93DF93EF93FF938091D32EC0
:1012A0008111BEC009E91EE20F2EF4ECEF2EFEE222
:1012B000FF2EF02D0F2EF5E6CF2EFCE2DF2EF02DC7
:1012C000C0E0D0E00F2EF5E66F2E712CF02D0F2E22
:1012D000F4E68F2E912CF02D44244394512C0F2EA4
:1012E000FEEF2F2EFFE73F2EF02D0F2EAA24AA94FB
:1012F000FFE7BF2EF02DE091D12E8E2F90E08730AA
:10130000910508F07CC0FC01E15FFE4F0C94971E34
:10131000D701AD92BC9273C0F701108211826FC0E9
:10132000F60180819181892B11F58091F822940139
:10133000281B3109C901220F331F880F991F880FFD
:10134000991F880F991F820F931FD8012D913C91EF
:101350001197820F931F8D939C9381159D470CF4D9
:101360004EC040825182F8012082318248C0809173
:10137000F822A401481B510966EF64039001659FA0
:10138000300D1124D8018D919C911197820F931FDC
:101390008D939C931197181619068CF11082118267
:1013A0001D921C922CC00E94FB1EF8018083918329
:1013B00026C0F80120813181D7018D919C91119730
:1013C000821793071CF01D921C9213C08091F82283
:1013D000A301481B5109CA010024969587950794DB
:1013E000969587950794982F802DD901A81BB90B46
:1013F000CD01992314F480E090E080839183BE01B5
:10140000F801819191918F01B1D92196F2E0EF0E0F
:10141000F11C22E0C20ED11CC630D10509F06BCF01
:10142000FF91EF91DF91CF91BF91AF919F918F91FC
:101430007F916F915F914F913F912F911F910F91EC
:10144000FF90EF90DF90CF90BF90AF909F908F90E4
:101450007F906F905F904F903F902F900F900BBEBA
:101460000F900FBE0F901F9018951F920F920FB6FE
:101470000F9211240BB60F922F923F924F925F92D0
:101480006F927F928F929F92AF92BF92CF92DF9294
:10149000EF92FF920F931F932F933F934F935F937E
:1014A0006F937F938F939F93AF93BF93CF93DF936C
:1014B000EF93FF93E0E4F6E0C0848091642CC826AB
:1014C00080858093642C0F2EF4ECEF2EFEE2FF2E2D
:1014D000F02D00E010E0D12CC0E4D2E0AA24A394C7
:1014E000B12C22242A940F2EFFE73F2EF02D812CC1
:1014F000912CC601002E02C0959587950A94E2F7BB
:1015000080FFB2C0602F660F660F660F4CE251E09D
:1015100020E030E069A31AA298A1906898A39BA14B
:101520009923E9F38BA18BA38CA19DA128173907DF
:101530000CF49C014150510969F7F70180819181B8
:10154000821793070CF081C08091D12E81117DC04C
:1015500002301105E1F03CF40115110561F0013094
:10156000110579F02CC004301105E9F0B4F0053014
:101570001105F9F024C04091F02250E060E070E0E5
:1015800021C04091EF2250E060E070E01BC040912C
:10159000EE2250E060E070E015C04091ED2250E096
:1015A00060E070E00FC04091EC2250E060E070E03D
:1015B00009C04091EB2250E060E070E003C040E0E1
:1015C00050E0BA01C901330FAA0BBB0B885E9340F0
:1015D000A109B109440F551F661F771F440F551FFE
:1015E000661F771F2A013B01440C551C661C771CA3
:1015F000440C551C661C771C440D551D661D771D3B
:10160000840F951FA61FB71FBB231CF480E090E03A
:10161000DC01880F991FAA1FBB1FAC01BD01440F3D
:10162000551F661F771F440F551F661F771F840FB6
:10163000951FA61FB71F811520E89207A105B105C8
:1016400014F0822D932D808391838091642C9501D9
:10165000002E02C0220F331F0A94E2F72095822346
:101660008093642CC8013ED80F5F1F4F82E0E80EC4
:10167000F11C0830110509F03CCFFF91EF91DF918B
:10168000CF91BF91AF919F918F917F916F915F911A
:101690004F913F912F911F910F91FF90EF90DF900D
:1016A000CF90BF90AF909F908F907F906F905F9002
:1016B0004F903F902F900F900BBE0F900FBE0F904A
:1016C0001F9018951F920F920FB60F9211240BB610
:1016D0000F92EF92FF920F931F932F933F934F938D
:1016E0005F936F937F938F939F93AF93BF93CF93AA
:1016F000DF93EF93FF93E090480608E51CE2C0E01B
:10170000D0E0F12CC7010C2E02C0959587950A9464
:10171000E2F780FF09C0F801808191810196808302
:10172000918303972CF407C0F8011082118203C043
:10173000CE010E94720321960E5F1F4FC830D10563
:1017400009F7FF91EF91DF91CF91BF91AF919F91F9
:101750008F917F916F915F914F913F912F911F9149
:101760000F91FF90EF900F900BBE0F900FBE0F9058
:101770001F901895FC016583138288E0818381E0C6
:1017800084830895FC01848183708130C9F4660FDD
:10179000642B668380E490E002C0880F991F4A950D
:1017A000E2F7248130E028233923232BD1F39481DD
:1017B000892F807194FF05C083E0838382E00895C0
:1017C00081E0089523E0FC01238321E02483089530
:1017D000FC016783948196FFFDCF9481892F8071EE
:1017E00094FF03C083E0838382E0089540E067E2D2
:1017F00080EA94E0C7DF6091A62E80EA94E0E8DFFB
:1018000080EA94E0DFCF08959091A62E9F7080FD2E
:1018100003C09093A62E03C090619093A62E81FFE3
:1018200005C09091A62E90629093A62E82FF05C0CF
:101830009091A62E90649093A62E83FF05C0809170
:10184000A62E80688093A62E0895CF93C82F8091EE
:10185000A62E84608093A62E8C2F859585958595E0
:101860008595D2DFC3DF8091A62E8B7F8093A62E35
:10187000BDDF8091A62E84608093A62E8C2FC4DFBE
:10188000B5DF8091A62E8B7F8093A62EAFDF83EFEE
:1018900091E00197F1F700C00000CF910895909179
:1018A000A62E9C7F9093A62ED0CF08951092A52EA1
:1018B00081E0F5CF0895662311F090E401C090E037
:1018C000699F800D11248068EACF08959091A62E1B
:1018D00091609093A62E8A3031F08C3091F4E6DF3F
:1018E0001092A52E08958091A52E8F5F8093A52E2E
:1018F000823011F41092A52E6091A52E80E0DBCFEE
:101900000895A3CF0895CF93DF93EC0188818823B6
:1019100029F02196DBDF89918111FCCFDF91CF91F6
:1019200008958091A62E88608093A62E5FCF08959B
:101930008091A62E877F8093A62E58CF0895CF93AF
:1019400085EA9EE00197F1F700C00000C3E083E064
:101950005BDF8091A62E84608093A62E47DF809166
:10196000A62E8B7F8093A62E41DF87EE93E0019712
:10197000F1F700C00000C15051F782E045DF8091CF
:10198000A62E84608093A62E31DF8091A62E8B7FB9
:101990008093A62E2BDF89EF90E00197F1F700C02E
:1019A00000008CE27CDF88E07ADF81E078DF83EF83
:1019B00091E00197F1F700C0000086E070DF8CE055
:1019C0006EDFCF9108951F920F920FB60F921124E0
:1019D0008F939F938091E02E9091E12E01968093BA
:1019E000E02E9093E12E9F918F910F900FBE0F905C
:1019F0001F9018951F920F920FB60F9211240BB6DD
:101A00000F922F933F934F935F936F937F938F9397
:101A10009F93AF93BF93EF93FF93E0EAF9E02181A7
:101A2000822F90E08093A92E9093AA2E808190E03F
:101A30008093AD2E9093AE2E8091D22E813009F0FE
:101A4000AEC024FF0EC08091A72E9091A82E0196C3
:101A50008093A72E9093A82E1092AB2E1092AC2EAE
:101A60000DC01092A72E1092A82E8091AB2E9091AF
:101A7000AC2E01968093AB2E9093AC2E2091FA223F
:101A800030E0E091AB2EF091AC2EC90101968E179B
:101A90009F0721F48091AD2E8093F722C901029611
:101AA000E817F90721F48091AD2E8093F622C90141
:101AB0000396E817F90721F48091AD2E8093F52263
:101AC000C9010496E817F90721F48091AD2E80939F
:101AD000F422C9010596E817F90721F48091AD2E8B
:101AE0008093F322C9010696E817F90721F4809143
:101AF000AD2E8093F222C9010796E817F90781F409
:101B00004091AD2E5091AE2E64E6649FC001659F5A
:101B1000900D11246FEF70E00E94841E6093F822F4
:101B2000C9010896E817F90781F48091AD2E9091CC
:101B3000AE2E880F991F880F991F880F991F6FEF7E
:101B400070E00E94841E6093F922C9010996E8178B
:101B5000F90789F48091AD2E9091AE2EAC01440F1F
:101B6000551F840F951F880F991F6FEF70E00E941B
:101B7000841E6093D12E265F3F4FE217F30779F45E
:101B80008091AD2E9091AE2E9C01220F331F820FBB
:101B9000931F6FEF70E00E94841E6093D02EFF9120
:101BA000EF91BF91AF919F918F917F916F915F91D5
:101BB0004F913F912F910F900BBE0F900FBE0F9042
:101BC0001F90189588ED84BF82E080935000E0E577
:101BD000F0E0818181FFFDCF88ED84BF11E010939B
:101BE00040002FEF33EC89E0215030408040E1F796
:101BF00000C000008CE192E0E1E7FCE2DF019C0123
:101C00001D9221503040E1F786E0E4ECFEE2DF0176
:101C1000282F1D922A95E9F7E9E9FEE2DF01282F36
:101C20001D922A95E9F7EDE8FEE2DF011D928A9503
:101C3000E9F700E2E2EEFEE2DF01202F1D922A9595
:101C4000E9F7E2E2FFE2DF01202F1D922A95E9F792
:101C5000C0E6D6E089818066898380E48D830F2E7B
:101C6000F0E8CF2EF6E0DF2EF02D0F2EF3E0AF2EB2
:101C7000F02DD6011196AC926BE980EA94E07ADD02
:101C80005EDE4FDE60E080E016DE10DE60E080E0C9
:101C900012DE8DEB97E237DEBFEFE3EDF0E3B150FC
:101CA000E040F040E1F700C0000080E68D830F2E99
:101CB000F0EAEF2EF12CF02D0F2EF7E0BF2EF02DD5
:101CC000D7011296BC921BD7E0E4FAE010822CE018
:101CD000218780ED93E086A397A362E06683B082BC
:101CE00084858160848740E256E03FEFFA013283C9
:101CF000E0E4F6E0328380EA96E0DC0111963C9362
:101D0000119716963C9380E1DA0150968C93509788
:101D100051968C93519752968C93529753968C93DD
:101D2000539754968C93549755968C9355975696F3
:101D30008C93569757968C9391E1908B918B928BC5
:101D4000938B948B958B968B978B3287A186E4B57A
:101D50007FB7F89440EC51E0DA011A966C931A9729
:101D6000F0E0E4911A961C927FBFA0E4B2E01C96CA
:101D7000EC931C9795B47FB7F894FA016287E92D2C
:101D8000F0E09490FA0112867FBF1D969C921D97F9
:101D90001C9311961C92119711964C9111974F7E9E
:101DA00011964C93119745E014964C931497129604
:101DB0008C93129713961C92139792961C9292975B
:101DC00090961C939097EFE7FCE03197F1F700C0F5
:101DD0000000F60152815C6052835A8150615A833F
:101DE000A28AA38A6C8B5A8550615A871987E0EEC4
:101DF000F7E0528153605283908B918B9285936070
:101E000092871187E0E8F1E09FE4908792E7908362
:101E1000E0E0FAE098E6938362E070E066A377A3DF
:101E2000108310A211A21683E0E0F8E0108221874F
:101E300065E37CE066A377A31683B0829485916006
:101E4000948730930106E0E4F8E01082218768E887
:101E500073E166A377A3168340839485916094878A
:101E6000E0E0F9E01082218721E732E026A337A3E2
:101E70001683B08294859160948799819A60998342
:101E80009A8194609A839E8192609E839A819460E5
:101E90009A83F701928192609283E0EAF9E00383EA
:101EA0009BE0958316830783848378941C938981B0
:101EB000806689838D8180668D83FFCF1F920F920C
:101EC0000FB60F9211240BB60F922F933F934F939F
:101ED0005F936F937F938F939F93AF93BF93EF9392
:101EE000FF93CF93DF93CDB7DEB76097CDBFDEBF53
:101EF0008091D32E81110CC08091E422813021F495
:101F000080E68093650667C580E68093660663C5B4
:101F10008091DC2E9091DD2E2091FF2230910023C4
:101F20002817390709F06DC50EC08C31910509F4E9
:101F300063C58D31910509F072C559C5B7DC809133
:101F4000D32E8823C9F08091B32E8F5F8093B32E58
:101F5000843019F41092B32E02C0811106C0E0E65D
:101F6000F6E087818064878307C0823029F4E0E649
:101F7000F6E0878180628783E091DC2EF091DD2E90
:101F8000E13481E0F80708F011C5EA5EFE4F0C94D9
:101F9000971EA091FD22B091FE2281E1EBECF7E2C9
:101FA00001900D928A95E1F780E1FE013196DF0103
:101FB000982F1D929A95E9F79091FA221F929F937C
:101FC0002CED37E23F932F931F928F93FF93EF9364
:101FD0000E94191FE091D22ECDBFDEBFE13041F04B
:101FE000F0E0EE0FFF1FE858F94F6591749103C0C0
:101FF000BE016F5F7F4F8091FB229091FC220E9477
:10200000121FD4C4A091FD22B091FE228DE0E9EE12
:10201000F7E201900D928A95E1F7E091D22EF0E07F
:10202000EE0FFF1FE858F94F659174918091FB22E4
:102030009091FC220E94121FB9C4A091FD22B09180
:10204000FE228DE0E6EFF7E201900D928A95E1F72E
:102050008091FA221F928F938AE699E29F938F9341
:102060001F9280E18F938091FC228F938091FB22BD
:102070008F930E94191FCDBFDEBF98C4A091FD228F
:10208000B091FE228DE0E3E0F8E201900D928A9596
:10209000E1F78091F7221F928F938AE699E29F934E
:1020A0008F931F9280E18F938091FC228F93809178
:1020B000FB228F930E94191FCDBFDEBF77C4A09172
:1020C000FD22B091FE228DE0E0E1F8E201900D9258
:1020D0008A95E1F78091F6221F928F938AE699E222
:1020E0009F938F931F9280E18F938091FC228F9317
:1020F0008091FB228F930E94191FCDBFDEBF56C473
:10210000A091FD22B091FE228DE0EDE1F8E2019078
:102110000D928A95E1F78091F5221F928F938AE6BE
:1021200099E29F938F931F9280E18F938091FC227D
:102130008F938091FB228F930E94191FCDBFDEBF2A
:1021400035C4A091FD22B091FE228DE0EAE2F8E2D2
:1021500001900D928A95E1F78091F4221F928F935E
:102160008AE699E29F938F931F9280E18F938091EB
:10217000FC228F938091FB228F930E94191FCDBF69
:10218000DEBF14C4A091FD22B091FE228DE0E7E3F2
:10219000F8E201900D928A95E1F78091F3221F9267
:1021A0008F938AE699E29F938F931F9280E18F939A
:1021B0008091FC228F938091FB228F930E94191FA4
:1021C000CDBFDEBFF3C3A091FD22B091FE228DE012
:1021D000E4E4F8E201900D928A95E1F78091F22211
:1021E0001F928F938AE699E29F938F931F9280E1CB
:1021F0008F938091FC228F938091FB228F930E947A
:10220000191FCDBFDEBFD2C3A091FD22B091FE2227
:102210008DE0E1E5F8E201900D928A95E1F7809179
:10222000F8221F928F938AE699E29F938F931F92D1
:1022300080E18F938091FC228F938091FB228F937A
:102240000E94191FCDBFDEBFB1C38091F92290E07B
:102250008930910514F088E090E08093F922A091F4
:10226000FD22B091FE228DE0EEE5F8E201900D92A4
:102270008A95E1F7E091F922F0E0EE0FFF1FEE56AC
:10228000F94F659174918091FB229091FC220E94FC
:10229000121F8CC3A091FD22B091FE228DE0EBE6CF
:1022A000F8E201900D928A95E1F7E091D12EF0E0ED
:1022B000EE0FFF1FEC57F94F659174918091FB224F
:1022C0009091FC220E94121F71C3A091FD22B09137
:1022D000FE228DE0E8E7F8E201900D928A95E1F7A1
:1022E000E091D02EF0E0EE0FFF1FE458F94F65911A
:1022F00074918091FB229091FC220E94121F56C380
:10230000A091FD22B091FE228DE0E5E8F8E2019077
:102310000D928A95E1F78091F1221F928F938AE6C0
:1023200099E29F938F931F9280E18F938091FC227B
:102330008F938091FB228F930E94191FCDBFDEBF28
:1023400035C3A091FD22B091FE228DE0E2E9F8E2D2
:1023500001900D928A95E1F78091F0221F928F9360
:102360008AE699E29F938F931F9280E18F938091E9
:10237000FC228F938091FB228F930E94191FCDBF67
:10238000DEBF14C3A091FD22B091FE228DE0EFE9E3
:10239000F8E201900D928A95E1F78091EF221F9269
:1023A0008F938AE699E29F938F931F9280E18F9398
:1023B0008091FC228F938091FB228F930E94191FA2
:1023C000CDBFDEBFF3C2A091FD22B091FE228DE011
:1023D000ECEAF8E201900D928A95E1F78091EE2205
:1023E0001F928F938AE699E29F938F931F9280E1C9
:1023F0008F938091FC228F938091FB228F930E9478
:10240000191FCDBFDEBFD2C2A091FD22B091FE2226
:102410008DE0E9EBF8E201900D928A95E1F7809169
:10242000ED221F928F938AE699E29F938F931F92DA
:1024300080E18F938091FC228F938091FB228F9378
:102440000E94191FCDBFDEBFB1C2A091FD22B09185
:10245000FE228DE0E6ECF8E201900D928A95E1F71C
:102460008091EC221F928F938AE699E29F938F933B
:102470001F9280E18F938091FC228F938091FB22A9
:102480008F930E94191FCDBFDEBF90C2A091FD2285
:10249000B091FE228DE0E3EDF8E201900D928A9575
:1024A000E1F78091EB221F928F938AE699E29F9346
:1024B0008F931F9280E18F938091FC228F93809164
:1024C000FB228F930E94191FCDBFDEBF6FC2A09168
:1024D000FD22B091FE228DE0E0EEF8E201900D9237
:1024E0008A95E1F78091EA221F928F938AE699E21A
:1024F0009F938F931F9280E18F938091FC228F9303
:102500008091FB228F930E94191FCDBFDEBF4EC268
:10251000A091FD22B091FE228DE0EDEEF8E2019057
:102520000D928A95E1F78091E9221F928F938AE6B6
:1025300099E29F938F931F9280E18F938091FC2269
:102540008F938091FB228F930E94191FCDBFDEBF16
:102550002DC2A091FD22B091FE228DE0EAEFF8E2BB
:1025600001900D928A95E1F78091E8221F928F9356
:102570008AE699E29F938F931F9280E18F938091D7
:10258000FC228F938091FB228F930E94191FCDBF55
:10259000DEBF0CC2A091FD22B091FE228DE0E7E0EB
:1025A000F9E201900D928A95E1F78091E7221F925E
:1025B0008F938AE699E29F938F931F9280E18F9386
:1025C0008091FC228F938091FB228F930E94191F90
:1025D000CDBFDEBFEBC1A091FD22B091FE228DE008
:1025E000E4E1F9E201900D928A95E1F78091E6220B
:1025F0001F928F938AE699E29F938F931F9280E1B7
:102600008F938091FC228F938091FB228F930E9465
:10261000191FCDBFDEBFCAC1A091FD22B091FE221D
:102620008DE0E1E2F9E201900D928A95E1F7809167
:10263000E5221F928F938AE699E29F938F931F92D0
:1026400080E18F938091FC228F938091FB228F9366
:102650000E94191FCDBFDEBFA9C1A091FD22B0917C
:10266000FE228DE0EEE2F9E201900D928A95E1F70B
:102670008091E4221F928F938BE399E29F938F9333
:102680001F9280E18F938091FC228F938091FB2297
:102690008F930E94191FCDBFDEBF88C1A091FD227C
:1026A000B091FE228DE0E0E4F9E201900D928A956E
:1026B000E1F78091E3221F928F938BE399E29F933E
:1026C0008F931F9280E18F938091FC228F93809152
:1026D000FB228F930E94191FCDBFDEBF67C1A0915F
:1026E000FD22B091FE2281E1EDE4F9E201900D922C
:1026F0008A95E1F7E4ECFEE285818F9384818F93E4
:1027000083818F9382818F9381818F9380818F9337
:102710008EE599E29F938F931F9280E18F93809132
:10272000FC228F938091FB228F930E94191FCDBFB3
:10273000DEBF3CC1A091FD22B091FE2281E1EFE617
:10274000F9E201900D928A95E1F7E4ECFEE28385CF
:102750008F9382858F9381858F9380858F938781D7
:102760008F9386818F938EE599E29F938F931F922B
:1027700080E18F938091FC228F938091FB228F9335
:102780000E94191FCDBFDEBF11C1A091FD22B091E3
:10279000FE2281E1E0E8F9E201900D928A95E1F7ED
:1027A00064EB7EE28091FB229091FC220E94121F3A
:1027B000FDC0A091FD22B091FE2281E1E1E9F9E2A4
:1027C00001900D928A95E1F764EB7EE28091FB2205
:1027D0009091FC220E94121FE9C0A091FD22B091AD
:1027E000FE2281E1E2EAF9E201900D928A95E1F799
:1027F00064EB7EE28091FB229091FC220E94121FEA
:10280000D5C0A091FD22B091FE2280E1E3EBF9E278
:1028100001900D928A95E1F764EB7EE28091FB22B4
:102820009091FC220E94121FC1C0A091FD22B09184
:10283000FE2280E1E3ECF9E201900D928A95E1F746
:1028400064EB7EE28091FB229091FC220E94121F99
:10285000ADC0A091FD22B091FE228CE0E3EDF9E243
:1028600001900D928A95E1F764EB7EE28091FB2264
:102870009091FC220E94121F99C0A091FD22B0915C
:10288000FE2280E1E3ECF9E201900D928A95E1F7F6
:1028900064EB7EE28091FB229091FC220E94121F49
:1028A00085C0A091FD22B091FE2280E1E3EBF9E228
:1028B00001900D928A95E1F764EB7EE28091FB2214
:1028C0009091FC220E94121F71C0A091FD22B09134
:1028D000FE2280E1EFEDF9E201900D928A95E1F799
:1028E00064EB7EE28091FB229091FC220E94121FF9
:1028F0005DC0A091FD22B091FE2280E1EFEEF9E2F1
:1029000001900D928A95E1F764EB7EE28091FB22C3
:102910009091FC220E94121F49C0A091FD22B0910B
:10292000FE2281E1EFEFF9E201900D928A95E1F745
:102930008091DC2E9091DD2E885C91099F938F937E
:1029400080E19AE29F938F931F9280E18F93809111
:10295000FC228F938091FB228F930E94191FCDBF81
:10296000DEBF24C0A091FD22B091FE2281E1EDE105
:10297000FAE201900D928A95E1F78091DC2E909118
:10298000DD2E8C5291409F938F9380E19AE29F932A
:102990008F931F9280E18F938091FC228F9380917F
:1029A000FB228F930E94191FCDBFDEBF60E080E045
:1029B0000E945B0C8091FD229091FE220E94830C6C
:1029C00061E080E00E945B0C8091FB229091FC22F0
:1029D0000E94830C24C08091DC2E9091DD2E2091EA
:1029E000FF22309100232817390781F49ECA809373
:1029F000FF2290930023A3CA8093FF229093002389
:102A00009ECA8093FF22909300239DCA8093FF2249
:102A1000909300234C97029708F090CAADCA609635
:102A2000CDBFDEBFDF91CF91FF91EF91BF91AF910D
:102A30009F918F917F916F915F914F913F912F91D6
:102A40000F900BBE0F900FBE0F901F901895E2E0F5
:102A5000FFE28091D22E81838091FA22828380913D
:102A6000F72283838091F62284838091F5228583E7
:102A70008091F42286838091F32287838091F222D1
:102A800080878091F82282878091D02E85878091DF
:102A9000F12281878091F02286878091EF228787BB
:102AA0008091EE22808B8091ED22818B8091EC22AF
:102AB000828B8091EB22838B8091EA22848B8091A0
:102AC000E922858B8091E822868B8091E722878B93
:102AD0008091E622808F8091E522818F8091E32290
:102AE000828F8091E422838F8091F9228387809165
:102AF000D12E8487CF018DD680E0A1C6089540E213
:102B000050E062EE7EE280E090E059D68091E32EC4
:102B10008F3F11F08093D22E8091E42E8F3F11F0E1
:102B20008093FA228091E52E8F3F11F08093F72257
:102B30008091E62E8F3F11F08093F6228091E72E50
:102B40008F3F11F08093F5228091E82E8F3F11F096
:102B50008093F4228091E92E8F3F11F08093F3222D
:102B60008091EA2E8F3F11F08093F2228091EC2E1B
:102B70008F3F11F08093F8228091EE2E8F3F11F05D
:102B80008093D12E8091ED2E8F3F11F08093F9220A
:102B90008091EF2E8F3F11F08093D02E8091EB2EFD
:102BA0008F3F11F08093F1228091F02E8F3F11F032
:102BB0008093F0229091F12E9F3F11F09093EF229D
:102BC0009091F22E9F3F11F09093EE229091F32E70
:102BD0009F3F11F09093ED229091F42E9F3F11F0C2
:102BE0009093EC228F3F21F08091F52E8093EB2281
:102BF0008091F62E8F3F11F08093EA228091F72E7C
:102C00008F3F11F08093E9228091F82E8F3F11F0D1
:102C10008093E8228091F92E8F3F11F08093E72274
:102C20008091FA2E8F3F11F08093E6228091FB2E47
:102C30008F3F11F08093E5228091FC2E8F3F11F0A1
:102C40008093E3228091FD2E8F3F11F08093E42248
:102C50008091E322813019F40E94910C02C00E94FD
:102C6000980C8091E422813021F480E28093650603
:102C7000089580E2809366060895BC019091D32E5A
:102C8000911105C14091DE2E5091DF2EFA01EE0F19
:102C9000FF1FEC52F14D20813181CB01820F931F38
:102CA000808391834130510501F14230510509F48F
:102CB000B2C0452B09F0EBC08830910514F087E0D5
:102CC00090E0992314F480E090E08093D42E9093C8
:102CD000D52E880F991FFC01E95BF34D808191810E
:102CE0008093DC2E9093DD2E08952091D42E309188
:102CF000D52E2530310509F443C03CF4233031058D
:102D000069F02430310519F108952630310509F4B0
:102D100050C02730310509F465C008958830910509
:102D200014F087E090E0992314F480E090E0809321
:102D3000D62E9093D72E880F991FFC01E95CF34D96
:102D4000808191818093DC2E9093DD2E08958530D3
:102D5000910514F084E090E0992314F480E090E071
:102D60008093D62E9093D72E880F991FFC01E35D98
:102D7000F34D808191818093DC2E9093DD2E089518
:102D80008F30910514F08EE090E0992314F480E0E8
:102D900090E08093D62E9093D72E880F991FFC0138
:102DA000E15FF34D808191818093DC2E9093DD2E45
:102DB00008958531910514F084E190E0992314F48D
:102DC00080E090E08093D62E9093D72E880F991FA5
:102DD000FC01EB51F44D808191818093DC2E909326
:102DE000DD2E08958330910514F082E090E0992360
:102DF00014F480E090E08093D62E9093D72E880F25
:102E0000991FFC01E152F44D808191818093DC2E69
:102E10009093DD2E08952091D62E3091D72E211536
:102E2000310521F021303105D1F00895853191052A
:102E300014F084E190E0992314F480E090E0809312
:102E4000D82E9093D92E880F991FFC01EB54F44D86
:102E5000808191818093DC2E9093DD2E08958531C1
:102E6000910514F084E190E0992314F480E090E05F
:102E70008093D82E9093D92E880F991FFC01EB5484
:102E8000F44D808191818093DC2E9093DD2E089506
:102E90001F920F920FB60F9211240BB60F922F9321
:102EA0003F934F935F936F937F938F939F93AF93D2
:102EB000BF93CF93DF93EF93FF938091200A90917C
:102EC000210A029718F4C1E0D0E002C0CFEFDFEF93
:102ED0008091E02E9091E12E2091B12E3091B22E72
:102EE000AC01421B530B423051050CF430C28093AD
:102EF000B12E9093B22ECE01C0DE8091D32E8823C6
:102F000009F425C2E091DC2EF091DD2E3197EB31F2
:102F1000F10508F01CC2E95AFD4F09C78091D22E75
:102F2000C80FD11D1C161D0614F4C1E0D0E0DD232E
:102F300014F4C0E0D0E0C093D22E09C28091E42204
:102F4000C80FD11D1C161D0614F4C1E0D0E0DD230E
:102F500014F4C0E0D0E0C093E422C13021F480E258
:102F600080936506F4C180E280936606F0C180918B
:102F7000E322C80FD11D1C161D0614F4C1E0D0E0D9
:102F8000DD2314F4C0E0D0E0C093E322C13019F493
:102F90000E94910CDCC10E94980CD9C18091FA2248
:102FA000C80FD11DCF3FD10519F014F0CFEFD0E0FD
:102FB000DD2314F4C0E0D0E0C093FA22C8C18091B0
:102FC000F7220024D695C7950794D695C795079400
:102FD000DC2FC02DC80FD11DCF3FD10519F014F043
:102FE000CFEFD0E0DD2314F4C0E0D0E0C093F722AF
:102FF000AEC18091F6220024D695C7950794D69548
:10300000C7950794DC2FC02DC80FD11DCF3FD10528
:1030100019F014F0CFEFD0E0DD2314F4C0E0D0E0DD
:10302000C093F62294C18091F5220024D695C795CD
:103030000794D695C7950794DC2FC02DC80FD11DD6
:10304000CF3FD10519F014F0CFEFD0E0DD2314F419
:10305000C0E0D0E0C093F5227AC18091F422002430
:10306000D695C7950794D695C7950794DC2FC02DA4
:10307000C80FD11DCF3FD10519F014F0CFEFD0E02C
:10308000DD2314F4C0E0D0E0C093F42260C180914D
:10309000F3220024D695C7950794D695C795079433
:1030A000DC2FC02DC80FD11DCF3FD10519F014F072
:1030B000CFEFD0E0DD2314F4C0E0D0E0C093F322E2
:1030C00046C18091F2220024D695C7950794D695E3
:1030D000C7950794DC2FC02DC80FD11DCF3FD10558
:1030E00019F014F0CFEFD0E0DD2314F4C0E0D0E00D
:1030F000C093F2222CC18091F822C80FD11DC53691
:10310000D10514F0C4E6D0E0DD2314F4C0E0D0E033
:10311000C093F8221CC18091F1229E01220F331F1F
:10312000CC0FDD1FCC0FDD1FCC0FDD1FC20FD31F57
:10313000C80FD11DC536D10514F0C4E6D0E0DD239B
:1031400014F4C0E0D0E0C093F12201C18091F022DC
:10315000C80FD11DCF3FD10519F014F0CFEFD0E04B
:10316000DD2314F4C0E0D0E0C093F022F0C08091E1
:10317000EF22C80FD11DCF3FD10519F014F0CFEFCA
:10318000D0E0DD2314F4C0E0D0E0C093EF22DFC034
:103190008091EE22C80FD11DCF3FD10519F014F058
:1031A000CFEFD0E0DD2314F4C0E0D0E0C093EE22F6
:1031B000CEC08091ED22C80FD11DCF3FD10519F0AF
:1031C00014F0CFEFD0E0DD2314F4C0E0D0E0C093E2
:1031D000ED22BDC08091EC22C80FD11DCF3FD1059B
:1031E00019F014F0CFEFD0E0DD2314F4C0E0D0E00C
:1031F000C093EC22ACC08091EB22C80FD11DCF3F11
:10320000D10519F014F0CFEFD0E0DD2314F4C0E0C5
:10321000D0E0C093EB229BC08091EA22C80FD11D61
:10322000CA30D10534F0CF31D1052CF0CEE1D0E059
:1032300002C0CAE0D0E0C093EA2289C08091E922AE
:10324000C80FD11DCA30D10534F0CF31D1052CF0D3
:10325000CEE1D0E002C0CAE0D0E0C093E92277C05E
:103260008091E822C80FD11DCA30D10534F0CF318A
:10327000D1052CF0CEE1D0E002C0CAE0D0E0C0938E
:10328000E82265C08091E722C80FD11DCA30D10560
:1032900034F0CF31D1052CF0CEE1D0E002C0CAE04D
:1032A000D0E0C093E72253C08091E622C80FD11D21
:1032B000CA30D10534F0CF31D1052CF0CEE1D0E0C9
:1032C00002C0CAE0D0E0C093E62241C08091E5226E
:1032D000C80FD11DCA30D10534F0CF31D1052CF043
:1032E000CEE1D0E002C0CAE0D0E0C093E5222FC01A
:1032F0008091F922C80FD11DC930D10514F0C8E062
:10330000D0E0DD2314F4C0E0D0E0C093F9221FC068
:103310008091D12EC80FD11DC730D10514F0C6E061
:10332000D0E0DD2314F4C0E0D0E0C093D12E0FC074
:103330008091D02EC80FD11DC430D10514F0C3E048
:10334000D0E0DD2314F4C0E0D0E0C093D02EFF9194
:10335000EF91DF91CF91BF91AF919F918F917F912D
:103360006F915F914F913F912F910F900BBE0F90F6
:103370000FBE0F901F901895F894E0E6F6E0868156
:103380008066868383E294EF0197F1F700C0000026
:1033900085818066858383E294EF0197F1F700C011
:1033A0000000868180668683789408951F920F922C
:1033B0000FB60F9211240BB60F922F933F934F939A
:1033C0005F936F937F938F939F93AF93BF93EF938D
:1033D000FF938091D32E81110FC08091DE2E9091AA
:1033E000DF2E009791F001978093DE2E9093DF2ED1
:1033F00080E090E042DC09C0813039F428DB909114
:10340000D32E81E089278093D32EFF91EF91BF9136
:10341000AF919F918F917F916F915F914F913F916C
:103420002F910F900BBE0F900FBE0F901F9018950D
:103430001F920F920FB60F9211240BB60F922F937B
:103440003F934F935F936F937F938F939F93AF932C
:10345000BF93CF93DF93EF93FF938091E02E9091F2
:10346000E12E2091AF2E3091B02EAC01421B530BB8
:103470004A3051050CF419C18093AF2E9093B02EB1
:10348000C091DC2ED091DD2EC132D10569F480913E
:10349000DE2E9091DF2E01978093DE2E9093DF2E0B
:1034A00080E090E0EADB01C1CE01875691098530CA
:1034B000910540F08B5B9F4F8230910518F0049688
:1034C0000297A0F48091DE2E9091DF2E01968093DA
:1034D000DE2E9093DF2E880F991FFC01EC52F14DE8
:1034E0001082118280E090E0C8DBDFC0E091DE2E28
:1034F000F091DF2EEE0FFF1FEE52F14D8081918192
:10350000009709F079C0CD3251E0D5070CF46FC0B7
:10351000CE018B52914040E250E062E27FE2880FA0
:10352000991F82959295907F9827807F982747D101
:1035300090912F2F9F3F49F461E080E00E945B0C47
:103540008EE29AE20E94830C50C08FEF8093F722A4
:103550008093F6228093F5228093F4228093F322C5
:103560008093F2228091252F8F3F11F08093F722D4
:103570008091262F8F3F11F08093F6228091272F84
:103580008F3F11F08093F5228091282F8F3F11F00B
:103590008093F4228091292F8F3F11F08093F322A2
:1035A00080912A2F8F3F11F08093F22280912C2F4F
:1035B0008F3F11F08093F82280912E2F8F3F11F0D2
:1035C0008093D12E80912D2F8F3F09F466C0809378
:1035D000F92263C08093F12261E080E00E945B0CDD
:1035E0008CE39AE20E94830C32DAC6DE5EC0C93CEC
:1035F000D105D4F1C1DE59C00197B1F5CD3281E0DA
:10360000D80794F1E2E2FFE28091F7228383809170
:10361000F62284838091F52285838091F42286832B
:103620008091F32287838091F22280878091F82213
:1036300082878091D02E85878091F1228187809129
:10364000F92283878091D12E8487CF01E2D08C2FFD
:103650008B52F5D061E080E00E945B0C8BE49AE233
:103660000E94830C89DE21C06C97F9F08091D32EE3
:10367000813009F4ECD99091D32E81E08927809391
:10368000D32E8091E422813021F480E2809365067C
:103690000CC080E28093660608C09093D02E809183
:1036A0002B2F8F3F09F096CF97CFFF91EF91DF91AE
:1036B000CF91BF91AF919F918F917F916F915F91CA
:1036C0004F913F912F910F900BBE0F900FBE0F9017
:1036D0001F901895F89498E0E0E0F6E0522F50958E
:1036E000662374F43481322B348335E03A95F1F754
:1036F00034813523348332E03A95F1F700C00EC0AF
:103700003481322B348332E03A95F1F70000348172
:103710003523348335E03A95F1F70000660F915078
:10372000F9F698E0E0E0F6E0522F5095882374F423
:103730003481322B348335E03A95F1F734813523E7
:10374000348332E03A95F1F700C00EC03481322B59
:10375000348332E03A95F1F7000034813523348325
:1037600035E03A95F1F70000880F9150F9F688E0BE
:10377000E0E0F6E0322F3095442374F49481922BEC
:10378000948395E09A95F1F794819323948392E042
:103790009A95F1F700C00EC09481922B948392E029
:1037A0009A95F1F7000094819323948395E09A957C
:1037B000F1F70000440F8150F9F678940895CF9303
:1037C000DF939C01DB01E0ECF1E097859923ECF3BA
:1037D000CCECD1E0988198609883B901705FCD01FD
:1037E00018D38881877F8883DF91CF910895E0EC9B
:1037F000F1E097859923ECF3ACECB1E09C919860F3
:103800009C93E82FF0E0F05F60838C91877F8C932E
:1038100008950F931F93CF938C01E0ECF1E087851F
:103820008823ECF3C0E0F80161918F018C2FDFDF7A
:10383000CF5FC032C1F7CF911F910F9108951F93B1
:10384000CF93DF93E0ECF1E097859923ECF320E24E
:10385000829FC0011124C0ECD1E01A829983888331
:103860001A8585E38A8761E08BEC91E005D01A87A1
:10387000DF91CF911F9108951BBEFC0128ED24BF5D
:10388000608308955058BB27AA270ED089C17AD1EA
:1038900030F07FD120F031F49F3F11F41EF46FC15E
:1038A0000EF4E095E7FB3CC1E92F8BD180F3BA170A
:1038B000620773078407950718F071F49EF5BAC183
:1038C0000EF4E0950B2EBA2FA02D0B01B90190013B
:1038D0000C01CA01A0011124FF27591B99F0593F7F
:1038E00050F4503E68F11A16F040A22F232F342FC7
:1038F0004427585FF3CF469537952795A795F04015
:103900005395C9F77EF41F16BA0B620B730B840B29
:10391000BAF09150A1F0FF0FBB1F661F771F881FE1
:10392000C2F70EC0BA0F621F731F841F48F4879539
:1039300077956795B795F7959E3F08F0B3CF939528
:10394000880F08F09927EE0F9795879508950CD06A
:1039500027C11FD140F016D130F021F45F3F19F09C
:10396000DFC0511168C10BC12CD198F39923C9F361
:103970005523B1F3951B550BBB27AA276217730775
:10398000840738F09F5F5F4F220F331F441FAA1F29
:10399000A9F333D00E2E3AF0E0E830D091505040E9
:1039A000E695001CCAF729D0FE2F27D0660F771F97
:1039B000881FBB1F261737074807AB07B0E809F079
:1039C000BB0B802DBF01FF2793585F4F2AF09E3F0E
:1039D000510568F0A5C02FC15F3FECF3983EDCF3C2
:1039E000869577956795B795F7959F5FC9F7880F87
:1039F000911D9695879597F90895E1E0660F771FD9
:103A0000881FBB1F621773078407BA0720F0621B69
:103A1000730B840BBA0BEE1F88F7E095089504D062
:103A20006894B11108C10895D4D088F09F5790F0E0
:103A3000B92F9927B751A0F0D1F0660F771F881FD3
:103A4000991F1AF0BA95C9F712C0B13081F0F2D0BF
:103A5000B1E00895EFC0672F782F8827B85F39F05D
:103A6000B93FCCF3869577956795B395D9F73EF432
:103A700090958095709561957F4F8F4F9F4F0895DA
:103A8000E89409C097FB3EF49095809570956195F8
:103A90007F4F8F4F9F4F9923A9F0F92F96E9BB27AE
:103AA0009395F695879577956795B795F111F8CF2A
:103AB000FAF4BB0F11F460FF1BC06F5F7F4F8F4F95
:103AC0009F4F16C0882311F096E911C0772321F08B
:103AD0009EE8872F762F05C0662371F096E8862F23
:103AE00070E060E02AF09A95660F771F881FDAF77A
:103AF000880F9695879597F9089585D080F09F3720
:103B000040F491110EF097C060E070E080E89FEB08
:103B1000089526F41B16611D711D811D07C021C06B
:103B200097F99F6780E870E060E00895882371F45A
:103B3000772321F09850872B762F07C0662311F446
:103B400099270DC09051862B70E060E02AF09A957D
:103B5000660F771F881FDAF7880F9695879597F974
:103B600008959F3F31F0915020F4879577956795A0
:103B7000B795880F911D9695879597F908959FEFB2
:103B800080EC089500240A941616170618060906F4
:103B9000089500240A9412161306140605060895C3
:103BA000092E0394000C11F4882352F0BB0F40F44B
:103BB000BF2B11F460FF04C06F5F7F4F8F4F9F4F8B
:103BC000089557FD9058440F551F59F05F3F71F00D
:103BD0004795880F97FB991F61F09F3F79F0879574
:103BE0000895121613061406551FF2CF4695F1DFFD
:103BF00008C0161617061806991FF1CF869571058D
:103C0000610508940895E5DFA0F0BEE7B91788F4D0
:103C1000BB279F3860F41616B11D672F782F8827B1
:103C2000985FF7CF869577956795B11D93959639EF
:103C3000C8F30895E894BB2766277727CB0197F947
:103C400008950BD0ADCF9EDF28F0A3DF18F09523A9
:103C500009F066CF94CF1124EECFB3DFA0F3959F88
:103C6000D1F3950F50E0551F629FF001729FBB2763
:103C7000F00DB11D639FAA27F00DB11DAA1F649F0F
:103C80006627B00DA11D661F829F2227B00DA11DC2
:103C9000621F739FB00DA11D621F839FA00D611D48
:103CA000221F749F3327A00D611D231F849F600D69
:103CB000211D822F762F6A2F11249F5750408AF0A2
:103CC000E1F088234AF0EE0FFF1FBB1F661F771F2E
:103CD000881F91505040A9F79E3F510570F020CFAA
:103CE000AACF5F3FECF3983EDCF386957795679516
:103CF000B795F795E7959F5FC1F7FE2B880F911D4C
:103D00009695879597F9089597FB072E16F40094DA
:103D100006D077FD08D014D007FC05D03EF490956E
:103D200081959F4F0895709561957F4F0895EE0F8F
:103D3000FF1F0024001C0BBE0790F691E02D099494
:103D4000AA1BBB1B51E107C0AA1FBB1FA617B707C1
:103D500010F0A61BB70B881F991F5A95A9F78095DD
:103D60009095BC01CD0108958F929F92AF92BF9222
:103D7000CF92DF92EF92FF92CF93DF93EC016881B5
:103D800079818A819B81611571058105910521F4F5
:103D900064E279ED8BE597E02DE133EF41E050E00F
:103DA00025D349015A019B01AC01A7EAB1E43AD3FA
:103DB0006B017C01ACEEB4EFA50194013FD3DC01B3
:103DC000CB018C0D9D1DAE1DBF1DB7FF03C001971C
:103DD000A109B04888839983AA83BB839F77DF9129
:103DE000CF91FF90EF90DF90CF90BF90AF909F90DA
:103DF0008F900895B9CF80E090E2B6CFA0E0B0E018
:103E00008093002090930120A0930220B093032080
:103E10000895FB01DC0102C001900D924150504019
:103E2000D8F70895FB01DC0101900D920020E1F725
:103E300008950F931F93CF93DF93CDB7DEB72E97DF
:103E4000CDBFDEBF0D891E898F89988D26E02C831A
:103E500009831A8397FF02C080E090E801978D8361
:103E60009E83AE01455E5F4F698D7A8DCE010196CE
:103E700016D04D815E8157FD0AC02F8138854217CB
:103E800053070CF49A01F801E20FF31F10822E96EB
:103E9000CDBFDEBFDF91CF911F910F9108952F927B
:103EA0003F924F925F926F927F928F929F92AF92CA
:103EB000BF92CF92DF92EF92FF920F931F93CF9317
:103EC000DF93CDB7DEB72B97CDBFDEBF6C017B0193
:103ED0008A01FC0116821782838181FFBFC1CE0156
:103EE00001963C01F6019381F70193FD859193FFC3
:103EF00081917F01882309F4ADC1853239F493FDA6
:103F0000859193FF81917F01853221F4B60190E084
:103F1000D3D1E8CF912C212C312CFFE1F315D8F02F
:103F20008B3279F038F4803279F08332A1F4232D8A
:103F300020611DC08D3261F0803369F4232D216032
:103F400016C0832D8260382EE32DE4603E2E2AC0F9
:103F5000F32DF8601DC037FC2DC020ED280F2A304E
:103F600040F08E32B9F436FC75C1232D2064322E18
:103F700019C036FE06C08AE0989E200D1124922EAC
:103F800011C0EAE02E9E200D1124222EF32DF062A6
:103F90003F2E08C08C3621F4832D8068382E02C055
:103FA000883641F4F70193FD859193FF81917F015C
:103FB0008111B3CF982F9F7D9554933028F40C5FD7
:103FC0001F4F9FE399830DC0833631F0833771F023
:103FD000833509F055C020C0F801808189830E5FC8
:103FE0001F4F88248394912C530112C02801F2E0C2
:103FF0004F0E511CF801A080B18036FE03C0692D20
:1040000070E002C06FEF7FEFC5014BD14C01820120
:10401000F32DFF773F2E15C0280122E0420E511CE0
:10402000F801A080B18036FE03C0692D70E002C0A7
:104030006FEF7FEFC5012AD14C01F32DF0683F2EC1
:10404000820133FC19C0822D90E088169906A0F4F5
:10405000B60180E290E030D12A94F5CFF50137FC2B
:10406000859137FE81915F01B60190E025D1211045
:104070002A9421E0821A91088114910479F7E1C011
:10408000843611F0893639F5F80137FE07C06081B2
:104090007181828193810C5F1F4F08C060817181A3
:1040A000072E000C880B990B0E5F1F4FF32DFF7628
:1040B0003F2E97FF09C090958095709561957F4F31
:1040C0008F4F9F4FF0683F2E2AE030E0A30130D1A0
:1040D000882E861844C0853731F4232D2F7EB22ECA
:1040E0002AE030E025C0932D997FB92E8F36C1F09C
:1040F00018F4883579F0AEC0803719F0883721F090
:10410000A9C0E92FE061BE2EB4FE0DC0FB2DF46006
:10411000BF2E09C034FE0AC0292F2660B22E06C069
:1041200028E030E005C020E130E002C020E132E0CC
:10413000F801B7FE07C060817181828193810C5FB5
:104140001F4F06C06081718180E090E00E5F1F4FBD
:10415000A301EED0882E8618FB2DFF773F2E36FE6A
:104160000DC0232D2E7FA22E891458F434FE0BC0CF
:1041700032FC09C0832D8E7EA82E05C0B82CA32C3E
:1041800003C0B82C01C0B92CA4FE0FC0FE01E80D7D
:10419000F11D8081803321F49A2D997EA92E09C0CA
:1041A000A2FE06C0B394B39404C08A2D867809F0A9
:1041B000B394A3FC10C0A0FE06C0B21480F4280C77
:1041C000922C9B180DC0B21458F4B60180E290E016
:1041D00073D0B394F8CFB21418F42B1802C0982CF3
:1041E000212CA4FE0FC0B60180E390E065D0A2FEB2
:1041F00016C0A1FC03C088E790E002C088E590E00B
:10420000B6010CC08A2D867851F0A1FE02C08BE267
:1042100001C080E2A7FC8DE2B60190E04DD0891488
:1042200030F4B60180E390E047D09A94F8CF8A94B6
:10423000F301E80DF11D8081B60190E03DD08110C1
:10424000F6CF222009F44ECEB60180E290E034D0C1
:104250002A94F7CFF6018681978102C08FEF9FEFF6
:104260002B96CDBFDEBFDF91CF911F910F91FF90B5
:10427000EF90DF90CF90BF90AF909F908F907F9006
:104280006F905F904F903F902F900895FC010590A4
:10429000615070400110D8F7809590958E0F9F1F48
:1042A0000895FC016150704001900110D8F780958D
:1042B00090958E0F9F1F08950F931F93CF93DF93B9
:1042C000FB01238121FD03C08FEF9FEF2CC022FF54
:1042D00016C046815781248135814217530744F423
:1042E000A081B1819D012F5F3F4F208331838C934B
:1042F000268137812F5F3F4F2683378314C08B0180
:10430000EC01FB010084F185E02D0995892BE1F694
:10431000D80116968D919C911797019616968D93BC
:104320009C931797CE01DF91CF911F910F91089524
:10433000FA01AA27283051F1203181F1E8946F93D6
:104340006E7F6E5F7F4F8F4F9F4FAF4FB1E03ED07C
:10435000B4E03CD0670F781F891F9A1FA11D680F1A
:10436000791F8A1F911DA11D6A0F711D811D911D4D
:10437000A11D20D009F468943F912AE0269F1124C2
:104380003019305D3193DEF6CF010895462F477026
:10439000405D4193B3E00FD0C9F7F6CF462F4F7081
:1043A000405D4A3318F0495D31FD4052419302D0DF
:1043B000A9F7EACFB4E0A695979587957795679585
:1043C000BA95C9F700976105710508959B01AC0185
:1043D0000A2E06945795479537952795BA95C9F7AC
:1043E000620F731F841F951FA01D0895052E97FB54
:1043F00016F400940FD057FD05D024D007FC02D04E
:1044000046F408C050954095309521953F4F4F4F49
:104410005F4F089590958095709561957F4F8F4F70
:104420009F4F089531D0A59F900DB49F900DA49FEC
:10443000800D911D11240895B7FFF4CFF3DF821B87
:10444000930B0895A1E21A2EAA1BBB1BFD010DC000
:10445000AA1FBB1FEE1FFF1FA217B307E407F50734
:1044600020F0A21BB30BE40BF50B661F771F881F10
:10447000991F1A9469F760957095809590959B01A6
:10448000AC01BD01CF010895A29FB001B39FC0014F
:10449000A39F700D811D1124911DB29F700D811D70
:0A44A0001124911D0895F894FFCF38
:1044AA000100000000000000000000000000000001
:1044BA0000000100000000000000000101010000EE
:1044CA0000000000010101010100000000020101D9
:1044DA0001010102000002020101010101020200C0
:1044EA00020201010101010202020000C0400100B2
:1044FA0000000000000000000000000000020000B0
:10450A00000000000000020102000000000000029A
:10451A000101010200000000020101010101020083
:10452A000002010101010101010200020101010170
:10453A0001010101020000C040010202020202025E
:10454A000202020202020202010202020202020242
:10455A000202010102020202020202010101010237
:10456A00020202020101010101010202010101012B
:10457A000101010101020101010101010101010120
:10458A000000C0400100000000000000000000011F
:10459A00000000000000000000010100000000000F
:1045AA0000000001010100000000000000010101FB
:1045BA0001000000000000010101010100000000EB
:1045CA0000010101010101000000000101010101D6
:1045DA0001020000000101010101010202000001C3
:1045EA0001010101010202020001010101010102AE
:1045FA000202020000204101000000000000000049
:10460A00000002000000000000000000010200009B
:10461A00000000000000010102000000000000008C
:10462A000101010200000000000001010101020075
:10463A000000000001010101010200000000010167
:10464A000101010102000000010101010101010251
:10465A000000010101010101010102000101010142
:10466A0001010101010200002041010000000000D7
:10467A00000000000001000000000000000001012D
:10468A000000020000020000000100020000000118
:10469A000200000002000101000000010200010204
:1046AA0002000200010200000100020100010102F1
:1046BA0002000201020100010102020002010101DD
:1046CA0001020202000002000002010200020201CD
:1046DA000201020102010201020000204101000060
:1046EA0000020202020000000101010000000001B4
:1046FA0001010000803F01020202020202020202DC
:10470A0002010101010101010101010000803F01D3
:10471A000202020202020202020201020202020270
:10472A000202020201010202020202020202010163
:10473A000102020202020202010101010202020254
:10474A000202010101010102020202020101010148
:10475A000101020202020101010101010102020238
:10476A00010101010101010102020101010101012D
:10477A000101010201010101010101010101000020
:10478A0020410101011E1E1E1E1E1E32323232320D
:10479A003264FFFFFFFFFFFF320101932BA42BFFBF
:1047AA00FF0000000000000000CDCC704148E1BECF
:1047BA0041CDCCF041CDCC0B42D7A31B42000029FE
:1047CA00429A9934420AD73E4200004842AE4750C4
:1047DA00420AD75742CDCC5E42713D654233336BB4
:1047EA00420AD770427B1476423D0A7B428FC27FCF
:1047FA00429A19824252388442713D8642142E8866
:10480A00421F058A42CDCC8B4200808D42D7238F2E
:10481A004252B89042713D924252B89342D7239580
:10482A00421F85964229DC9742D723994266669AA7
:10483A0042D7A39B42ECD19C42E1FA9D429A199F2E
:10484A00423333A042AE47A142EC51A2420A57A3D7
:10485A00420A57A442EC51A542AE47A6423333A7B7
:10486A0042B81EA8421F05A94266E6A9428FC2AAFB
:10487A00429A99AB42856BAC42713DAD423D0AAE5C
:10488A0042ECD1AE427B94AF420A57B0427B14B19C
:10489A0042ECD1B1423D8AB242713DB342A4F0B377
:1048AA0042B89EB442CD4CB542C3F5B5429A99B6C8
:1048BA00428F42B74248E1B7420080B842B81EB9B7
:1048CA004271BDB9420A57BA4285EBBA420080BB6F
:1048DA00427B14BC42D7A3BC423333BD428FC2BD14
:1048EA0042CD4CBE420AD7BE424861BF4266E6BFCD
:1048FA0042856BC042A4F0C042A470C142C3F5C154
:10490A0042A470C242A4F0C242856BC34266E6C3A7
:10491A00424861C4420AD7C442EC51C542AEC7C537
:10492A00425238C64214AEC642B81EC7425C8FC74E
:10493A00420000C842000000000000000000000021
:10494A00000000000000000000000000000000005D
:10495A000000000000000000000AD7233C0AD72309
:10496A003C0AD7233C0AD7A33C8FC2F53C0AD7237B
:10497A003DCDCC4C3D295C8F3D0AD7A33DCDCCCC57
:10498A003DB81E053E0AD7233E5C8F423E1F856B0B
:10499A003E295C8F3EC3F5A83E14AEC73E1F85EB89
:1049AA003E14AE073FF6281C3F8FC2353F295C4FA5
:1049BA003F1F856B3F6666863FEC51983F1F85AB6C
:1049CA003F0000C03F3D0AD73F295CEF3F8FC20539
:1049DA00400AD713400AD72340B81E35403D0A473C
:1049EA004048E15A400000704033338340295C8FCD
:1049FA0040F6289C4085EBA940EC51B8400000C81D
:104A0A0040D7A3D84085EBE940E17AFC4000000892
:104A1A004166661241AE471D41C3F52841B81E35AD
:104A2A004185EB4141295C4F419A995D41E17A6C9C
:104A3A004100007C41713D8641CDCC8E418FC297A9
:104A4A00413333A1413D0AAB41295CB5417B14C0D6
:104A5A0041AE47CB41C3F5D6413333E34185EBEF52
:104A6A0041B81EFD41A47005429A990C427B141468
:104A7A0042CDCC1B420AD7234233332C420AD734C5
:104A8A00420AD73D42F6284742CDCC5042CDCC5AB5
:104A9A0042F628654248E16F42C3F57A42523883AA
:104AAA0042D7238942AE478F42B89E9542D7239C6C
:104ABA004266E6A24229DCA9425C0FB142E17AB819
:104ACA0042B81EC0420000C8420000000000008038
:104ADA003F0000004000004040000080400000A06D
:104AEA00400000C0400000E040000000410000100B
:104AFA0041000020410000304100004041000050C8
:104B0A0041000060410000704100008041000088BF
:104B1A004100009041000098410000A0410000A817
:104B2A00410000B0410000B8410000C0410000C887
:104B3A00410000D0410000D8410000E0410000E8F7
:104B4A00410000F0410000F841000000420000046A
:104B5A00420000084200000C42000010420000140B
:104B6A00420000184200001C4200002042000024BB
:104B7A00420000284200002C42000030420000346B
:104B8A00420000384200003C42000040420000441B
:104B9A00420000484200004C4200005042000054CB
:104BAA00420000584200005C42000060420000647B
:104BBA00420000684200006C42000070420000742B
:104BCA00420000784200007C4200008042000082DD
:104BDA004200008442000086420000884200008AA7
:104BEA004200008C4200008E420000904200009277
:104BFA004200009442000096420000984200009A47
:104C0A004200009C4200009E420000A0420000A216
:104C1A00420000A4420000A6420000A8420000AAE6
:104C2A00420000AC420000AE420000B0420000B2B6
:104C3A00420000B4420000B6420000B8420000BA86
:104C4A00420000BC420000BE420000C0420000C256
:104C5A00420000C4420000C6420000C842496E69D0
:104C6A00742073746172742E2E2E0045432D444CA9
:104C7A004D31202D2076322E322E3000444D5820D0
:104C8A0043683A2025303364004D6F646520202044
:104C9A00202020202000444D58204164647265730E
:104CAA00732000526564202020312020202020001B
:104CBA00477265656E2031202020202000426C75E5
:104CCA0065202031202020202000526564202020E9
:104CDA0032202020202000477265656E2032202075
:104CEA0020202000426C75652020322020202020C0
:104CFA000052656C656173652074696D6500416E6B
:104D0A00696D6174696F6E20202000416E696D20A3
:104D1A007472696767657200416E696D20637572A6
:104D2A00766520200044696D6D6572202020202060
:104D3A002000496E7075742073656E7320310049C6
:104D4A006E7075742073656E73203200496E7075CB
:104D5A00742073656E73203300496E707574207306
:104D6A00656E73203400496E7075742073656E73B6
:104D7A00203500496E7075742073656E7320360095
:104D8A004E62206C6967687473202031004E62207D
:104D9A006C6967687473202032004E62206C696700
:104DAA00687473202033004E62206C6967687473DC
:104DBA00202034004E62206C6967687473202035A5
:104DCA00004E62206C696768747320203600456E55
:104DDA00636C6F2E204C696768740025303164005B
:104DEA004C4344204C6967687420202000416E6956
:104DFA006D6174696F6E203120746F203300253025
:104E0A003364202025303364202025303364004168
:104E1A006E696D6174696F6E203420746F2036007C
:104E2A00436F6C6F727320636F6E6669672E2E2EE6
:104E3A0000416E696D20636F6E6669672E2E2E20A3
:104E4A00200047656E6572616C2073657475702EFB
:104E5A002E2E005573657220707265736574732EF9
:104E6A002E2E00466163746F727920736574732EF7
:104E7A002E2E004261636B2E2E2E202020200055FC
:104E8A0073652075736572207365742E2E2E005318
:104E9A00617665207072657365742E2E2E2000531C
:104EAA00656C65637420662E207072657365740084
:104EBA005072657365742023253033640053656C22
:104ECA0065637420752E2070726573657400656D54
:104EDA007074792070726573657421006C6F6164F7
:104EEA006564207072657365742100536176656428
:104EFA002070726573657421004D616E75616C2056
:104F0A006D6F646500444D58206D6F6465202020E4
:104F1A00004C696E6561722020202020004578705F
:104F2A006F6E656E7469616C004C6F67617269744B
:104F3A006D6963200053696E75732046616465204C
:104F4A000054726967676572202020202020004182
:104F5A0075746F2073696E676C65202000417574E3
:104F6A006F20616C6C20202020200052616E646FDB
:104F7A006D2073696E676C650052616E646F6D2097
:104F8A00616C6C202020004F6E20202020202020E1
:104F9A0020202020004F666620202020202020206C
:104FAA0020200050756C73652020202020202020AE
:104FBA0020200046696C6C20202020202020202000
:104FCA0020200043656E7465722066696C6C20202F
:104FDA002020004551204D6F76696E6720202020E1
:104FEA002020004551204669786564202020202031
:104FFA0020200043656E746572204551204D6F76FE
:10500A0020200043656E74657220455120466978F8
:10501A00656400436F6E7374656C6C6174696F6E5E
:10502A0020200050756C73652063656E746572206C
:10503A002020003132332020202020202020202050
:10504A002020200020202020202020202020202076
:10505A00202020200021002D012E012F01300131B6
:10506A000132013301340135013601370138013982
:10507A00013A013B013C013D013E013F0140011F54
:10508A00001E0021002100C900CA00CB00CC00CDBF
:10509A0000CE00CF00D000D100D200D300D400D57A
:1050AA0000D600D700D800D900DA00DB00DC000EF9
:1050BA00000F001000110012001300140015001652
:1050CA00001700180019001B001A0021000A000D21
:1050DA00000C000B00210003000400050006000775
:1050EA0000080009002100000001000200670068B2
:0850FA000069006B006A000070
:00000001FF
